{
  "contractName": "Marketplace",
  "abi": [
    {
      "inputs": [],
      "stateMutability": "nonpayable",
      "type": "constructor"
    },
    {
      "anonymous": false,
      "inputs": [
        {
          "indexed": false,
          "internalType": "uint256",
          "name": "id",
          "type": "uint256"
        },
        {
          "indexed": true,
          "internalType": "address",
          "name": "NftAddress",
          "type": "address"
        },
        {
          "indexed": true,
          "internalType": "address",
          "name": "seller",
          "type": "address"
        },
        {
          "indexed": false,
          "internalType": "uint256",
          "name": "tokenId",
          "type": "uint256"
        },
        {
          "indexed": false,
          "internalType": "uint256",
          "name": "price",
          "type": "uint256"
        },
        {
          "indexed": false,
          "internalType": "string",
          "name": "metadata",
          "type": "string"
        },
        {
          "indexed": false,
          "internalType": "uint256",
          "name": "creatorFee",
          "type": "uint256"
        }
      ],
      "name": "Add",
      "type": "event"
    },
    {
      "anonymous": false,
      "inputs": [
        {
          "indexed": false,
          "internalType": "uint256",
          "name": "id",
          "type": "uint256"
        },
        {
          "indexed": true,
          "internalType": "address",
          "name": "NftAddress",
          "type": "address"
        },
        {
          "indexed": true,
          "internalType": "address",
          "name": "seller",
          "type": "address"
        },
        {
          "indexed": false,
          "internalType": "uint256",
          "name": "tokenId",
          "type": "uint256"
        }
      ],
      "name": "AuctionCancelled",
      "type": "event"
    },
    {
      "anonymous": false,
      "inputs": [
        {
          "indexed": false,
          "internalType": "uint256",
          "name": "id",
          "type": "uint256"
        },
        {
          "indexed": true,
          "internalType": "address",
          "name": "NftAddress",
          "type": "address"
        },
        {
          "indexed": true,
          "internalType": "address",
          "name": "seller",
          "type": "address"
        },
        {
          "indexed": false,
          "internalType": "uint256",
          "name": "tokenId",
          "type": "uint256"
        },
        {
          "indexed": false,
          "internalType": "uint256",
          "name": "openingPrice",
          "type": "uint256"
        },
        {
          "indexed": false,
          "internalType": "uint256",
          "name": "auctionEndTime",
          "type": "uint256"
        }
      ],
      "name": "AuctionCreated",
      "type": "event"
    },
    {
      "anonymous": false,
      "inputs": [
        {
          "indexed": false,
          "internalType": "uint256",
          "name": "id",
          "type": "uint256"
        },
        {
          "indexed": true,
          "internalType": "address",
          "name": "NftAddress",
          "type": "address"
        },
        {
          "indexed": true,
          "internalType": "address",
          "name": "seller",
          "type": "address"
        },
        {
          "indexed": true,
          "internalType": "address",
          "name": "winner",
          "type": "address"
        },
        {
          "indexed": false,
          "internalType": "uint256",
          "name": "tokenId",
          "type": "uint256"
        },
        {
          "indexed": false,
          "internalType": "uint256",
          "name": "winningBid",
          "type": "uint256"
        }
      ],
      "name": "AuctionEnded",
      "type": "event"
    },
    {
      "anonymous": false,
      "inputs": [
        {
          "indexed": false,
          "internalType": "uint256",
          "name": "id",
          "type": "uint256"
        },
        {
          "indexed": true,
          "internalType": "address",
          "name": "NftAddress",
          "type": "address"
        },
        {
          "indexed": true,
          "internalType": "address",
          "name": "bidder",
          "type": "address"
        },
        {
          "indexed": false,
          "internalType": "uint256",
          "name": "tokenId",
          "type": "uint256"
        },
        {
          "indexed": false,
          "internalType": "uint256",
          "name": "bidAmount",
          "type": "uint256"
        }
      ],
      "name": "BidderChanged",
      "type": "event"
    },
    {
      "anonymous": false,
      "inputs": [
        {
          "indexed": false,
          "internalType": "uint256",
          "name": "id",
          "type": "uint256"
        },
        {
          "indexed": true,
          "internalType": "address",
          "name": "NftAddress",
          "type": "address"
        },
        {
          "indexed": true,
          "internalType": "address",
          "name": "seller",
          "type": "address"
        },
        {
          "indexed": true,
          "internalType": "address",
          "name": "buyer",
          "type": "address"
        },
        {
          "indexed": false,
          "internalType": "uint256",
          "name": "tokenId",
          "type": "uint256"
        },
        {
          "indexed": false,
          "internalType": "uint256",
          "name": "price",
          "type": "uint256"
        }
      ],
      "name": "Buy",
      "type": "event"
    },
    {
      "anonymous": false,
      "inputs": [
        {
          "indexed": true,
          "internalType": "address",
          "name": "previousOwner",
          "type": "address"
        },
        {
          "indexed": true,
          "internalType": "address",
          "name": "newOwner",
          "type": "address"
        }
      ],
      "name": "OwnershipTransferred",
      "type": "event"
    },
    {
      "inputs": [
        {
          "internalType": "uint256",
          "name": "",
          "type": "uint256"
        }
      ],
      "name": "TokenOnSale",
      "outputs": [
        {
          "internalType": "uint256",
          "name": "id",
          "type": "uint256"
        },
        {
          "internalType": "address payable",
          "name": "seller",
          "type": "address"
        },
        {
          "internalType": "address",
          "name": "NFTaddress",
          "type": "address"
        },
        {
          "internalType": "uint256",
          "name": "tokenId",
          "type": "uint256"
        },
        {
          "internalType": "uint256",
          "name": "price",
          "type": "uint256"
        },
        {
          "internalType": "string",
          "name": "metadata",
          "type": "string"
        },
        {
          "internalType": "bool",
          "name": "sold",
          "type": "bool"
        },
        {
          "internalType": "uint256",
          "name": "creatorFee",
          "type": "uint256"
        },
        {
          "internalType": "uint256",
          "name": "openingPrice",
          "type": "uint256"
        },
        {
          "internalType": "uint256",
          "name": "auctionEndTime",
          "type": "uint256"
        },
        {
          "internalType": "address payable",
          "name": "highestBidder",
          "type": "address"
        },
        {
          "internalType": "uint256",
          "name": "highestBid",
          "type": "uint256"
        }
      ],
      "stateMutability": "view",
      "type": "function",
      "constant": true
    },
    {
      "inputs": [
        {
          "internalType": "address",
          "name": "",
          "type": "address"
        }
      ],
      "name": "lowestPriceByCollection",
      "outputs": [
        {
          "internalType": "uint256",
          "name": "",
          "type": "uint256"
        }
      ],
      "stateMutability": "view",
      "type": "function",
      "constant": true
    },
    {
      "inputs": [],
      "name": "marketAddress",
      "outputs": [
        {
          "internalType": "address payable",
          "name": "",
          "type": "address"
        }
      ],
      "stateMutability": "view",
      "type": "function",
      "constant": true
    },
    {
      "inputs": [],
      "name": "owner",
      "outputs": [
        {
          "internalType": "address",
          "name": "",
          "type": "address"
        }
      ],
      "stateMutability": "view",
      "type": "function",
      "constant": true
    },
    {
      "inputs": [],
      "name": "renounceOwnership",
      "outputs": [],
      "stateMutability": "nonpayable",
      "type": "function"
    },
    {
      "inputs": [
        {
          "internalType": "address",
          "name": "",
          "type": "address"
        }
      ],
      "name": "totalSalesByCollection",
      "outputs": [
        {
          "internalType": "uint256",
          "name": "",
          "type": "uint256"
        }
      ],
      "stateMutability": "view",
      "type": "function",
      "constant": true
    },
    {
      "inputs": [
        {
          "internalType": "address",
          "name": "newOwner",
          "type": "address"
        }
      ],
      "name": "transferOwnership",
      "outputs": [],
      "stateMutability": "nonpayable",
      "type": "function"
    },
    {
      "inputs": [],
      "name": "getLatestId",
      "outputs": [
        {
          "internalType": "uint256",
          "name": "",
          "type": "uint256"
        }
      ],
      "stateMutability": "view",
      "type": "function",
      "constant": true
    },
    {
      "inputs": [
        {
          "internalType": "address",
          "name": "_NFTaddress",
          "type": "address"
        },
        {
          "internalType": "uint256",
          "name": "_tokenId",
          "type": "uint256"
        },
        {
          "internalType": "uint256",
          "name": "_price",
          "type": "uint256"
        },
        {
          "internalType": "string",
          "name": "_metadata",
          "type": "string"
        },
        {
          "internalType": "uint256",
          "name": "_creatorFee",
          "type": "uint256"
        }
      ],
      "name": "addNftToMarket",
      "outputs": [],
      "stateMutability": "nonpayable",
      "type": "function"
    },
    {
      "inputs": [
        {
          "internalType": "uint256[]",
          "name": "_ids",
          "type": "uint256[]"
        }
      ],
      "name": "buyNfts",
      "outputs": [],
      "stateMutability": "payable",
      "type": "function",
      "payable": true
    },
    {
      "inputs": [
        {
          "internalType": "uint256",
          "name": "_id",
          "type": "uint256"
        }
      ],
      "name": "buyNft",
      "outputs": [],
      "stateMutability": "payable",
      "type": "function",
      "payable": true
    },
    {
      "inputs": [
        {
          "internalType": "uint256",
          "name": "_id",
          "type": "uint256"
        },
        {
          "internalType": "uint256",
          "name": "_price",
          "type": "uint256"
        }
      ],
      "name": "reAddNftToMarket",
      "outputs": [],
      "stateMutability": "nonpayable",
      "type": "function"
    },
    {
      "inputs": [
        {
          "internalType": "uint256",
          "name": "_id",
          "type": "uint256"
        },
        {
          "internalType": "uint256",
          "name": "_openingPrice",
          "type": "uint256"
        },
        {
          "internalType": "uint256",
          "name": "_duration",
          "type": "uint256"
        }
      ],
      "name": "startAuction",
      "outputs": [],
      "stateMutability": "nonpayable",
      "type": "function"
    },
    {
      "inputs": [
        {
          "internalType": "uint256",
          "name": "_id",
          "type": "uint256"
        }
      ],
      "name": "bidInAuction",
      "outputs": [],
      "stateMutability": "payable",
      "type": "function",
      "payable": true
    },
    {
      "inputs": [
        {
          "internalType": "uint256",
          "name": "_id",
          "type": "uint256"
        }
      ],
      "name": "endAuction",
      "outputs": [],
      "stateMutability": "nonpayable",
      "type": "function"
    },
    {
      "inputs": [
        {
          "internalType": "uint256",
          "name": "_id",
          "type": "uint256"
        }
      ],
      "name": "cancelAuction",
      "outputs": [],
      "stateMutability": "nonpayable",
      "type": "function"
    },
    {
      "inputs": [
        {
          "internalType": "address",
          "name": "_NFTaddress",
          "type": "address"
        }
      ],
      "name": "getAllTokensInCollection",
      "outputs": [
        {
          "components": [
            {
              "internalType": "uint256",
              "name": "id",
              "type": "uint256"
            },
            {
              "internalType": "address payable",
              "name": "seller",
              "type": "address"
            },
            {
              "internalType": "address",
              "name": "NFTaddress",
              "type": "address"
            },
            {
              "internalType": "uint256",
              "name": "tokenId",
              "type": "uint256"
            },
            {
              "internalType": "uint256",
              "name": "price",
              "type": "uint256"
            },
            {
              "internalType": "string",
              "name": "metadata",
              "type": "string"
            },
            {
              "internalType": "bool",
              "name": "sold",
              "type": "bool"
            },
            {
              "internalType": "uint256",
              "name": "creatorFee",
              "type": "uint256"
            },
            {
              "internalType": "uint256",
              "name": "openingPrice",
              "type": "uint256"
            },
            {
              "internalType": "uint256",
              "name": "auctionEndTime",
              "type": "uint256"
            },
            {
              "internalType": "address payable",
              "name": "highestBidder",
              "type": "address"
            },
            {
              "internalType": "uint256",
              "name": "highestBid",
              "type": "uint256"
            }
          ],
          "internalType": "struct Marketplace.TokenInfo[]",
          "name": "",
          "type": "tuple[]"
        }
      ],
      "stateMutability": "view",
      "type": "function",
      "constant": true
    },
    {
      "inputs": [
        {
          "internalType": "address payable",
          "name": "_address",
          "type": "address"
        }
      ],
      "name": "getUserTokens",
      "outputs": [
        {
          "components": [
            {
              "internalType": "uint256",
              "name": "id",
              "type": "uint256"
            },
            {
              "internalType": "address payable",
              "name": "seller",
              "type": "address"
            },
            {
              "internalType": "address",
              "name": "NFTaddress",
              "type": "address"
            },
            {
              "internalType": "uint256",
              "name": "tokenId",
              "type": "uint256"
            },
            {
              "internalType": "uint256",
              "name": "price",
              "type": "uint256"
            },
            {
              "internalType": "string",
              "name": "metadata",
              "type": "string"
            },
            {
              "internalType": "bool",
              "name": "sold",
              "type": "bool"
            },
            {
              "internalType": "uint256",
              "name": "creatorFee",
              "type": "uint256"
            },
            {
              "internalType": "uint256",
              "name": "openingPrice",
              "type": "uint256"
            },
            {
              "internalType": "uint256",
              "name": "auctionEndTime",
              "type": "uint256"
            },
            {
              "internalType": "address payable",
              "name": "highestBidder",
              "type": "address"
            },
            {
              "internalType": "uint256",
              "name": "highestBid",
              "type": "uint256"
            }
          ],
          "internalType": "struct Marketplace.TokenInfo[]",
          "name": "",
          "type": "tuple[]"
        }
      ],
      "stateMutability": "view",
      "type": "function",
      "constant": true
    },
    {
      "inputs": [
        {
          "internalType": "address[]",
          "name": "_targets",
          "type": "address[]"
        },
        {
          "internalType": "address",
          "name": "_NFTaddress",
          "type": "address"
        }
      ],
      "name": "setAirdrop",
      "outputs": [],
      "stateMutability": "payable",
      "type": "function",
      "payable": true
    }
  ],
  "bytecode": "0x60806040523480156200001157600080fd5b5062000032620000266200007960201b60201c565b6200008160201b60201c565b33600260006101000a81548173ffffffffffffffffffffffffffffffffffffffff021916908373ffffffffffffffffffffffffffffffffffffffff16021790555062000145565b600033905090565b60008060009054906101000a900473ffffffffffffffffffffffffffffffffffffffff169050816000806101000a81548173ffffffffffffffffffffffffffffffffffffffff021916908373ffffffffffffffffffffffffffffffffffffffff1602179055508173ffffffffffffffffffffffffffffffffffffffff168173ffffffffffffffffffffffffffffffffffffffff167f8be0079c531659141344cd1fd0a4f28419497f9722a3daafe3b4186f6b6457e060405160405180910390a35050565b61470380620001556000396000f3fe6080604052600436106101145760003560e01c80638da5cb5b116100a0578063b2b088f611610064578063b2b088f614610365578063b9a2de3a146103ad578063eb5af731146103d6578063eff91c7e146103ff578063f2fde38b1461042a57610114565b80638da5cb5b14610280578063918f2e52146102ab57806391e078bb146102e8578063956236411461031157806396b5a7551461033c57610114565b80635d596402116100e75780635d596402146101cb5780636012de1a146101e7578063715018a61461021057806377b02fe0146102275780638b3c9f1b1461026457610114565b806321c4d76e14610119578063243adbdd146101565780632975bfd414610172578063519dc8d21461018e575b600080fd5b34801561012557600080fd5b50610140600480360381019061013b9190612d9b565b610453565b60405161014d9190612de1565b60405180910390f35b610170600480360381019061016b9190612e28565b61046b565b005b61018c60048036038101906101879190612e28565b610a0f565b005b34801561019a57600080fd5b506101b560048036038101906101b09190612e93565b610ca8565b6040516101c2919061315e565b60405180910390f35b6101e560048036038101906101e091906131e5565b611087565b005b3480156101f357600080fd5b5061020e60048036038101906102099190613362565b611112565b005b34801561021c57600080fd5b5061022561156e565b005b34801561023357600080fd5b5061024e60048036038101906102499190612d9b565b611582565b60405161025b9190612de1565b60405180910390f35b61027e6004803603810190610279919061344f565b61159a565b005b34801561028c57600080fd5b5061029561185c565b6040516102a291906134be565b60405180910390f35b3480156102b757600080fd5b506102d260048036038101906102cd9190612d9b565b611885565b6040516102df919061315e565b60405180910390f35b3480156102f457600080fd5b5061030f600480360381019061030a91906134d9565b611c64565b005b34801561031d57600080fd5b50610326611ec3565b604051610333919061353b565b60405180910390f35b34801561034857600080fd5b50610363600480360381019061035e9190612e28565b611ee9565b005b34801561037157600080fd5b5061038c60048036038101906103879190612e28565b61229f565b6040516103a49c9b9a999897969594939291906135af565b60405180910390f35b3480156103b957600080fd5b506103d460048036038101906103cf9190612e28565b6123f4565b005b3480156103e257600080fd5b506103fd60048036038101906103f89190613670565b6127d7565b005b34801561040b57600080fd5b50610414612a82565b6040516104219190612de1565b60405180910390f35b34801561043657600080fd5b50610451600480360381019061044c9190612d9b565b612a93565b005b60056020528060005260406000206000915090505481565b600060036000838152602001908152602001600020905080600401543410156104c9576040517f08c379a00000000000000000000000000000000000000000000000000000000081526004016104c0906136fc565b60405180910390fd5b8060060160009054906101000a900460ff161561051b576040517f08c379a000000000000000000000000000000000000000000000000000000000815260040161051290613768565b60405180910390fd5b8060010160009054906101000a900473ffffffffffffffffffffffffffffffffffffffff1673ffffffffffffffffffffffffffffffffffffffff163373ffffffffffffffffffffffffffffffffffffffff16036105ad576040517f08c379a00000000000000000000000000000000000000000000000000000000081526004016105a4906137d4565b60405180910390fd5b60008160080154146105f4576040517f08c379a00000000000000000000000000000000000000000000000000000000081526004016105eb90613866565b60405180910390fd5b60006064826004015461060791906138e4565b905060008082846004015461061c9190613915565b9050600260009054906101000a900473ffffffffffffffffffffffffffffffffffffffff1673ffffffffffffffffffffffffffffffffffffffff166108fc849081150290604051600060405180830381858888f19350505050158015610686573d6000803e3d6000fd5b5060008460020160009054906101000a900473ffffffffffffffffffffffffffffffffffffffff1673ffffffffffffffffffffffffffffffffffffffff16630ee2cb106040518163ffffffff1660e01b8152600401602060405180830381865afa1580156106f8573d6000803e3d6000fd5b505050506040513d601f19601f8201168201806040525081019061071c919061395e565b90508073ffffffffffffffffffffffffffffffffffffffff168560010160009054906101000a900473ffffffffffffffffffffffffffffffffffffffff1673ffffffffffffffffffffffffffffffffffffffff16146107ee576103e88560070154866004015461078c919061398b565b61079691906138e4565b925082826107a49190613915565b91508073ffffffffffffffffffffffffffffffffffffffff166108fc849081150290604051600060405180830381858888f193505050501580156107ec573d6000803e3d6000fd5b505b8460010160009054906101000a900473ffffffffffffffffffffffffffffffffffffffff1673ffffffffffffffffffffffffffffffffffffffff166108fc839081150290604051600060405180830381858888f19350505050158015610858573d6000803e3d6000fd5b508460040154600560008760020160009054906101000a900473ffffffffffffffffffffffffffffffffffffffff1673ffffffffffffffffffffffffffffffffffffffff1673ffffffffffffffffffffffffffffffffffffffff16815260200190815260200160002060008282546108d091906139cd565b9250508190555060018560060160006101000a81548160ff021916908315150217905550338560010160006101000a81548173ffffffffffffffffffffffffffffffffffffffff021916908373ffffffffffffffffffffffffffffffffffffffff1602179055503373ffffffffffffffffffffffffffffffffffffffff168560010160009054906101000a900473ffffffffffffffffffffffffffffffffffffffff1673ffffffffffffffffffffffffffffffffffffffff168660020160009054906101000a900473ffffffffffffffffffffffffffffffffffffffff1673ffffffffffffffffffffffffffffffffffffffff167f75707d5d3d11632aafe99e9e60317891909f271b10026e79014651df900c32a08989600301548a600401546040516109ff93929190613a01565b60405180910390a4505050505050565b60006003600083815260200190815260200160002090508060060160009054906101000a900460ff1615610a78576040517f08c379a0000000000000000000000000000000000000000000000000000000008152600401610a6f90613768565b60405180910390fd5b6000816008015411610abf576040517f08c379a0000000000000000000000000000000000000000000000000000000008152600401610ab690613a84565b60405180910390fd5b80600901544210610b05576040517f08c379a0000000000000000000000000000000000000000000000000000000008152600401610afc90613af0565b60405180910390fd5b80600b01543411610b4b576040517f08c379a0000000000000000000000000000000000000000000000000000000008152600401610b4290613b5c565b60405180910390fd5b600081600b015414610bc75780600a0160009054906101000a900473ffffffffffffffffffffffffffffffffffffffff1673ffffffffffffffffffffffffffffffffffffffff166108fc82600b01549081150290604051600060405180830381858888f19350505050158015610bc5573d6000803e3d6000fd5b505b3381600a0160006101000a81548173ffffffffffffffffffffffffffffffffffffffff021916908373ffffffffffffffffffffffffffffffffffffffff1602179055503481600b01819055503373ffffffffffffffffffffffffffffffffffffffff168160020160009054906101000a900473ffffffffffffffffffffffffffffffffffffffff1673ffffffffffffffffffffffffffffffffffffffff167f0efc41f9ac6b1327ea0a4ce681dbef148dc7ef1663380fb4681a5d3a8ef2977784846003015434604051610c9c93929190613a01565b60405180910390a35050565b6060600080600190505b610cbc6001612b16565b8111610d4d578373ffffffffffffffffffffffffffffffffffffffff166003600083815260200190815260200160002060010160009054906101000a900473ffffffffffffffffffffffffffffffffffffffff1673ffffffffffffffffffffffffffffffffffffffff1603610d3a578180610d3690613b7c565b9250505b8080610d4590613b7c565b915050610cb2565b5060008167ffffffffffffffff811115610d6a57610d69613237565b5b604051908082528060200260200182016040528015610da357816020015b610d90612c84565b815260200190600190039081610d885790505b509050600080600190505b610db86001612b16565b811161107b578573ffffffffffffffffffffffffffffffffffffffff166003600083815260200190815260200160002060010160009054906101000a900473ffffffffffffffffffffffffffffffffffffffff1673ffffffffffffffffffffffffffffffffffffffff1603611068576003600082815260200190815260200160002060405180610180016040529081600082015481526020016001820160009054906101000a900473ffffffffffffffffffffffffffffffffffffffff1673ffffffffffffffffffffffffffffffffffffffff1673ffffffffffffffffffffffffffffffffffffffff1681526020016002820160009054906101000a900473ffffffffffffffffffffffffffffffffffffffff1673ffffffffffffffffffffffffffffffffffffffff1673ffffffffffffffffffffffffffffffffffffffff1681526020016003820154815260200160048201548152602001600582018054610f2090613bf3565b80601f0160208091040260200160405190810160405280929190818152602001828054610f4c90613bf3565b8015610f995780601f10610f6e57610100808354040283529160200191610f99565b820191906000526020600020905b815481529060010190602001808311610f7c57829003601f168201915b505050505081526020016006820160009054906101000a900460ff16151515158152602001600782015481526020016008820154815260200160098201548152602001600a820160009054906101000a900473ffffffffffffffffffffffffffffffffffffffff1673ffffffffffffffffffffffffffffffffffffffff1673ffffffffffffffffffffffffffffffffffffffff168152602001600b8201548152505083838151811061104e5761104d613c24565b5b6020026020010181905250818061106490613b7c565b9250505b808061107390613b7c565b915050610dae565b50819350505050919050565b600034116110ca576040517f08c379a00000000000000000000000000000000000000000000000000000000081526004016110c190613c9f565b60405180910390fd5b60005b8282905081101561110d576110fa8383838181106110ee576110ed613c24565b5b9050602002013561046b565b808061110590613b7c565b9150506110cd565b505050565b3373ffffffffffffffffffffffffffffffffffffffff168573ffffffffffffffffffffffffffffffffffffffff16636352211e866040518263ffffffff1660e01b81526004016111629190612de1565b602060405180830381865afa15801561117f573d6000803e3d6000fd5b505050506040513d601f19601f820116820180604052508101906111a39190613cd4565b73ffffffffffffffffffffffffffffffffffffffff16146111f9576040517f08c379a00000000000000000000000000000000000000000000000000000000081526004016111f090613d73565b60405180910390fd5b6112036001612b24565b6040518061018001604052806112196001612b16565b81526020013373ffffffffffffffffffffffffffffffffffffffff1681526020018673ffffffffffffffffffffffffffffffffffffffff1681526020018581526020018481526020018381526020016000151581526020018281526020016000815260200160008152602001600073ffffffffffffffffffffffffffffffffffffffff1681526020016000815250600360006112b56001612b16565b81526020019081526020016000206000820151816000015560208201518160010160006101000a81548173ffffffffffffffffffffffffffffffffffffffff021916908373ffffffffffffffffffffffffffffffffffffffff16021790555060408201518160020160006101000a81548173ffffffffffffffffffffffffffffffffffffffff021916908373ffffffffffffffffffffffffffffffffffffffff160217905550606082015181600301556080820151816004015560a08201518160050190816113849190613f3f565b5060c08201518160060160006101000a81548160ff02191690831515021790555060e082015181600701556101008201518160080155610120820151816009015561014082015181600a0160006101000a81548173ffffffffffffffffffffffffffffffffffffffff021916908373ffffffffffffffffffffffffffffffffffffffff16021790555061016082015181600b0155905050600460008673ffffffffffffffffffffffffffffffffffffffff1673ffffffffffffffffffffffffffffffffffffffff168152602001908152602001600020548310806114a757506000600460008773ffffffffffffffffffffffffffffffffffffffff1673ffffffffffffffffffffffffffffffffffffffff16815260200190815260200160002054145b156114f15782600460008773ffffffffffffffffffffffffffffffffffffffff1673ffffffffffffffffffffffffffffffffffffffff168152602001908152602001600020819055505b3373ffffffffffffffffffffffffffffffffffffffff168573ffffffffffffffffffffffffffffffffffffffff167fcf4e2b398f8f130dfa20ec831a8ad0f918b3c680e9dbad3b2230ad0192f52b1661154a6001612b16565b8787878760405161155f959493929190614011565b60405180910390a35050505050565b611576612b3a565b6115806000612bb8565b565b60046020528060005260406000206000915090505481565b60008173ffffffffffffffffffffffffffffffffffffffff16630ee2cb106040518163ffffffff1660e01b8152600401602060405180830381865afa1580156115e7573d6000803e3d6000fd5b505050506040513d601f19601f8201168201806040525081019061160b919061395e565b90508073ffffffffffffffffffffffffffffffffffffffff163373ffffffffffffffffffffffffffffffffffffffff161461167b576040517f08c379a0000000000000000000000000000000000000000000000000000000008152600401611672906140dd565b60405180910390fd5b600084849050116116c1576040517f08c379a00000000000000000000000000000000000000000000000000000000081526004016116b890614149565b60405180910390fd5b60006116cc83611885565b905060008151905060005b8181101561185357868690508110801561170d57508281815181106116ff576116fe613c24565b5b602002602001015160c00151155b801561176257508373ffffffffffffffffffffffffffffffffffffffff1683828151811061173e5761173d613c24565b5b60200260200101516020015173ffffffffffffffffffffffffffffffffffffffff16145b1561183b57600083828151811061177c5761177b613c24565b5b602002602001015160600151905087878381811061179d5761179c613c24565b5b90506020020160208101906117b29190612d9b565b6003600083815260200190815260200160002060010160006101000a81548173ffffffffffffffffffffffffffffffffffffffff021916908373ffffffffffffffffffffffffffffffffffffffff16021790555060016003600083815260200190815260200160002060060160006101000a81548160ff02191690831515021790555050611840565b611853565b808061184b90613b7c565b9150506116d7565b50505050505050565b60008060009054906101000a900473ffffffffffffffffffffffffffffffffffffffff16905090565b6060600080600190505b6118996001612b16565b811161192a578373ffffffffffffffffffffffffffffffffffffffff166003600083815260200190815260200160002060020160009054906101000a900473ffffffffffffffffffffffffffffffffffffffff1673ffffffffffffffffffffffffffffffffffffffff160361191757818061191390613b7c565b9250505b808061192290613b7c565b91505061188f565b5060008167ffffffffffffffff81111561194757611946613237565b5b60405190808252806020026020018201604052801561198057816020015b61196d612c84565b8152602001906001900390816119655790505b509050600080600190505b6119956001612b16565b8111611c58578573ffffffffffffffffffffffffffffffffffffffff166003600083815260200190815260200160002060020160009054906101000a900473ffffffffffffffffffffffffffffffffffffffff1673ffffffffffffffffffffffffffffffffffffffff1603611c45576003600082815260200190815260200160002060405180610180016040529081600082015481526020016001820160009054906101000a900473ffffffffffffffffffffffffffffffffffffffff1673ffffffffffffffffffffffffffffffffffffffff1673ffffffffffffffffffffffffffffffffffffffff1681526020016002820160009054906101000a900473ffffffffffffffffffffffffffffffffffffffff1673ffffffffffffffffffffffffffffffffffffffff1673ffffffffffffffffffffffffffffffffffffffff1681526020016003820154815260200160048201548152602001600582018054611afd90613bf3565b80601f0160208091040260200160405190810160405280929190818152602001828054611b2990613bf3565b8015611b765780601f10611b4b57610100808354040283529160200191611b76565b820191906000526020600020905b815481529060010190602001808311611b5957829003601f168201915b505050505081526020016006820160009054906101000a900460ff16151515158152602001600782015481526020016008820154815260200160098201548152602001600a820160009054906101000a900473ffffffffffffffffffffffffffffffffffffffff1673ffffffffffffffffffffffffffffffffffffffff1673ffffffffffffffffffffffffffffffffffffffff168152602001600b82015481525050838381518110611c2b57611c2a613c24565b5b60200260200101819052508180611c4190613b7c565b9250505b8080611c5090613b7c565b91505061198b565b50819350505050919050565b60006003600085815260200190815260200160002090508060060160009054906101000a900460ff1615611ccd576040517f08c379a0000000000000000000000000000000000000000000000000000000008152600401611cc490613768565b60405180910390fd5b8060010160009054906101000a900473ffffffffffffffffffffffffffffffffffffffff1673ffffffffffffffffffffffffffffffffffffffff163373ffffffffffffffffffffffffffffffffffffffff1614611d5f576040517f08c379a0000000000000000000000000000000000000000000000000000000008152600401611d5690613d73565b60405180910390fd5b60008311611da2576040517f08c379a0000000000000000000000000000000000000000000000000000000008152600401611d99906141b5565b60405180910390fd5b60008211611de5576040517f08c379a0000000000000000000000000000000000000000000000000000000008152600401611ddc90614221565b60405180910390fd5b8281600801819055508142611dfa91906139cd565b81600901819055508060010160009054906101000a900473ffffffffffffffffffffffffffffffffffffffff1673ffffffffffffffffffffffffffffffffffffffff168160020160009054906101000a900473ffffffffffffffffffffffffffffffffffffffff1673ffffffffffffffffffffffffffffffffffffffff167f06b9e486c68303eb64052e0493f906f3d93a1b7149b6b8dcff221aebd16c3513868460030154878660090154604051611eb59493929190614241565b60405180910390a350505050565b600260009054906101000a900473ffffffffffffffffffffffffffffffffffffffff1681565b60006003600083815260200190815260200160002090506000816000015403611f47576040517f08c379a0000000000000000000000000000000000000000000000000000000008152600401611f3e906142d2565b60405180910390fd5b6000816008015411611f8e576040517f08c379a0000000000000000000000000000000000000000000000000000000008152600401611f8590613a84565b60405180910390fd5b8060060160009054906101000a900460ff1615611fe0576040517f08c379a0000000000000000000000000000000000000000000000000000000008152600401611fd79061433e565b60405180910390fd5b8060010160009054906101000a900473ffffffffffffffffffffffffffffffffffffffff1673ffffffffffffffffffffffffffffffffffffffff163373ffffffffffffffffffffffffffffffffffffffff1614612072576040517f08c379a0000000000000000000000000000000000000000000000000000000008152600401612069906143aa565b60405180910390fd5b600081600b01541415801561208b575042816009015410155b806120a95750600081600b01541480156120a85750428160090154105b5b806120c75750600081600b01541480156120c65750428160090154115b5b612106576040517f08c379a00000000000000000000000000000000000000000000000000000000081526004016120fd9061443c565b60405180910390fd5b600081600b0154146121825780600a0160009054906101000a900473ffffffffffffffffffffffffffffffffffffffff1673ffffffffffffffffffffffffffffffffffffffff166108fc82600b01549081150290604051600060405180830381858888f19350505050158015612180573d6000803e3d6000fd5b505b6000816008018190555060008160090181905550600081600a0160006101000a81548173ffffffffffffffffffffffffffffffffffffffff021916908373ffffffffffffffffffffffffffffffffffffffff160217905550600081600b01819055508060010160009054906101000a900473ffffffffffffffffffffffffffffffffffffffff1673ffffffffffffffffffffffffffffffffffffffff168160020160009054906101000a900473ffffffffffffffffffffffffffffffffffffffff1673ffffffffffffffffffffffffffffffffffffffff167f2fd0fd288a849022c51c1ab9e887d7a4f89ac1126432be270b0ba773382ad6618360000154846003015460405161229392919061445c565b60405180910390a35050565b60036020528060005260406000206000915090508060000154908060010160009054906101000a900473ffffffffffffffffffffffffffffffffffffffff16908060020160009054906101000a900473ffffffffffffffffffffffffffffffffffffffff169080600301549080600401549080600501805461232090613bf3565b80601f016020809104026020016040519081016040528092919081815260200182805461234c90613bf3565b80156123995780601f1061236e57610100808354040283529160200191612399565b820191906000526020600020905b81548152906001019060200180831161237c57829003601f168201915b5050505050908060060160009054906101000a900460ff169080600701549080600801549080600901549080600a0160009054906101000a900473ffffffffffffffffffffffffffffffffffffffff169080600b015490508c565b60006003600083815260200190815260200160002090508060060160009054906101000a900460ff161561245d576040517f08c379a000000000000000000000000000000000000000000000000000000000815260040161245490613768565b60405180910390fd5b60008160080154116124a4576040517f08c379a000000000000000000000000000000000000000000000000000000000815260040161249b90613a84565b60405180910390fd5b80600901544210156124eb576040517f08c379a00000000000000000000000000000000000000000000000000000000081526004016124e2906144d1565b60405180910390fd5b8060010160009054906101000a900473ffffffffffffffffffffffffffffffffffffffff1673ffffffffffffffffffffffffffffffffffffffff163373ffffffffffffffffffffffffffffffffffffffff161461257d576040517f08c379a0000000000000000000000000000000000000000000000000000000008152600401612574906143aa565b60405180910390fd5b8060010160009054906101000a900473ffffffffffffffffffffffffffffffffffffffff1673ffffffffffffffffffffffffffffffffffffffff166108fc82600b01549081150290604051600060405180830381858888f193505050501580156125eb573d6000803e3d6000fd5b5060018160060160006101000a81548160ff02191690831515021790555080600a0160009054906101000a900473ffffffffffffffffffffffffffffffffffffffff168160010160006101000a81548173ffffffffffffffffffffffffffffffffffffffff021916908373ffffffffffffffffffffffffffffffffffffffff16021790555080600b015481600401819055506000816008018190555060008160090181905550600081600a0160006101000a81548173ffffffffffffffffffffffffffffffffffffffff021916908373ffffffffffffffffffffffffffffffffffffffff160217905550600081600b018190555080600a0160009054906101000a900473ffffffffffffffffffffffffffffffffffffffff1673ffffffffffffffffffffffffffffffffffffffff168160010160009054906101000a900473ffffffffffffffffffffffffffffffffffffffff1673ffffffffffffffffffffffffffffffffffffffff168260020160009054906101000a900473ffffffffffffffffffffffffffffffffffffffff1673ffffffffffffffffffffffffffffffffffffffff167f6c47fd8bd138d7325768cd34fb84465cf68b7d556baca7bdadea071c5c9a1b0985856003015486600b01546040516127cb93929190613a01565b60405180910390a45050565b60006003600084815260200190815260200160002090508060010160009054906101000a900473ffffffffffffffffffffffffffffffffffffffff1673ffffffffffffffffffffffffffffffffffffffff163373ffffffffffffffffffffffffffffffffffffffff1614612880576040517f08c379a000000000000000000000000000000000000000000000000000000000815260040161287790613d73565b60405180910390fd5b81816004018190555060008160060160006101000a81548160ff021916908315150217905550338160010160006101000a81548173ffffffffffffffffffffffffffffffffffffffff021916908373ffffffffffffffffffffffffffffffffffffffff160217905550600460008260020160009054906101000a900473ffffffffffffffffffffffffffffffffffffffff1673ffffffffffffffffffffffffffffffffffffffff1673ffffffffffffffffffffffffffffffffffffffff168152602001908152602001600020548210156129bd5781600460008360020160009054906101000a900473ffffffffffffffffffffffffffffffffffffffff1673ffffffffffffffffffffffffffffffffffffffff1673ffffffffffffffffffffffffffffffffffffffff168152602001908152602001600020819055505b8060010160009054906101000a900473ffffffffffffffffffffffffffffffffffffffff1673ffffffffffffffffffffffffffffffffffffffff168160020160009054906101000a900473ffffffffffffffffffffffffffffffffffffffff1673ffffffffffffffffffffffffffffffffffffffff167fcf4e2b398f8f130dfa20ec831a8ad0f918b3c680e9dbad3b2230ad0192f52b1685846003015486866005018760070154604051612a75959493929190614575565b60405180910390a3505050565b6000612a8e6001612b16565b905090565b612a9b612b3a565b600073ffffffffffffffffffffffffffffffffffffffff168173ffffffffffffffffffffffffffffffffffffffff1603612b0a576040517f08c379a0000000000000000000000000000000000000000000000000000000008152600401612b0190614641565b60405180910390fd5b612b1381612bb8565b50565b600081600001549050919050565b6001816000016000828254019250508190555050565b612b42612c7c565b73ffffffffffffffffffffffffffffffffffffffff16612b6061185c565b73ffffffffffffffffffffffffffffffffffffffff1614612bb6576040517f08c379a0000000000000000000000000000000000000000000000000000000008152600401612bad906146ad565b60405180910390fd5b565b60008060009054906101000a900473ffffffffffffffffffffffffffffffffffffffff169050816000806101000a81548173ffffffffffffffffffffffffffffffffffffffff021916908373ffffffffffffffffffffffffffffffffffffffff1602179055508173ffffffffffffffffffffffffffffffffffffffff168173ffffffffffffffffffffffffffffffffffffffff167f8be0079c531659141344cd1fd0a4f28419497f9722a3daafe3b4186f6b6457e060405160405180910390a35050565b600033905090565b60405180610180016040528060008152602001600073ffffffffffffffffffffffffffffffffffffffff168152602001600073ffffffffffffffffffffffffffffffffffffffff168152602001600081526020016000815260200160608152602001600015158152602001600081526020016000815260200160008152602001600073ffffffffffffffffffffffffffffffffffffffff168152602001600081525090565b6000604051905090565b600080fd5b600080fd5b600073ffffffffffffffffffffffffffffffffffffffff82169050919050565b6000612d6882612d3d565b9050919050565b612d7881612d5d565b8114612d8357600080fd5b50565b600081359050612d9581612d6f565b92915050565b600060208284031215612db157612db0612d33565b5b6000612dbf84828501612d86565b91505092915050565b6000819050919050565b612ddb81612dc8565b82525050565b6000602082019050612df66000830184612dd2565b92915050565b612e0581612dc8565b8114612e1057600080fd5b50565b600081359050612e2281612dfc565b92915050565b600060208284031215612e3e57612e3d612d33565b5b6000612e4c84828501612e13565b91505092915050565b6000612e6082612d3d565b9050919050565b612e7081612e55565b8114612e7b57600080fd5b50565b600081359050612e8d81612e67565b92915050565b600060208284031215612ea957612ea8612d33565b5b6000612eb784828501612e7e565b91505092915050565b600081519050919050565b600082825260208201905092915050565b6000819050602082019050919050565b612ef581612dc8565b82525050565b612f0481612e55565b82525050565b612f1381612d5d565b82525050565b600081519050919050565b600082825260208201905092915050565b60005b83811015612f53578082015181840152602081019050612f38565b60008484015250505050565b6000601f19601f8301169050919050565b6000612f7b82612f19565b612f858185612f24565b9350612f95818560208601612f35565b612f9e81612f5f565b840191505092915050565b60008115159050919050565b612fbe81612fa9565b82525050565b600061018083016000830151612fdd6000860182612eec565b506020830151612ff06020860182612efb565b5060408301516130036040860182612f0a565b5060608301516130166060860182612eec565b5060808301516130296080860182612eec565b5060a083015184820360a08601526130418282612f70565b91505060c083015161305660c0860182612fb5565b5060e083015161306960e0860182612eec565b5061010083015161307e610100860182612eec565b50610120830151613093610120860182612eec565b506101408301516130a8610140860182612efb565b506101608301516130bd610160860182612eec565b508091505092915050565b60006130d48383612fc4565b905092915050565b6000602082019050919050565b60006130f482612ec0565b6130fe8185612ecb565b93508360208202850161311085612edc565b8060005b8581101561314c578484038952815161312d85826130c8565b9450613138836130dc565b925060208a01995050600181019050613114565b50829750879550505050505092915050565b6000602082019050818103600083015261317881846130e9565b905092915050565b600080fd5b600080fd5b600080fd5b60008083601f8401126131a5576131a4613180565b5b8235905067ffffffffffffffff8111156131c2576131c1613185565b5b6020830191508360208202830111156131de576131dd61318a565b5b9250929050565b600080602083850312156131fc576131fb612d33565b5b600083013567ffffffffffffffff81111561321a57613219612d38565b5b6132268582860161318f565b92509250509250929050565b600080fd5b7f4e487b7100000000000000000000000000000000000000000000000000000000600052604160045260246000fd5b61326f82612f5f565b810181811067ffffffffffffffff8211171561328e5761328d613237565b5b80604052505050565b60006132a1612d29565b90506132ad8282613266565b919050565b600067ffffffffffffffff8211156132cd576132cc613237565b5b6132d682612f5f565b9050602081019050919050565b82818337600083830152505050565b6000613305613300846132b2565b613297565b90508281526020810184848401111561332157613320613232565b5b61332c8482856132e3565b509392505050565b600082601f83011261334957613348613180565b5b81356133598482602086016132f2565b91505092915050565b600080600080600060a0868803121561337e5761337d612d33565b5b600061338c88828901612d86565b955050602061339d88828901612e13565b94505060406133ae88828901612e13565b935050606086013567ffffffffffffffff8111156133cf576133ce612d38565b5b6133db88828901613334565b92505060806133ec88828901612e13565b9150509295509295909350565b60008083601f84011261340f5761340e613180565b5b8235905067ffffffffffffffff81111561342c5761342b613185565b5b6020830191508360208202830111156134485761344761318a565b5b9250929050565b60008060006040848603121561346857613467612d33565b5b600084013567ffffffffffffffff81111561348657613485612d38565b5b613492868287016133f9565b935093505060206134a586828701612d86565b9150509250925092565b6134b881612d5d565b82525050565b60006020820190506134d360008301846134af565b92915050565b6000806000606084860312156134f2576134f1612d33565b5b600061350086828701612e13565b935050602061351186828701612e13565b925050604061352286828701612e13565b9150509250925092565b61353581612e55565b82525050565b6000602082019050613550600083018461352c565b92915050565b600082825260208201905092915050565b600061357282612f19565b61357c8185613556565b935061358c818560208601612f35565b61359581612f5f565b840191505092915050565b6135a981612fa9565b82525050565b6000610180820190506135c5600083018f612dd2565b6135d2602083018e61352c565b6135df604083018d6134af565b6135ec606083018c612dd2565b6135f9608083018b612dd2565b81810360a083015261360b818a613567565b905061361a60c08301896135a0565b61362760e0830188612dd2565b613635610100830187612dd2565b613643610120830186612dd2565b61365161014083018561352c565b61365f610160830184612dd2565b9d9c50505050505050505050505050565b6000806040838503121561368757613686612d33565b5b600061369585828601612e13565b92505060206136a685828601612e13565b9150509250929050565b7f4e6f7420656e6f75676820455448000000000000000000000000000000000000600082015250565b60006136e6600e83613556565b91506136f1826136b0565b602082019050919050565b60006020820190508181036000830152613715816136d9565b9050919050565b7f416c726561647920736f6c64206f757400000000000000000000000000000000600082015250565b6000613752601083613556565b915061375d8261371c565b602082019050919050565b6000602082019050818103600083015261378181613745565b9050919050565b7f596f752063616e27742062757920796f7572206f776e204e4654000000000000600082015250565b60006137be601a83613556565b91506137c982613788565b602082019050919050565b600060208201905081810360008301526137ed816137b1565b9050919050565b7f447572696e67207468652061756374696f6e2c20796f752063616e277420627560008201527f792074686973204e465400000000000000000000000000000000000000000000602082015250565b6000613850602a83613556565b915061385b826137f4565b604082019050919050565b6000602082019050818103600083015261387f81613843565b9050919050565b7f4e487b7100000000000000000000000000000000000000000000000000000000600052601260045260246000fd5b7f4e487b7100000000000000000000000000000000000000000000000000000000600052601160045260246000fd5b60006138ef82612dc8565b91506138fa83612dc8565b92508261390a57613909613886565b5b828204905092915050565b600061392082612dc8565b915061392b83612dc8565b9250828203905081811115613943576139426138b5565b5b92915050565b60008151905061395881612e67565b92915050565b60006020828403121561397457613973612d33565b5b600061398284828501613949565b91505092915050565b600061399682612dc8565b91506139a183612dc8565b92508282026139af81612dc8565b915082820484148315176139c6576139c56138b5565b5b5092915050565b60006139d882612dc8565b91506139e383612dc8565b92508282019050808211156139fb576139fa6138b5565b5b92915050565b6000606082019050613a166000830186612dd2565b613a236020830185612dd2565b613a306040830184612dd2565b949350505050565b7f41756374696f6e206e6f74207374617274656400000000000000000000000000600082015250565b6000613a6e601383613556565b9150613a7982613a38565b602082019050919050565b60006020820190508181036000830152613a9d81613a61565b9050919050565b7f41756374696f6e20697320656e64656400000000000000000000000000000000600082015250565b6000613ada601083613556565b9150613ae582613aa4565b602082019050919050565b60006020820190508181036000830152613b0981613acd565b9050919050565b7f42696420616d6f756e7420697320746f6f206c6f770000000000000000000000600082015250565b6000613b46601583613556565b9150613b5182613b10565b602082019050919050565b60006020820190508181036000830152613b7581613b39565b9050919050565b6000613b8782612dc8565b91507fffffffffffffffffffffffffffffffffffffffffffffffffffffffffffffffff8203613bb957613bb86138b5565b5b600182019050919050565b7f4e487b7100000000000000000000000000000000000000000000000000000000600052602260045260246000fd5b60006002820490506001821680613c0b57607f821691505b602082108103613c1e57613c1d613bc4565b5b50919050565b7f4e487b7100000000000000000000000000000000000000000000000000000000600052603260045260246000fd5b7f4e6f204554482073656e74000000000000000000000000000000000000000000600082015250565b6000613c89600b83613556565b9150613c9482613c53565b602082019050919050565b60006020820190508181036000830152613cb881613c7c565b9050919050565b600081519050613cce81612d6f565b92915050565b600060208284031215613cea57613ce9612d33565b5b6000613cf884828501613cbf565b91505092915050565b7f596f7520617265206e6f7420746865206f776e6572206f662074686973204e4660008201527f5400000000000000000000000000000000000000000000000000000000000000602082015250565b6000613d5d602183613556565b9150613d6882613d01565b604082019050919050565b60006020820190508181036000830152613d8c81613d50565b9050919050565b60008190508160005260206000209050919050565b60006020601f8301049050919050565b600082821b905092915050565b600060088302613df57fffffffffffffffffffffffffffffffffffffffffffffffffffffffffffffffff82613db8565b613dff8683613db8565b95508019841693508086168417925050509392505050565b6000819050919050565b6000613e3c613e37613e3284612dc8565b613e17565b612dc8565b9050919050565b6000819050919050565b613e5683613e21565b613e6a613e6282613e43565b848454613dc5565b825550505050565b600090565b613e7f613e72565b613e8a818484613e4d565b505050565b5b81811015613eae57613ea3600082613e77565b600181019050613e90565b5050565b601f821115613ef357613ec481613d93565b613ecd84613da8565b81016020851015613edc578190505b613ef0613ee885613da8565b830182613e8f565b50505b505050565b600082821c905092915050565b6000613f1660001984600802613ef8565b1980831691505092915050565b6000613f2f8383613f05565b9150826002028217905092915050565b613f4882612f19565b67ffffffffffffffff811115613f6157613f60613237565b5b613f6b8254613bf3565b613f76828285613eb2565b600060209050601f831160018114613fa95760008415613f97578287015190505b613fa18582613f23565b865550614009565b601f198416613fb786613d93565b60005b82811015613fdf57848901518255600182019150602085019450602081019050613fba565b86831015613ffc5784890151613ff8601f891682613f05565b8355505b6001600288020188555050505b505050505050565b600060a0820190506140266000830188612dd2565b6140336020830187612dd2565b6140406040830186612dd2565b81810360608301526140528185613567565b90506140616080830184612dd2565b9695505050505050565b7f596f7520617265206e6f74207468652043726561746f72206f6620746869732060008201527f436f6c6c656374696f6e00000000000000000000000000000000000000000000602082015250565b60006140c7602a83613556565b91506140d28261406b565b604082019050919050565b600060208201905081810360008301526140f6816140ba565b9050919050565b7f4e6f207461726765747300000000000000000000000000000000000000000000600082015250565b6000614133600a83613556565b915061413e826140fd565b602082019050919050565b6000602082019050818103600083015261416281614126565b9050919050565b7f496e76616c6964206f70656e696e672070726963650000000000000000000000600082015250565b600061419f601583613556565b91506141aa82614169565b602082019050919050565b600060208201905081810360008301526141ce81614192565b9050919050565b7f496e76616c69642061756374696f6e206475726174696f6e0000000000000000600082015250565b600061420b601883613556565b9150614216826141d5565b602082019050919050565b6000602082019050818103600083015261423a816141fe565b9050919050565b60006080820190506142566000830187612dd2565b6142636020830186612dd2565b6142706040830185612dd2565b61427d6060830184612dd2565b95945050505050565b7f546f6b656e206e6f7420666f756e640000000000000000000000000000000000600082015250565b60006142bc600f83613556565b91506142c782614286565b602082019050919050565b600060208201905081810360008301526142eb816142af565b9050919050565b7f546f6b656e20697320616c726561647920736f6c640000000000000000000000600082015250565b6000614328601583613556565b9150614333826142f2565b602082019050919050565b600060208201905081810360008301526143578161431b565b9050919050565b7f596f7520617265206e6f74207468652073656c6c657200000000000000000000600082015250565b6000614394601683613556565b915061439f8261435e565b602082019050919050565b600060208201905081810360008301526143c381614387565b9050919050565b7f496e207468697320636f6e646974696f6e2c204f776e65722063616e2774206360008201527f616e63656c2041756374696f6e00000000000000000000000000000000000000602082015250565b6000614426602d83613556565b9150614431826143ca565b604082019050919050565b6000602082019050818103600083015261445581614419565b9050919050565b60006040820190506144716000830185612dd2565b61447e6020830184612dd2565b9392505050565b7f41756374696f6e20686173206e6f7420656e6465642079657400000000000000600082015250565b60006144bb601983613556565b91506144c682614485565b602082019050919050565b600060208201905081810360008301526144ea816144ae565b9050919050565b600081546144fe81613bf3565b6145088186613556565b9450600182166000811461452357600181146145395761456c565b60ff19831686528115156020028601935061456c565b61454285613d93565b60005b8381101561456457815481890152600182019150602081019050614545565b808801955050505b50505092915050565b600060a08201905061458a6000830188612dd2565b6145976020830187612dd2565b6145a46040830186612dd2565b81810360608301526145b681856144f1565b90506145c56080830184612dd2565b9695505050505050565b7f4f776e61626c653a206e6577206f776e657220697320746865207a65726f206160008201527f6464726573730000000000000000000000000000000000000000000000000000602082015250565b600061462b602683613556565b9150614636826145cf565b604082019050919050565b6000602082019050818103600083015261465a8161461e565b9050919050565b7f4f776e61626c653a2063616c6c6572206973206e6f7420746865206f776e6572600082015250565b6000614697602083613556565b91506146a282614661565b602082019050919050565b600060208201905081810360008301526146c68161468a565b905091905056fea26469706673582212206fe34e2297f799c41f4896a346c71db16a70db231388f93724af6a9f501cc2c064736f6c63430008120033",
  "immutableReferences": {},
  "source": "// SPDX-License-Identifier: MIT\npragma solidity ^0.8.1;\n\nimport \"../node_modules/@openzeppelin/contracts/token/ERC721/ERC721.sol\";\nimport \"../node_modules/@openzeppelin/contracts/token/ERC721/IERC721.sol\";\nimport \"../node_modules/@openzeppelin/contracts/access/Ownable.sol\";\nimport \"../node_modules/@openzeppelin/contracts/utils/Counters.sol\";\nimport \"./RTToken.sol\";\n\n\ncontract Marketplace is Ownable {\n    using Counters for Counters.Counter;\n    Counters.Counter private _Ids;\n    address payable public marketAddress;\n\n    struct TokenInfo {\n        uint256 id;\n        address payable seller;\n        address NFTaddress;\n        uint256 tokenId;\n        uint256 price;\n        string metadata;\n        bool sold;\n        uint256 creatorFee;\n        uint256 openingPrice; // \n        uint256 auctionEndTime; //   \n        address payable highestBidder; //   \n        uint256 highestBid; //  \n    }\n\n    mapping(uint256 => TokenInfo) public TokenOnSale;\n    mapping(address => uint256) public lowestPriceByCollection;\n    mapping(address => uint256) public totalSalesByCollection;\n\n    event Add(uint256 id, address indexed NftAddress, address indexed seller, uint256 tokenId, uint256 price, string metadata, uint256 creatorFee);\n    event Buy(uint256 id, address indexed NftAddress, address indexed seller, address indexed buyer, uint256 tokenId, uint256 price);\n    event AuctionCreated(uint256 id, address indexed NftAddress, address indexed seller, uint256 tokenId, uint256 openingPrice, uint256 auctionEndTime);\n    event BidderChanged(uint256 id, address indexed NftAddress, address indexed bidder, uint256 tokenId, uint256 bidAmount);\n    event AuctionEnded(uint256 id, address indexed NftAddress, address indexed seller, address indexed winner, uint256 tokenId, uint256 winningBid);\n    event AuctionCancelled(uint256 id, address indexed NftAddress, address indexed seller, uint256 tokenId);\n\n    constructor() {\n        marketAddress = payable(msg.sender);\n    }\n\n    function getLatestId() public view returns (uint256) {\n        return _Ids.current();\n    }\n\n    function addNftToMarket(address _NFTaddress, uint256 _tokenId, uint256 _price, string memory _metadata, uint256 _creatorFee) external {\n        require(ERC721(_NFTaddress).ownerOf(_tokenId) == msg.sender, \"You are not the owner of this NFT\");\n\n        _Ids.increment();\n        TokenOnSale[_Ids.current()] = TokenInfo(_Ids.current(), payable(msg.sender), _NFTaddress, _tokenId, _price, _metadata, false, _creatorFee, 0, 0, payable(address(0)), 0);\n        if (_price < lowestPriceByCollection[_NFTaddress] || lowestPriceByCollection[_NFTaddress] == 0) {\n            lowestPriceByCollection[_NFTaddress] = _price;\n        }\n\n        emit Add(_Ids.current(), _NFTaddress, msg.sender, _tokenId, _price, _metadata, _creatorFee);\n    }\n\n\n    function buyNfts(uint256[] calldata _ids) external payable {\n        require(msg.value > 0, \"No ETH sent\");\n\n        for (uint256 i = 0; i < _ids.length; i++) {\n            buyNft(_ids[i]);\n        }\n    }\n\n    function buyNft(uint256 _id) public payable {\n        TokenInfo storage token = TokenOnSale[_id];\n        require(msg.value >= token.price, \"Not enough ETH\");\n        require(!token.sold, \"Already sold out\");\n        require(msg.sender != token.seller, \"You can't buy your own NFT\");\n        require(token.openingPrice == 0, \"During the auction, you can't buy this NFT\");\n\n        uint256 marketFee = token.price / 100;\n        uint256 creatorRoyalty = 0;\n        uint256 sellerAmount = token.price - marketFee;\n\n        marketAddress.transfer(marketFee);\n\n        address payable creator = RTToken(token.NFTaddress).getCreator();\n        if (token.seller != creator) {\n            creatorRoyalty = token.price * token.creatorFee / 1000;\n            sellerAmount -= creatorRoyalty;\n            creator.transfer(creatorRoyalty);\n        }\n        token.seller.transfer(sellerAmount);\n\n        totalSalesByCollection[token.NFTaddress] += token.price;\n        token.sold = true;\n        token.seller = payable(msg.sender);\n\n        emit Buy(_id, token.NFTaddress, token.seller, msg.sender, token.tokenId, token.price);\n    }\n\n    function reAddNftToMarket(uint256 _id, uint256 _price) external {\n        TokenInfo storage token = TokenOnSale[_id];\n        require(msg.sender == token.seller, \"You are not the owner of this NFT\");\n\n        token.price = _price;\n        token.sold = false;\n        token.seller = payable(msg.sender);\n\n        if (_price < lowestPriceByCollection[token.NFTaddress]) {\n            lowestPriceByCollection[token.NFTaddress] = _price;\n        }\n\n        emit Add(_id, token.NFTaddress, token.seller, token.tokenId, _price, token.metadata, token.creatorFee);\n    }\n\n    function startAuction(uint256 _id, uint256 _openingPrice, uint256 _duration) external {\n        TokenInfo storage token = TokenOnSale[_id];\n        require(!token.sold, \"Already sold out\");\n        require(msg.sender == token.seller, \"You are not the owner of this NFT\");\n        require(_openingPrice > 0, \"Invalid opening price\");\n        require(_duration > 0, \"Invalid auction duration\");\n\n        token.openingPrice = _openingPrice;\n        token.auctionEndTime = block.timestamp + _duration;\n\n        emit AuctionCreated(_id, token.NFTaddress, token.seller, token.tokenId, _openingPrice, token.auctionEndTime);\n    }\n\n    function bidInAuction(uint256 _id) external payable {\n        TokenInfo storage token = TokenOnSale[_id];\n        require(!token.sold, \"Already sold out\");\n        require(token.openingPrice > 0, \"Auction not started\");\n        require(block.timestamp < token.auctionEndTime, \"Auction is ended\");\n        require(msg.value > token.highestBid, \"Bid amount is too low\");\n\n        if (token.highestBid != 0) {\n            token.highestBidder.transfer(token.highestBid); //      \n        }\n\n        token.highestBidder = payable(msg.sender);\n        token.highestBid = msg.value;\n\n        emit BidderChanged(_id, token.NFTaddress, msg.sender, token.tokenId, msg.value);\n    }\n\n    function endAuction(uint256 _id) public {\n        TokenInfo storage token = TokenOnSale[_id];\n\n        require(!token.sold, \"Already sold out\");\n        require(token.openingPrice > 0, \"Auction not started\");\n        require(block.timestamp >= token.auctionEndTime, \"Auction has not ended yet\");\n        require(msg.sender == token.seller, \"You are not the seller\");\n\n        //      NFT    \n        token.seller.transfer(token.highestBid);\n        token.sold = true;\n        token.seller = payable(token.highestBidder);\n        token.price = token.highestBid;\n\n        //    \n        token.openingPrice = 0;\n        token.auctionEndTime = 0;\n        token.highestBidder = payable(address(0));\n        token.highestBid = 0;\n\n        emit AuctionEnded(_id, token.NFTaddress, token.seller, token.highestBidder, token.tokenId, token.highestBid);\n    }\n\n    // function timer() external {\n    //     for (uint256 i = 1; i <= _Ids.current(); i++) {\n    //         TokenInfo storage token = TokenOnSale[i];\n    //         if (!token.sold && token.openingPrice > 0 && block.timestamp >= token.auctionEndTime && token.highestBidder != address(0)) {\n    //             require(msg.sender == token.highestBidder, \"Only last highest bidder can end the auction\");\n    //             endAuction(i);\n    //         }\n    //     }\n    // }\n\n    function cancelAuction(uint256 _id) external {\n        TokenInfo storage token = TokenOnSale[_id];\n        require(token.id != 0, \"Token not found\");\n        require(token.openingPrice > 0, \"Auction not started\");\n        require(!token.sold, \"Token is already sold\");\n        require(msg.sender == token.seller, \"You are not the seller\");\n        require((token.highestBid != 0 && token.auctionEndTime >= block.timestamp) \n            || (token.highestBid == 0 && token.auctionEndTime < block.timestamp) \n            || (token.highestBid == 0 && token.auctionEndTime > block.timestamp)\n        , \"In this condition, Owner can't cancel Auction\");\n\n\n\n        if (token.highestBid != 0) {\n            token.highestBidder.transfer(token.highestBid);\n        }\n\n        token.openingPrice = 0;\n        token.auctionEndTime = 0;\n        token.highestBidder = payable(address(0));\n        token.highestBid = 0;\n\n        emit AuctionCancelled(token.id, token.NFTaddress, token.seller, token.tokenId);\n    }\n\n    function getAllTokensInCollection(address _NFTaddress) public view returns (TokenInfo[] memory) {\n        uint256 count = 0;\n        for (uint256 i = 1; i <= _Ids.current(); i++) {\n            if (TokenOnSale[i].NFTaddress == _NFTaddress) {\n                count++;\n            }\n        }\n        TokenInfo[] memory tokens = new TokenInfo[](count);\n\n        uint256 index = 0;\n        for (uint256 i = 1; i <= _Ids.current(); i++) {\n            if (TokenOnSale[i].NFTaddress == _NFTaddress) {\n                tokens[index] = TokenOnSale[i];\n                index++;\n            }\n        }\n\n        return tokens;\n    }\n\n\n    function getUserTokens(address payable _address) public view returns (TokenInfo[] memory) {\n        uint256 count = 0;\n        for (uint256 i = 1; i <= _Ids.current(); i++) {\n            if (TokenOnSale[i].seller == _address) {\n                count++;\n            }\n        }\n        TokenInfo[] memory tokens = new TokenInfo[](count);\n\n        uint256 index = 0;\n        for (uint256 i = 1; i <= _Ids.current(); i++) {\n            if (TokenOnSale[i].seller == _address) {\n                tokens[index] = TokenOnSale[i];\n                index++;\n            }\n        }\n\n        return tokens;\n    }\n\n\n    function setAirdrop(address[] calldata _targets, address _NFTaddress) external payable {\n        address payable creator = RTToken(_NFTaddress).getCreator();\n        require(msg.sender == creator, \"You are not the Creator of this Collection\");\n        require(_targets.length > 0, \"No targets\");\n\n        TokenInfo[] memory tokens = getAllTokensInCollection(_NFTaddress);\n        uint256 tokenCount = tokens.length;\n\n        for (uint256 i = 0; i < tokenCount; i++) {\n            if (i < _targets.length && !tokens[i].sold && tokens[i].seller == creator) {\n                uint256 tokenId = tokens[i].tokenId;\n                TokenOnSale[tokenId].seller = payable(_targets[i]);\n                TokenOnSale[tokenId].sold = true;\n            } else {\n                break; // targets    \n            }\n        }\n    }\n}",
  "sourcePath": "/Users/kimjh/Documents/workspace/ZDB/rooftop/nft/contracts/Marketplace.sol",
  "compiler": {
    "name": "solc",
    "version": "0.8.18+commit.87f61d96.Emscripten.clang"
  },
  "schemaVersion": "3.4.14",
  "updatedAt": "2023-07-07T07:27:09.803Z",
  "networkType": "ethereum",
  "devdoc": {
    "kind": "dev",
    "methods": {
      "owner()": {
        "details": "Returns the address of the current owner."
      },
      "renounceOwnership()": {
        "details": "Leaves the contract without owner. It will not be possible to call `onlyOwner` functions. Can only be called by the current owner. NOTE: Renouncing ownership will leave the contract without an owner, thereby disabling any functionality that is only available to the owner."
      },
      "transferOwnership(address)": {
        "details": "Transfers ownership of the contract to a new account (`newOwner`). Can only be called by the current owner."
      }
    },
    "version": 1
  },
  "userdoc": {
    "kind": "user",
    "methods": {},
    "version": 1
  }
}