{
  "contractName": "Marketplace",
  "abi": [
    {
      "inputs": [],
      "stateMutability": "nonpayable",
      "type": "constructor"
    },
    {
      "anonymous": false,
      "inputs": [
        {
          "indexed": false,
          "internalType": "uint256",
          "name": "id",
          "type": "uint256"
        },
        {
          "indexed": true,
          "internalType": "address",
          "name": "NftAddress",
          "type": "address"
        },
        {
          "indexed": true,
          "internalType": "address",
          "name": "seller",
          "type": "address"
        },
        {
          "indexed": false,
          "internalType": "uint256",
          "name": "tokenId",
          "type": "uint256"
        },
        {
          "indexed": false,
          "internalType": "uint256",
          "name": "price",
          "type": "uint256"
        },
        {
          "indexed": false,
          "internalType": "string",
          "name": "metadata",
          "type": "string"
        },
        {
          "indexed": false,
          "internalType": "uint256",
          "name": "creatorFee",
          "type": "uint256"
        }
      ],
      "name": "Add",
      "type": "event"
    },
    {
      "anonymous": false,
      "inputs": [
        {
          "indexed": false,
          "internalType": "uint256",
          "name": "id",
          "type": "uint256"
        },
        {
          "indexed": true,
          "internalType": "address",
          "name": "NftAddress",
          "type": "address"
        },
        {
          "indexed": true,
          "internalType": "address",
          "name": "seller",
          "type": "address"
        },
        {
          "indexed": false,
          "internalType": "uint256",
          "name": "tokenId",
          "type": "uint256"
        }
      ],
      "name": "AuctionCancelled",
      "type": "event"
    },
    {
      "anonymous": false,
      "inputs": [
        {
          "indexed": false,
          "internalType": "uint256",
          "name": "id",
          "type": "uint256"
        },
        {
          "indexed": true,
          "internalType": "address",
          "name": "NftAddress",
          "type": "address"
        },
        {
          "indexed": true,
          "internalType": "address",
          "name": "seller",
          "type": "address"
        },
        {
          "indexed": false,
          "internalType": "uint256",
          "name": "tokenId",
          "type": "uint256"
        },
        {
          "indexed": false,
          "internalType": "uint256",
          "name": "openingPrice",
          "type": "uint256"
        },
        {
          "indexed": false,
          "internalType": "uint256",
          "name": "auctionEndTime",
          "type": "uint256"
        }
      ],
      "name": "AuctionCreated",
      "type": "event"
    },
    {
      "anonymous": false,
      "inputs": [
        {
          "indexed": false,
          "internalType": "uint256",
          "name": "id",
          "type": "uint256"
        },
        {
          "indexed": true,
          "internalType": "address",
          "name": "NftAddress",
          "type": "address"
        },
        {
          "indexed": true,
          "internalType": "address",
          "name": "seller",
          "type": "address"
        },
        {
          "indexed": true,
          "internalType": "address",
          "name": "winner",
          "type": "address"
        },
        {
          "indexed": false,
          "internalType": "uint256",
          "name": "tokenId",
          "type": "uint256"
        },
        {
          "indexed": false,
          "internalType": "uint256",
          "name": "winningBid",
          "type": "uint256"
        }
      ],
      "name": "AuctionEnded",
      "type": "event"
    },
    {
      "anonymous": false,
      "inputs": [
        {
          "indexed": false,
          "internalType": "uint256",
          "name": "id",
          "type": "uint256"
        },
        {
          "indexed": true,
          "internalType": "address",
          "name": "NftAddress",
          "type": "address"
        },
        {
          "indexed": true,
          "internalType": "address",
          "name": "bidder",
          "type": "address"
        },
        {
          "indexed": false,
          "internalType": "uint256",
          "name": "tokenId",
          "type": "uint256"
        },
        {
          "indexed": false,
          "internalType": "uint256",
          "name": "bidAmount",
          "type": "uint256"
        }
      ],
      "name": "BidderChanged",
      "type": "event"
    },
    {
      "anonymous": false,
      "inputs": [
        {
          "indexed": false,
          "internalType": "uint256",
          "name": "id",
          "type": "uint256"
        },
        {
          "indexed": true,
          "internalType": "address",
          "name": "NftAddress",
          "type": "address"
        },
        {
          "indexed": true,
          "internalType": "address",
          "name": "seller",
          "type": "address"
        },
        {
          "indexed": true,
          "internalType": "address",
          "name": "buyer",
          "type": "address"
        },
        {
          "indexed": false,
          "internalType": "uint256",
          "name": "tokenId",
          "type": "uint256"
        },
        {
          "indexed": false,
          "internalType": "uint256",
          "name": "price",
          "type": "uint256"
        }
      ],
      "name": "Buy",
      "type": "event"
    },
    {
      "anonymous": false,
      "inputs": [
        {
          "indexed": true,
          "internalType": "address",
          "name": "previousOwner",
          "type": "address"
        },
        {
          "indexed": true,
          "internalType": "address",
          "name": "newOwner",
          "type": "address"
        }
      ],
      "name": "OwnershipTransferred",
      "type": "event"
    },
    {
      "inputs": [
        {
          "internalType": "uint256",
          "name": "",
          "type": "uint256"
        }
      ],
      "name": "TokenOnSale",
      "outputs": [
        {
          "internalType": "uint256",
          "name": "id",
          "type": "uint256"
        },
        {
          "internalType": "address payable",
          "name": "seller",
          "type": "address"
        },
        {
          "internalType": "address",
          "name": "NFTaddress",
          "type": "address"
        },
        {
          "internalType": "uint256",
          "name": "tokenId",
          "type": "uint256"
        },
        {
          "internalType": "uint256",
          "name": "price",
          "type": "uint256"
        },
        {
          "internalType": "string",
          "name": "metadata",
          "type": "string"
        },
        {
          "internalType": "bool",
          "name": "sold",
          "type": "bool"
        },
        {
          "internalType": "uint256",
          "name": "creatorFee",
          "type": "uint256"
        },
        {
          "internalType": "uint256",
          "name": "openingPrice",
          "type": "uint256"
        },
        {
          "internalType": "uint256",
          "name": "auctionEndTime",
          "type": "uint256"
        },
        {
          "internalType": "address payable",
          "name": "highestBidder",
          "type": "address"
        },
        {
          "internalType": "uint256",
          "name": "highestBid",
          "type": "uint256"
        }
      ],
      "stateMutability": "view",
      "type": "function",
      "constant": true
    },
    {
      "inputs": [
        {
          "internalType": "address",
          "name": "",
          "type": "address"
        }
      ],
      "name": "lowestPriceByCollection",
      "outputs": [
        {
          "internalType": "uint256",
          "name": "",
          "type": "uint256"
        }
      ],
      "stateMutability": "view",
      "type": "function",
      "constant": true
    },
    {
      "inputs": [],
      "name": "marketAddress",
      "outputs": [
        {
          "internalType": "address payable",
          "name": "",
          "type": "address"
        }
      ],
      "stateMutability": "view",
      "type": "function",
      "constant": true
    },
    {
      "inputs": [],
      "name": "owner",
      "outputs": [
        {
          "internalType": "address",
          "name": "",
          "type": "address"
        }
      ],
      "stateMutability": "view",
      "type": "function",
      "constant": true
    },
    {
      "inputs": [],
      "name": "renounceOwnership",
      "outputs": [],
      "stateMutability": "nonpayable",
      "type": "function"
    },
    {
      "inputs": [
        {
          "internalType": "address",
          "name": "",
          "type": "address"
        }
      ],
      "name": "totalSalesByCollection",
      "outputs": [
        {
          "internalType": "uint256",
          "name": "",
          "type": "uint256"
        }
      ],
      "stateMutability": "view",
      "type": "function",
      "constant": true
    },
    {
      "inputs": [
        {
          "internalType": "address",
          "name": "newOwner",
          "type": "address"
        }
      ],
      "name": "transferOwnership",
      "outputs": [],
      "stateMutability": "nonpayable",
      "type": "function"
    },
    {
      "inputs": [],
      "name": "getLatestId",
      "outputs": [
        {
          "internalType": "uint256",
          "name": "",
          "type": "uint256"
        }
      ],
      "stateMutability": "view",
      "type": "function",
      "constant": true
    },
    {
      "inputs": [
        {
          "internalType": "address",
          "name": "_NFTaddress",
          "type": "address"
        },
        {
          "internalType": "uint256",
          "name": "_tokenId",
          "type": "uint256"
        },
        {
          "internalType": "uint256",
          "name": "_price",
          "type": "uint256"
        },
        {
          "internalType": "string",
          "name": "_metadata",
          "type": "string"
        },
        {
          "internalType": "uint256",
          "name": "_creatorFee",
          "type": "uint256"
        }
      ],
      "name": "addNftToMarket",
      "outputs": [],
      "stateMutability": "nonpayable",
      "type": "function"
    },
    {
      "inputs": [
        {
          "internalType": "uint256[]",
          "name": "_ids",
          "type": "uint256[]"
        }
      ],
      "name": "buyNfts",
      "outputs": [],
      "stateMutability": "payable",
      "type": "function",
      "payable": true
    },
    {
      "inputs": [
        {
          "internalType": "uint256",
          "name": "_id",
          "type": "uint256"
        }
      ],
      "name": "buyNft",
      "outputs": [],
      "stateMutability": "payable",
      "type": "function",
      "payable": true
    },
    {
      "inputs": [
        {
          "internalType": "uint256",
          "name": "_id",
          "type": "uint256"
        },
        {
          "internalType": "uint256",
          "name": "_price",
          "type": "uint256"
        }
      ],
      "name": "reAddNftToMarket",
      "outputs": [],
      "stateMutability": "nonpayable",
      "type": "function"
    },
    {
      "inputs": [
        {
          "internalType": "uint256",
          "name": "_id",
          "type": "uint256"
        },
        {
          "internalType": "uint256",
          "name": "_openingPrice",
          "type": "uint256"
        },
        {
          "internalType": "uint256",
          "name": "_duration",
          "type": "uint256"
        }
      ],
      "name": "startAuction",
      "outputs": [],
      "stateMutability": "nonpayable",
      "type": "function"
    },
    {
      "inputs": [
        {
          "internalType": "uint256",
          "name": "_id",
          "type": "uint256"
        }
      ],
      "name": "bidInAuction",
      "outputs": [],
      "stateMutability": "payable",
      "type": "function",
      "payable": true
    },
    {
      "inputs": [
        {
          "internalType": "uint256",
          "name": "_id",
          "type": "uint256"
        }
      ],
      "name": "endAuction",
      "outputs": [],
      "stateMutability": "nonpayable",
      "type": "function"
    },
    {
      "inputs": [
        {
          "internalType": "uint256",
          "name": "_id",
          "type": "uint256"
        }
      ],
      "name": "cancelAuction",
      "outputs": [],
      "stateMutability": "nonpayable",
      "type": "function"
    },
    {
      "inputs": [
        {
          "internalType": "address",
          "name": "_NFTaddress",
          "type": "address"
        }
      ],
      "name": "getAllTokensInCollection",
      "outputs": [
        {
          "components": [
            {
              "internalType": "uint256",
              "name": "id",
              "type": "uint256"
            },
            {
              "internalType": "address payable",
              "name": "seller",
              "type": "address"
            },
            {
              "internalType": "address",
              "name": "NFTaddress",
              "type": "address"
            },
            {
              "internalType": "uint256",
              "name": "tokenId",
              "type": "uint256"
            },
            {
              "internalType": "uint256",
              "name": "price",
              "type": "uint256"
            },
            {
              "internalType": "string",
              "name": "metadata",
              "type": "string"
            },
            {
              "internalType": "bool",
              "name": "sold",
              "type": "bool"
            },
            {
              "internalType": "uint256",
              "name": "creatorFee",
              "type": "uint256"
            },
            {
              "internalType": "uint256",
              "name": "openingPrice",
              "type": "uint256"
            },
            {
              "internalType": "uint256",
              "name": "auctionEndTime",
              "type": "uint256"
            },
            {
              "internalType": "address payable",
              "name": "highestBidder",
              "type": "address"
            },
            {
              "internalType": "uint256",
              "name": "highestBid",
              "type": "uint256"
            }
          ],
          "internalType": "struct Marketplace.TokenInfo[]",
          "name": "",
          "type": "tuple[]"
        }
      ],
      "stateMutability": "view",
      "type": "function",
      "constant": true
    },
    {
      "inputs": [
        {
          "internalType": "address payable",
          "name": "_address",
          "type": "address"
        }
      ],
      "name": "getUserTokens",
      "outputs": [
        {
          "components": [
            {
              "internalType": "uint256",
              "name": "id",
              "type": "uint256"
            },
            {
              "internalType": "address payable",
              "name": "seller",
              "type": "address"
            },
            {
              "internalType": "address",
              "name": "NFTaddress",
              "type": "address"
            },
            {
              "internalType": "uint256",
              "name": "tokenId",
              "type": "uint256"
            },
            {
              "internalType": "uint256",
              "name": "price",
              "type": "uint256"
            },
            {
              "internalType": "string",
              "name": "metadata",
              "type": "string"
            },
            {
              "internalType": "bool",
              "name": "sold",
              "type": "bool"
            },
            {
              "internalType": "uint256",
              "name": "creatorFee",
              "type": "uint256"
            },
            {
              "internalType": "uint256",
              "name": "openingPrice",
              "type": "uint256"
            },
            {
              "internalType": "uint256",
              "name": "auctionEndTime",
              "type": "uint256"
            },
            {
              "internalType": "address payable",
              "name": "highestBidder",
              "type": "address"
            },
            {
              "internalType": "uint256",
              "name": "highestBid",
              "type": "uint256"
            }
          ],
          "internalType": "struct Marketplace.TokenInfo[]",
          "name": "",
          "type": "tuple[]"
        }
      ],
      "stateMutability": "view",
      "type": "function",
      "constant": true
    },
    {
      "inputs": [
        {
          "internalType": "address[]",
          "name": "_targets",
          "type": "address[]"
        },
        {
          "internalType": "address",
          "name": "_NFTaddress",
          "type": "address"
        }
      ],
      "name": "setAirdrop",
      "outputs": [],
      "stateMutability": "payable",
      "type": "function",
      "payable": true
    }
  ],
  "bytecode": "0x60806040523480156200001157600080fd5b5062000032620000266200007960201b60201c565b6200008160201b60201c565b33600260006101000a81548173ffffffffffffffffffffffffffffffffffffffff021916908373ffffffffffffffffffffffffffffffffffffffff16021790555062000145565b600033905090565b60008060009054906101000a900473ffffffffffffffffffffffffffffffffffffffff169050816000806101000a81548173ffffffffffffffffffffffffffffffffffffffff021916908373ffffffffffffffffffffffffffffffffffffffff1602179055508173ffffffffffffffffffffffffffffffffffffffff168173ffffffffffffffffffffffffffffffffffffffff167f8be0079c531659141344cd1fd0a4f28419497f9722a3daafe3b4186f6b6457e060405160405180910390a35050565b61486180620001556000396000f3fe6080604052600436106101145760003560e01c80638da5cb5b116100a0578063b2b088f611610064578063b2b088f614610365578063b9a2de3a146103ad578063eb5af731146103d6578063eff91c7e146103ff578063f2fde38b1461042a57610114565b80638da5cb5b14610280578063918f2e52146102ab57806391e078bb146102e8578063956236411461031157806396b5a7551461033c57610114565b80635d596402116100e75780635d596402146101cb5780636012de1a146101e7578063715018a61461021057806377b02fe0146102275780638b3c9f1b1461026457610114565b806321c4d76e14610119578063243adbdd146101565780632975bfd414610172578063519dc8d21461018e575b600080fd5b34801561012557600080fd5b50610140600480360381019061013b9190612e6d565b610453565b60405161014d9190612eb3565b60405180910390f35b610170600480360381019061016b9190612efa565b61046b565b005b61018c60048036038101906101879190612efa565b610a0f565b005b34801561019a57600080fd5b506101b560048036038101906101b09190612f65565b610ca8565b6040516101c29190613230565b60405180910390f35b6101e560048036038101906101e091906132b7565b611087565b005b3480156101f357600080fd5b5061020e60048036038101906102099190613434565b611112565b005b34801561021c57600080fd5b5061022561156e565b005b34801561023357600080fd5b5061024e60048036038101906102499190612e6d565b611582565b60405161025b9190612eb3565b60405180910390f35b61027e60048036038101906102799190613521565b61159a565b005b34801561028c57600080fd5b5061029561185c565b6040516102a29190613590565b60405180910390f35b3480156102b757600080fd5b506102d260048036038101906102cd9190612e6d565b611885565b6040516102df9190613230565b60405180910390f35b3480156102f457600080fd5b5061030f600480360381019061030a91906135ab565b611c64565b005b34801561031d57600080fd5b50610326611ec3565b604051610333919061360d565b60405180910390f35b34801561034857600080fd5b50610363600480360381019061035e9190612efa565b611ee9565b005b34801561037157600080fd5b5061038c60048036038101906103879190612efa565b61229f565b6040516103a49c9b9a99989796959493929190613681565b60405180910390f35b3480156103b957600080fd5b506103d460048036038101906103cf9190612efa565b6123f4565b005b3480156103e257600080fd5b506103fd60048036038101906103f89190613742565b6128a9565b005b34801561040b57600080fd5b50610414612b54565b6040516104219190612eb3565b60405180910390f35b34801561043657600080fd5b50610451600480360381019061044c9190612e6d565b612b65565b005b60056020528060005260406000206000915090505481565b600060036000838152602001908152602001600020905080600401543410156104c9576040517f08c379a00000000000000000000000000000000000000000000000000000000081526004016104c0906137ce565b60405180910390fd5b8060060160009054906101000a900460ff161561051b576040517f08c379a00000000000000000000000000000000000000000000000000000000081526004016105129061383a565b60405180910390fd5b8060010160009054906101000a900473ffffffffffffffffffffffffffffffffffffffff1673ffffffffffffffffffffffffffffffffffffffff163373ffffffffffffffffffffffffffffffffffffffff16036105ad576040517f08c379a00000000000000000000000000000000000000000000000000000000081526004016105a4906138a6565b60405180910390fd5b60008160080154146105f4576040517f08c379a00000000000000000000000000000000000000000000000000000000081526004016105eb90613938565b60405180910390fd5b60006064826004015461060791906139b6565b905060008082846004015461061c91906139e7565b9050600260009054906101000a900473ffffffffffffffffffffffffffffffffffffffff1673ffffffffffffffffffffffffffffffffffffffff166108fc849081150290604051600060405180830381858888f19350505050158015610686573d6000803e3d6000fd5b5060008460020160009054906101000a900473ffffffffffffffffffffffffffffffffffffffff1673ffffffffffffffffffffffffffffffffffffffff16630ee2cb106040518163ffffffff1660e01b8152600401602060405180830381865afa1580156106f8573d6000803e3d6000fd5b505050506040513d601f19601f8201168201806040525081019061071c9190613a30565b90508073ffffffffffffffffffffffffffffffffffffffff168560010160009054906101000a900473ffffffffffffffffffffffffffffffffffffffff1673ffffffffffffffffffffffffffffffffffffffff16146107ee576103e88560070154866004015461078c9190613a5d565b61079691906139b6565b925082826107a491906139e7565b91508073ffffffffffffffffffffffffffffffffffffffff166108fc849081150290604051600060405180830381858888f193505050501580156107ec573d6000803e3d6000fd5b505b8460010160009054906101000a900473ffffffffffffffffffffffffffffffffffffffff1673ffffffffffffffffffffffffffffffffffffffff166108fc839081150290604051600060405180830381858888f19350505050158015610858573d6000803e3d6000fd5b508460040154600560008760020160009054906101000a900473ffffffffffffffffffffffffffffffffffffffff1673ffffffffffffffffffffffffffffffffffffffff1673ffffffffffffffffffffffffffffffffffffffff16815260200190815260200160002060008282546108d09190613a9f565b9250508190555060018560060160006101000a81548160ff021916908315150217905550338560010160006101000a81548173ffffffffffffffffffffffffffffffffffffffff021916908373ffffffffffffffffffffffffffffffffffffffff1602179055503373ffffffffffffffffffffffffffffffffffffffff168560010160009054906101000a900473ffffffffffffffffffffffffffffffffffffffff1673ffffffffffffffffffffffffffffffffffffffff168660020160009054906101000a900473ffffffffffffffffffffffffffffffffffffffff1673ffffffffffffffffffffffffffffffffffffffff167f75707d5d3d11632aafe99e9e60317891909f271b10026e79014651df900c32a08989600301548a600401546040516109ff93929190613ad3565b60405180910390a4505050505050565b60006003600083815260200190815260200160002090508060060160009054906101000a900460ff1615610a78576040517f08c379a0000000000000000000000000000000000000000000000000000000008152600401610a6f9061383a565b60405180910390fd5b6000816008015411610abf576040517f08c379a0000000000000000000000000000000000000000000000000000000008152600401610ab690613b56565b60405180910390fd5b80600901544210610b05576040517f08c379a0000000000000000000000000000000000000000000000000000000008152600401610afc90613bc2565b60405180910390fd5b80600b01543411610b4b576040517f08c379a0000000000000000000000000000000000000000000000000000000008152600401610b4290613c2e565b60405180910390fd5b600081600b015414610bc75780600a0160009054906101000a900473ffffffffffffffffffffffffffffffffffffffff1673ffffffffffffffffffffffffffffffffffffffff166108fc82600b01549081150290604051600060405180830381858888f19350505050158015610bc5573d6000803e3d6000fd5b505b3381600a0160006101000a81548173ffffffffffffffffffffffffffffffffffffffff021916908373ffffffffffffffffffffffffffffffffffffffff1602179055503481600b01819055503373ffffffffffffffffffffffffffffffffffffffff168160020160009054906101000a900473ffffffffffffffffffffffffffffffffffffffff1673ffffffffffffffffffffffffffffffffffffffff167f0efc41f9ac6b1327ea0a4ce681dbef148dc7ef1663380fb4681a5d3a8ef2977784846003015434604051610c9c93929190613ad3565b60405180910390a35050565b6060600080600190505b610cbc6001612be8565b8111610d4d578373ffffffffffffffffffffffffffffffffffffffff166003600083815260200190815260200160002060010160009054906101000a900473ffffffffffffffffffffffffffffffffffffffff1673ffffffffffffffffffffffffffffffffffffffff1603610d3a578180610d3690613c4e565b9250505b8080610d4590613c4e565b915050610cb2565b5060008167ffffffffffffffff811115610d6a57610d69613309565b5b604051908082528060200260200182016040528015610da357816020015b610d90612d56565b815260200190600190039081610d885790505b509050600080600190505b610db86001612be8565b811161107b578573ffffffffffffffffffffffffffffffffffffffff166003600083815260200190815260200160002060010160009054906101000a900473ffffffffffffffffffffffffffffffffffffffff1673ffffffffffffffffffffffffffffffffffffffff1603611068576003600082815260200190815260200160002060405180610180016040529081600082015481526020016001820160009054906101000a900473ffffffffffffffffffffffffffffffffffffffff1673ffffffffffffffffffffffffffffffffffffffff1673ffffffffffffffffffffffffffffffffffffffff1681526020016002820160009054906101000a900473ffffffffffffffffffffffffffffffffffffffff1673ffffffffffffffffffffffffffffffffffffffff1673ffffffffffffffffffffffffffffffffffffffff1681526020016003820154815260200160048201548152602001600582018054610f2090613cc5565b80601f0160208091040260200160405190810160405280929190818152602001828054610f4c90613cc5565b8015610f995780601f10610f6e57610100808354040283529160200191610f99565b820191906000526020600020905b815481529060010190602001808311610f7c57829003601f168201915b505050505081526020016006820160009054906101000a900460ff16151515158152602001600782015481526020016008820154815260200160098201548152602001600a820160009054906101000a900473ffffffffffffffffffffffffffffffffffffffff1673ffffffffffffffffffffffffffffffffffffffff1673ffffffffffffffffffffffffffffffffffffffff168152602001600b8201548152505083838151811061104e5761104d613cf6565b5b6020026020010181905250818061106490613c4e565b9250505b808061107390613c4e565b915050610dae565b50819350505050919050565b600034116110ca576040517f08c379a00000000000000000000000000000000000000000000000000000000081526004016110c190613d71565b60405180910390fd5b60005b8282905081101561110d576110fa8383838181106110ee576110ed613cf6565b5b9050602002013561046b565b808061110590613c4e565b9150506110cd565b505050565b3373ffffffffffffffffffffffffffffffffffffffff168573ffffffffffffffffffffffffffffffffffffffff16636352211e866040518263ffffffff1660e01b81526004016111629190612eb3565b602060405180830381865afa15801561117f573d6000803e3d6000fd5b505050506040513d601f19601f820116820180604052508101906111a39190613da6565b73ffffffffffffffffffffffffffffffffffffffff16146111f9576040517f08c379a00000000000000000000000000000000000000000000000000000000081526004016111f090613e45565b60405180910390fd5b6112036001612bf6565b6040518061018001604052806112196001612be8565b81526020013373ffffffffffffffffffffffffffffffffffffffff1681526020018673ffffffffffffffffffffffffffffffffffffffff1681526020018581526020018481526020018381526020016000151581526020018281526020016000815260200160008152602001600073ffffffffffffffffffffffffffffffffffffffff1681526020016000815250600360006112b56001612be8565b81526020019081526020016000206000820151816000015560208201518160010160006101000a81548173ffffffffffffffffffffffffffffffffffffffff021916908373ffffffffffffffffffffffffffffffffffffffff16021790555060408201518160020160006101000a81548173ffffffffffffffffffffffffffffffffffffffff021916908373ffffffffffffffffffffffffffffffffffffffff160217905550606082015181600301556080820151816004015560a08201518160050190816113849190614011565b5060c08201518160060160006101000a81548160ff02191690831515021790555060e082015181600701556101008201518160080155610120820151816009015561014082015181600a0160006101000a81548173ffffffffffffffffffffffffffffffffffffffff021916908373ffffffffffffffffffffffffffffffffffffffff16021790555061016082015181600b0155905050600460008673ffffffffffffffffffffffffffffffffffffffff1673ffffffffffffffffffffffffffffffffffffffff168152602001908152602001600020548310806114a757506000600460008773ffffffffffffffffffffffffffffffffffffffff1673ffffffffffffffffffffffffffffffffffffffff16815260200190815260200160002054145b156114f15782600460008773ffffffffffffffffffffffffffffffffffffffff1673ffffffffffffffffffffffffffffffffffffffff168152602001908152602001600020819055505b3373ffffffffffffffffffffffffffffffffffffffff168573ffffffffffffffffffffffffffffffffffffffff167fcf4e2b398f8f130dfa20ec831a8ad0f918b3c680e9dbad3b2230ad0192f52b1661154a6001612be8565b8787878760405161155f9594939291906140e3565b60405180910390a35050505050565b611576612c0c565b6115806000612c8a565b565b60046020528060005260406000206000915090505481565b60008173ffffffffffffffffffffffffffffffffffffffff16630ee2cb106040518163ffffffff1660e01b8152600401602060405180830381865afa1580156115e7573d6000803e3d6000fd5b505050506040513d601f19601f8201168201806040525081019061160b9190613a30565b90508073ffffffffffffffffffffffffffffffffffffffff163373ffffffffffffffffffffffffffffffffffffffff161461167b576040517f08c379a0000000000000000000000000000000000000000000000000000000008152600401611672906141af565b60405180910390fd5b600084849050116116c1576040517f08c379a00000000000000000000000000000000000000000000000000000000081526004016116b89061421b565b60405180910390fd5b60006116cc83611885565b905060008151905060005b8181101561185357868690508110801561170d57508281815181106116ff576116fe613cf6565b5b602002602001015160c00151155b801561176257508373ffffffffffffffffffffffffffffffffffffffff1683828151811061173e5761173d613cf6565b5b60200260200101516020015173ffffffffffffffffffffffffffffffffffffffff16145b1561183b57600083828151811061177c5761177b613cf6565b5b602002602001015160600151905087878381811061179d5761179c613cf6565b5b90506020020160208101906117b29190612e6d565b6003600083815260200190815260200160002060010160006101000a81548173ffffffffffffffffffffffffffffffffffffffff021916908373ffffffffffffffffffffffffffffffffffffffff16021790555060016003600083815260200190815260200160002060060160006101000a81548160ff02191690831515021790555050611840565b611853565b808061184b90613c4e565b9150506116d7565b50505050505050565b60008060009054906101000a900473ffffffffffffffffffffffffffffffffffffffff16905090565b6060600080600190505b6118996001612be8565b811161192a578373ffffffffffffffffffffffffffffffffffffffff166003600083815260200190815260200160002060020160009054906101000a900473ffffffffffffffffffffffffffffffffffffffff1673ffffffffffffffffffffffffffffffffffffffff160361191757818061191390613c4e565b9250505b808061192290613c4e565b91505061188f565b5060008167ffffffffffffffff81111561194757611946613309565b5b60405190808252806020026020018201604052801561198057816020015b61196d612d56565b8152602001906001900390816119655790505b509050600080600190505b6119956001612be8565b8111611c58578573ffffffffffffffffffffffffffffffffffffffff166003600083815260200190815260200160002060020160009054906101000a900473ffffffffffffffffffffffffffffffffffffffff1673ffffffffffffffffffffffffffffffffffffffff1603611c45576003600082815260200190815260200160002060405180610180016040529081600082015481526020016001820160009054906101000a900473ffffffffffffffffffffffffffffffffffffffff1673ffffffffffffffffffffffffffffffffffffffff1673ffffffffffffffffffffffffffffffffffffffff1681526020016002820160009054906101000a900473ffffffffffffffffffffffffffffffffffffffff1673ffffffffffffffffffffffffffffffffffffffff1673ffffffffffffffffffffffffffffffffffffffff1681526020016003820154815260200160048201548152602001600582018054611afd90613cc5565b80601f0160208091040260200160405190810160405280929190818152602001828054611b2990613cc5565b8015611b765780601f10611b4b57610100808354040283529160200191611b76565b820191906000526020600020905b815481529060010190602001808311611b5957829003601f168201915b505050505081526020016006820160009054906101000a900460ff16151515158152602001600782015481526020016008820154815260200160098201548152602001600a820160009054906101000a900473ffffffffffffffffffffffffffffffffffffffff1673ffffffffffffffffffffffffffffffffffffffff1673ffffffffffffffffffffffffffffffffffffffff168152602001600b82015481525050838381518110611c2b57611c2a613cf6565b5b60200260200101819052508180611c4190613c4e565b9250505b8080611c5090613c4e565b91505061198b565b50819350505050919050565b60006003600085815260200190815260200160002090508060060160009054906101000a900460ff1615611ccd576040517f08c379a0000000000000000000000000000000000000000000000000000000008152600401611cc49061383a565b60405180910390fd5b8060010160009054906101000a900473ffffffffffffffffffffffffffffffffffffffff1673ffffffffffffffffffffffffffffffffffffffff163373ffffffffffffffffffffffffffffffffffffffff1614611d5f576040517f08c379a0000000000000000000000000000000000000000000000000000000008152600401611d5690613e45565b60405180910390fd5b60008311611da2576040517f08c379a0000000000000000000000000000000000000000000000000000000008152600401611d9990614287565b60405180910390fd5b60008211611de5576040517f08c379a0000000000000000000000000000000000000000000000000000000008152600401611ddc906142f3565b60405180910390fd5b8281600801819055508142611dfa9190613a9f565b81600901819055508060010160009054906101000a900473ffffffffffffffffffffffffffffffffffffffff1673ffffffffffffffffffffffffffffffffffffffff168160020160009054906101000a900473ffffffffffffffffffffffffffffffffffffffff1673ffffffffffffffffffffffffffffffffffffffff167f06b9e486c68303eb64052e0493f906f3d93a1b7149b6b8dcff221aebd16c3513868460030154878660090154604051611eb59493929190614313565b60405180910390a350505050565b600260009054906101000a900473ffffffffffffffffffffffffffffffffffffffff1681565b60006003600083815260200190815260200160002090506000816000015403611f47576040517f08c379a0000000000000000000000000000000000000000000000000000000008152600401611f3e906143a4565b60405180910390fd5b6000816008015411611f8e576040517f08c379a0000000000000000000000000000000000000000000000000000000008152600401611f8590613b56565b60405180910390fd5b8060060160009054906101000a900460ff1615611fe0576040517f08c379a0000000000000000000000000000000000000000000000000000000008152600401611fd790614410565b60405180910390fd5b8060010160009054906101000a900473ffffffffffffffffffffffffffffffffffffffff1673ffffffffffffffffffffffffffffffffffffffff163373ffffffffffffffffffffffffffffffffffffffff1614612072576040517f08c379a00000000000000000000000000000000000000000000000000000000081526004016120699061447c565b60405180910390fd5b600081600b01541415801561208b575042816009015410155b806120a95750600081600b01541480156120a85750428160090154105b5b806120c75750600081600b01541480156120c65750428160090154115b5b612106576040517f08c379a00000000000000000000000000000000000000000000000000000000081526004016120fd9061450e565b60405180910390fd5b600081600b0154146121825780600a0160009054906101000a900473ffffffffffffffffffffffffffffffffffffffff1673ffffffffffffffffffffffffffffffffffffffff166108fc82600b01549081150290604051600060405180830381858888f19350505050158015612180573d6000803e3d6000fd5b505b6000816008018190555060008160090181905550600081600a0160006101000a81548173ffffffffffffffffffffffffffffffffffffffff021916908373ffffffffffffffffffffffffffffffffffffffff160217905550600081600b01819055508060010160009054906101000a900473ffffffffffffffffffffffffffffffffffffffff1673ffffffffffffffffffffffffffffffffffffffff168160020160009054906101000a900473ffffffffffffffffffffffffffffffffffffffff1673ffffffffffffffffffffffffffffffffffffffff167f2fd0fd288a849022c51c1ab9e887d7a4f89ac1126432be270b0ba773382ad6618360000154846003015460405161229392919061452e565b60405180910390a35050565b60036020528060005260406000206000915090508060000154908060010160009054906101000a900473ffffffffffffffffffffffffffffffffffffffff16908060020160009054906101000a900473ffffffffffffffffffffffffffffffffffffffff169080600301549080600401549080600501805461232090613cc5565b80601f016020809104026020016040519081016040528092919081815260200182805461234c90613cc5565b80156123995780601f1061236e57610100808354040283529160200191612399565b820191906000526020600020905b81548152906001019060200180831161237c57829003601f168201915b5050505050908060060160009054906101000a900460ff169080600701549080600801549080600901549080600a0160009054906101000a900473ffffffffffffffffffffffffffffffffffffffff169080600b015490508c565b60006003600083815260200190815260200160002090508060060160009054906101000a900460ff161561245d576040517f08c379a00000000000000000000000000000000000000000000000000000000081526004016124549061383a565b60405180910390fd5b60008160080154116124a4576040517f08c379a000000000000000000000000000000000000000000000000000000000815260040161249b90613b56565b60405180910390fd5b80600901544210156124eb576040517f08c379a00000000000000000000000000000000000000000000000000000000081526004016124e2906145a3565b60405180910390fd5b8060010160009054906101000a900473ffffffffffffffffffffffffffffffffffffffff1673ffffffffffffffffffffffffffffffffffffffff163373ffffffffffffffffffffffffffffffffffffffff161461257d576040517f08c379a00000000000000000000000000000000000000000000000000000000081526004016125749061447c565b60405180910390fd5b8060020160009054906101000a900473ffffffffffffffffffffffffffffffffffffffff1673ffffffffffffffffffffffffffffffffffffffff166342842e0e8260010160009054906101000a900473ffffffffffffffffffffffffffffffffffffffff1683600a0160009054906101000a900473ffffffffffffffffffffffffffffffffffffffff1684600301546040518463ffffffff1660e01b815260040161262a93929190614618565b600060405180830381600087803b15801561264457600080fd5b505af1158015612658573d6000803e3d6000fd5b505050508060010160009054906101000a900473ffffffffffffffffffffffffffffffffffffffff1673ffffffffffffffffffffffffffffffffffffffff166108fc82600b01549081150290604051600060405180830381858888f193505050501580156126ca573d6000803e3d6000fd5b5060018160060160006101000a81548160ff02191690831515021790555080600a0160009054906101000a900473ffffffffffffffffffffffffffffffffffffffff168160010160006101000a81548173ffffffffffffffffffffffffffffffffffffffff021916908373ffffffffffffffffffffffffffffffffffffffff1602179055506000816008018190555060008160090181905550600081600a0160006101000a81548173ffffffffffffffffffffffffffffffffffffffff021916908373ffffffffffffffffffffffffffffffffffffffff160217905550600081600b018190555080600a0160009054906101000a900473ffffffffffffffffffffffffffffffffffffffff1673ffffffffffffffffffffffffffffffffffffffff168160010160009054906101000a900473ffffffffffffffffffffffffffffffffffffffff1673ffffffffffffffffffffffffffffffffffffffff168260020160009054906101000a900473ffffffffffffffffffffffffffffffffffffffff1673ffffffffffffffffffffffffffffffffffffffff167f6c47fd8bd138d7325768cd34fb84465cf68b7d556baca7bdadea071c5c9a1b0985856003015486600b015460405161289d93929190613ad3565b60405180910390a45050565b60006003600084815260200190815260200160002090508060010160009054906101000a900473ffffffffffffffffffffffffffffffffffffffff1673ffffffffffffffffffffffffffffffffffffffff163373ffffffffffffffffffffffffffffffffffffffff1614612952576040517f08c379a000000000000000000000000000000000000000000000000000000000815260040161294990613e45565b60405180910390fd5b81816004018190555060008160060160006101000a81548160ff021916908315150217905550338160010160006101000a81548173ffffffffffffffffffffffffffffffffffffffff021916908373ffffffffffffffffffffffffffffffffffffffff160217905550600460008260020160009054906101000a900473ffffffffffffffffffffffffffffffffffffffff1673ffffffffffffffffffffffffffffffffffffffff1673ffffffffffffffffffffffffffffffffffffffff16815260200190815260200160002054821015612a8f5781600460008360020160009054906101000a900473ffffffffffffffffffffffffffffffffffffffff1673ffffffffffffffffffffffffffffffffffffffff1673ffffffffffffffffffffffffffffffffffffffff168152602001908152602001600020819055505b8060010160009054906101000a900473ffffffffffffffffffffffffffffffffffffffff1673ffffffffffffffffffffffffffffffffffffffff168160020160009054906101000a900473ffffffffffffffffffffffffffffffffffffffff1673ffffffffffffffffffffffffffffffffffffffff167fcf4e2b398f8f130dfa20ec831a8ad0f918b3c680e9dbad3b2230ad0192f52b1685846003015486866005018760070154604051612b479594939291906146d3565b60405180910390a3505050565b6000612b606001612be8565b905090565b612b6d612c0c565b600073ffffffffffffffffffffffffffffffffffffffff168173ffffffffffffffffffffffffffffffffffffffff1603612bdc576040517f08c379a0000000000000000000000000000000000000000000000000000000008152600401612bd39061479f565b60405180910390fd5b612be581612c8a565b50565b600081600001549050919050565b6001816000016000828254019250508190555050565b612c14612d4e565b73ffffffffffffffffffffffffffffffffffffffff16612c3261185c565b73ffffffffffffffffffffffffffffffffffffffff1614612c88576040517f08c379a0000000000000000000000000000000000000000000000000000000008152600401612c7f9061480b565b60405180910390fd5b565b60008060009054906101000a900473ffffffffffffffffffffffffffffffffffffffff169050816000806101000a81548173ffffffffffffffffffffffffffffffffffffffff021916908373ffffffffffffffffffffffffffffffffffffffff1602179055508173ffffffffffffffffffffffffffffffffffffffff168173ffffffffffffffffffffffffffffffffffffffff167f8be0079c531659141344cd1fd0a4f28419497f9722a3daafe3b4186f6b6457e060405160405180910390a35050565b600033905090565b60405180610180016040528060008152602001600073ffffffffffffffffffffffffffffffffffffffff168152602001600073ffffffffffffffffffffffffffffffffffffffff168152602001600081526020016000815260200160608152602001600015158152602001600081526020016000815260200160008152602001600073ffffffffffffffffffffffffffffffffffffffff168152602001600081525090565b6000604051905090565b600080fd5b600080fd5b600073ffffffffffffffffffffffffffffffffffffffff82169050919050565b6000612e3a82612e0f565b9050919050565b612e4a81612e2f565b8114612e5557600080fd5b50565b600081359050612e6781612e41565b92915050565b600060208284031215612e8357612e82612e05565b5b6000612e9184828501612e58565b91505092915050565b6000819050919050565b612ead81612e9a565b82525050565b6000602082019050612ec86000830184612ea4565b92915050565b612ed781612e9a565b8114612ee257600080fd5b50565b600081359050612ef481612ece565b92915050565b600060208284031215612f1057612f0f612e05565b5b6000612f1e84828501612ee5565b91505092915050565b6000612f3282612e0f565b9050919050565b612f4281612f27565b8114612f4d57600080fd5b50565b600081359050612f5f81612f39565b92915050565b600060208284031215612f7b57612f7a612e05565b5b6000612f8984828501612f50565b91505092915050565b600081519050919050565b600082825260208201905092915050565b6000819050602082019050919050565b612fc781612e9a565b82525050565b612fd681612f27565b82525050565b612fe581612e2f565b82525050565b600081519050919050565b600082825260208201905092915050565b60005b8381101561302557808201518184015260208101905061300a565b60008484015250505050565b6000601f19601f8301169050919050565b600061304d82612feb565b6130578185612ff6565b9350613067818560208601613007565b61307081613031565b840191505092915050565b60008115159050919050565b6130908161307b565b82525050565b6000610180830160008301516130af6000860182612fbe565b5060208301516130c26020860182612fcd565b5060408301516130d56040860182612fdc565b5060608301516130e86060860182612fbe565b5060808301516130fb6080860182612fbe565b5060a083015184820360a08601526131138282613042565b91505060c083015161312860c0860182613087565b5060e083015161313b60e0860182612fbe565b50610100830151613150610100860182612fbe565b50610120830151613165610120860182612fbe565b5061014083015161317a610140860182612fcd565b5061016083015161318f610160860182612fbe565b508091505092915050565b60006131a68383613096565b905092915050565b6000602082019050919050565b60006131c682612f92565b6131d08185612f9d565b9350836020820285016131e285612fae565b8060005b8581101561321e57848403895281516131ff858261319a565b945061320a836131ae565b925060208a019950506001810190506131e6565b50829750879550505050505092915050565b6000602082019050818103600083015261324a81846131bb565b905092915050565b600080fd5b600080fd5b600080fd5b60008083601f84011261327757613276613252565b5b8235905067ffffffffffffffff81111561329457613293613257565b5b6020830191508360208202830111156132b0576132af61325c565b5b9250929050565b600080602083850312156132ce576132cd612e05565b5b600083013567ffffffffffffffff8111156132ec576132eb612e0a565b5b6132f885828601613261565b92509250509250929050565b600080fd5b7f4e487b7100000000000000000000000000000000000000000000000000000000600052604160045260246000fd5b61334182613031565b810181811067ffffffffffffffff821117156133605761335f613309565b5b80604052505050565b6000613373612dfb565b905061337f8282613338565b919050565b600067ffffffffffffffff82111561339f5761339e613309565b5b6133a882613031565b9050602081019050919050565b82818337600083830152505050565b60006133d76133d284613384565b613369565b9050828152602081018484840111156133f3576133f2613304565b5b6133fe8482856133b5565b509392505050565b600082601f83011261341b5761341a613252565b5b813561342b8482602086016133c4565b91505092915050565b600080600080600060a086880312156134505761344f612e05565b5b600061345e88828901612e58565b955050602061346f88828901612ee5565b945050604061348088828901612ee5565b935050606086013567ffffffffffffffff8111156134a1576134a0612e0a565b5b6134ad88828901613406565b92505060806134be88828901612ee5565b9150509295509295909350565b60008083601f8401126134e1576134e0613252565b5b8235905067ffffffffffffffff8111156134fe576134fd613257565b5b60208301915083602082028301111561351a5761351961325c565b5b9250929050565b60008060006040848603121561353a57613539612e05565b5b600084013567ffffffffffffffff81111561355857613557612e0a565b5b613564868287016134cb565b9350935050602061357786828701612e58565b9150509250925092565b61358a81612e2f565b82525050565b60006020820190506135a56000830184613581565b92915050565b6000806000606084860312156135c4576135c3612e05565b5b60006135d286828701612ee5565b93505060206135e386828701612ee5565b92505060406135f486828701612ee5565b9150509250925092565b61360781612f27565b82525050565b600060208201905061362260008301846135fe565b92915050565b600082825260208201905092915050565b600061364482612feb565b61364e8185613628565b935061365e818560208601613007565b61366781613031565b840191505092915050565b61367b8161307b565b82525050565b600061018082019050613697600083018f612ea4565b6136a4602083018e6135fe565b6136b1604083018d613581565b6136be606083018c612ea4565b6136cb608083018b612ea4565b81810360a08301526136dd818a613639565b90506136ec60c0830189613672565b6136f960e0830188612ea4565b613707610100830187612ea4565b613715610120830186612ea4565b6137236101408301856135fe565b613731610160830184612ea4565b9d9c50505050505050505050505050565b6000806040838503121561375957613758612e05565b5b600061376785828601612ee5565b925050602061377885828601612ee5565b9150509250929050565b7f4e6f7420656e6f75676820455448000000000000000000000000000000000000600082015250565b60006137b8600e83613628565b91506137c382613782565b602082019050919050565b600060208201905081810360008301526137e7816137ab565b9050919050565b7f416c726561647920736f6c64206f757400000000000000000000000000000000600082015250565b6000613824601083613628565b915061382f826137ee565b602082019050919050565b6000602082019050818103600083015261385381613817565b9050919050565b7f596f752063616e27742062757920796f7572206f776e204e4654000000000000600082015250565b6000613890601a83613628565b915061389b8261385a565b602082019050919050565b600060208201905081810360008301526138bf81613883565b9050919050565b7f447572696e67207468652061756374696f6e2c20796f752063616e277420627560008201527f792074686973204e465400000000000000000000000000000000000000000000602082015250565b6000613922602a83613628565b915061392d826138c6565b604082019050919050565b6000602082019050818103600083015261395181613915565b9050919050565b7f4e487b7100000000000000000000000000000000000000000000000000000000600052601260045260246000fd5b7f4e487b7100000000000000000000000000000000000000000000000000000000600052601160045260246000fd5b60006139c182612e9a565b91506139cc83612e9a565b9250826139dc576139db613958565b5b828204905092915050565b60006139f282612e9a565b91506139fd83612e9a565b9250828203905081811115613a1557613a14613987565b5b92915050565b600081519050613a2a81612f39565b92915050565b600060208284031215613a4657613a45612e05565b5b6000613a5484828501613a1b565b91505092915050565b6000613a6882612e9a565b9150613a7383612e9a565b9250828202613a8181612e9a565b91508282048414831517613a9857613a97613987565b5b5092915050565b6000613aaa82612e9a565b9150613ab583612e9a565b9250828201905080821115613acd57613acc613987565b5b92915050565b6000606082019050613ae86000830186612ea4565b613af56020830185612ea4565b613b026040830184612ea4565b949350505050565b7f41756374696f6e206e6f74207374617274656400000000000000000000000000600082015250565b6000613b40601383613628565b9150613b4b82613b0a565b602082019050919050565b60006020820190508181036000830152613b6f81613b33565b9050919050565b7f41756374696f6e20697320656e64656400000000000000000000000000000000600082015250565b6000613bac601083613628565b9150613bb782613b76565b602082019050919050565b60006020820190508181036000830152613bdb81613b9f565b9050919050565b7f42696420616d6f756e7420697320746f6f206c6f770000000000000000000000600082015250565b6000613c18601583613628565b9150613c2382613be2565b602082019050919050565b60006020820190508181036000830152613c4781613c0b565b9050919050565b6000613c5982612e9a565b91507fffffffffffffffffffffffffffffffffffffffffffffffffffffffffffffffff8203613c8b57613c8a613987565b5b600182019050919050565b7f4e487b7100000000000000000000000000000000000000000000000000000000600052602260045260246000fd5b60006002820490506001821680613cdd57607f821691505b602082108103613cf057613cef613c96565b5b50919050565b7f4e487b7100000000000000000000000000000000000000000000000000000000600052603260045260246000fd5b7f4e6f204554482073656e74000000000000000000000000000000000000000000600082015250565b6000613d5b600b83613628565b9150613d6682613d25565b602082019050919050565b60006020820190508181036000830152613d8a81613d4e565b9050919050565b600081519050613da081612e41565b92915050565b600060208284031215613dbc57613dbb612e05565b5b6000613dca84828501613d91565b91505092915050565b7f596f7520617265206e6f7420746865206f776e6572206f662074686973204e4660008201527f5400000000000000000000000000000000000000000000000000000000000000602082015250565b6000613e2f602183613628565b9150613e3a82613dd3565b604082019050919050565b60006020820190508181036000830152613e5e81613e22565b9050919050565b60008190508160005260206000209050919050565b60006020601f8301049050919050565b600082821b905092915050565b600060088302613ec77fffffffffffffffffffffffffffffffffffffffffffffffffffffffffffffffff82613e8a565b613ed18683613e8a565b95508019841693508086168417925050509392505050565b6000819050919050565b6000613f0e613f09613f0484612e9a565b613ee9565b612e9a565b9050919050565b6000819050919050565b613f2883613ef3565b613f3c613f3482613f15565b848454613e97565b825550505050565b600090565b613f51613f44565b613f5c818484613f1f565b505050565b5b81811015613f8057613f75600082613f49565b600181019050613f62565b5050565b601f821115613fc557613f9681613e65565b613f9f84613e7a565b81016020851015613fae578190505b613fc2613fba85613e7a565b830182613f61565b50505b505050565b600082821c905092915050565b6000613fe860001984600802613fca565b1980831691505092915050565b60006140018383613fd7565b9150826002028217905092915050565b61401a82612feb565b67ffffffffffffffff81111561403357614032613309565b5b61403d8254613cc5565b614048828285613f84565b600060209050601f83116001811461407b5760008415614069578287015190505b6140738582613ff5565b8655506140db565b601f19841661408986613e65565b60005b828110156140b15784890151825560018201915060208501945060208101905061408c565b868310156140ce57848901516140ca601f891682613fd7565b8355505b6001600288020188555050505b505050505050565b600060a0820190506140f86000830188612ea4565b6141056020830187612ea4565b6141126040830186612ea4565b81810360608301526141248185613639565b90506141336080830184612ea4565b9695505050505050565b7f596f7520617265206e6f74207468652043726561746f72206f6620746869732060008201527f436f6c6c656374696f6e00000000000000000000000000000000000000000000602082015250565b6000614199602a83613628565b91506141a48261413d565b604082019050919050565b600060208201905081810360008301526141c88161418c565b9050919050565b7f4e6f207461726765747300000000000000000000000000000000000000000000600082015250565b6000614205600a83613628565b9150614210826141cf565b602082019050919050565b60006020820190508181036000830152614234816141f8565b9050919050565b7f496e76616c6964206f70656e696e672070726963650000000000000000000000600082015250565b6000614271601583613628565b915061427c8261423b565b602082019050919050565b600060208201905081810360008301526142a081614264565b9050919050565b7f496e76616c69642061756374696f6e206475726174696f6e0000000000000000600082015250565b60006142dd601883613628565b91506142e8826142a7565b602082019050919050565b6000602082019050818103600083015261430c816142d0565b9050919050565b60006080820190506143286000830187612ea4565b6143356020830186612ea4565b6143426040830185612ea4565b61434f6060830184612ea4565b95945050505050565b7f546f6b656e206e6f7420666f756e640000000000000000000000000000000000600082015250565b600061438e600f83613628565b915061439982614358565b602082019050919050565b600060208201905081810360008301526143bd81614381565b9050919050565b7f546f6b656e20697320616c726561647920736f6c640000000000000000000000600082015250565b60006143fa601583613628565b9150614405826143c4565b602082019050919050565b60006020820190508181036000830152614429816143ed565b9050919050565b7f596f7520617265206e6f74207468652073656c6c657200000000000000000000600082015250565b6000614466601683613628565b915061447182614430565b602082019050919050565b6000602082019050818103600083015261449581614459565b9050919050565b7f496e207468697320636f6e646974696f6e2c204f776e65722063616e2774206360008201527f616e63656c2041756374696f6e00000000000000000000000000000000000000602082015250565b60006144f8602d83613628565b91506145038261449c565b604082019050919050565b60006020820190508181036000830152614527816144eb565b9050919050565b60006040820190506145436000830185612ea4565b6145506020830184612ea4565b9392505050565b7f41756374696f6e20686173206e6f7420656e6465642079657400000000000000600082015250565b600061458d601983613628565b915061459882614557565b602082019050919050565b600060208201905081810360008301526145bc81614580565b9050919050565b60006145de6145d96145d484612e0f565b613ee9565b612e0f565b9050919050565b60006145f0826145c3565b9050919050565b6000614602826145e5565b9050919050565b614612816145f7565b82525050565b600060608201905061462d6000830186614609565b61463a6020830185614609565b6146476040830184612ea4565b949350505050565b6000815461465c81613cc5565b6146668186613628565b945060018216600081146146815760018114614697576146ca565b60ff1983168652811515602002860193506146ca565b6146a085613e65565b60005b838110156146c2578154818901526001820191506020810190506146a3565b808801955050505b50505092915050565b600060a0820190506146e86000830188612ea4565b6146f56020830187612ea4565b6147026040830186612ea4565b8181036060830152614714818561464f565b90506147236080830184612ea4565b9695505050505050565b7f4f776e61626c653a206e6577206f776e657220697320746865207a65726f206160008201527f6464726573730000000000000000000000000000000000000000000000000000602082015250565b6000614789602683613628565b91506147948261472d565b604082019050919050565b600060208201905081810360008301526147b88161477c565b9050919050565b7f4f776e61626c653a2063616c6c6572206973206e6f7420746865206f776e6572600082015250565b60006147f5602083613628565b9150614800826147bf565b602082019050919050565b60006020820190508181036000830152614824816147e8565b905091905056fea264697066735822122005cb7e72d95aac314d93a77f3bae81e746bd3851dd235f64af416f506aa188ed64736f6c63430008120033",
  "immutableReferences": {},
  "source": "// SPDX-License-Identifier: MIT\npragma solidity ^0.8.1;\n\nimport \"../node_modules/@openzeppelin/contracts/token/ERC721/ERC721.sol\";\nimport \"../node_modules/@openzeppelin/contracts/token/ERC721/IERC721.sol\";\nimport \"../node_modules/@openzeppelin/contracts/access/Ownable.sol\";\nimport \"../node_modules/@openzeppelin/contracts/utils/Counters.sol\";\nimport \"./RTToken.sol\";\n\n\ncontract Marketplace is Ownable {\n    using Counters for Counters.Counter;\n    Counters.Counter private _Ids;\n    address payable public marketAddress;\n\n    struct TokenInfo {\n        uint256 id;\n        address payable seller;\n        address NFTaddress;\n        uint256 tokenId;\n        uint256 price;\n        string metadata;\n        bool sold;\n        uint256 creatorFee;\n        uint256 openingPrice; // \n        uint256 auctionEndTime; //   \n        address payable highestBidder; //   \n        uint256 highestBid; //  \n    }\n\n    mapping(uint256 => TokenInfo) public TokenOnSale;\n    mapping(address => uint256) public lowestPriceByCollection;\n    mapping(address => uint256) public totalSalesByCollection;\n\n    event Add(uint256 id, address indexed NftAddress, address indexed seller, uint256 tokenId, uint256 price, string metadata, uint256 creatorFee);\n    event Buy(uint256 id, address indexed NftAddress, address indexed seller, address indexed buyer, uint256 tokenId, uint256 price);\n    event AuctionCreated(uint256 id, address indexed NftAddress, address indexed seller, uint256 tokenId, uint256 openingPrice, uint256 auctionEndTime);\n    event BidderChanged(uint256 id, address indexed NftAddress, address indexed bidder, uint256 tokenId, uint256 bidAmount);\n    event AuctionEnded(uint256 id, address indexed NftAddress, address indexed seller, address indexed winner, uint256 tokenId, uint256 winningBid);\n    event AuctionCancelled(uint256 id, address indexed NftAddress, address indexed seller, uint256 tokenId);\n\n    constructor() {\n        marketAddress = payable(msg.sender);\n    }\n\n    function getLatestId() public view returns (uint256) {\n        return _Ids.current();\n    }\n\n    function addNftToMarket(address _NFTaddress, uint256 _tokenId, uint256 _price, string memory _metadata, uint256 _creatorFee) external {\n        require(ERC721(_NFTaddress).ownerOf(_tokenId) == msg.sender, \"You are not the owner of this NFT\");\n\n        _Ids.increment();\n        TokenOnSale[_Ids.current()] = TokenInfo(_Ids.current(), payable(msg.sender), _NFTaddress, _tokenId, _price, _metadata, false, _creatorFee, 0, 0, payable(address(0)), 0);\n        if (_price < lowestPriceByCollection[_NFTaddress] || lowestPriceByCollection[_NFTaddress] == 0) {\n            lowestPriceByCollection[_NFTaddress] = _price;\n        }\n\n        emit Add(_Ids.current(), _NFTaddress, msg.sender, _tokenId, _price, _metadata, _creatorFee);\n    }\n\n\n    function buyNfts(uint256[] calldata _ids) external payable {\n        require(msg.value > 0, \"No ETH sent\");\n\n        for (uint256 i = 0; i < _ids.length; i++) {\n            buyNft(_ids[i]);\n        }\n    }\n\n    function buyNft(uint256 _id) public payable {\n        TokenInfo storage token = TokenOnSale[_id];\n        require(msg.value >= token.price, \"Not enough ETH\");\n        require(!token.sold, \"Already sold out\");\n        require(msg.sender != token.seller, \"You can't buy your own NFT\");\n        require(token.openingPrice == 0, \"During the auction, you can't buy this NFT\");\n\n        uint256 marketFee = token.price / 100;\n        uint256 creatorRoyalty = 0;\n        uint256 sellerAmount = token.price - marketFee;\n\n        marketAddress.transfer(marketFee);\n\n        address payable creator = RTToken(token.NFTaddress).getCreator();\n        if (token.seller != creator) {\n            creatorRoyalty = token.price * token.creatorFee / 1000;\n            sellerAmount -= creatorRoyalty;\n            creator.transfer(creatorRoyalty);\n        }\n        token.seller.transfer(sellerAmount);\n\n        totalSalesByCollection[token.NFTaddress] += token.price;\n        token.sold = true;\n        token.seller = payable(msg.sender);\n\n        emit Buy(_id, token.NFTaddress, token.seller, msg.sender, token.tokenId, token.price);\n    }\n\n    function reAddNftToMarket(uint256 _id, uint256 _price) external {\n        TokenInfo storage token = TokenOnSale[_id];\n        require(msg.sender == token.seller, \"You are not the owner of this NFT\");\n\n        token.price = _price;\n        token.sold = false;\n        token.seller = payable(msg.sender);\n\n        if (_price < lowestPriceByCollection[token.NFTaddress]) {\n            lowestPriceByCollection[token.NFTaddress] = _price;\n        }\n\n        emit Add(_id, token.NFTaddress, token.seller, token.tokenId, _price, token.metadata, token.creatorFee);\n    }\n\n    function startAuction(uint256 _id, uint256 _openingPrice, uint256 _duration) external {\n        TokenInfo storage token = TokenOnSale[_id];\n        require(!token.sold, \"Already sold out\");\n        require(msg.sender == token.seller, \"You are not the owner of this NFT\");\n        require(_openingPrice > 0, \"Invalid opening price\");\n        require(_duration > 0, \"Invalid auction duration\");\n\n        token.openingPrice = _openingPrice;\n        token.auctionEndTime = block.timestamp + _duration;\n\n        emit AuctionCreated(_id, token.NFTaddress, token.seller, token.tokenId, _openingPrice, token.auctionEndTime);\n    }\n\n    function bidInAuction(uint256 _id) external payable {\n        TokenInfo storage token = TokenOnSale[_id];\n        require(!token.sold, \"Already sold out\");\n        require(token.openingPrice > 0, \"Auction not started\");\n        require(block.timestamp < token.auctionEndTime, \"Auction is ended\");\n        require(msg.value > token.highestBid, \"Bid amount is too low\");\n\n        if (token.highestBid != 0) {\n            token.highestBidder.transfer(token.highestBid); //      \n        }\n\n        token.highestBidder = payable(msg.sender);\n        token.highestBid = msg.value;\n\n        emit BidderChanged(_id, token.NFTaddress, msg.sender, token.tokenId, msg.value);\n    }\n\n    function endAuction(uint256 _id) public {\n        TokenInfo storage token = TokenOnSale[_id];\n\n        require(!token.sold, \"Already sold out\");\n        require(token.openingPrice > 0, \"Auction not started\");\n        require(block.timestamp >= token.auctionEndTime, \"Auction has not ended yet\");\n        require(msg.sender == token.seller, \"You are not the seller\");\n\n        //      NFT    \n        IERC721(token.NFTaddress).safeTransferFrom(token.seller, token.highestBidder, token.tokenId);\n        token.seller.transfer(token.highestBid);\n        token.sold = true;\n        token.seller = payable(token.highestBidder);\n\n        //    \n        token.openingPrice = 0;\n        token.auctionEndTime = 0;\n        token.highestBidder = payable(address(0));\n        token.highestBid = 0;\n\n        emit AuctionEnded(_id, token.NFTaddress, token.seller, token.highestBidder, token.tokenId, token.highestBid);\n    }\n\n    // function timer() external {\n    //     for (uint256 i = 1; i <= _Ids.current(); i++) {\n    //         TokenInfo storage token = TokenOnSale[i];\n    //         if (!token.sold && token.openingPrice > 0 && block.timestamp >= token.auctionEndTime && token.highestBidder != address(0)) {\n    //             require(msg.sender == token.highestBidder, \"Only last highest bidder can end the auction\");\n    //             endAuction(i);\n    //         }\n    //     }\n    // }\n\n    function cancelAuction(uint256 _id) external {\n        TokenInfo storage token = TokenOnSale[_id];\n        require(token.id != 0, \"Token not found\");\n        require(token.openingPrice > 0, \"Auction not started\");\n        require(!token.sold, \"Token is already sold\");\n        require(msg.sender == token.seller, \"You are not the seller\");\n        require((token.highestBid != 0 && token.auctionEndTime >= block.timestamp) \n            || (token.highestBid == 0 && token.auctionEndTime < block.timestamp) \n            || (token.highestBid == 0 && token.auctionEndTime > block.timestamp)\n        , \"In this condition, Owner can't cancel Auction\");\n\n\n\n        if (token.highestBid != 0) {\n            token.highestBidder.transfer(token.highestBid);\n        }\n\n        token.openingPrice = 0;\n        token.auctionEndTime = 0;\n        token.highestBidder = payable(address(0));\n        token.highestBid = 0;\n\n        emit AuctionCancelled(token.id, token.NFTaddress, token.seller, token.tokenId);\n    }\n\n    function getAllTokensInCollection(address _NFTaddress) public view returns (TokenInfo[] memory) {\n        uint256 count = 0;\n        for (uint256 i = 1; i <= _Ids.current(); i++) {\n            if (TokenOnSale[i].NFTaddress == _NFTaddress) {\n                count++;\n            }\n        }\n        TokenInfo[] memory tokens = new TokenInfo[](count);\n\n        uint256 index = 0;\n        for (uint256 i = 1; i <= _Ids.current(); i++) {\n            if (TokenOnSale[i].NFTaddress == _NFTaddress) {\n                tokens[index] = TokenOnSale[i];\n                index++;\n            }\n        }\n\n        return tokens;\n    }\n\n\n    function getUserTokens(address payable _address) public view returns (TokenInfo[] memory) {\n        uint256 count = 0;\n        for (uint256 i = 1; i <= _Ids.current(); i++) {\n            if (TokenOnSale[i].seller == _address) {\n                count++;\n            }\n        }\n        TokenInfo[] memory tokens = new TokenInfo[](count);\n\n        uint256 index = 0;\n        for (uint256 i = 1; i <= _Ids.current(); i++) {\n            if (TokenOnSale[i].seller == _address) {\n                tokens[index] = TokenOnSale[i];\n                index++;\n            }\n        }\n\n        return tokens;\n    }\n\n\n    function setAirdrop(address[] calldata _targets, address _NFTaddress) external payable {\n        address payable creator = RTToken(_NFTaddress).getCreator();\n        require(msg.sender == creator, \"You are not the Creator of this Collection\");\n        require(_targets.length > 0, \"No targets\");\n\n        TokenInfo[] memory tokens = getAllTokensInCollection(_NFTaddress);\n        uint256 tokenCount = tokens.length;\n\n        for (uint256 i = 0; i < tokenCount; i++) {\n            if (i < _targets.length && !tokens[i].sold && tokens[i].seller == creator) {\n                uint256 tokenId = tokens[i].tokenId;\n                TokenOnSale[tokenId].seller = payable(_targets[i]);\n                TokenOnSale[tokenId].sold = true;\n            } else {\n                break; // targets    \n            }\n        }\n    }\n}",
  "sourcePath": "/Users/kimjh/Documents/workspace/ZDB/rooftop/nft/contracts/Marketplace.sol",
  "compiler": {
    "name": "solc",
    "version": "0.8.18+commit.87f61d96.Emscripten.clang"
  },
  "schemaVersion": "3.4.14",
  "updatedAt": "2023-07-05T08:53:30.885Z",
  "networkType": "ethereum",
  "devdoc": {
    "kind": "dev",
    "methods": {
      "owner()": {
        "details": "Returns the address of the current owner."
      },
      "renounceOwnership()": {
        "details": "Leaves the contract without owner. It will not be possible to call `onlyOwner` functions. Can only be called by the current owner. NOTE: Renouncing ownership will leave the contract without an owner, thereby disabling any functionality that is only available to the owner."
      },
      "transferOwnership(address)": {
        "details": "Transfers ownership of the contract to a new account (`newOwner`). Can only be called by the current owner."
      }
    },
    "version": 1
  },
  "userdoc": {
    "kind": "user",
    "methods": {},
    "version": 1
  }
}