{
  "contractName": "Marketplace",
  "abi": [
    {
      "inputs": [],
      "stateMutability": "nonpayable",
      "type": "constructor"
    },
    {
      "anonymous": false,
      "inputs": [
        {
          "indexed": false,
          "internalType": "uint256",
          "name": "id",
          "type": "uint256"
        },
        {
          "indexed": true,
          "internalType": "address",
          "name": "NftAddress",
          "type": "address"
        },
        {
          "indexed": true,
          "internalType": "address",
          "name": "seller",
          "type": "address"
        },
        {
          "indexed": false,
          "internalType": "uint256",
          "name": "tokenId",
          "type": "uint256"
        },
        {
          "indexed": false,
          "internalType": "uint256",
          "name": "price",
          "type": "uint256"
        },
        {
          "indexed": false,
          "internalType": "string",
          "name": "metadata",
          "type": "string"
        },
        {
          "indexed": false,
          "internalType": "uint256",
          "name": "creatorFee",
          "type": "uint256"
        }
      ],
      "name": "Add",
      "type": "event"
    },
    {
      "anonymous": false,
      "inputs": [
        {
          "indexed": false,
          "internalType": "uint256",
          "name": "id",
          "type": "uint256"
        },
        {
          "indexed": true,
          "internalType": "address",
          "name": "NftAddress",
          "type": "address"
        },
        {
          "indexed": true,
          "internalType": "address",
          "name": "seller",
          "type": "address"
        },
        {
          "indexed": false,
          "internalType": "uint256",
          "name": "tokenId",
          "type": "uint256"
        }
      ],
      "name": "AuctionCancelled",
      "type": "event"
    },
    {
      "anonymous": false,
      "inputs": [
        {
          "indexed": false,
          "internalType": "uint256",
          "name": "id",
          "type": "uint256"
        },
        {
          "indexed": true,
          "internalType": "address",
          "name": "NftAddress",
          "type": "address"
        },
        {
          "indexed": true,
          "internalType": "address",
          "name": "seller",
          "type": "address"
        },
        {
          "indexed": false,
          "internalType": "uint256",
          "name": "tokenId",
          "type": "uint256"
        },
        {
          "indexed": false,
          "internalType": "uint256",
          "name": "openingPrice",
          "type": "uint256"
        },
        {
          "indexed": false,
          "internalType": "uint256",
          "name": "auctionEndTime",
          "type": "uint256"
        }
      ],
      "name": "AuctionCreated",
      "type": "event"
    },
    {
      "anonymous": false,
      "inputs": [
        {
          "indexed": false,
          "internalType": "uint256",
          "name": "id",
          "type": "uint256"
        },
        {
          "indexed": true,
          "internalType": "address",
          "name": "NftAddress",
          "type": "address"
        },
        {
          "indexed": true,
          "internalType": "address",
          "name": "seller",
          "type": "address"
        },
        {
          "indexed": true,
          "internalType": "address",
          "name": "winner",
          "type": "address"
        },
        {
          "indexed": false,
          "internalType": "uint256",
          "name": "tokenId",
          "type": "uint256"
        },
        {
          "indexed": false,
          "internalType": "uint256",
          "name": "winningBid",
          "type": "uint256"
        }
      ],
      "name": "AuctionEnded",
      "type": "event"
    },
    {
      "anonymous": false,
      "inputs": [
        {
          "indexed": false,
          "internalType": "uint256",
          "name": "id",
          "type": "uint256"
        },
        {
          "indexed": true,
          "internalType": "address",
          "name": "NftAddress",
          "type": "address"
        },
        {
          "indexed": true,
          "internalType": "address",
          "name": "bidder",
          "type": "address"
        },
        {
          "indexed": false,
          "internalType": "uint256",
          "name": "tokenId",
          "type": "uint256"
        },
        {
          "indexed": false,
          "internalType": "uint256",
          "name": "bidAmount",
          "type": "uint256"
        }
      ],
      "name": "BidderChanged",
      "type": "event"
    },
    {
      "anonymous": false,
      "inputs": [
        {
          "indexed": false,
          "internalType": "uint256",
          "name": "id",
          "type": "uint256"
        },
        {
          "indexed": true,
          "internalType": "address",
          "name": "NftAddress",
          "type": "address"
        },
        {
          "indexed": true,
          "internalType": "address",
          "name": "seller",
          "type": "address"
        },
        {
          "indexed": true,
          "internalType": "address",
          "name": "buyer",
          "type": "address"
        },
        {
          "indexed": false,
          "internalType": "uint256",
          "name": "tokenId",
          "type": "uint256"
        },
        {
          "indexed": false,
          "internalType": "uint256",
          "name": "price",
          "type": "uint256"
        }
      ],
      "name": "Buy",
      "type": "event"
    },
    {
      "anonymous": false,
      "inputs": [
        {
          "indexed": true,
          "internalType": "address",
          "name": "previousOwner",
          "type": "address"
        },
        {
          "indexed": true,
          "internalType": "address",
          "name": "newOwner",
          "type": "address"
        }
      ],
      "name": "OwnershipTransferred",
      "type": "event"
    },
    {
      "inputs": [
        {
          "internalType": "uint256",
          "name": "",
          "type": "uint256"
        }
      ],
      "name": "TokenOnSale",
      "outputs": [
        {
          "internalType": "uint256",
          "name": "id",
          "type": "uint256"
        },
        {
          "internalType": "address payable",
          "name": "seller",
          "type": "address"
        },
        {
          "internalType": "address",
          "name": "NFTaddress",
          "type": "address"
        },
        {
          "internalType": "uint256",
          "name": "tokenId",
          "type": "uint256"
        },
        {
          "internalType": "uint256",
          "name": "price",
          "type": "uint256"
        },
        {
          "internalType": "string",
          "name": "metadata",
          "type": "string"
        },
        {
          "internalType": "bool",
          "name": "sold",
          "type": "bool"
        },
        {
          "internalType": "uint256",
          "name": "creatorFee",
          "type": "uint256"
        },
        {
          "internalType": "uint256",
          "name": "openingPrice",
          "type": "uint256"
        },
        {
          "internalType": "uint256",
          "name": "auctionEndTime",
          "type": "uint256"
        },
        {
          "internalType": "address payable",
          "name": "highestBidder",
          "type": "address"
        },
        {
          "internalType": "uint256",
          "name": "highestBid",
          "type": "uint256"
        }
      ],
      "stateMutability": "view",
      "type": "function",
      "constant": true
    },
    {
      "inputs": [
        {
          "internalType": "address",
          "name": "",
          "type": "address"
        }
      ],
      "name": "lowestPriceByCollection",
      "outputs": [
        {
          "internalType": "uint256",
          "name": "",
          "type": "uint256"
        }
      ],
      "stateMutability": "view",
      "type": "function",
      "constant": true
    },
    {
      "inputs": [],
      "name": "marketAddress",
      "outputs": [
        {
          "internalType": "address payable",
          "name": "",
          "type": "address"
        }
      ],
      "stateMutability": "view",
      "type": "function",
      "constant": true
    },
    {
      "inputs": [],
      "name": "owner",
      "outputs": [
        {
          "internalType": "address",
          "name": "",
          "type": "address"
        }
      ],
      "stateMutability": "view",
      "type": "function",
      "constant": true
    },
    {
      "inputs": [],
      "name": "renounceOwnership",
      "outputs": [],
      "stateMutability": "nonpayable",
      "type": "function"
    },
    {
      "inputs": [
        {
          "internalType": "address",
          "name": "",
          "type": "address"
        }
      ],
      "name": "totalSalesByCollection",
      "outputs": [
        {
          "internalType": "uint256",
          "name": "",
          "type": "uint256"
        }
      ],
      "stateMutability": "view",
      "type": "function",
      "constant": true
    },
    {
      "inputs": [
        {
          "internalType": "address",
          "name": "newOwner",
          "type": "address"
        }
      ],
      "name": "transferOwnership",
      "outputs": [],
      "stateMutability": "nonpayable",
      "type": "function"
    },
    {
      "inputs": [],
      "name": "getLatestId",
      "outputs": [
        {
          "internalType": "uint256",
          "name": "",
          "type": "uint256"
        }
      ],
      "stateMutability": "view",
      "type": "function",
      "constant": true
    },
    {
      "inputs": [
        {
          "internalType": "address",
          "name": "_NFTaddress",
          "type": "address"
        },
        {
          "internalType": "uint256",
          "name": "_tokenId",
          "type": "uint256"
        },
        {
          "internalType": "uint256",
          "name": "_price",
          "type": "uint256"
        },
        {
          "internalType": "string",
          "name": "_metadata",
          "type": "string"
        },
        {
          "internalType": "uint256",
          "name": "_creatorFee",
          "type": "uint256"
        }
      ],
      "name": "addNftToMarket",
      "outputs": [],
      "stateMutability": "nonpayable",
      "type": "function"
    },
    {
      "inputs": [
        {
          "internalType": "uint256[]",
          "name": "_ids",
          "type": "uint256[]"
        }
      ],
      "name": "buyNfts",
      "outputs": [],
      "stateMutability": "payable",
      "type": "function",
      "payable": true
    },
    {
      "inputs": [
        {
          "internalType": "uint256",
          "name": "_id",
          "type": "uint256"
        }
      ],
      "name": "buyNft",
      "outputs": [],
      "stateMutability": "payable",
      "type": "function",
      "payable": true
    },
    {
      "inputs": [
        {
          "internalType": "uint256",
          "name": "_id",
          "type": "uint256"
        },
        {
          "internalType": "uint256",
          "name": "_price",
          "type": "uint256"
        }
      ],
      "name": "reAddNftToMarket",
      "outputs": [],
      "stateMutability": "nonpayable",
      "type": "function"
    },
    {
      "inputs": [
        {
          "internalType": "uint256",
          "name": "_id",
          "type": "uint256"
        },
        {
          "internalType": "uint256",
          "name": "_openingPrice",
          "type": "uint256"
        },
        {
          "internalType": "uint256",
          "name": "_duration",
          "type": "uint256"
        }
      ],
      "name": "startAuction",
      "outputs": [],
      "stateMutability": "nonpayable",
      "type": "function"
    },
    {
      "inputs": [
        {
          "internalType": "uint256",
          "name": "_id",
          "type": "uint256"
        }
      ],
      "name": "bidInAuction",
      "outputs": [],
      "stateMutability": "payable",
      "type": "function",
      "payable": true
    },
    {
      "inputs": [
        {
          "internalType": "uint256",
          "name": "_id",
          "type": "uint256"
        }
      ],
      "name": "endAuction",
      "outputs": [],
      "stateMutability": "nonpayable",
      "type": "function"
    },
    {
      "inputs": [
        {
          "internalType": "uint256",
          "name": "_id",
          "type": "uint256"
        }
      ],
      "name": "cancelAuction",
      "outputs": [],
      "stateMutability": "nonpayable",
      "type": "function"
    },
    {
      "inputs": [
        {
          "internalType": "address",
          "name": "_NFTaddress",
          "type": "address"
        }
      ],
      "name": "getAllTokensInCollection",
      "outputs": [
        {
          "components": [
            {
              "internalType": "uint256",
              "name": "id",
              "type": "uint256"
            },
            {
              "internalType": "address payable",
              "name": "seller",
              "type": "address"
            },
            {
              "internalType": "address",
              "name": "NFTaddress",
              "type": "address"
            },
            {
              "internalType": "uint256",
              "name": "tokenId",
              "type": "uint256"
            },
            {
              "internalType": "uint256",
              "name": "price",
              "type": "uint256"
            },
            {
              "internalType": "string",
              "name": "metadata",
              "type": "string"
            },
            {
              "internalType": "bool",
              "name": "sold",
              "type": "bool"
            },
            {
              "internalType": "uint256",
              "name": "creatorFee",
              "type": "uint256"
            },
            {
              "internalType": "uint256",
              "name": "openingPrice",
              "type": "uint256"
            },
            {
              "internalType": "uint256",
              "name": "auctionEndTime",
              "type": "uint256"
            },
            {
              "internalType": "address payable",
              "name": "highestBidder",
              "type": "address"
            },
            {
              "internalType": "uint256",
              "name": "highestBid",
              "type": "uint256"
            }
          ],
          "internalType": "struct Marketplace.TokenInfo[]",
          "name": "",
          "type": "tuple[]"
        }
      ],
      "stateMutability": "view",
      "type": "function",
      "constant": true
    },
    {
      "inputs": [
        {
          "internalType": "address payable",
          "name": "_address",
          "type": "address"
        }
      ],
      "name": "getUserTokens",
      "outputs": [
        {
          "components": [
            {
              "internalType": "uint256",
              "name": "id",
              "type": "uint256"
            },
            {
              "internalType": "address payable",
              "name": "seller",
              "type": "address"
            },
            {
              "internalType": "address",
              "name": "NFTaddress",
              "type": "address"
            },
            {
              "internalType": "uint256",
              "name": "tokenId",
              "type": "uint256"
            },
            {
              "internalType": "uint256",
              "name": "price",
              "type": "uint256"
            },
            {
              "internalType": "string",
              "name": "metadata",
              "type": "string"
            },
            {
              "internalType": "bool",
              "name": "sold",
              "type": "bool"
            },
            {
              "internalType": "uint256",
              "name": "creatorFee",
              "type": "uint256"
            },
            {
              "internalType": "uint256",
              "name": "openingPrice",
              "type": "uint256"
            },
            {
              "internalType": "uint256",
              "name": "auctionEndTime",
              "type": "uint256"
            },
            {
              "internalType": "address payable",
              "name": "highestBidder",
              "type": "address"
            },
            {
              "internalType": "uint256",
              "name": "highestBid",
              "type": "uint256"
            }
          ],
          "internalType": "struct Marketplace.TokenInfo[]",
          "name": "",
          "type": "tuple[]"
        }
      ],
      "stateMutability": "view",
      "type": "function",
      "constant": true
    },
    {
      "inputs": [
        {
          "internalType": "address[]",
          "name": "addresses",
          "type": "address[]"
        },
        {
          "internalType": "address",
          "name": "_NFTaddress",
          "type": "address"
        }
      ],
      "name": "setPresentForAirdrop",
      "outputs": [],
      "stateMutability": "nonpayable",
      "type": "function"
    }
  ],
  "bytecode": "0x60806040523480156200001157600080fd5b5062000032620000266200007960201b60201c565b6200008160201b60201c565b33600260006101000a81548173ffffffffffffffffffffffffffffffffffffffff021916908373ffffffffffffffffffffffffffffffffffffffff16021790555062000145565b600033905090565b60008060009054906101000a900473ffffffffffffffffffffffffffffffffffffffff169050816000806101000a81548173ffffffffffffffffffffffffffffffffffffffff021916908373ffffffffffffffffffffffffffffffffffffffff1602179055508173ffffffffffffffffffffffffffffffffffffffff168173ffffffffffffffffffffffffffffffffffffffff167f8be0079c531659141344cd1fd0a4f28419497f9722a3daafe3b4186f6b6457e060405160405180910390a35050565b61486d80620001556000396000f3fe6080604052600436106101145760003560e01c80638da5cb5b116100a0578063b2b088f611610064578063b2b088f614610372578063b9a2de3a146103ba578063eb5af731146103e3578063eff91c7e1461040c578063f2fde38b1461043757610114565b80638da5cb5b1461028d578063918f2e52146102b857806391e078bb146102f5578063956236411461031e57806396b5a7551461034957610114565b8063519dc8d2116100e7578063519dc8d2146101b75780635d596402146101f45780636012de1a14610210578063715018a61461023957806377b02fe01461025057610114565b806321c4d76e14610119578063243adbdd146101565780632975bfd4146101725780634dfbb7e31461018e575b600080fd5b34801561012557600080fd5b50610140600480360381019061013b9190612ee5565b610460565b60405161014d9190612f2b565b60405180910390f35b610170600480360381019061016b9190612f72565b610478565b005b61018c60048036038101906101879190612f72565b610a1c565b005b34801561019a57600080fd5b506101b560048036038101906101b09190613004565b610cb5565b005b3480156101c357600080fd5b506101de60048036038101906101d991906130a2565b610f83565b6040516101eb919061336d565b60405180910390f35b61020e600480360381019061020991906133e5565b611362565b005b34801561021c57600080fd5b5061023760048036038101906102329190613562565b6113ed565b005b34801561024557600080fd5b5061024e611849565b005b34801561025c57600080fd5b5061027760048036038101906102729190612ee5565b61185d565b6040516102849190612f2b565b60405180910390f35b34801561029957600080fd5b506102a2611875565b6040516102af9190613608565b60405180910390f35b3480156102c457600080fd5b506102df60048036038101906102da9190612ee5565b61189e565b6040516102ec919061336d565b60405180910390f35b34801561030157600080fd5b5061031c60048036038101906103179190613623565b611c7d565b005b34801561032a57600080fd5b50610333611edc565b6040516103409190613685565b60405180910390f35b34801561035557600080fd5b50610370600480360381019061036b9190612f72565b611f02565b005b34801561037e57600080fd5b5061039960048036038101906103949190612f72565b6122b8565b6040516103b19c9b9a999897969594939291906136f9565b60405180910390f35b3480156103c657600080fd5b506103e160048036038101906103dc9190612f72565b61240d565b005b3480156103ef57600080fd5b5061040a600480360381019061040591906137ba565b612921565b005b34801561041857600080fd5b50610421612bcc565b60405161042e9190612f2b565b60405180910390f35b34801561044357600080fd5b5061045e60048036038101906104599190612ee5565b612bdd565b005b60056020528060005260406000206000915090505481565b600060036000838152602001908152602001600020905080600401543410156104d6576040517f08c379a00000000000000000000000000000000000000000000000000000000081526004016104cd90613846565b60405180910390fd5b8060060160009054906101000a900460ff1615610528576040517f08c379a000000000000000000000000000000000000000000000000000000000815260040161051f906138b2565b60405180910390fd5b8060010160009054906101000a900473ffffffffffffffffffffffffffffffffffffffff1673ffffffffffffffffffffffffffffffffffffffff163373ffffffffffffffffffffffffffffffffffffffff16036105ba576040517f08c379a00000000000000000000000000000000000000000000000000000000081526004016105b19061391e565b60405180910390fd5b6000816008015414610601576040517f08c379a00000000000000000000000000000000000000000000000000000000081526004016105f8906139b0565b60405180910390fd5b6000606482600401546106149190613a2e565b90506000808284600401546106299190613a5f565b9050600260009054906101000a900473ffffffffffffffffffffffffffffffffffffffff1673ffffffffffffffffffffffffffffffffffffffff166108fc849081150290604051600060405180830381858888f19350505050158015610693573d6000803e3d6000fd5b5060008460020160009054906101000a900473ffffffffffffffffffffffffffffffffffffffff1673ffffffffffffffffffffffffffffffffffffffff16630ee2cb106040518163ffffffff1660e01b8152600401602060405180830381865afa158015610705573d6000803e3d6000fd5b505050506040513d601f19601f820116820180604052508101906107299190613aa8565b90508073ffffffffffffffffffffffffffffffffffffffff168560010160009054906101000a900473ffffffffffffffffffffffffffffffffffffffff1673ffffffffffffffffffffffffffffffffffffffff16146107fb576103e8856007015486600401546107999190613ad5565b6107a39190613a2e565b925082826107b19190613a5f565b91508073ffffffffffffffffffffffffffffffffffffffff166108fc849081150290604051600060405180830381858888f193505050501580156107f9573d6000803e3d6000fd5b505b8460010160009054906101000a900473ffffffffffffffffffffffffffffffffffffffff1673ffffffffffffffffffffffffffffffffffffffff166108fc839081150290604051600060405180830381858888f19350505050158015610865573d6000803e3d6000fd5b508460040154600560008760020160009054906101000a900473ffffffffffffffffffffffffffffffffffffffff1673ffffffffffffffffffffffffffffffffffffffff1673ffffffffffffffffffffffffffffffffffffffff16815260200190815260200160002060008282546108dd9190613b17565b9250508190555060018560060160006101000a81548160ff021916908315150217905550338560010160006101000a81548173ffffffffffffffffffffffffffffffffffffffff021916908373ffffffffffffffffffffffffffffffffffffffff1602179055503373ffffffffffffffffffffffffffffffffffffffff168560010160009054906101000a900473ffffffffffffffffffffffffffffffffffffffff1673ffffffffffffffffffffffffffffffffffffffff168660020160009054906101000a900473ffffffffffffffffffffffffffffffffffffffff1673ffffffffffffffffffffffffffffffffffffffff167f75707d5d3d11632aafe99e9e60317891909f271b10026e79014651df900c32a08989600301548a60040154604051610a0c93929190613b4b565b60405180910390a4505050505050565b60006003600083815260200190815260200160002090508060060160009054906101000a900460ff1615610a85576040517f08c379a0000000000000000000000000000000000000000000000000000000008152600401610a7c906138b2565b60405180910390fd5b6000816008015411610acc576040517f08c379a0000000000000000000000000000000000000000000000000000000008152600401610ac390613bce565b60405180910390fd5b80600901544210610b12576040517f08c379a0000000000000000000000000000000000000000000000000000000008152600401610b0990613c3a565b60405180910390fd5b80600b01543411610b58576040517f08c379a0000000000000000000000000000000000000000000000000000000008152600401610b4f90613ca6565b60405180910390fd5b600081600b015414610bd45780600a0160009054906101000a900473ffffffffffffffffffffffffffffffffffffffff1673ffffffffffffffffffffffffffffffffffffffff166108fc82600b01549081150290604051600060405180830381858888f19350505050158015610bd2573d6000803e3d6000fd5b505b3381600a0160006101000a81548173ffffffffffffffffffffffffffffffffffffffff021916908373ffffffffffffffffffffffffffffffffffffffff1602179055503481600b01819055503373ffffffffffffffffffffffffffffffffffffffff168160020160009054906101000a900473ffffffffffffffffffffffffffffffffffffffff1673ffffffffffffffffffffffffffffffffffffffff167f0efc41f9ac6b1327ea0a4ce681dbef148dc7ef1663380fb4681a5d3a8ef2977784846003015434604051610ca993929190613b4b565b60405180910390a35050565b60008173ffffffffffffffffffffffffffffffffffffffff16630ee2cb106040518163ffffffff1660e01b8152600401602060405180830381865afa158015610d02573d6000803e3d6000fd5b505050506040513d601f19601f82011682018060405250810190610d269190613aa8565b90508073ffffffffffffffffffffffffffffffffffffffff163373ffffffffffffffffffffffffffffffffffffffff1614610d96576040517f08c379a0000000000000000000000000000000000000000000000000000000008152600401610d8d90613d38565b60405180910390fd5b60005b84849050811015610f7c576000858583818110610db957610db8613d58565b5b9050602002016020810190610dce9190612ee5565b90506000610ddb82610f83565b905060005b8151811015610f66576000828281518110610dfe57610dfd613d58565b5b602002602001015190508673ffffffffffffffffffffffffffffffffffffffff16816040015173ffffffffffffffffffffffffffffffffffffffff16148015610e4957508060c00151155b15610f5257806040015173ffffffffffffffffffffffffffffffffffffffff166342842e0e338684606001516040518463ffffffff1660e01b8152600401610e9393929190613de6565b600060405180830381600087803b158015610ead57600080fd5b505af1158015610ec1573d6000803e3d6000fd5b505050506001600360008360000151815260200190815260200160002060060160006101000a81548160ff02191690831515021790555083600360008360000151815260200190815260200160002060010160006101000a81548173ffffffffffffffffffffffffffffffffffffffff021916908373ffffffffffffffffffffffffffffffffffffffff1602179055505b508080610f5e90613e1d565b915050610de0565b5050508080610f7490613e1d565b915050610d99565b5050505050565b6060600080600190505b610f976001612c60565b8111611028578373ffffffffffffffffffffffffffffffffffffffff166003600083815260200190815260200160002060010160009054906101000a900473ffffffffffffffffffffffffffffffffffffffff1673ffffffffffffffffffffffffffffffffffffffff160361101557818061101190613e1d565b9250505b808061102090613e1d565b915050610f8d565b5060008167ffffffffffffffff81111561104557611044613437565b5b60405190808252806020026020018201604052801561107e57816020015b61106b612dce565b8152602001906001900390816110635790505b509050600080600190505b6110936001612c60565b8111611356578573ffffffffffffffffffffffffffffffffffffffff166003600083815260200190815260200160002060010160009054906101000a900473ffffffffffffffffffffffffffffffffffffffff1673ffffffffffffffffffffffffffffffffffffffff1603611343576003600082815260200190815260200160002060405180610180016040529081600082015481526020016001820160009054906101000a900473ffffffffffffffffffffffffffffffffffffffff1673ffffffffffffffffffffffffffffffffffffffff1673ffffffffffffffffffffffffffffffffffffffff1681526020016002820160009054906101000a900473ffffffffffffffffffffffffffffffffffffffff1673ffffffffffffffffffffffffffffffffffffffff1673ffffffffffffffffffffffffffffffffffffffff16815260200160038201548152602001600482015481526020016005820180546111fb90613e94565b80601f016020809104026020016040519081016040528092919081815260200182805461122790613e94565b80156112745780601f1061124957610100808354040283529160200191611274565b820191906000526020600020905b81548152906001019060200180831161125757829003601f168201915b505050505081526020016006820160009054906101000a900460ff16151515158152602001600782015481526020016008820154815260200160098201548152602001600a820160009054906101000a900473ffffffffffffffffffffffffffffffffffffffff1673ffffffffffffffffffffffffffffffffffffffff1673ffffffffffffffffffffffffffffffffffffffff168152602001600b8201548152505083838151811061132957611328613d58565b5b6020026020010181905250818061133f90613e1d565b9250505b808061134e90613e1d565b915050611089565b50819350505050919050565b600034116113a5576040517f08c379a000000000000000000000000000000000000000000000000000000000815260040161139c90613f11565b60405180910390fd5b60005b828290508110156113e8576113d58383838181106113c9576113c8613d58565b5b90506020020135610478565b80806113e090613e1d565b9150506113a8565b505050565b3373ffffffffffffffffffffffffffffffffffffffff168573ffffffffffffffffffffffffffffffffffffffff16636352211e866040518263ffffffff1660e01b815260040161143d9190612f2b565b602060405180830381865afa15801561145a573d6000803e3d6000fd5b505050506040513d601f19601f8201168201806040525081019061147e9190613f46565b73ffffffffffffffffffffffffffffffffffffffff16146114d4576040517f08c379a00000000000000000000000000000000000000000000000000000000081526004016114cb90613fe5565b60405180910390fd5b6114de6001612c6e565b6040518061018001604052806114f46001612c60565b81526020013373ffffffffffffffffffffffffffffffffffffffff1681526020018673ffffffffffffffffffffffffffffffffffffffff1681526020018581526020018481526020018381526020016000151581526020018281526020016000815260200160008152602001600073ffffffffffffffffffffffffffffffffffffffff1681526020016000815250600360006115906001612c60565b81526020019081526020016000206000820151816000015560208201518160010160006101000a81548173ffffffffffffffffffffffffffffffffffffffff021916908373ffffffffffffffffffffffffffffffffffffffff16021790555060408201518160020160006101000a81548173ffffffffffffffffffffffffffffffffffffffff021916908373ffffffffffffffffffffffffffffffffffffffff160217905550606082015181600301556080820151816004015560a082015181600501908161165f91906141a7565b5060c08201518160060160006101000a81548160ff02191690831515021790555060e082015181600701556101008201518160080155610120820151816009015561014082015181600a0160006101000a81548173ffffffffffffffffffffffffffffffffffffffff021916908373ffffffffffffffffffffffffffffffffffffffff16021790555061016082015181600b0155905050600460008673ffffffffffffffffffffffffffffffffffffffff1673ffffffffffffffffffffffffffffffffffffffff1681526020019081526020016000205483108061178257506000600460008773ffffffffffffffffffffffffffffffffffffffff1673ffffffffffffffffffffffffffffffffffffffff16815260200190815260200160002054145b156117cc5782600460008773ffffffffffffffffffffffffffffffffffffffff1673ffffffffffffffffffffffffffffffffffffffff168152602001908152602001600020819055505b3373ffffffffffffffffffffffffffffffffffffffff168573ffffffffffffffffffffffffffffffffffffffff167fcf4e2b398f8f130dfa20ec831a8ad0f918b3c680e9dbad3b2230ad0192f52b166118256001612c60565b8787878760405161183a959493929190614279565b60405180910390a35050505050565b611851612c84565b61185b6000612d02565b565b60046020528060005260406000206000915090505481565b60008060009054906101000a900473ffffffffffffffffffffffffffffffffffffffff16905090565b6060600080600190505b6118b26001612c60565b8111611943578373ffffffffffffffffffffffffffffffffffffffff166003600083815260200190815260200160002060020160009054906101000a900473ffffffffffffffffffffffffffffffffffffffff1673ffffffffffffffffffffffffffffffffffffffff160361193057818061192c90613e1d565b9250505b808061193b90613e1d565b9150506118a8565b5060008167ffffffffffffffff8111156119605761195f613437565b5b60405190808252806020026020018201604052801561199957816020015b611986612dce565b81526020019060019003908161197e5790505b509050600080600190505b6119ae6001612c60565b8111611c71578573ffffffffffffffffffffffffffffffffffffffff166003600083815260200190815260200160002060020160009054906101000a900473ffffffffffffffffffffffffffffffffffffffff1673ffffffffffffffffffffffffffffffffffffffff1603611c5e576003600082815260200190815260200160002060405180610180016040529081600082015481526020016001820160009054906101000a900473ffffffffffffffffffffffffffffffffffffffff1673ffffffffffffffffffffffffffffffffffffffff1673ffffffffffffffffffffffffffffffffffffffff1681526020016002820160009054906101000a900473ffffffffffffffffffffffffffffffffffffffff1673ffffffffffffffffffffffffffffffffffffffff1673ffffffffffffffffffffffffffffffffffffffff1681526020016003820154815260200160048201548152602001600582018054611b1690613e94565b80601f0160208091040260200160405190810160405280929190818152602001828054611b4290613e94565b8015611b8f5780601f10611b6457610100808354040283529160200191611b8f565b820191906000526020600020905b815481529060010190602001808311611b7257829003601f168201915b505050505081526020016006820160009054906101000a900460ff16151515158152602001600782015481526020016008820154815260200160098201548152602001600a820160009054906101000a900473ffffffffffffffffffffffffffffffffffffffff1673ffffffffffffffffffffffffffffffffffffffff1673ffffffffffffffffffffffffffffffffffffffff168152602001600b82015481525050838381518110611c4457611c43613d58565b5b60200260200101819052508180611c5a90613e1d565b9250505b8080611c6990613e1d565b9150506119a4565b50819350505050919050565b60006003600085815260200190815260200160002090508060060160009054906101000a900460ff1615611ce6576040517f08c379a0000000000000000000000000000000000000000000000000000000008152600401611cdd906138b2565b60405180910390fd5b8060010160009054906101000a900473ffffffffffffffffffffffffffffffffffffffff1673ffffffffffffffffffffffffffffffffffffffff163373ffffffffffffffffffffffffffffffffffffffff1614611d78576040517f08c379a0000000000000000000000000000000000000000000000000000000008152600401611d6f90613fe5565b60405180910390fd5b60008311611dbb576040517f08c379a0000000000000000000000000000000000000000000000000000000008152600401611db29061431f565b60405180910390fd5b60008211611dfe576040517f08c379a0000000000000000000000000000000000000000000000000000000008152600401611df59061438b565b60405180910390fd5b8281600801819055508142611e139190613b17565b81600901819055508060010160009054906101000a900473ffffffffffffffffffffffffffffffffffffffff1673ffffffffffffffffffffffffffffffffffffffff168160020160009054906101000a900473ffffffffffffffffffffffffffffffffffffffff1673ffffffffffffffffffffffffffffffffffffffff167f06b9e486c68303eb64052e0493f906f3d93a1b7149b6b8dcff221aebd16c3513868460030154878660090154604051611ece94939291906143ab565b60405180910390a350505050565b600260009054906101000a900473ffffffffffffffffffffffffffffffffffffffff1681565b60006003600083815260200190815260200160002090506000816000015403611f60576040517f08c379a0000000000000000000000000000000000000000000000000000000008152600401611f579061443c565b60405180910390fd5b6000816008015411611fa7576040517f08c379a0000000000000000000000000000000000000000000000000000000008152600401611f9e90613bce565b60405180910390fd5b8060060160009054906101000a900460ff1615611ff9576040517f08c379a0000000000000000000000000000000000000000000000000000000008152600401611ff0906144a8565b60405180910390fd5b8060010160009054906101000a900473ffffffffffffffffffffffffffffffffffffffff1673ffffffffffffffffffffffffffffffffffffffff163373ffffffffffffffffffffffffffffffffffffffff161461208b576040517f08c379a000000000000000000000000000000000000000000000000000000000815260040161208290614514565b60405180910390fd5b600081600b0154141580156120a4575042816009015410155b806120c25750600081600b01541480156120c15750428160090154105b5b806120e05750600081600b01541480156120df5750428160090154115b5b61211f576040517f08c379a0000000000000000000000000000000000000000000000000000000008152600401612116906145a6565b60405180910390fd5b600081600b01541461219b5780600a0160009054906101000a900473ffffffffffffffffffffffffffffffffffffffff1673ffffffffffffffffffffffffffffffffffffffff166108fc82600b01549081150290604051600060405180830381858888f19350505050158015612199573d6000803e3d6000fd5b505b6000816008018190555060008160090181905550600081600a0160006101000a81548173ffffffffffffffffffffffffffffffffffffffff021916908373ffffffffffffffffffffffffffffffffffffffff160217905550600081600b01819055508060010160009054906101000a900473ffffffffffffffffffffffffffffffffffffffff1673ffffffffffffffffffffffffffffffffffffffff168160020160009054906101000a900473ffffffffffffffffffffffffffffffffffffffff1673ffffffffffffffffffffffffffffffffffffffff167f2fd0fd288a849022c51c1ab9e887d7a4f89ac1126432be270b0ba773382ad661836000015484600301546040516122ac9291906145c6565b60405180910390a35050565b60036020528060005260406000206000915090508060000154908060010160009054906101000a900473ffffffffffffffffffffffffffffffffffffffff16908060020160009054906101000a900473ffffffffffffffffffffffffffffffffffffffff169080600301549080600401549080600501805461233990613e94565b80601f016020809104026020016040519081016040528092919081815260200182805461236590613e94565b80156123b25780601f10612387576101008083540402835291602001916123b2565b820191906000526020600020905b81548152906001019060200180831161239557829003601f168201915b5050505050908060060160009054906101000a900460ff169080600701549080600801549080600901549080600a0160009054906101000a900473ffffffffffffffffffffffffffffffffffffffff169080600b015490508c565b600060036000838152602001908152602001600020905060008160020160009054906101000a900473ffffffffffffffffffffffffffffffffffffffff1673ffffffffffffffffffffffffffffffffffffffff16636352211e83600301546040518263ffffffff1660e01b81526004016124879190612f2b565b602060405180830381865afa1580156124a4573d6000803e3d6000fd5b505050506040513d601f19601f820116820180604052508101906124c89190613f46565b90508160060160009054906101000a900460ff161561251c576040517f08c379a0000000000000000000000000000000000000000000000000000000008152600401612513906138b2565b60405180910390fd5b6000826008015411612563576040517f08c379a000000000000000000000000000000000000000000000000000000000815260040161255a90613bce565b60405180910390fd5b81600901544210156125aa576040517f08c379a00000000000000000000000000000000000000000000000000000000081526004016125a19061463b565b60405180910390fd5b3373ffffffffffffffffffffffffffffffffffffffff168173ffffffffffffffffffffffffffffffffffffffff1614612618576040517f08c379a000000000000000000000000000000000000000000000000000000000815260040161260f90613fe5565b60405180910390fd5b8160020160009054906101000a900473ffffffffffffffffffffffffffffffffffffffff1673ffffffffffffffffffffffffffffffffffffffff166342842e0e8284600a0160009054906101000a900473ffffffffffffffffffffffffffffffffffffffff1685600301546040518463ffffffff1660e01b81526004016126a193929190613de6565b600060405180830381600087803b1580156126bb57600080fd5b505af11580156126cf573d6000803e3d6000fd5b505050508160010160009054906101000a900473ffffffffffffffffffffffffffffffffffffffff1673ffffffffffffffffffffffffffffffffffffffff166108fc83600b01549081150290604051600060405180830381858888f19350505050158015612741573d6000803e3d6000fd5b5060018260060160006101000a81548160ff02191690831515021790555081600a0160009054906101000a900473ffffffffffffffffffffffffffffffffffffffff168260010160006101000a81548173ffffffffffffffffffffffffffffffffffffffff021916908373ffffffffffffffffffffffffffffffffffffffff1602179055506000826008018190555060008260090181905550600082600a0160006101000a81548173ffffffffffffffffffffffffffffffffffffffff021916908373ffffffffffffffffffffffffffffffffffffffff160217905550600082600b018190555081600a0160009054906101000a900473ffffffffffffffffffffffffffffffffffffffff1673ffffffffffffffffffffffffffffffffffffffff168260010160009054906101000a900473ffffffffffffffffffffffffffffffffffffffff1673ffffffffffffffffffffffffffffffffffffffff168360020160009054906101000a900473ffffffffffffffffffffffffffffffffffffffff1673ffffffffffffffffffffffffffffffffffffffff167f6c47fd8bd138d7325768cd34fb84465cf68b7d556baca7bdadea071c5c9a1b0986866003015487600b015460405161291493929190613b4b565b60405180910390a4505050565b60006003600084815260200190815260200160002090508060010160009054906101000a900473ffffffffffffffffffffffffffffffffffffffff1673ffffffffffffffffffffffffffffffffffffffff163373ffffffffffffffffffffffffffffffffffffffff16146129ca576040517f08c379a00000000000000000000000000000000000000000000000000000000081526004016129c190613fe5565b60405180910390fd5b81816004018190555060008160060160006101000a81548160ff021916908315150217905550338160010160006101000a81548173ffffffffffffffffffffffffffffffffffffffff021916908373ffffffffffffffffffffffffffffffffffffffff160217905550600460008260020160009054906101000a900473ffffffffffffffffffffffffffffffffffffffff1673ffffffffffffffffffffffffffffffffffffffff1673ffffffffffffffffffffffffffffffffffffffff16815260200190815260200160002054821015612b075781600460008360020160009054906101000a900473ffffffffffffffffffffffffffffffffffffffff1673ffffffffffffffffffffffffffffffffffffffff1673ffffffffffffffffffffffffffffffffffffffff168152602001908152602001600020819055505b8060010160009054906101000a900473ffffffffffffffffffffffffffffffffffffffff1673ffffffffffffffffffffffffffffffffffffffff168160020160009054906101000a900473ffffffffffffffffffffffffffffffffffffffff1673ffffffffffffffffffffffffffffffffffffffff167fcf4e2b398f8f130dfa20ec831a8ad0f918b3c680e9dbad3b2230ad0192f52b1685846003015486866005018760070154604051612bbf9594939291906146df565b60405180910390a3505050565b6000612bd86001612c60565b905090565b612be5612c84565b600073ffffffffffffffffffffffffffffffffffffffff168173ffffffffffffffffffffffffffffffffffffffff1603612c54576040517f08c379a0000000000000000000000000000000000000000000000000000000008152600401612c4b906147ab565b60405180910390fd5b612c5d81612d02565b50565b600081600001549050919050565b6001816000016000828254019250508190555050565b612c8c612dc6565b73ffffffffffffffffffffffffffffffffffffffff16612caa611875565b73ffffffffffffffffffffffffffffffffffffffff1614612d00576040517f08c379a0000000000000000000000000000000000000000000000000000000008152600401612cf790614817565b60405180910390fd5b565b60008060009054906101000a900473ffffffffffffffffffffffffffffffffffffffff169050816000806101000a81548173ffffffffffffffffffffffffffffffffffffffff021916908373ffffffffffffffffffffffffffffffffffffffff1602179055508173ffffffffffffffffffffffffffffffffffffffff168173ffffffffffffffffffffffffffffffffffffffff167f8be0079c531659141344cd1fd0a4f28419497f9722a3daafe3b4186f6b6457e060405160405180910390a35050565b600033905090565b60405180610180016040528060008152602001600073ffffffffffffffffffffffffffffffffffffffff168152602001600073ffffffffffffffffffffffffffffffffffffffff168152602001600081526020016000815260200160608152602001600015158152602001600081526020016000815260200160008152602001600073ffffffffffffffffffffffffffffffffffffffff168152602001600081525090565b6000604051905090565b600080fd5b600080fd5b600073ffffffffffffffffffffffffffffffffffffffff82169050919050565b6000612eb282612e87565b9050919050565b612ec281612ea7565b8114612ecd57600080fd5b50565b600081359050612edf81612eb9565b92915050565b600060208284031215612efb57612efa612e7d565b5b6000612f0984828501612ed0565b91505092915050565b6000819050919050565b612f2581612f12565b82525050565b6000602082019050612f406000830184612f1c565b92915050565b612f4f81612f12565b8114612f5a57600080fd5b50565b600081359050612f6c81612f46565b92915050565b600060208284031215612f8857612f87612e7d565b5b6000612f9684828501612f5d565b91505092915050565b600080fd5b600080fd5b600080fd5b60008083601f840112612fc457612fc3612f9f565b5b8235905067ffffffffffffffff811115612fe157612fe0612fa4565b5b602083019150836020820283011115612ffd57612ffc612fa9565b5b9250929050565b60008060006040848603121561301d5761301c612e7d565b5b600084013567ffffffffffffffff81111561303b5761303a612e82565b5b61304786828701612fae565b9350935050602061305a86828701612ed0565b9150509250925092565b600061306f82612e87565b9050919050565b61307f81613064565b811461308a57600080fd5b50565b60008135905061309c81613076565b92915050565b6000602082840312156130b8576130b7612e7d565b5b60006130c68482850161308d565b91505092915050565b600081519050919050565b600082825260208201905092915050565b6000819050602082019050919050565b61310481612f12565b82525050565b61311381613064565b82525050565b61312281612ea7565b82525050565b600081519050919050565b600082825260208201905092915050565b60005b83811015613162578082015181840152602081019050613147565b60008484015250505050565b6000601f19601f8301169050919050565b600061318a82613128565b6131948185613133565b93506131a4818560208601613144565b6131ad8161316e565b840191505092915050565b60008115159050919050565b6131cd816131b8565b82525050565b6000610180830160008301516131ec60008601826130fb565b5060208301516131ff602086018261310a565b5060408301516132126040860182613119565b50606083015161322560608601826130fb565b50608083015161323860808601826130fb565b5060a083015184820360a0860152613250828261317f565b91505060c083015161326560c08601826131c4565b5060e083015161327860e08601826130fb565b5061010083015161328d6101008601826130fb565b506101208301516132a26101208601826130fb565b506101408301516132b761014086018261310a565b506101608301516132cc6101608601826130fb565b508091505092915050565b60006132e383836131d3565b905092915050565b6000602082019050919050565b6000613303826130cf565b61330d81856130da565b93508360208202850161331f856130eb565b8060005b8581101561335b578484038952815161333c85826132d7565b9450613347836132eb565b925060208a01995050600181019050613323565b50829750879550505050505092915050565b6000602082019050818103600083015261338781846132f8565b905092915050565b60008083601f8401126133a5576133a4612f9f565b5b8235905067ffffffffffffffff8111156133c2576133c1612fa4565b5b6020830191508360208202830111156133de576133dd612fa9565b5b9250929050565b600080602083850312156133fc576133fb612e7d565b5b600083013567ffffffffffffffff81111561341a57613419612e82565b5b6134268582860161338f565b92509250509250929050565b600080fd5b7f4e487b7100000000000000000000000000000000000000000000000000000000600052604160045260246000fd5b61346f8261316e565b810181811067ffffffffffffffff8211171561348e5761348d613437565b5b80604052505050565b60006134a1612e73565b90506134ad8282613466565b919050565b600067ffffffffffffffff8211156134cd576134cc613437565b5b6134d68261316e565b9050602081019050919050565b82818337600083830152505050565b6000613505613500846134b2565b613497565b90508281526020810184848401111561352157613520613432565b5b61352c8482856134e3565b509392505050565b600082601f83011261354957613548612f9f565b5b81356135598482602086016134f2565b91505092915050565b600080600080600060a0868803121561357e5761357d612e7d565b5b600061358c88828901612ed0565b955050602061359d88828901612f5d565b94505060406135ae88828901612f5d565b935050606086013567ffffffffffffffff8111156135cf576135ce612e82565b5b6135db88828901613534565b92505060806135ec88828901612f5d565b9150509295509295909350565b61360281612ea7565b82525050565b600060208201905061361d60008301846135f9565b92915050565b60008060006060848603121561363c5761363b612e7d565b5b600061364a86828701612f5d565b935050602061365b86828701612f5d565b925050604061366c86828701612f5d565b9150509250925092565b61367f81613064565b82525050565b600060208201905061369a6000830184613676565b92915050565b600082825260208201905092915050565b60006136bc82613128565b6136c681856136a0565b93506136d6818560208601613144565b6136df8161316e565b840191505092915050565b6136f3816131b8565b82525050565b60006101808201905061370f600083018f612f1c565b61371c602083018e613676565b613729604083018d6135f9565b613736606083018c612f1c565b613743608083018b612f1c565b81810360a0830152613755818a6136b1565b905061376460c08301896136ea565b61377160e0830188612f1c565b61377f610100830187612f1c565b61378d610120830186612f1c565b61379b610140830185613676565b6137a9610160830184612f1c565b9d9c50505050505050505050505050565b600080604083850312156137d1576137d0612e7d565b5b60006137df85828601612f5d565b92505060206137f085828601612f5d565b9150509250929050565b7f4e6f7420656e6f75676820455448000000000000000000000000000000000000600082015250565b6000613830600e836136a0565b915061383b826137fa565b602082019050919050565b6000602082019050818103600083015261385f81613823565b9050919050565b7f416c726561647920736f6c64206f757400000000000000000000000000000000600082015250565b600061389c6010836136a0565b91506138a782613866565b602082019050919050565b600060208201905081810360008301526138cb8161388f565b9050919050565b7f596f752063616e27742062757920796f7572206f776e204e4654000000000000600082015250565b6000613908601a836136a0565b9150613913826138d2565b602082019050919050565b60006020820190508181036000830152613937816138fb565b9050919050565b7f447572696e67207468652061756374696f6e2c20796f752063616e277420627560008201527f792074686973204e465400000000000000000000000000000000000000000000602082015250565b600061399a602a836136a0565b91506139a58261393e565b604082019050919050565b600060208201905081810360008301526139c98161398d565b9050919050565b7f4e487b7100000000000000000000000000000000000000000000000000000000600052601260045260246000fd5b7f4e487b7100000000000000000000000000000000000000000000000000000000600052601160045260246000fd5b6000613a3982612f12565b9150613a4483612f12565b925082613a5457613a536139d0565b5b828204905092915050565b6000613a6a82612f12565b9150613a7583612f12565b9250828203905081811115613a8d57613a8c6139ff565b5b92915050565b600081519050613aa281613076565b92915050565b600060208284031215613abe57613abd612e7d565b5b6000613acc84828501613a93565b91505092915050565b6000613ae082612f12565b9150613aeb83612f12565b9250828202613af981612f12565b91508282048414831517613b1057613b0f6139ff565b5b5092915050565b6000613b2282612f12565b9150613b2d83612f12565b9250828201905080821115613b4557613b446139ff565b5b92915050565b6000606082019050613b606000830186612f1c565b613b6d6020830185612f1c565b613b7a6040830184612f1c565b949350505050565b7f41756374696f6e206e6f74207374617274656400000000000000000000000000600082015250565b6000613bb86013836136a0565b9150613bc382613b82565b602082019050919050565b60006020820190508181036000830152613be781613bab565b9050919050565b7f41756374696f6e20697320656e64656400000000000000000000000000000000600082015250565b6000613c246010836136a0565b9150613c2f82613bee565b602082019050919050565b60006020820190508181036000830152613c5381613c17565b9050919050565b7f42696420616d6f756e7420697320746f6f206c6f770000000000000000000000600082015250565b6000613c906015836136a0565b9150613c9b82613c5a565b602082019050919050565b60006020820190508181036000830152613cbf81613c83565b9050919050565b7f596f7520617265206e6f74207468652043726561746f72206f6620746869732060008201527f436f6c6c656374696f6e00000000000000000000000000000000000000000000602082015250565b6000613d22602a836136a0565b9150613d2d82613cc6565b604082019050919050565b60006020820190508181036000830152613d5181613d15565b9050919050565b7f4e487b7100000000000000000000000000000000000000000000000000000000600052603260045260246000fd5b6000819050919050565b6000613dac613da7613da284612e87565b613d87565b612e87565b9050919050565b6000613dbe82613d91565b9050919050565b6000613dd082613db3565b9050919050565b613de081613dc5565b82525050565b6000606082019050613dfb60008301866135f9565b613e086020830185613dd7565b613e156040830184612f1c565b949350505050565b6000613e2882612f12565b91507fffffffffffffffffffffffffffffffffffffffffffffffffffffffffffffffff8203613e5a57613e596139ff565b5b600182019050919050565b7f4e487b7100000000000000000000000000000000000000000000000000000000600052602260045260246000fd5b60006002820490506001821680613eac57607f821691505b602082108103613ebf57613ebe613e65565b5b50919050565b7f4e6f204554482073656e74000000000000000000000000000000000000000000600082015250565b6000613efb600b836136a0565b9150613f0682613ec5565b602082019050919050565b60006020820190508181036000830152613f2a81613eee565b9050919050565b600081519050613f4081612eb9565b92915050565b600060208284031215613f5c57613f5b612e7d565b5b6000613f6a84828501613f31565b91505092915050565b7f596f7520617265206e6f7420746865206f776e6572206f662074686973204e4660008201527f5400000000000000000000000000000000000000000000000000000000000000602082015250565b6000613fcf6021836136a0565b9150613fda82613f73565b604082019050919050565b60006020820190508181036000830152613ffe81613fc2565b9050919050565b60008190508160005260206000209050919050565b60006020601f8301049050919050565b600082821b905092915050565b6000600883026140677fffffffffffffffffffffffffffffffffffffffffffffffffffffffffffffffff8261402a565b614071868361402a565b95508019841693508086168417925050509392505050565b60006140a461409f61409a84612f12565b613d87565b612f12565b9050919050565b6000819050919050565b6140be83614089565b6140d26140ca826140ab565b848454614037565b825550505050565b600090565b6140e76140da565b6140f28184846140b5565b505050565b5b818110156141165761410b6000826140df565b6001810190506140f8565b5050565b601f82111561415b5761412c81614005565b6141358461401a565b81016020851015614144578190505b6141586141508561401a565b8301826140f7565b50505b505050565b600082821c905092915050565b600061417e60001984600802614160565b1980831691505092915050565b6000614197838361416d565b9150826002028217905092915050565b6141b082613128565b67ffffffffffffffff8111156141c9576141c8613437565b5b6141d38254613e94565b6141de82828561411a565b600060209050601f83116001811461421157600084156141ff578287015190505b614209858261418b565b865550614271565b601f19841661421f86614005565b60005b8281101561424757848901518255600182019150602085019450602081019050614222565b868310156142645784890151614260601f89168261416d565b8355505b6001600288020188555050505b505050505050565b600060a08201905061428e6000830188612f1c565b61429b6020830187612f1c565b6142a86040830186612f1c565b81810360608301526142ba81856136b1565b90506142c96080830184612f1c565b9695505050505050565b7f496e76616c6964206f70656e696e672070726963650000000000000000000000600082015250565b60006143096015836136a0565b9150614314826142d3565b602082019050919050565b60006020820190508181036000830152614338816142fc565b9050919050565b7f496e76616c69642061756374696f6e206475726174696f6e0000000000000000600082015250565b60006143756018836136a0565b91506143808261433f565b602082019050919050565b600060208201905081810360008301526143a481614368565b9050919050565b60006080820190506143c06000830187612f1c565b6143cd6020830186612f1c565b6143da6040830185612f1c565b6143e76060830184612f1c565b95945050505050565b7f546f6b656e206e6f7420666f756e640000000000000000000000000000000000600082015250565b6000614426600f836136a0565b9150614431826143f0565b602082019050919050565b6000602082019050818103600083015261445581614419565b9050919050565b7f546f6b656e20697320616c726561647920736f6c640000000000000000000000600082015250565b60006144926015836136a0565b915061449d8261445c565b602082019050919050565b600060208201905081810360008301526144c181614485565b9050919050565b7f596f7520617265206e6f74207468652073656c6c657200000000000000000000600082015250565b60006144fe6016836136a0565b9150614509826144c8565b602082019050919050565b6000602082019050818103600083015261452d816144f1565b9050919050565b7f496e207468697320636f6e646974696f6e2c204f776e65722063616e2774206360008201527f616e63656c2041756374696f6e00000000000000000000000000000000000000602082015250565b6000614590602d836136a0565b915061459b82614534565b604082019050919050565b600060208201905081810360008301526145bf81614583565b9050919050565b60006040820190506145db6000830185612f1c565b6145e86020830184612f1c565b9392505050565b7f41756374696f6e20686173206e6f7420656e6465642079657400000000000000600082015250565b60006146256019836136a0565b9150614630826145ef565b602082019050919050565b6000602082019050818103600083015261465481614618565b9050919050565b6000815461466881613e94565b61467281866136a0565b9450600182166000811461468d57600181146146a3576146d6565b60ff1983168652811515602002860193506146d6565b6146ac85614005565b60005b838110156146ce578154818901526001820191506020810190506146af565b808801955050505b50505092915050565b600060a0820190506146f46000830188612f1c565b6147016020830187612f1c565b61470e6040830186612f1c565b8181036060830152614720818561465b565b905061472f6080830184612f1c565b9695505050505050565b7f4f776e61626c653a206e6577206f776e657220697320746865207a65726f206160008201527f6464726573730000000000000000000000000000000000000000000000000000602082015250565b60006147956026836136a0565b91506147a082614739565b604082019050919050565b600060208201905081810360008301526147c481614788565b9050919050565b7f4f776e61626c653a2063616c6c6572206973206e6f7420746865206f776e6572600082015250565b60006148016020836136a0565b915061480c826147cb565b602082019050919050565b60006020820190508181036000830152614830816147f4565b905091905056fea26469706673582212203b2a8bca1057606a036db50a756bf3bb5740c3c02091272d293999a40cf32a0064736f6c63430008120033",
  "immutableReferences": {},
  "source": "// SPDX-License-Identifier: MIT\npragma solidity ^0.8.1;\n\nimport \"../node_modules/@openzeppelin/contracts/token/ERC721/ERC721.sol\";\nimport \"../node_modules/@openzeppelin/contracts/token/ERC721/IERC721.sol\";\nimport \"../node_modules/@openzeppelin/contracts/access/Ownable.sol\";\nimport \"../node_modules/@openzeppelin/contracts/utils/Counters.sol\";\nimport \"./RTToken.sol\";\n\n\ncontract Marketplace is Ownable {\n    using Counters for Counters.Counter;\n    Counters.Counter private _Ids;\n    address payable public marketAddress;\n\n    struct TokenInfo {\n        uint256 id;\n        address payable seller;\n        address NFTaddress;\n        uint256 tokenId;\n        uint256 price;\n        string metadata;\n        bool sold;\n        uint256 creatorFee;\n        uint256 openingPrice; // \n        uint256 auctionEndTime; //   \n        address payable highestBidder; //   \n        uint256 highestBid; //  \n    }\n\n    mapping(uint256 => TokenInfo) public TokenOnSale;\n    mapping(address => uint256) public lowestPriceByCollection;\n    mapping(address => uint256) public totalSalesByCollection;\n\n    event Add(uint256 id, address indexed NftAddress, address indexed seller, uint256 tokenId, uint256 price, string metadata, uint256 creatorFee);\n    event Buy(uint256 id, address indexed NftAddress, address indexed seller, address indexed buyer, uint256 tokenId, uint256 price);\n    event AuctionCreated(uint256 id, address indexed NftAddress, address indexed seller, uint256 tokenId, uint256 openingPrice, uint256 auctionEndTime);\n    event BidderChanged(uint256 id, address indexed NftAddress, address indexed bidder, uint256 tokenId, uint256 bidAmount);\n    event AuctionEnded(uint256 id, address indexed NftAddress, address indexed seller, address indexed winner, uint256 tokenId, uint256 winningBid);\n    event AuctionCancelled(uint256 id, address indexed NftAddress, address indexed seller, uint256 tokenId);\n\n    constructor() {\n        marketAddress = payable(msg.sender);\n    }\n\n    function getLatestId() public view returns (uint256) {\n        return _Ids.current();\n    }\n\n    function addNftToMarket(address _NFTaddress, uint256 _tokenId, uint256 _price, string memory _metadata, uint256 _creatorFee) external {\n        require(ERC721(_NFTaddress).ownerOf(_tokenId) == msg.sender, \"You are not the owner of this NFT\");\n\n        _Ids.increment();\n        TokenOnSale[_Ids.current()] = TokenInfo(_Ids.current(), payable(msg.sender), _NFTaddress, _tokenId, _price, _metadata, false, _creatorFee, 0, 0, payable(address(0)), 0);\n        if (_price < lowestPriceByCollection[_NFTaddress] || lowestPriceByCollection[_NFTaddress] == 0) {\n            lowestPriceByCollection[_NFTaddress] = _price;\n        }\n\n        emit Add(_Ids.current(), _NFTaddress, msg.sender, _tokenId, _price, _metadata, _creatorFee);\n    }\n\n\n    function buyNfts(uint256[] calldata _ids) external payable {\n        require(msg.value > 0, \"No ETH sent\");\n\n        for (uint256 i = 0; i < _ids.length; i++) {\n            buyNft(_ids[i]);\n        }\n    }\n\n    function buyNft(uint256 _id) public payable {\n        TokenInfo storage token = TokenOnSale[_id];\n        require(msg.value >= token.price, \"Not enough ETH\");\n        require(!token.sold, \"Already sold out\");\n        require(msg.sender != token.seller, \"You can't buy your own NFT\");\n        require(token.openingPrice == 0, \"During the auction, you can't buy this NFT\");\n\n        uint256 marketFee = token.price / 100;\n        uint256 creatorRoyalty = 0;\n        uint256 sellerAmount = token.price - marketFee;\n\n        marketAddress.transfer(marketFee);\n\n        address payable creator = RTToken(token.NFTaddress).getCreator();\n        if (token.seller != creator) {\n            creatorRoyalty = token.price * token.creatorFee / 1000;\n            sellerAmount -= creatorRoyalty;\n            creator.transfer(creatorRoyalty);\n        }\n        token.seller.transfer(sellerAmount);\n\n        totalSalesByCollection[token.NFTaddress] += token.price;\n        token.sold = true;\n        token.seller = payable(msg.sender);\n\n        emit Buy(_id, token.NFTaddress, token.seller, msg.sender, token.tokenId, token.price);\n    }\n\n    function reAddNftToMarket(uint256 _id, uint256 _price) external {\n        TokenInfo storage token = TokenOnSale[_id];\n        require(msg.sender == token.seller, \"You are not the owner of this NFT\");\n\n        token.price = _price;\n        token.sold = false;\n        token.seller = payable(msg.sender);\n\n        if (_price < lowestPriceByCollection[token.NFTaddress]) {\n            lowestPriceByCollection[token.NFTaddress] = _price;\n        }\n\n        emit Add(_id, token.NFTaddress, token.seller, token.tokenId, _price, token.metadata, token.creatorFee);\n    }\n\n    function startAuction(uint256 _id, uint256 _openingPrice, uint256 _duration) external {\n        TokenInfo storage token = TokenOnSale[_id];\n        require(!token.sold, \"Already sold out\");\n        require(msg.sender == token.seller, \"You are not the owner of this NFT\");\n        require(_openingPrice > 0, \"Invalid opening price\");\n        require(_duration > 0, \"Invalid auction duration\");\n\n        token.openingPrice = _openingPrice;\n        token.auctionEndTime = block.timestamp + _duration;\n\n        emit AuctionCreated(_id, token.NFTaddress, token.seller, token.tokenId, _openingPrice, token.auctionEndTime);\n    }\n\n    function bidInAuction(uint256 _id) external payable {\n        TokenInfo storage token = TokenOnSale[_id];\n        require(!token.sold, \"Already sold out\");\n        require(token.openingPrice > 0, \"Auction not started\");\n        require(block.timestamp < token.auctionEndTime, \"Auction is ended\");\n        require(msg.value > token.highestBid, \"Bid amount is too low\");\n\n        if (token.highestBid != 0) {\n            token.highestBidder.transfer(token.highestBid); //      \n        }\n\n        token.highestBidder = payable(msg.sender);\n        token.highestBid = msg.value;\n\n        emit BidderChanged(_id, token.NFTaddress, msg.sender, token.tokenId, msg.value);\n    }\n\n    function endAuction(uint256 _id) public {\n        TokenInfo storage token = TokenOnSale[_id];\n        address owner = IERC721(token.NFTaddress).ownerOf(token.tokenId);\n\n        require(!token.sold, \"Already sold out\");\n        require(token.openingPrice > 0, \"Auction not started\");\n        require(block.timestamp >= token.auctionEndTime, \"Auction has not ended yet\");\n        require(owner == msg.sender, \"You are not the owner of this NFT\");\n\n        //      NFT    \n        IERC721(token.NFTaddress).safeTransferFrom(owner, token.highestBidder, token.tokenId);\n        token.seller.transfer(token.highestBid);\n        token.sold = true;\n        token.seller = payable(token.highestBidder);\n\n        //    \n        token.openingPrice = 0;\n        token.auctionEndTime = 0;\n        token.highestBidder = payable(address(0));\n        token.highestBid = 0;\n\n        emit AuctionEnded(_id, token.NFTaddress, token.seller, token.highestBidder, token.tokenId, token.highestBid);\n    }\n\n    // function timer() external {\n    //     for (uint256 i = 1; i <= _Ids.current(); i++) {\n    //         TokenInfo storage token = TokenOnSale[i];\n    //         if (!token.sold && token.openingPrice > 0 && block.timestamp >= token.auctionEndTime && token.highestBidder != address(0)) {\n    //             require(msg.sender == token.highestBidder, \"Only last highest bidder can end the auction\");\n    //             endAuction(i);\n    //         }\n    //     }\n    // }\n\n    function cancelAuction(uint256 _id) external {\n        TokenInfo storage token = TokenOnSale[_id];\n        require(token.id != 0, \"Token not found\");\n        require(token.openingPrice > 0, \"Auction not started\");\n        require(!token.sold, \"Token is already sold\");\n        require(msg.sender == token.seller, \"You are not the seller\");\n        require((token.highestBid != 0 && token.auctionEndTime >= block.timestamp) \n            || (token.highestBid == 0 && token.auctionEndTime < block.timestamp) \n            || (token.highestBid == 0 && token.auctionEndTime > block.timestamp)\n        , \"In this condition, Owner can't cancel Auction\");\n\n\n\n        if (token.highestBid != 0) {\n            token.highestBidder.transfer(token.highestBid);\n        }\n\n        token.openingPrice = 0;\n        token.auctionEndTime = 0;\n        token.highestBidder = payable(address(0));\n        token.highestBid = 0;\n\n        emit AuctionCancelled(token.id, token.NFTaddress, token.seller, token.tokenId);\n    }\n\n    function getAllTokensInCollection(address _NFTaddress) public view returns (TokenInfo[] memory) {\n        uint256 count = 0;\n        for (uint256 i = 1; i <= _Ids.current(); i++) {\n            if (TokenOnSale[i].NFTaddress == _NFTaddress) {\n                count++;\n            }\n        }\n        TokenInfo[] memory tokens = new TokenInfo[](count);\n\n        uint256 index = 0;\n        for (uint256 i = 1; i <= _Ids.current(); i++) {\n            if (TokenOnSale[i].NFTaddress == _NFTaddress) {\n                tokens[index] = TokenOnSale[i];\n                index++;\n            }\n        }\n\n        return tokens;\n    }\n\n    function getUserTokens(address payable _address) public view returns (TokenInfo[] memory) {\n        uint256 count = 0;\n        for (uint256 i = 1; i <= _Ids.current(); i++) {\n            if (TokenOnSale[i].seller == _address) {\n                count++;\n            }\n        }\n        TokenInfo[] memory tokens = new TokenInfo[](count);\n\n        uint256 index = 0;\n        for (uint256 i = 1; i <= _Ids.current(); i++) {\n            if (TokenOnSale[i].seller == _address) {\n                tokens[index] = TokenOnSale[i];\n                index++;\n            }\n        }\n\n        return tokens;\n    }\n\n\nfunction setPresentForAirdrop(address[] calldata addresses, address _NFTaddress) external {\n    address payable creator = RTToken(_NFTaddress).getCreator();\n    require(msg.sender == creator, \"You are not the Creator of this Collection\");\n\n    for (uint256 i = 0; i < addresses.length; i++) {\n        address payable target = payable(addresses[i]);\n        TokenInfo[] memory userTokens = getUserTokens(target);\n\n        for (uint256 j = 0; j < userTokens.length; j++) {\n            TokenInfo memory token = userTokens[j];\n\n            if (token.NFTaddress == _NFTaddress && !token.sold) {\n                //  \n                IERC721(token.NFTaddress).safeTransferFrom(msg.sender, target, token.tokenId);\n\n                TokenOnSale[token.id].sold = true;\n                TokenOnSale[token.id].seller = target;\n            }\n        }\n    }\n}\n\n}\n",
  "sourcePath": "/Users/kimjh/Documents/workspace/ZDB/rooftop/nft/contracts/Marketplace.sol",
  "compiler": {
    "name": "solc",
    "version": "0.8.18+commit.87f61d96.Emscripten.clang"
  },
  "schemaVersion": "3.4.14",
  "updatedAt": "2023-07-04T07:29:06.846Z",
  "networkType": "ethereum",
  "devdoc": {
    "kind": "dev",
    "methods": {
      "owner()": {
        "details": "Returns the address of the current owner."
      },
      "renounceOwnership()": {
        "details": "Leaves the contract without owner. It will not be possible to call `onlyOwner` functions. Can only be called by the current owner. NOTE: Renouncing ownership will leave the contract without an owner, thereby disabling any functionality that is only available to the owner."
      },
      "transferOwnership(address)": {
        "details": "Transfers ownership of the contract to a new account (`newOwner`). Can only be called by the current owner."
      }
    },
    "version": 1
  },
  "userdoc": {
    "kind": "user",
    "methods": {},
    "version": 1
  }
}