{
  "contractName": "Marketplace",
  "abi": [
    {
      "inputs": [],
      "stateMutability": "nonpayable",
      "type": "constructor"
    },
    {
      "anonymous": false,
      "inputs": [
        {
          "indexed": false,
          "internalType": "uint256",
          "name": "id",
          "type": "uint256"
        },
        {
          "indexed": true,
          "internalType": "address",
          "name": "NftAddress",
          "type": "address"
        },
        {
          "indexed": true,
          "internalType": "address",
          "name": "seller",
          "type": "address"
        },
        {
          "indexed": false,
          "internalType": "uint256",
          "name": "tokenId",
          "type": "uint256"
        },
        {
          "indexed": false,
          "internalType": "uint256",
          "name": "price",
          "type": "uint256"
        },
        {
          "indexed": false,
          "internalType": "string",
          "name": "metadata",
          "type": "string"
        },
        {
          "indexed": false,
          "internalType": "uint256",
          "name": "creatorFee",
          "type": "uint256"
        }
      ],
      "name": "Add",
      "type": "event"
    },
    {
      "anonymous": false,
      "inputs": [
        {
          "indexed": false,
          "internalType": "uint256",
          "name": "id",
          "type": "uint256"
        },
        {
          "indexed": true,
          "internalType": "address",
          "name": "NftAddress",
          "type": "address"
        },
        {
          "indexed": true,
          "internalType": "address",
          "name": "seller",
          "type": "address"
        },
        {
          "indexed": false,
          "internalType": "uint256",
          "name": "tokenId",
          "type": "uint256"
        }
      ],
      "name": "AuctionCancelled",
      "type": "event"
    },
    {
      "anonymous": false,
      "inputs": [
        {
          "indexed": false,
          "internalType": "uint256",
          "name": "id",
          "type": "uint256"
        },
        {
          "indexed": true,
          "internalType": "address",
          "name": "NftAddress",
          "type": "address"
        },
        {
          "indexed": true,
          "internalType": "address",
          "name": "seller",
          "type": "address"
        },
        {
          "indexed": false,
          "internalType": "uint256",
          "name": "tokenId",
          "type": "uint256"
        },
        {
          "indexed": false,
          "internalType": "uint256",
          "name": "openingPrice",
          "type": "uint256"
        },
        {
          "indexed": false,
          "internalType": "uint256",
          "name": "auctionEndTime",
          "type": "uint256"
        }
      ],
      "name": "AuctionCreated",
      "type": "event"
    },
    {
      "anonymous": false,
      "inputs": [
        {
          "indexed": false,
          "internalType": "uint256",
          "name": "id",
          "type": "uint256"
        },
        {
          "indexed": true,
          "internalType": "address",
          "name": "NftAddress",
          "type": "address"
        },
        {
          "indexed": true,
          "internalType": "address",
          "name": "seller",
          "type": "address"
        },
        {
          "indexed": true,
          "internalType": "address",
          "name": "winner",
          "type": "address"
        },
        {
          "indexed": false,
          "internalType": "uint256",
          "name": "tokenId",
          "type": "uint256"
        },
        {
          "indexed": false,
          "internalType": "uint256",
          "name": "winningBid",
          "type": "uint256"
        }
      ],
      "name": "AuctionEnded",
      "type": "event"
    },
    {
      "anonymous": false,
      "inputs": [
        {
          "indexed": false,
          "internalType": "uint256",
          "name": "id",
          "type": "uint256"
        },
        {
          "indexed": true,
          "internalType": "address",
          "name": "NftAddress",
          "type": "address"
        },
        {
          "indexed": true,
          "internalType": "address",
          "name": "bidder",
          "type": "address"
        },
        {
          "indexed": false,
          "internalType": "uint256",
          "name": "tokenId",
          "type": "uint256"
        },
        {
          "indexed": false,
          "internalType": "uint256",
          "name": "bidAmount",
          "type": "uint256"
        }
      ],
      "name": "BidderChanged",
      "type": "event"
    },
    {
      "anonymous": false,
      "inputs": [
        {
          "indexed": false,
          "internalType": "uint256",
          "name": "id",
          "type": "uint256"
        },
        {
          "indexed": true,
          "internalType": "address",
          "name": "NftAddress",
          "type": "address"
        },
        {
          "indexed": true,
          "internalType": "address",
          "name": "seller",
          "type": "address"
        },
        {
          "indexed": true,
          "internalType": "address",
          "name": "buyer",
          "type": "address"
        },
        {
          "indexed": false,
          "internalType": "uint256",
          "name": "tokenId",
          "type": "uint256"
        },
        {
          "indexed": false,
          "internalType": "uint256",
          "name": "price",
          "type": "uint256"
        }
      ],
      "name": "Buy",
      "type": "event"
    },
    {
      "anonymous": false,
      "inputs": [
        {
          "indexed": true,
          "internalType": "address",
          "name": "previousOwner",
          "type": "address"
        },
        {
          "indexed": true,
          "internalType": "address",
          "name": "newOwner",
          "type": "address"
        }
      ],
      "name": "OwnershipTransferred",
      "type": "event"
    },
    {
      "inputs": [
        {
          "internalType": "uint256",
          "name": "",
          "type": "uint256"
        }
      ],
      "name": "TokenOnSale",
      "outputs": [
        {
          "internalType": "uint256",
          "name": "id",
          "type": "uint256"
        },
        {
          "internalType": "address payable",
          "name": "seller",
          "type": "address"
        },
        {
          "internalType": "address",
          "name": "NFTaddress",
          "type": "address"
        },
        {
          "internalType": "uint256",
          "name": "tokenId",
          "type": "uint256"
        },
        {
          "internalType": "uint256",
          "name": "price",
          "type": "uint256"
        },
        {
          "internalType": "string",
          "name": "metadata",
          "type": "string"
        },
        {
          "internalType": "bool",
          "name": "sold",
          "type": "bool"
        },
        {
          "internalType": "uint256",
          "name": "creatorFee",
          "type": "uint256"
        },
        {
          "internalType": "uint256",
          "name": "openingPrice",
          "type": "uint256"
        },
        {
          "internalType": "uint256",
          "name": "auctionEndTime",
          "type": "uint256"
        },
        {
          "internalType": "address payable",
          "name": "highestBidder",
          "type": "address"
        },
        {
          "internalType": "uint256",
          "name": "highestBid",
          "type": "uint256"
        }
      ],
      "stateMutability": "view",
      "type": "function",
      "constant": true
    },
    {
      "inputs": [
        {
          "internalType": "address",
          "name": "",
          "type": "address"
        }
      ],
      "name": "lowestPriceByCollection",
      "outputs": [
        {
          "internalType": "uint256",
          "name": "",
          "type": "uint256"
        }
      ],
      "stateMutability": "view",
      "type": "function",
      "constant": true
    },
    {
      "inputs": [],
      "name": "marketAddress",
      "outputs": [
        {
          "internalType": "address payable",
          "name": "",
          "type": "address"
        }
      ],
      "stateMutability": "view",
      "type": "function",
      "constant": true
    },
    {
      "inputs": [],
      "name": "owner",
      "outputs": [
        {
          "internalType": "address",
          "name": "",
          "type": "address"
        }
      ],
      "stateMutability": "view",
      "type": "function",
      "constant": true
    },
    {
      "inputs": [],
      "name": "renounceOwnership",
      "outputs": [],
      "stateMutability": "nonpayable",
      "type": "function"
    },
    {
      "inputs": [
        {
          "internalType": "address",
          "name": "",
          "type": "address"
        }
      ],
      "name": "totalSalesByCollection",
      "outputs": [
        {
          "internalType": "uint256",
          "name": "",
          "type": "uint256"
        }
      ],
      "stateMutability": "view",
      "type": "function",
      "constant": true
    },
    {
      "inputs": [
        {
          "internalType": "address",
          "name": "newOwner",
          "type": "address"
        }
      ],
      "name": "transferOwnership",
      "outputs": [],
      "stateMutability": "nonpayable",
      "type": "function"
    },
    {
      "inputs": [
        {
          "internalType": "address",
          "name": "_NFTaddress",
          "type": "address"
        },
        {
          "internalType": "uint256",
          "name": "_tokenId",
          "type": "uint256"
        },
        {
          "internalType": "uint256",
          "name": "_price",
          "type": "uint256"
        },
        {
          "internalType": "string",
          "name": "_metadata",
          "type": "string"
        },
        {
          "internalType": "uint256",
          "name": "_creatorFee",
          "type": "uint256"
        }
      ],
      "name": "addNftToMarket",
      "outputs": [],
      "stateMutability": "nonpayable",
      "type": "function"
    },
    {
      "inputs": [
        {
          "internalType": "uint256[]",
          "name": "_ids",
          "type": "uint256[]"
        }
      ],
      "name": "buyNfts",
      "outputs": [],
      "stateMutability": "payable",
      "type": "function",
      "payable": true
    },
    {
      "inputs": [
        {
          "internalType": "uint256",
          "name": "_id",
          "type": "uint256"
        }
      ],
      "name": "buyNft",
      "outputs": [],
      "stateMutability": "payable",
      "type": "function",
      "payable": true
    },
    {
      "inputs": [
        {
          "internalType": "uint256",
          "name": "_id",
          "type": "uint256"
        },
        {
          "internalType": "uint256",
          "name": "_price",
          "type": "uint256"
        }
      ],
      "name": "reAddNftToMarket",
      "outputs": [],
      "stateMutability": "nonpayable",
      "type": "function"
    },
    {
      "inputs": [
        {
          "internalType": "uint256",
          "name": "_id",
          "type": "uint256"
        },
        {
          "internalType": "uint256",
          "name": "_openingPrice",
          "type": "uint256"
        },
        {
          "internalType": "uint256",
          "name": "_duration",
          "type": "uint256"
        }
      ],
      "name": "startAuction",
      "outputs": [],
      "stateMutability": "nonpayable",
      "type": "function"
    },
    {
      "inputs": [
        {
          "internalType": "uint256",
          "name": "_id",
          "type": "uint256"
        }
      ],
      "name": "bidInAuction",
      "outputs": [],
      "stateMutability": "payable",
      "type": "function",
      "payable": true
    },
    {
      "inputs": [],
      "name": "timer",
      "outputs": [],
      "stateMutability": "nonpayable",
      "type": "function"
    },
    {
      "inputs": [
        {
          "internalType": "uint256",
          "name": "_id",
          "type": "uint256"
        }
      ],
      "name": "cancelAuction",
      "outputs": [],
      "stateMutability": "nonpayable",
      "type": "function"
    },
    {
      "inputs": [
        {
          "internalType": "address",
          "name": "_NFTaddress",
          "type": "address"
        }
      ],
      "name": "getAllTokensInCollection",
      "outputs": [
        {
          "components": [
            {
              "internalType": "uint256",
              "name": "id",
              "type": "uint256"
            },
            {
              "internalType": "address payable",
              "name": "seller",
              "type": "address"
            },
            {
              "internalType": "address",
              "name": "NFTaddress",
              "type": "address"
            },
            {
              "internalType": "uint256",
              "name": "tokenId",
              "type": "uint256"
            },
            {
              "internalType": "uint256",
              "name": "price",
              "type": "uint256"
            },
            {
              "internalType": "string",
              "name": "metadata",
              "type": "string"
            },
            {
              "internalType": "bool",
              "name": "sold",
              "type": "bool"
            },
            {
              "internalType": "uint256",
              "name": "creatorFee",
              "type": "uint256"
            },
            {
              "internalType": "uint256",
              "name": "openingPrice",
              "type": "uint256"
            },
            {
              "internalType": "uint256",
              "name": "auctionEndTime",
              "type": "uint256"
            },
            {
              "internalType": "address payable",
              "name": "highestBidder",
              "type": "address"
            },
            {
              "internalType": "uint256",
              "name": "highestBid",
              "type": "uint256"
            }
          ],
          "internalType": "struct Marketplace.TokenInfo[]",
          "name": "",
          "type": "tuple[]"
        }
      ],
      "stateMutability": "view",
      "type": "function",
      "constant": true
    }
  ],
  "bytecode": "0x60806040523480156200001157600080fd5b5062000032620000266200007960201b60201c565b6200008160201b60201c565b33600260006101000a81548173ffffffffffffffffffffffffffffffffffffffff021916908373ffffffffffffffffffffffffffffffffffffffff16021790555062000145565b600033905090565b60008060009054906101000a900473ffffffffffffffffffffffffffffffffffffffff169050816000806101000a81548173ffffffffffffffffffffffffffffffffffffffff021916908373ffffffffffffffffffffffffffffffffffffffff1602179055508173ffffffffffffffffffffffffffffffffffffffff168173ffffffffffffffffffffffffffffffffffffffff167f8be0079c531659141344cd1fd0a4f28419497f9722a3daafe3b4186f6b6457e060405160405180910390a35050565b61405280620001556000396000f3fe6080604052600436106100f35760003560e01c80638da5cb5b1161008a57806396b5a7551161005957806396b5a755146102d9578063b2b088f614610302578063eb5af7311461034a578063f2fde38b14610373576100f3565b80638da5cb5b1461021d578063918f2e521461024857806391e078bb1461028557806395623641146102ae576100f3565b80636012de1a116100c65780636012de1a14610189578063715018a6146101b257806377b02fe0146101c957806388c9cb3c14610206576100f3565b806321c4d76e146100f8578063243adbdd146101355780632975bfd4146101515780635d5964021461016d575b600080fd5b34801561010457600080fd5b5061011f600480360381019061011a91906127b1565b61039c565b60405161012c91906127f7565b60405180910390f35b61014f600480360381019061014a919061283e565b6103b4565b005b61016b6004803603810190610166919061283e565b61096b565b005b610187600480360381019061018291906128d0565b610c04565b005b34801561019557600080fd5b506101b060048036038101906101ab9190612a5e565b610c8f565b005b3480156101be57600080fd5b506101c76110eb565b005b3480156101d557600080fd5b506101f060048036038101906101eb91906127b1565b6110ff565b6040516101fd91906127f7565b60405180910390f35b34801561021257600080fd5b5061021b611117565b005b34801561022957600080fd5b5061023261128d565b60405161023f9190612b04565b60405180910390f35b34801561025457600080fd5b5061026f600480360381019061026a91906127b1565b6112b6565b60405161027c9190612dbe565b60405180910390f35b34801561029157600080fd5b506102ac60048036038101906102a79190612de0565b611695565b005b3480156102ba57600080fd5b506102c36118f4565b6040516102d09190612e42565b60405180910390f35b3480156102e557600080fd5b5061030060048036038101906102fb919061283e565b61191a565b005b34801561030e57600080fd5b506103296004803603810190610324919061283e565b611cc9565b6040516103419c9b9a99989796959493929190612eb6565b60405180910390f35b34801561035657600080fd5b50610371600480360381019061036c9190612f77565b611e1e565b005b34801561037f57600080fd5b5061039a600480360381019061039591906127b1565b612003565b005b60056020528060005260406000206000915090505481565b60006003600083815260200190815260200160002090508060040154341015610412576040517f08c379a000000000000000000000000000000000000000000000000000000000815260040161040990613003565b60405180910390fd5b8060060160009054906101000a900460ff1615610464576040517f08c379a000000000000000000000000000000000000000000000000000000000815260040161045b9061306f565b60405180910390fd5b8060010160009054906101000a900473ffffffffffffffffffffffffffffffffffffffff1673ffffffffffffffffffffffffffffffffffffffff163373ffffffffffffffffffffffffffffffffffffffff16036104f6576040517f08c379a00000000000000000000000000000000000000000000000000000000081526004016104ed906130db565b60405180910390fd5b600081600801541461053d576040517f08c379a00000000000000000000000000000000000000000000000000000000081526004016105349061316d565b60405180910390fd5b6000670de0b6b3a7640000826004015461055791906131bc565b90506000606482610568919061322d565b905060006103e88460070154856004015461058391906131bc565b61058d919061322d565b9050600081838561059e919061325e565b6105a8919061325e565b9050600260009054906101000a900473ffffffffffffffffffffffffffffffffffffffff1673ffffffffffffffffffffffffffffffffffffffff166108fc849081150290604051600060405180830381858888f19350505050158015610612573d6000803e3d6000fd5b5060008560020160009054906101000a900473ffffffffffffffffffffffffffffffffffffffff1673ffffffffffffffffffffffffffffffffffffffff16630ee2cb106040518163ffffffff1660e01b8152600401602060405180830381865afa158015610684573d6000803e3d6000fd5b505050506040513d601f19601f820116820180604052508101906106a891906132be565b90508073ffffffffffffffffffffffffffffffffffffffff168660010160009054906101000a900473ffffffffffffffffffffffffffffffffffffffff1673ffffffffffffffffffffffffffffffffffffffff1614610749578073ffffffffffffffffffffffffffffffffffffffff166108fc849081150290604051600060405180830381858888f19350505050158015610747573d6000803e3d6000fd5b505b8560010160009054906101000a900473ffffffffffffffffffffffffffffffffffffffff1673ffffffffffffffffffffffffffffffffffffffff166108fc839081150290604051600060405180830381858888f193505050501580156107b3573d6000803e3d6000fd5b508560040154600560008860020160009054906101000a900473ffffffffffffffffffffffffffffffffffffffff1673ffffffffffffffffffffffffffffffffffffffff1673ffffffffffffffffffffffffffffffffffffffff168152602001908152602001600020600082825461082b91906132eb565b9250508190555060018660060160006101000a81548160ff021916908315150217905550338660010160006101000a81548173ffffffffffffffffffffffffffffffffffffffff021916908373ffffffffffffffffffffffffffffffffffffffff1602179055503373ffffffffffffffffffffffffffffffffffffffff168660010160009054906101000a900473ffffffffffffffffffffffffffffffffffffffff1673ffffffffffffffffffffffffffffffffffffffff168760020160009054906101000a900473ffffffffffffffffffffffffffffffffffffffff1673ffffffffffffffffffffffffffffffffffffffff167f75707d5d3d11632aafe99e9e60317891909f271b10026e79014651df900c32a08a8a600301548b6004015460405161095a9392919061331f565b60405180910390a450505050505050565b60006003600083815260200190815260200160002090508060060160009054906101000a900460ff16156109d4576040517f08c379a00000000000000000000000000000000000000000000000000000000081526004016109cb9061306f565b60405180910390fd5b6000816008015411610a1b576040517f08c379a0000000000000000000000000000000000000000000000000000000008152600401610a12906133a2565b60405180910390fd5b80600901544210610a61576040517f08c379a0000000000000000000000000000000000000000000000000000000008152600401610a589061340e565b60405180910390fd5b80600b01543411610aa7576040517f08c379a0000000000000000000000000000000000000000000000000000000008152600401610a9e9061347a565b60405180910390fd5b600081600b015414610b235780600a0160009054906101000a900473ffffffffffffffffffffffffffffffffffffffff1673ffffffffffffffffffffffffffffffffffffffff166108fc82600b01549081150290604051600060405180830381858888f19350505050158015610b21573d6000803e3d6000fd5b505b3381600a0160006101000a81548173ffffffffffffffffffffffffffffffffffffffff021916908373ffffffffffffffffffffffffffffffffffffffff1602179055503481600b01819055503373ffffffffffffffffffffffffffffffffffffffff168160020160009054906101000a900473ffffffffffffffffffffffffffffffffffffffff1673ffffffffffffffffffffffffffffffffffffffff167f0efc41f9ac6b1327ea0a4ce681dbef148dc7ef1663380fb4681a5d3a8ef2977784846003015434604051610bf89392919061331f565b60405180910390a35050565b60003411610c47576040517f08c379a0000000000000000000000000000000000000000000000000000000008152600401610c3e906134e6565b60405180910390fd5b60005b82829050811015610c8a57610c77838383818110610c6b57610c6a613506565b5b905060200201356103b4565b8080610c8290613535565b915050610c4a565b505050565b3373ffffffffffffffffffffffffffffffffffffffff168573ffffffffffffffffffffffffffffffffffffffff16636352211e866040518263ffffffff1660e01b8152600401610cdf91906127f7565b602060405180830381865afa158015610cfc573d6000803e3d6000fd5b505050506040513d601f19601f82011682018060405250810190610d209190613592565b73ffffffffffffffffffffffffffffffffffffffff1614610d76576040517f08c379a0000000000000000000000000000000000000000000000000000000008152600401610d6d90613631565b60405180910390fd5b610d806001612086565b604051806101800160405280610d96600161209c565b81526020013373ffffffffffffffffffffffffffffffffffffffff1681526020018673ffffffffffffffffffffffffffffffffffffffff1681526020018581526020018481526020018381526020016000151581526020018281526020016000815260200160008152602001600073ffffffffffffffffffffffffffffffffffffffff168152602001600081525060036000610e32600161209c565b81526020019081526020016000206000820151816000015560208201518160010160006101000a81548173ffffffffffffffffffffffffffffffffffffffff021916908373ffffffffffffffffffffffffffffffffffffffff16021790555060408201518160020160006101000a81548173ffffffffffffffffffffffffffffffffffffffff021916908373ffffffffffffffffffffffffffffffffffffffff160217905550606082015181600301556080820151816004015560a0820151816005019081610f01919061385d565b5060c08201518160060160006101000a81548160ff02191690831515021790555060e082015181600701556101008201518160080155610120820151816009015561014082015181600a0160006101000a81548173ffffffffffffffffffffffffffffffffffffffff021916908373ffffffffffffffffffffffffffffffffffffffff16021790555061016082015181600b0155905050600460008673ffffffffffffffffffffffffffffffffffffffff1673ffffffffffffffffffffffffffffffffffffffff1681526020019081526020016000205483108061102457506000600460008773ffffffffffffffffffffffffffffffffffffffff1673ffffffffffffffffffffffffffffffffffffffff16815260200190815260200160002054145b1561106e5782600460008773ffffffffffffffffffffffffffffffffffffffff1673ffffffffffffffffffffffffffffffffffffffff168152602001908152602001600020819055505b3373ffffffffffffffffffffffffffffffffffffffff168573ffffffffffffffffffffffffffffffffffffffff167fcf4e2b398f8f130dfa20ec831a8ad0f918b3c680e9dbad3b2230ad0192f52b166110c7600161209c565b878787876040516110dc95949392919061392f565b60405180910390a35050505050565b6110f36120aa565b6110fd6000612128565b565b60046020528060005260406000206000915090505481565b6000600190505b611128600161209c565b811161128a5760006003600083815260200190815260200160002090508060060160009054906101000a900460ff16158015611168575060008160080154115b8015611178575080600901544210155b80156111d55750600073ffffffffffffffffffffffffffffffffffffffff1681600a0160009054906101000a900473ffffffffffffffffffffffffffffffffffffffff1673ffffffffffffffffffffffffffffffffffffffff1614155b156112765780600a0160009054906101000a900473ffffffffffffffffffffffffffffffffffffffff1673ffffffffffffffffffffffffffffffffffffffff163373ffffffffffffffffffffffffffffffffffffffff161461126c576040517f08c379a0000000000000000000000000000000000000000000000000000000008152600401611263906139fb565b60405180910390fd5b611275826121ec565b5b50808061128290613535565b91505061111e565b50565b60008060009054906101000a900473ffffffffffffffffffffffffffffffffffffffff16905090565b6060600080600190505b6112ca600161209c565b811161135b578373ffffffffffffffffffffffffffffffffffffffff166003600083815260200190815260200160002060020160009054906101000a900473ffffffffffffffffffffffffffffffffffffffff1673ffffffffffffffffffffffffffffffffffffffff160361134857818061134490613535565b9250505b808061135390613535565b9150506112c0565b5060008167ffffffffffffffff81111561137857611377612933565b5b6040519080825280602002602001820160405280156113b157816020015b61139e61269a565b8152602001906001900390816113965790505b509050600080600190505b6113c6600161209c565b8111611689578573ffffffffffffffffffffffffffffffffffffffff166003600083815260200190815260200160002060020160009054906101000a900473ffffffffffffffffffffffffffffffffffffffff1673ffffffffffffffffffffffffffffffffffffffff1603611676576003600082815260200190815260200160002060405180610180016040529081600082015481526020016001820160009054906101000a900473ffffffffffffffffffffffffffffffffffffffff1673ffffffffffffffffffffffffffffffffffffffff1673ffffffffffffffffffffffffffffffffffffffff1681526020016002820160009054906101000a900473ffffffffffffffffffffffffffffffffffffffff1673ffffffffffffffffffffffffffffffffffffffff1673ffffffffffffffffffffffffffffffffffffffff168152602001600382015481526020016004820154815260200160058201805461152e90613680565b80601f016020809104026020016040519081016040528092919081815260200182805461155a90613680565b80156115a75780601f1061157c576101008083540402835291602001916115a7565b820191906000526020600020905b81548152906001019060200180831161158a57829003601f168201915b505050505081526020016006820160009054906101000a900460ff16151515158152602001600782015481526020016008820154815260200160098201548152602001600a820160009054906101000a900473ffffffffffffffffffffffffffffffffffffffff1673ffffffffffffffffffffffffffffffffffffffff1673ffffffffffffffffffffffffffffffffffffffff168152602001600b8201548152505083838151811061165c5761165b613506565b5b6020026020010181905250818061167290613535565b9250505b808061168190613535565b9150506113bc565b50819350505050919050565b60006003600085815260200190815260200160002090508060060160009054906101000a900460ff16156116fe576040517f08c379a00000000000000000000000000000000000000000000000000000000081526004016116f59061306f565b60405180910390fd5b8060010160009054906101000a900473ffffffffffffffffffffffffffffffffffffffff1673ffffffffffffffffffffffffffffffffffffffff163373ffffffffffffffffffffffffffffffffffffffff1614611790576040517f08c379a000000000000000000000000000000000000000000000000000000000815260040161178790613631565b60405180910390fd5b600083116117d3576040517f08c379a00000000000000000000000000000000000000000000000000000000081526004016117ca90613a67565b60405180910390fd5b60008211611816576040517f08c379a000000000000000000000000000000000000000000000000000000000815260040161180d90613ad3565b60405180910390fd5b828160080181905550814261182b91906132eb565b81600901819055508060010160009054906101000a900473ffffffffffffffffffffffffffffffffffffffff1673ffffffffffffffffffffffffffffffffffffffff168160020160009054906101000a900473ffffffffffffffffffffffffffffffffffffffff1673ffffffffffffffffffffffffffffffffffffffff167f06b9e486c68303eb64052e0493f906f3d93a1b7149b6b8dcff221aebd16c35138684600301548786600901546040516118e69493929190613af3565b60405180910390a350505050565b600260009054906101000a900473ffffffffffffffffffffffffffffffffffffffff1681565b60006003600083815260200190815260200160002090506000816000015403611978576040517f08c379a000000000000000000000000000000000000000000000000000000000815260040161196f90613b84565b60405180910390fd5b60008160080154116119bf576040517f08c379a00000000000000000000000000000000000000000000000000000000081526004016119b6906133a2565b60405180910390fd5b8060060160009054906101000a900460ff1615611a11576040517f08c379a0000000000000000000000000000000000000000000000000000000008152600401611a0890613bf0565b60405180910390fd5b8060010160009054906101000a900473ffffffffffffffffffffffffffffffffffffffff1673ffffffffffffffffffffffffffffffffffffffff163373ffffffffffffffffffffffffffffffffffffffff1614611aa3576040517f08c379a0000000000000000000000000000000000000000000000000000000008152600401611a9a90613c5c565b60405180910390fd5b60018160060160006101000a81548160ff02191690831515021790555080600a0160009054906101000a900473ffffffffffffffffffffffffffffffffffffffff1673ffffffffffffffffffffffffffffffffffffffff166108fc82600b01549081150290604051600060405180830381858888f19350505050158015611b2e573d6000803e3d6000fd5b508060020160009054906101000a900473ffffffffffffffffffffffffffffffffffffffff1673ffffffffffffffffffffffffffffffffffffffff166342842e0e8260010160009054906101000a900473ffffffffffffffffffffffffffffffffffffffff168360010160009054906101000a900473ffffffffffffffffffffffffffffffffffffffff1684600301546040518463ffffffff1660e01b8152600401611bdc93929190613cd1565b600060405180830381600087803b158015611bf657600080fd5b505af1158015611c0a573d6000803e3d6000fd5b505050508060010160009054906101000a900473ffffffffffffffffffffffffffffffffffffffff1673ffffffffffffffffffffffffffffffffffffffff168160020160009054906101000a900473ffffffffffffffffffffffffffffffffffffffff1673ffffffffffffffffffffffffffffffffffffffff167f2fd0fd288a849022c51c1ab9e887d7a4f89ac1126432be270b0ba773382ad66183600001548460030154604051611cbd929190613d08565b60405180910390a35050565b60036020528060005260406000206000915090508060000154908060010160009054906101000a900473ffffffffffffffffffffffffffffffffffffffff16908060020160009054906101000a900473ffffffffffffffffffffffffffffffffffffffff1690806003015490806004015490806005018054611d4a90613680565b80601f0160208091040260200160405190810160405280929190818152602001828054611d7690613680565b8015611dc35780601f10611d9857610100808354040283529160200191611dc3565b820191906000526020600020905b815481529060010190602001808311611da657829003601f168201915b5050505050908060060160009054906101000a900460ff169080600701549080600801549080600901549080600a0160009054906101000a900473ffffffffffffffffffffffffffffffffffffffff169080600b015490508c565b60006003600084815260200190815260200160002090508060060160009054906101000a900460ff16611e86576040517f08c379a0000000000000000000000000000000000000000000000000000000008152600401611e7d90613d7d565b60405180910390fd5b8060010160009054906101000a900473ffffffffffffffffffffffffffffffffffffffff1673ffffffffffffffffffffffffffffffffffffffff163373ffffffffffffffffffffffffffffffffffffffff1614611f18576040517f08c379a0000000000000000000000000000000000000000000000000000000008152600401611f0f90613631565b60405180910390fd5b81816004018190555060008160060160006101000a81548160ff0219169083151502179055508060010160009054906101000a900473ffffffffffffffffffffffffffffffffffffffff1673ffffffffffffffffffffffffffffffffffffffff168160020160009054906101000a900473ffffffffffffffffffffffffffffffffffffffff1673ffffffffffffffffffffffffffffffffffffffff167fcf4e2b398f8f130dfa20ec831a8ad0f918b3c680e9dbad3b2230ad0192f52b1685846003015486866005018760070154604051611ff6959493929190613e21565b60405180910390a3505050565b61200b6120aa565b600073ffffffffffffffffffffffffffffffffffffffff168173ffffffffffffffffffffffffffffffffffffffff160361207a576040517f08c379a000000000000000000000000000000000000000000000000000000000815260040161207190613eed565b60405180910390fd5b61208381612128565b50565b6001816000016000828254019250508190555050565b600081600001549050919050565b6120b2612692565b73ffffffffffffffffffffffffffffffffffffffff166120d061128d565b73ffffffffffffffffffffffffffffffffffffffff1614612126576040517f08c379a000000000000000000000000000000000000000000000000000000000815260040161211d90613f59565b60405180910390fd5b565b60008060009054906101000a900473ffffffffffffffffffffffffffffffffffffffff169050816000806101000a81548173ffffffffffffffffffffffffffffffffffffffff021916908373ffffffffffffffffffffffffffffffffffffffff1602179055508173ffffffffffffffffffffffffffffffffffffffff168173ffffffffffffffffffffffffffffffffffffffff167f8be0079c531659141344cd1fd0a4f28419497f9722a3daafe3b4186f6b6457e060405160405180910390a35050565b600060036000838152602001908152602001600020905060008160020160009054906101000a900473ffffffffffffffffffffffffffffffffffffffff1673ffffffffffffffffffffffffffffffffffffffff16636352211e83600301546040518263ffffffff1660e01b815260040161226691906127f7565b602060405180830381865afa158015612283573d6000803e3d6000fd5b505050506040513d601f19601f820116820180604052508101906122a79190613592565b90508160060160009054906101000a900460ff16156122fb576040517f08c379a00000000000000000000000000000000000000000000000000000000081526004016122f29061306f565b60405180910390fd5b6000826008015411612342576040517f08c379a0000000000000000000000000000000000000000000000000000000008152600401612339906133a2565b60405180910390fd5b8160090154421015612389576040517f08c379a000000000000000000000000000000000000000000000000000000000815260040161238090613fc5565b60405180910390fd5b8160020160009054906101000a900473ffffffffffffffffffffffffffffffffffffffff1673ffffffffffffffffffffffffffffffffffffffff166342842e0e8284600a0160009054906101000a900473ffffffffffffffffffffffffffffffffffffffff1685600301546040518463ffffffff1660e01b815260040161241293929190613fe5565b600060405180830381600087803b15801561242c57600080fd5b505af1158015612440573d6000803e3d6000fd5b505050508160010160009054906101000a900473ffffffffffffffffffffffffffffffffffffffff1673ffffffffffffffffffffffffffffffffffffffff166108fc83600b01549081150290604051600060405180830381858888f193505050501580156124b2573d6000803e3d6000fd5b5060018260060160006101000a81548160ff02191690831515021790555081600a0160009054906101000a900473ffffffffffffffffffffffffffffffffffffffff168260010160006101000a81548173ffffffffffffffffffffffffffffffffffffffff021916908373ffffffffffffffffffffffffffffffffffffffff1602179055506000826008018190555060008260090181905550600082600a0160006101000a81548173ffffffffffffffffffffffffffffffffffffffff021916908373ffffffffffffffffffffffffffffffffffffffff160217905550600082600b018190555081600a0160009054906101000a900473ffffffffffffffffffffffffffffffffffffffff1673ffffffffffffffffffffffffffffffffffffffff168260010160009054906101000a900473ffffffffffffffffffffffffffffffffffffffff1673ffffffffffffffffffffffffffffffffffffffff168360020160009054906101000a900473ffffffffffffffffffffffffffffffffffffffff1673ffffffffffffffffffffffffffffffffffffffff167f6c47fd8bd138d7325768cd34fb84465cf68b7d556baca7bdadea071c5c9a1b0986866003015487600b01546040516126859392919061331f565b60405180910390a4505050565b600033905090565b60405180610180016040528060008152602001600073ffffffffffffffffffffffffffffffffffffffff168152602001600073ffffffffffffffffffffffffffffffffffffffff168152602001600081526020016000815260200160608152602001600015158152602001600081526020016000815260200160008152602001600073ffffffffffffffffffffffffffffffffffffffff168152602001600081525090565b6000604051905090565b600080fd5b600080fd5b600073ffffffffffffffffffffffffffffffffffffffff82169050919050565b600061277e82612753565b9050919050565b61278e81612773565b811461279957600080fd5b50565b6000813590506127ab81612785565b92915050565b6000602082840312156127c7576127c6612749565b5b60006127d58482850161279c565b91505092915050565b6000819050919050565b6127f1816127de565b82525050565b600060208201905061280c60008301846127e8565b92915050565b61281b816127de565b811461282657600080fd5b50565b60008135905061283881612812565b92915050565b60006020828403121561285457612853612749565b5b600061286284828501612829565b91505092915050565b600080fd5b600080fd5b600080fd5b60008083601f8401126128905761288f61286b565b5b8235905067ffffffffffffffff8111156128ad576128ac612870565b5b6020830191508360208202830111156128c9576128c8612875565b5b9250929050565b600080602083850312156128e7576128e6612749565b5b600083013567ffffffffffffffff8111156129055761290461274e565b5b6129118582860161287a565b92509250509250929050565b600080fd5b6000601f19601f8301169050919050565b7f4e487b7100000000000000000000000000000000000000000000000000000000600052604160045260246000fd5b61296b82612922565b810181811067ffffffffffffffff8211171561298a57612989612933565b5b80604052505050565b600061299d61273f565b90506129a98282612962565b919050565b600067ffffffffffffffff8211156129c9576129c8612933565b5b6129d282612922565b9050602081019050919050565b82818337600083830152505050565b6000612a016129fc846129ae565b612993565b905082815260208101848484011115612a1d57612a1c61291d565b5b612a288482856129df565b509392505050565b600082601f830112612a4557612a4461286b565b5b8135612a558482602086016129ee565b91505092915050565b600080600080600060a08688031215612a7a57612a79612749565b5b6000612a888882890161279c565b9550506020612a9988828901612829565b9450506040612aaa88828901612829565b935050606086013567ffffffffffffffff811115612acb57612aca61274e565b5b612ad788828901612a30565b9250506080612ae888828901612829565b9150509295509295909350565b612afe81612773565b82525050565b6000602082019050612b196000830184612af5565b92915050565b600081519050919050565b600082825260208201905092915050565b6000819050602082019050919050565b612b54816127de565b82525050565b6000612b6582612753565b9050919050565b612b7581612b5a565b82525050565b612b8481612773565b82525050565b600081519050919050565b600082825260208201905092915050565b60005b83811015612bc4578082015181840152602081019050612ba9565b60008484015250505050565b6000612bdb82612b8a565b612be58185612b95565b9350612bf5818560208601612ba6565b612bfe81612922565b840191505092915050565b60008115159050919050565b612c1e81612c09565b82525050565b600061018083016000830151612c3d6000860182612b4b565b506020830151612c506020860182612b6c565b506040830151612c636040860182612b7b565b506060830151612c766060860182612b4b565b506080830151612c896080860182612b4b565b5060a083015184820360a0860152612ca18282612bd0565b91505060c0830151612cb660c0860182612c15565b5060e0830151612cc960e0860182612b4b565b50610100830151612cde610100860182612b4b565b50610120830151612cf3610120860182612b4b565b50610140830151612d08610140860182612b6c565b50610160830151612d1d610160860182612b4b565b508091505092915050565b6000612d348383612c24565b905092915050565b6000602082019050919050565b6000612d5482612b1f565b612d5e8185612b2a565b935083602082028501612d7085612b3b565b8060005b85811015612dac5784840389528151612d8d8582612d28565b9450612d9883612d3c565b925060208a01995050600181019050612d74565b50829750879550505050505092915050565b60006020820190508181036000830152612dd88184612d49565b905092915050565b600080600060608486031215612df957612df8612749565b5b6000612e0786828701612829565b9350506020612e1886828701612829565b9250506040612e2986828701612829565b9150509250925092565b612e3c81612b5a565b82525050565b6000602082019050612e576000830184612e33565b92915050565b600082825260208201905092915050565b6000612e7982612b8a565b612e838185612e5d565b9350612e93818560208601612ba6565b612e9c81612922565b840191505092915050565b612eb081612c09565b82525050565b600061018082019050612ecc600083018f6127e8565b612ed9602083018e612e33565b612ee6604083018d612af5565b612ef3606083018c6127e8565b612f00608083018b6127e8565b81810360a0830152612f12818a612e6e565b9050612f2160c0830189612ea7565b612f2e60e08301886127e8565b612f3c6101008301876127e8565b612f4a6101208301866127e8565b612f58610140830185612e33565b612f666101608301846127e8565b9d9c50505050505050505050505050565b60008060408385031215612f8e57612f8d612749565b5b6000612f9c85828601612829565b9250506020612fad85828601612829565b9150509250929050565b7f4e6f7420656e6f75676820455448000000000000000000000000000000000000600082015250565b6000612fed600e83612e5d565b9150612ff882612fb7565b602082019050919050565b6000602082019050818103600083015261301c81612fe0565b9050919050565b7f416c726561647920736f6c64206f757400000000000000000000000000000000600082015250565b6000613059601083612e5d565b915061306482613023565b602082019050919050565b600060208201905081810360008301526130888161304c565b9050919050565b7f596f752063616e27742062757920796f7572206f776e204e4654000000000000600082015250565b60006130c5601a83612e5d565b91506130d08261308f565b602082019050919050565b600060208201905081810360008301526130f4816130b8565b9050919050565b7f447572696e67207468652061756374696f6e2c20796f752063616e277420627560008201527f792074686973204e465400000000000000000000000000000000000000000000602082015250565b6000613157602a83612e5d565b9150613162826130fb565b604082019050919050565b600060208201905081810360008301526131868161314a565b9050919050565b7f4e487b7100000000000000000000000000000000000000000000000000000000600052601160045260246000fd5b60006131c7826127de565b91506131d2836127de565b92508282026131e0816127de565b915082820484148315176131f7576131f661318d565b5b5092915050565b7f4e487b7100000000000000000000000000000000000000000000000000000000600052601260045260246000fd5b6000613238826127de565b9150613243836127de565b925082613253576132526131fe565b5b828204905092915050565b6000613269826127de565b9150613274836127de565b925082820390508181111561328c5761328b61318d565b5b92915050565b61329b81612b5a565b81146132a657600080fd5b50565b6000815190506132b881613292565b92915050565b6000602082840312156132d4576132d3612749565b5b60006132e2848285016132a9565b91505092915050565b60006132f6826127de565b9150613301836127de565b92508282019050808211156133195761331861318d565b5b92915050565b600060608201905061333460008301866127e8565b61334160208301856127e8565b61334e60408301846127e8565b949350505050565b7f41756374696f6e206e6f74207374617274656400000000000000000000000000600082015250565b600061338c601383612e5d565b915061339782613356565b602082019050919050565b600060208201905081810360008301526133bb8161337f565b9050919050565b7f41756374696f6e206e6f7420656e646564207965740000000000000000000000600082015250565b60006133f8601583612e5d565b9150613403826133c2565b602082019050919050565b60006020820190508181036000830152613427816133eb565b9050919050565b7f42696420616d6f756e7420697320746f6f206c6f770000000000000000000000600082015250565b6000613464601583612e5d565b915061346f8261342e565b602082019050919050565b6000602082019050818103600083015261349381613457565b9050919050565b7f4e6f204554482073656e74000000000000000000000000000000000000000000600082015250565b60006134d0600b83612e5d565b91506134db8261349a565b602082019050919050565b600060208201905081810360008301526134ff816134c3565b9050919050565b7f4e487b7100000000000000000000000000000000000000000000000000000000600052603260045260246000fd5b6000613540826127de565b91507fffffffffffffffffffffffffffffffffffffffffffffffffffffffffffffffff82036135725761357161318d565b5b600182019050919050565b60008151905061358c81612785565b92915050565b6000602082840312156135a8576135a7612749565b5b60006135b68482850161357d565b91505092915050565b7f596f7520617265206e6f7420746865206f776e6572206f662074686973204e4660008201527f5400000000000000000000000000000000000000000000000000000000000000602082015250565b600061361b602183612e5d565b9150613626826135bf565b604082019050919050565b6000602082019050818103600083015261364a8161360e565b9050919050565b7f4e487b7100000000000000000000000000000000000000000000000000000000600052602260045260246000fd5b6000600282049050600182168061369857607f821691505b6020821081036136ab576136aa613651565b5b50919050565b60008190508160005260206000209050919050565b60006020601f8301049050919050565b600082821b905092915050565b6000600883026137137fffffffffffffffffffffffffffffffffffffffffffffffffffffffffffffffff826136d6565b61371d86836136d6565b95508019841693508086168417925050509392505050565b6000819050919050565b600061375a613755613750846127de565b613735565b6127de565b9050919050565b6000819050919050565b6137748361373f565b61378861378082613761565b8484546136e3565b825550505050565b600090565b61379d613790565b6137a881848461376b565b505050565b5b818110156137cc576137c1600082613795565b6001810190506137ae565b5050565b601f821115613811576137e2816136b1565b6137eb846136c6565b810160208510156137fa578190505b61380e613806856136c6565b8301826137ad565b50505b505050565b600082821c905092915050565b600061383460001984600802613816565b1980831691505092915050565b600061384d8383613823565b9150826002028217905092915050565b61386682612b8a565b67ffffffffffffffff81111561387f5761387e612933565b5b6138898254613680565b6138948282856137d0565b600060209050601f8311600181146138c757600084156138b5578287015190505b6138bf8582613841565b865550613927565b601f1984166138d5866136b1565b60005b828110156138fd578489015182556001820191506020850194506020810190506138d8565b8683101561391a5784890151613916601f891682613823565b8355505b6001600288020188555050505b505050505050565b600060a08201905061394460008301886127e8565b61395160208301876127e8565b61395e60408301866127e8565b81810360608301526139708185612e6e565b905061397f60808301846127e8565b9695505050505050565b7f4f6e6c79206c6173742068696768657374206269646465722063616e20656e6460008201527f207468652061756374696f6e0000000000000000000000000000000000000000602082015250565b60006139e5602c83612e5d565b91506139f082613989565b604082019050919050565b60006020820190508181036000830152613a14816139d8565b9050919050565b7f496e76616c6964206f70656e696e672070726963650000000000000000000000600082015250565b6000613a51601583612e5d565b9150613a5c82613a1b565b602082019050919050565b60006020820190508181036000830152613a8081613a44565b9050919050565b7f496e76616c69642061756374696f6e206475726174696f6e0000000000000000600082015250565b6000613abd601883612e5d565b9150613ac882613a87565b602082019050919050565b60006020820190508181036000830152613aec81613ab0565b9050919050565b6000608082019050613b0860008301876127e8565b613b1560208301866127e8565b613b2260408301856127e8565b613b2f60608301846127e8565b95945050505050565b7f546f6b656e206e6f7420666f756e640000000000000000000000000000000000600082015250565b6000613b6e600f83612e5d565b9150613b7982613b38565b602082019050919050565b60006020820190508181036000830152613b9d81613b61565b9050919050565b7f546f6b656e20697320616c726561647920736f6c640000000000000000000000600082015250565b6000613bda601583612e5d565b9150613be582613ba4565b602082019050919050565b60006020820190508181036000830152613c0981613bcd565b9050919050565b7f596f7520617265206e6f74207468652073656c6c657200000000000000000000600082015250565b6000613c46601683612e5d565b9150613c5182613c10565b602082019050919050565b60006020820190508181036000830152613c7581613c39565b9050919050565b6000613c97613c92613c8d84612753565b613735565b612753565b9050919050565b6000613ca982613c7c565b9050919050565b6000613cbb82613c9e565b9050919050565b613ccb81613cb0565b82525050565b6000606082019050613ce66000830186613cc2565b613cf36020830185613cc2565b613d0060408301846127e8565b949350505050565b6000604082019050613d1d60008301856127e8565b613d2a60208301846127e8565b9392505050565b7f54686973204e4654206973206e6f7420736f6c64000000000000000000000000600082015250565b6000613d67601483612e5d565b9150613d7282613d31565b602082019050919050565b60006020820190508181036000830152613d9681613d5a565b9050919050565b60008154613daa81613680565b613db48186612e5d565b94506001821660008114613dcf5760018114613de557613e18565b60ff198316865281151560200286019350613e18565b613dee856136b1565b60005b83811015613e1057815481890152600182019150602081019050613df1565b808801955050505b50505092915050565b600060a082019050613e3660008301886127e8565b613e4360208301876127e8565b613e5060408301866127e8565b8181036060830152613e628185613d9d565b9050613e7160808301846127e8565b9695505050505050565b7f4f776e61626c653a206e6577206f776e657220697320746865207a65726f206160008201527f6464726573730000000000000000000000000000000000000000000000000000602082015250565b6000613ed7602683612e5d565b9150613ee282613e7b565b604082019050919050565b60006020820190508181036000830152613f0681613eca565b9050919050565b7f4f776e61626c653a2063616c6c6572206973206e6f7420746865206f776e6572600082015250565b6000613f43602083612e5d565b9150613f4e82613f0d565b602082019050919050565b60006020820190508181036000830152613f7281613f36565b9050919050565b7f41756374696f6e20686173206e6f7420656e6465642079657400000000000000600082015250565b6000613faf601983612e5d565b9150613fba82613f79565b602082019050919050565b60006020820190508181036000830152613fde81613fa2565b9050919050565b6000606082019050613ffa6000830186612af5565b6140076020830185613cc2565b61401460408301846127e8565b94935050505056fea2646970667358221220d3c54764815b602139153b865ac6162f37ab04e669e28d25e00c0d0bd94f6c8e64736f6c63430008120033",
  "immutableReferences": {},
  "source": "// SPDX-License-Identifier: MIT\npragma solidity ^0.8.1;\n\nimport \"../node_modules/@openzeppelin/contracts/token/ERC721/ERC721.sol\";\nimport \"../node_modules/@openzeppelin/contracts/token/ERC721/IERC721.sol\";\nimport \"../node_modules/@openzeppelin/contracts/access/Ownable.sol\";\nimport \"../node_modules/@openzeppelin/contracts/utils/Counters.sol\";\nimport \"./LTToken.sol\";\n\n\ncontract Marketplace is Ownable {\n    using Counters for Counters.Counter;\n    Counters.Counter private _Ids;\n    address payable public marketAddress;\n\n    struct TokenInfo {\n        uint256 id;\n        address payable seller;\n        address NFTaddress;\n        uint256 tokenId;\n        uint256 price;\n        string metadata;\n        bool sold;\n        uint256 creatorFee;\n        uint256 openingPrice; // \n        uint256 auctionEndTime; //   \n        address payable highestBidder; //   \n        uint256 highestBid; //  \n    }\n\n    mapping(uint256 => TokenInfo) public TokenOnSale;\n    mapping(address => uint256) public lowestPriceByCollection;\n    mapping(address => uint256) public totalSalesByCollection;\n\n    event Add(uint256 id, address indexed NftAddress, address indexed seller, uint256 tokenId, uint256 price, string metadata, uint256 creatorFee);\n    event Buy(uint256 id, address indexed NftAddress, address indexed seller, address indexed buyer, uint256 tokenId, uint256 price);\n    event AuctionCreated(uint256 id, address indexed NftAddress, address indexed seller, uint256 tokenId, uint256 openingPrice, uint256 auctionEndTime);\n    event BidderChanged(uint256 id, address indexed NftAddress, address indexed bidder, uint256 tokenId, uint256 bidAmount);\n    event AuctionEnded(uint256 id, address indexed NftAddress, address indexed seller, address indexed winner, uint256 tokenId, uint256 winningBid);\n    event AuctionCancelled(uint256 id, address indexed NftAddress, address indexed seller, uint256 tokenId);\n\n    constructor() {\n        marketAddress = payable(msg.sender);\n    }\n\n    function addNftToMarket(address _NFTaddress, uint256 _tokenId, uint256 _price, string memory _metadata, uint256 _creatorFee) external {\n        require(ERC721(_NFTaddress).ownerOf(_tokenId) == msg.sender, \"You are not the owner of this NFT\");\n\n        _Ids.increment();\n        TokenOnSale[_Ids.current()] = TokenInfo(_Ids.current(), payable(msg.sender), _NFTaddress, _tokenId, _price, _metadata, false, _creatorFee, 0, 0, payable(address(0)), 0);\n        if (_price < lowestPriceByCollection[_NFTaddress] || lowestPriceByCollection[_NFTaddress] == 0) {\n            lowestPriceByCollection[_NFTaddress] = _price;\n        }\n\n        emit Add(_Ids.current(), _NFTaddress, msg.sender, _tokenId, _price, _metadata, _creatorFee);\n    }\n\n\n    function buyNfts(uint256[] calldata _ids) external payable {\n        require(msg.value > 0, \"No ETH sent\");\n\n        for (uint256 i = 0; i < _ids.length; i++) {\n            buyNft(_ids[i]);\n        }\n    }\n\n    function buyNft(uint256 _id) public payable {\n        TokenInfo storage token = TokenOnSale[_id];\n        require(msg.value >= token.price, \"Not enough ETH\");\n        require(!token.sold, \"Already sold out\");\n        require(msg.sender != token.seller, \"You can't buy your own NFT\");\n        require(token.openingPrice == 0, \"During the auction, you can't buy this NFT\");\n\n        uint256 tokenPrice = token.price * 1 ether;\n        uint256 marketFee = tokenPrice / 100;\n        uint256 creatorRoyalty = token.price * token.creatorFee / 1000;\n        uint256 sellerAmount = tokenPrice - marketFee - creatorRoyalty;\n\n        marketAddress.transfer(marketFee);\n\n        address payable creator = LTToken(token.NFTaddress).getCreator();\n        if (token.seller != creator) {\n            creator.transfer(creatorRoyalty);\n        }\n\n        token.seller.transfer(sellerAmount);\n\n        totalSalesByCollection[token.NFTaddress] += token.price;\n        token.sold = true;\n        token.seller = payable(msg.sender);\n\n        emit Buy(_id, token.NFTaddress, token.seller, msg.sender, token.tokenId, token.price);\n    }\n\n    function reAddNftToMarket(uint256 _id, uint256 _price) external {\n        TokenInfo storage token = TokenOnSale[_id];\n        require(token.sold, \"This NFT is not sold\");\n        require(msg.sender == token.seller, \"You are not the owner of this NFT\");\n\n        token.price = _price;\n        token.sold = false;\n\n        emit Add(_id, token.NFTaddress, token.seller, token.tokenId, _price, token.metadata, token.creatorFee);\n    }\n\n    function startAuction(uint256 _id, uint256 _openingPrice, uint256 _duration) external {\n        TokenInfo storage token = TokenOnSale[_id];\n        require(!token.sold, \"Already sold out\");\n        require(msg.sender == token.seller, \"You are not the owner of this NFT\");\n        require(_openingPrice > 0, \"Invalid opening price\");\n        require(_duration > 0, \"Invalid auction duration\");\n\n        token.openingPrice = _openingPrice;\n        token.auctionEndTime = block.timestamp + _duration;\n\n        emit AuctionCreated(_id, token.NFTaddress, token.seller, token.tokenId, _openingPrice, token.auctionEndTime);\n    }\n\n    function bidInAuction(uint256 _id) external payable {\n        TokenInfo storage token = TokenOnSale[_id];\n        require(!token.sold, \"Already sold out\");\n        require(token.openingPrice > 0, \"Auction not started\");\n        require(block.timestamp < token.auctionEndTime, \"Auction not ended yet\");\n        require(msg.value > token.highestBid, \"Bid amount is too low\");\n\n        if (token.highestBid != 0) {\n            token.highestBidder.transfer(token.highestBid); //      \n        }\n\n        token.highestBidder = payable(msg.sender);\n        token.highestBid = msg.value;\n\n        emit BidderChanged(_id, token.NFTaddress, msg.sender, token.tokenId, msg.value);\n    }\n\n    function endAuction(uint256 _id) internal {\n        TokenInfo storage token = TokenOnSale[_id];\n        address owner = IERC721(token.NFTaddress).ownerOf(token.tokenId);\n\n        require(!token.sold, \"Already sold out\");\n        require(token.openingPrice > 0, \"Auction not started\");\n        require(block.timestamp >= token.auctionEndTime, \"Auction has not ended yet\");\n        // require(owner == msg.sender, \"You are not the owner of this NFT\");\n\n        //      NFT    \n        IERC721(token.NFTaddress).safeTransferFrom(owner, token.highestBidder, token.tokenId);\n        token.seller.transfer(token.highestBid);\n        token.sold = true;\n        token.seller = payable(token.highestBidder);\n\n        //    \n        token.openingPrice = 0;\n        token.auctionEndTime = 0;\n        token.highestBidder = payable(address(0));\n        token.highestBid = 0;\n\n        emit AuctionEnded(_id, token.NFTaddress, token.seller, token.highestBidder, token.tokenId, token.highestBid);\n    }\n\n    function timer() external {\n        for (uint256 i = 1; i <= _Ids.current(); i++) {\n            TokenInfo storage token = TokenOnSale[i];\n            if (!token.sold && token.openingPrice > 0 && block.timestamp >= token.auctionEndTime && token.highestBidder != address(0)) {\n                require(msg.sender == token.highestBidder, \"Only last highest bidder can end the auction\");\n                endAuction(i);\n            }\n        }\n    }\n\n    function cancelAuction(uint256 _id) external {\n        TokenInfo storage token = TokenOnSale[_id];\n        require(token.id != 0, \"Token not found\");\n        require(token.openingPrice > 0, \"Auction not started\");\n        require(!token.sold, \"Token is already sold\");\n        require(msg.sender == token.seller, \"You are not the seller\");\n\n        token.sold = true;\n        token.highestBidder.transfer(token.highestBid);\n        IERC721(token.NFTaddress).safeTransferFrom(token.seller, token.seller, token.tokenId);\n\n        emit AuctionCancelled(token.id, token.NFTaddress, token.seller, token.tokenId);\n    }\n\n    function getAllTokensInCollection(address _NFTaddress) external view returns (TokenInfo[] memory) {\n        uint256 count = 0;\n        for (uint256 i = 1; i <= _Ids.current(); i++) {\n            if (TokenOnSale[i].NFTaddress == _NFTaddress) {\n                count++;\n            }\n        }\n        TokenInfo[] memory tokens = new TokenInfo[](count);\n\n        uint256 index = 0;\n        for (uint256 i = 1; i <= _Ids.current(); i++) {\n            if (TokenOnSale[i].NFTaddress == _NFTaddress) {\n                tokens[index] = TokenOnSale[i];\n                index++;\n            }\n        }\n\n        return tokens;\n    }\n}\n",
  "sourcePath": "/Users/kimjh/Documents/workspace/ZDB/rooftop/nft/contracts/Marketplace.sol",
  "compiler": {
    "name": "solc",
    "version": "0.8.18+commit.87f61d96.Emscripten.clang"
  },
  "schemaVersion": "3.4.14",
  "updatedAt": "2023-06-19T06:39:30.994Z",
  "networkType": "ethereum",
  "devdoc": {
    "kind": "dev",
    "methods": {
      "owner()": {
        "details": "Returns the address of the current owner."
      },
      "renounceOwnership()": {
        "details": "Leaves the contract without owner. It will not be possible to call `onlyOwner` functions. Can only be called by the current owner. NOTE: Renouncing ownership will leave the contract without an owner, thereby disabling any functionality that is only available to the owner."
      },
      "transferOwnership(address)": {
        "details": "Transfers ownership of the contract to a new account (`newOwner`). Can only be called by the current owner."
      }
    },
    "version": 1
  },
  "userdoc": {
    "kind": "user",
    "methods": {},
    "version": 1
  }
}