{
  "contractName": "Marketplace",
  "abi": [
    {
      "inputs": [],
      "stateMutability": "nonpayable",
      "type": "constructor"
    },
    {
      "anonymous": false,
      "inputs": [
        {
          "indexed": false,
          "internalType": "uint256",
          "name": "id",
          "type": "uint256"
        },
        {
          "indexed": true,
          "internalType": "address",
          "name": "NftAddress",
          "type": "address"
        },
        {
          "indexed": true,
          "internalType": "address",
          "name": "seller",
          "type": "address"
        },
        {
          "indexed": false,
          "internalType": "uint256",
          "name": "tokenId",
          "type": "uint256"
        },
        {
          "indexed": false,
          "internalType": "uint256",
          "name": "price",
          "type": "uint256"
        },
        {
          "indexed": false,
          "internalType": "string",
          "name": "metadata",
          "type": "string"
        },
        {
          "indexed": false,
          "internalType": "uint256",
          "name": "creatorFee",
          "type": "uint256"
        }
      ],
      "name": "Add",
      "type": "event"
    },
    {
      "anonymous": false,
      "inputs": [
        {
          "indexed": false,
          "internalType": "uint256",
          "name": "id",
          "type": "uint256"
        },
        {
          "indexed": true,
          "internalType": "address",
          "name": "NftAddress",
          "type": "address"
        },
        {
          "indexed": true,
          "internalType": "address",
          "name": "seller",
          "type": "address"
        },
        {
          "indexed": false,
          "internalType": "uint256",
          "name": "tokenId",
          "type": "uint256"
        }
      ],
      "name": "AuctionCancelled",
      "type": "event"
    },
    {
      "anonymous": false,
      "inputs": [
        {
          "indexed": false,
          "internalType": "uint256",
          "name": "id",
          "type": "uint256"
        },
        {
          "indexed": true,
          "internalType": "address",
          "name": "NftAddress",
          "type": "address"
        },
        {
          "indexed": true,
          "internalType": "address",
          "name": "seller",
          "type": "address"
        },
        {
          "indexed": false,
          "internalType": "uint256",
          "name": "tokenId",
          "type": "uint256"
        },
        {
          "indexed": false,
          "internalType": "uint256",
          "name": "openingPrice",
          "type": "uint256"
        },
        {
          "indexed": false,
          "internalType": "uint256",
          "name": "auctionEndTime",
          "type": "uint256"
        }
      ],
      "name": "AuctionCreated",
      "type": "event"
    },
    {
      "anonymous": false,
      "inputs": [
        {
          "indexed": false,
          "internalType": "uint256",
          "name": "id",
          "type": "uint256"
        },
        {
          "indexed": true,
          "internalType": "address",
          "name": "NftAddress",
          "type": "address"
        },
        {
          "indexed": true,
          "internalType": "address",
          "name": "seller",
          "type": "address"
        },
        {
          "indexed": true,
          "internalType": "address",
          "name": "winner",
          "type": "address"
        },
        {
          "indexed": false,
          "internalType": "uint256",
          "name": "tokenId",
          "type": "uint256"
        },
        {
          "indexed": false,
          "internalType": "uint256",
          "name": "winningBid",
          "type": "uint256"
        }
      ],
      "name": "AuctionEnded",
      "type": "event"
    },
    {
      "anonymous": false,
      "inputs": [
        {
          "indexed": false,
          "internalType": "uint256",
          "name": "id",
          "type": "uint256"
        },
        {
          "indexed": true,
          "internalType": "address",
          "name": "NftAddress",
          "type": "address"
        },
        {
          "indexed": true,
          "internalType": "address",
          "name": "bidder",
          "type": "address"
        },
        {
          "indexed": false,
          "internalType": "uint256",
          "name": "tokenId",
          "type": "uint256"
        },
        {
          "indexed": false,
          "internalType": "uint256",
          "name": "bidAmount",
          "type": "uint256"
        }
      ],
      "name": "BidderChanged",
      "type": "event"
    },
    {
      "anonymous": false,
      "inputs": [
        {
          "indexed": false,
          "internalType": "uint256",
          "name": "id",
          "type": "uint256"
        },
        {
          "indexed": true,
          "internalType": "address",
          "name": "NftAddress",
          "type": "address"
        },
        {
          "indexed": true,
          "internalType": "address",
          "name": "seller",
          "type": "address"
        },
        {
          "indexed": true,
          "internalType": "address",
          "name": "buyer",
          "type": "address"
        },
        {
          "indexed": false,
          "internalType": "uint256",
          "name": "tokenId",
          "type": "uint256"
        },
        {
          "indexed": false,
          "internalType": "uint256",
          "name": "price",
          "type": "uint256"
        }
      ],
      "name": "Buy",
      "type": "event"
    },
    {
      "anonymous": false,
      "inputs": [
        {
          "indexed": true,
          "internalType": "address",
          "name": "previousOwner",
          "type": "address"
        },
        {
          "indexed": true,
          "internalType": "address",
          "name": "newOwner",
          "type": "address"
        }
      ],
      "name": "OwnershipTransferred",
      "type": "event"
    },
    {
      "inputs": [
        {
          "internalType": "uint256",
          "name": "",
          "type": "uint256"
        }
      ],
      "name": "TokenOnSale",
      "outputs": [
        {
          "internalType": "uint256",
          "name": "id",
          "type": "uint256"
        },
        {
          "internalType": "address payable",
          "name": "seller",
          "type": "address"
        },
        {
          "internalType": "address",
          "name": "NFTaddress",
          "type": "address"
        },
        {
          "internalType": "uint256",
          "name": "tokenId",
          "type": "uint256"
        },
        {
          "internalType": "uint256",
          "name": "price",
          "type": "uint256"
        },
        {
          "internalType": "string",
          "name": "metadata",
          "type": "string"
        },
        {
          "internalType": "bool",
          "name": "sold",
          "type": "bool"
        },
        {
          "internalType": "uint256",
          "name": "creatorFee",
          "type": "uint256"
        },
        {
          "internalType": "uint256",
          "name": "openingPrice",
          "type": "uint256"
        },
        {
          "internalType": "uint256",
          "name": "auctionEndTime",
          "type": "uint256"
        },
        {
          "internalType": "address payable",
          "name": "highestBidder",
          "type": "address"
        },
        {
          "internalType": "uint256",
          "name": "highestBid",
          "type": "uint256"
        }
      ],
      "stateMutability": "view",
      "type": "function",
      "constant": true
    },
    {
      "inputs": [
        {
          "internalType": "address",
          "name": "",
          "type": "address"
        }
      ],
      "name": "lowestPriceByCollection",
      "outputs": [
        {
          "internalType": "uint256",
          "name": "",
          "type": "uint256"
        }
      ],
      "stateMutability": "view",
      "type": "function",
      "constant": true
    },
    {
      "inputs": [],
      "name": "marketAddress",
      "outputs": [
        {
          "internalType": "address payable",
          "name": "",
          "type": "address"
        }
      ],
      "stateMutability": "view",
      "type": "function",
      "constant": true
    },
    {
      "inputs": [],
      "name": "owner",
      "outputs": [
        {
          "internalType": "address",
          "name": "",
          "type": "address"
        }
      ],
      "stateMutability": "view",
      "type": "function",
      "constant": true
    },
    {
      "inputs": [],
      "name": "renounceOwnership",
      "outputs": [],
      "stateMutability": "nonpayable",
      "type": "function"
    },
    {
      "inputs": [
        {
          "internalType": "address",
          "name": "",
          "type": "address"
        }
      ],
      "name": "totalSalesByCollection",
      "outputs": [
        {
          "internalType": "uint256",
          "name": "",
          "type": "uint256"
        }
      ],
      "stateMutability": "view",
      "type": "function",
      "constant": true
    },
    {
      "inputs": [
        {
          "internalType": "address",
          "name": "newOwner",
          "type": "address"
        }
      ],
      "name": "transferOwnership",
      "outputs": [],
      "stateMutability": "nonpayable",
      "type": "function"
    },
    {
      "inputs": [],
      "name": "getLatestId",
      "outputs": [
        {
          "internalType": "uint256",
          "name": "",
          "type": "uint256"
        }
      ],
      "stateMutability": "view",
      "type": "function",
      "constant": true
    },
    {
      "inputs": [
        {
          "internalType": "address",
          "name": "_NFTaddress",
          "type": "address"
        },
        {
          "internalType": "uint256",
          "name": "_tokenId",
          "type": "uint256"
        },
        {
          "internalType": "uint256",
          "name": "_price",
          "type": "uint256"
        },
        {
          "internalType": "string",
          "name": "_metadata",
          "type": "string"
        },
        {
          "internalType": "uint256",
          "name": "_creatorFee",
          "type": "uint256"
        }
      ],
      "name": "addNftToMarket",
      "outputs": [],
      "stateMutability": "nonpayable",
      "type": "function"
    },
    {
      "inputs": [
        {
          "internalType": "uint256[]",
          "name": "_ids",
          "type": "uint256[]"
        }
      ],
      "name": "buyNfts",
      "outputs": [],
      "stateMutability": "payable",
      "type": "function",
      "payable": true
    },
    {
      "inputs": [
        {
          "internalType": "uint256",
          "name": "_id",
          "type": "uint256"
        }
      ],
      "name": "buyNft",
      "outputs": [],
      "stateMutability": "payable",
      "type": "function",
      "payable": true
    },
    {
      "inputs": [
        {
          "internalType": "uint256",
          "name": "_id",
          "type": "uint256"
        },
        {
          "internalType": "uint256",
          "name": "_price",
          "type": "uint256"
        }
      ],
      "name": "reAddNftToMarket",
      "outputs": [],
      "stateMutability": "nonpayable",
      "type": "function"
    },
    {
      "inputs": [
        {
          "internalType": "uint256",
          "name": "_id",
          "type": "uint256"
        },
        {
          "internalType": "uint256",
          "name": "_openingPrice",
          "type": "uint256"
        },
        {
          "internalType": "uint256",
          "name": "_duration",
          "type": "uint256"
        }
      ],
      "name": "startAuction",
      "outputs": [],
      "stateMutability": "nonpayable",
      "type": "function"
    },
    {
      "inputs": [
        {
          "internalType": "uint256",
          "name": "_id",
          "type": "uint256"
        }
      ],
      "name": "bidInAuction",
      "outputs": [],
      "stateMutability": "payable",
      "type": "function",
      "payable": true
    },
    {
      "inputs": [
        {
          "internalType": "uint256",
          "name": "_id",
          "type": "uint256"
        }
      ],
      "name": "endAuction",
      "outputs": [],
      "stateMutability": "nonpayable",
      "type": "function"
    },
    {
      "inputs": [
        {
          "internalType": "uint256",
          "name": "_id",
          "type": "uint256"
        }
      ],
      "name": "cancelAuction",
      "outputs": [],
      "stateMutability": "nonpayable",
      "type": "function"
    },
    {
      "inputs": [
        {
          "internalType": "address",
          "name": "_NFTaddress",
          "type": "address"
        }
      ],
      "name": "getAllTokensInCollection",
      "outputs": [
        {
          "components": [
            {
              "internalType": "uint256",
              "name": "id",
              "type": "uint256"
            },
            {
              "internalType": "address payable",
              "name": "seller",
              "type": "address"
            },
            {
              "internalType": "address",
              "name": "NFTaddress",
              "type": "address"
            },
            {
              "internalType": "uint256",
              "name": "tokenId",
              "type": "uint256"
            },
            {
              "internalType": "uint256",
              "name": "price",
              "type": "uint256"
            },
            {
              "internalType": "string",
              "name": "metadata",
              "type": "string"
            },
            {
              "internalType": "bool",
              "name": "sold",
              "type": "bool"
            },
            {
              "internalType": "uint256",
              "name": "creatorFee",
              "type": "uint256"
            },
            {
              "internalType": "uint256",
              "name": "openingPrice",
              "type": "uint256"
            },
            {
              "internalType": "uint256",
              "name": "auctionEndTime",
              "type": "uint256"
            },
            {
              "internalType": "address payable",
              "name": "highestBidder",
              "type": "address"
            },
            {
              "internalType": "uint256",
              "name": "highestBid",
              "type": "uint256"
            }
          ],
          "internalType": "struct Marketplace.TokenInfo[]",
          "name": "",
          "type": "tuple[]"
        }
      ],
      "stateMutability": "view",
      "type": "function",
      "constant": true
    },
    {
      "inputs": [
        {
          "internalType": "address payable",
          "name": "_address",
          "type": "address"
        }
      ],
      "name": "getUserTokens",
      "outputs": [
        {
          "components": [
            {
              "internalType": "uint256",
              "name": "id",
              "type": "uint256"
            },
            {
              "internalType": "address payable",
              "name": "seller",
              "type": "address"
            },
            {
              "internalType": "address",
              "name": "NFTaddress",
              "type": "address"
            },
            {
              "internalType": "uint256",
              "name": "tokenId",
              "type": "uint256"
            },
            {
              "internalType": "uint256",
              "name": "price",
              "type": "uint256"
            },
            {
              "internalType": "string",
              "name": "metadata",
              "type": "string"
            },
            {
              "internalType": "bool",
              "name": "sold",
              "type": "bool"
            },
            {
              "internalType": "uint256",
              "name": "creatorFee",
              "type": "uint256"
            },
            {
              "internalType": "uint256",
              "name": "openingPrice",
              "type": "uint256"
            },
            {
              "internalType": "uint256",
              "name": "auctionEndTime",
              "type": "uint256"
            },
            {
              "internalType": "address payable",
              "name": "highestBidder",
              "type": "address"
            },
            {
              "internalType": "uint256",
              "name": "highestBid",
              "type": "uint256"
            }
          ],
          "internalType": "struct Marketplace.TokenInfo[]",
          "name": "",
          "type": "tuple[]"
        }
      ],
      "stateMutability": "view",
      "type": "function",
      "constant": true
    }
  ],
  "bytecode": "0x60806040523480156200001157600080fd5b5062000032620000266200007960201b60201c565b6200008160201b60201c565b33600260006101000a81548173ffffffffffffffffffffffffffffffffffffffff021916908373ffffffffffffffffffffffffffffffffffffffff16021790555062000145565b600033905090565b60008060009054906101000a900473ffffffffffffffffffffffffffffffffffffffff169050816000806101000a81548173ffffffffffffffffffffffffffffffffffffffff021916908373ffffffffffffffffffffffffffffffffffffffff1602179055508173ffffffffffffffffffffffffffffffffffffffff168173ffffffffffffffffffffffffffffffffffffffff167f8be0079c531659141344cd1fd0a4f28419497f9722a3daafe3b4186f6b6457e060405160405180910390a35050565b6142ed80620001556000396000f3fe6080604052600436106101095760003560e01c8063918f2e5211610095578063b2b088f611610064578063b2b088f61461033e578063b9a2de3a14610386578063eb5af731146103af578063eff91c7e146103d8578063f2fde38b1461040357610109565b8063918f2e521461028457806391e078bb146102c157806395623641146102ea57806396b5a7551461031557610109565b80635d596402116100dc5780635d596402146101c05780636012de1a146101dc578063715018a61461020557806377b02fe01461021c5780638da5cb5b1461025957610109565b806321c4d76e1461010e578063243adbdd1461014b5780632975bfd414610167578063519dc8d214610183575b600080fd5b34801561011a57600080fd5b5061013560048036038101906101309190612b08565b61042c565b6040516101429190612b4e565b60405180910390f35b61016560048036038101906101609190612b95565b610444565b005b610181600480360381019061017c9190612b95565b6109e8565b005b34801561018f57600080fd5b506101aa60048036038101906101a59190612c00565b610c81565b6040516101b79190612ecb565b60405180910390f35b6101da60048036038101906101d59190612f52565b611060565b005b3480156101e857600080fd5b5061020360048036038101906101fe91906130cf565b6110eb565b005b34801561021157600080fd5b5061021a611547565b005b34801561022857600080fd5b50610243600480360381019061023e9190612b08565b61155b565b6040516102509190612b4e565b60405180910390f35b34801561026557600080fd5b5061026e611573565b60405161027b9190613175565b60405180910390f35b34801561029057600080fd5b506102ab60048036038101906102a69190612b08565b61159c565b6040516102b89190612ecb565b60405180910390f35b3480156102cd57600080fd5b506102e860048036038101906102e39190613190565b61197b565b005b3480156102f657600080fd5b506102ff611bda565b60405161030c91906131f2565b60405180910390f35b34801561032157600080fd5b5061033c60048036038101906103379190612b95565b611c00565b005b34801561034a57600080fd5b5061036560048036038101906103609190612b95565b611faf565b60405161037d9c9b9a99989796959493929190613266565b60405180910390f35b34801561039257600080fd5b506103ad60048036038101906103a89190612b95565b612104565b005b3480156103bb57600080fd5b506103d660048036038101906103d19190613327565b612618565b005b3480156103e457600080fd5b506103ed6127ef565b6040516103fa9190612b4e565b60405180910390f35b34801561040f57600080fd5b5061042a60048036038101906104259190612b08565b612800565b005b60056020528060005260406000206000915090505481565b600060036000838152602001908152602001600020905080600401543410156104a2576040517f08c379a0000000000000000000000000000000000000000000000000000000008152600401610499906133b3565b60405180910390fd5b8060060160009054906101000a900460ff16156104f4576040517f08c379a00000000000000000000000000000000000000000000000000000000081526004016104eb9061341f565b60405180910390fd5b8060010160009054906101000a900473ffffffffffffffffffffffffffffffffffffffff1673ffffffffffffffffffffffffffffffffffffffff163373ffffffffffffffffffffffffffffffffffffffff1603610586576040517f08c379a000000000000000000000000000000000000000000000000000000000815260040161057d9061348b565b60405180910390fd5b60008160080154146105cd576040517f08c379a00000000000000000000000000000000000000000000000000000000081526004016105c49061351d565b60405180910390fd5b6000606482600401546105e0919061359b565b90506000808284600401546105f591906135cc565b9050600260009054906101000a900473ffffffffffffffffffffffffffffffffffffffff1673ffffffffffffffffffffffffffffffffffffffff166108fc849081150290604051600060405180830381858888f1935050505015801561065f573d6000803e3d6000fd5b5060008460020160009054906101000a900473ffffffffffffffffffffffffffffffffffffffff1673ffffffffffffffffffffffffffffffffffffffff16630ee2cb106040518163ffffffff1660e01b8152600401602060405180830381865afa1580156106d1573d6000803e3d6000fd5b505050506040513d601f19601f820116820180604052508101906106f59190613615565b90508073ffffffffffffffffffffffffffffffffffffffff168560010160009054906101000a900473ffffffffffffffffffffffffffffffffffffffff1673ffffffffffffffffffffffffffffffffffffffff16146107c7576103e8856007015486600401546107659190613642565b61076f919061359b565b9250828261077d91906135cc565b91508073ffffffffffffffffffffffffffffffffffffffff166108fc849081150290604051600060405180830381858888f193505050501580156107c5573d6000803e3d6000fd5b505b8460010160009054906101000a900473ffffffffffffffffffffffffffffffffffffffff1673ffffffffffffffffffffffffffffffffffffffff166108fc839081150290604051600060405180830381858888f19350505050158015610831573d6000803e3d6000fd5b508460040154600560008760020160009054906101000a900473ffffffffffffffffffffffffffffffffffffffff1673ffffffffffffffffffffffffffffffffffffffff1673ffffffffffffffffffffffffffffffffffffffff16815260200190815260200160002060008282546108a99190613684565b9250508190555060018560060160006101000a81548160ff021916908315150217905550338560010160006101000a81548173ffffffffffffffffffffffffffffffffffffffff021916908373ffffffffffffffffffffffffffffffffffffffff1602179055503373ffffffffffffffffffffffffffffffffffffffff168560010160009054906101000a900473ffffffffffffffffffffffffffffffffffffffff1673ffffffffffffffffffffffffffffffffffffffff168660020160009054906101000a900473ffffffffffffffffffffffffffffffffffffffff1673ffffffffffffffffffffffffffffffffffffffff167f75707d5d3d11632aafe99e9e60317891909f271b10026e79014651df900c32a08989600301548a600401546040516109d8939291906136b8565b60405180910390a4505050505050565b60006003600083815260200190815260200160002090508060060160009054906101000a900460ff1615610a51576040517f08c379a0000000000000000000000000000000000000000000000000000000008152600401610a489061341f565b60405180910390fd5b6000816008015411610a98576040517f08c379a0000000000000000000000000000000000000000000000000000000008152600401610a8f9061373b565b60405180910390fd5b80600901544210610ade576040517f08c379a0000000000000000000000000000000000000000000000000000000008152600401610ad5906137a7565b60405180910390fd5b80600b01543411610b24576040517f08c379a0000000000000000000000000000000000000000000000000000000008152600401610b1b90613813565b60405180910390fd5b600081600b015414610ba05780600a0160009054906101000a900473ffffffffffffffffffffffffffffffffffffffff1673ffffffffffffffffffffffffffffffffffffffff166108fc82600b01549081150290604051600060405180830381858888f19350505050158015610b9e573d6000803e3d6000fd5b505b3381600a0160006101000a81548173ffffffffffffffffffffffffffffffffffffffff021916908373ffffffffffffffffffffffffffffffffffffffff1602179055503481600b01819055503373ffffffffffffffffffffffffffffffffffffffff168160020160009054906101000a900473ffffffffffffffffffffffffffffffffffffffff1673ffffffffffffffffffffffffffffffffffffffff167f0efc41f9ac6b1327ea0a4ce681dbef148dc7ef1663380fb4681a5d3a8ef2977784846003015434604051610c75939291906136b8565b60405180910390a35050565b6060600080600190505b610c956001612883565b8111610d26578373ffffffffffffffffffffffffffffffffffffffff166003600083815260200190815260200160002060010160009054906101000a900473ffffffffffffffffffffffffffffffffffffffff1673ffffffffffffffffffffffffffffffffffffffff1603610d13578180610d0f90613833565b9250505b8080610d1e90613833565b915050610c8b565b5060008167ffffffffffffffff811115610d4357610d42612fa4565b5b604051908082528060200260200182016040528015610d7c57816020015b610d696129f1565b815260200190600190039081610d615790505b509050600080600190505b610d916001612883565b8111611054578573ffffffffffffffffffffffffffffffffffffffff166003600083815260200190815260200160002060010160009054906101000a900473ffffffffffffffffffffffffffffffffffffffff1673ffffffffffffffffffffffffffffffffffffffff1603611041576003600082815260200190815260200160002060405180610180016040529081600082015481526020016001820160009054906101000a900473ffffffffffffffffffffffffffffffffffffffff1673ffffffffffffffffffffffffffffffffffffffff1673ffffffffffffffffffffffffffffffffffffffff1681526020016002820160009054906101000a900473ffffffffffffffffffffffffffffffffffffffff1673ffffffffffffffffffffffffffffffffffffffff1673ffffffffffffffffffffffffffffffffffffffff1681526020016003820154815260200160048201548152602001600582018054610ef9906138aa565b80601f0160208091040260200160405190810160405280929190818152602001828054610f25906138aa565b8015610f725780601f10610f4757610100808354040283529160200191610f72565b820191906000526020600020905b815481529060010190602001808311610f5557829003601f168201915b505050505081526020016006820160009054906101000a900460ff16151515158152602001600782015481526020016008820154815260200160098201548152602001600a820160009054906101000a900473ffffffffffffffffffffffffffffffffffffffff1673ffffffffffffffffffffffffffffffffffffffff1673ffffffffffffffffffffffffffffffffffffffff168152602001600b82015481525050838381518110611027576110266138db565b5b6020026020010181905250818061103d90613833565b9250505b808061104c90613833565b915050610d87565b50819350505050919050565b600034116110a3576040517f08c379a000000000000000000000000000000000000000000000000000000000815260040161109a90613956565b60405180910390fd5b60005b828290508110156110e6576110d38383838181106110c7576110c66138db565b5b90506020020135610444565b80806110de90613833565b9150506110a6565b505050565b3373ffffffffffffffffffffffffffffffffffffffff168573ffffffffffffffffffffffffffffffffffffffff16636352211e866040518263ffffffff1660e01b815260040161113b9190612b4e565b602060405180830381865afa158015611158573d6000803e3d6000fd5b505050506040513d601f19601f8201168201806040525081019061117c919061398b565b73ffffffffffffffffffffffffffffffffffffffff16146111d2576040517f08c379a00000000000000000000000000000000000000000000000000000000081526004016111c990613a2a565b60405180910390fd5b6111dc6001612891565b6040518061018001604052806111f26001612883565b81526020013373ffffffffffffffffffffffffffffffffffffffff1681526020018673ffffffffffffffffffffffffffffffffffffffff1681526020018581526020018481526020018381526020016000151581526020018281526020016000815260200160008152602001600073ffffffffffffffffffffffffffffffffffffffff16815260200160008152506003600061128e6001612883565b81526020019081526020016000206000820151816000015560208201518160010160006101000a81548173ffffffffffffffffffffffffffffffffffffffff021916908373ffffffffffffffffffffffffffffffffffffffff16021790555060408201518160020160006101000a81548173ffffffffffffffffffffffffffffffffffffffff021916908373ffffffffffffffffffffffffffffffffffffffff160217905550606082015181600301556080820151816004015560a082015181600501908161135d9190613bf6565b5060c08201518160060160006101000a81548160ff02191690831515021790555060e082015181600701556101008201518160080155610120820151816009015561014082015181600a0160006101000a81548173ffffffffffffffffffffffffffffffffffffffff021916908373ffffffffffffffffffffffffffffffffffffffff16021790555061016082015181600b0155905050600460008673ffffffffffffffffffffffffffffffffffffffff1673ffffffffffffffffffffffffffffffffffffffff1681526020019081526020016000205483108061148057506000600460008773ffffffffffffffffffffffffffffffffffffffff1673ffffffffffffffffffffffffffffffffffffffff16815260200190815260200160002054145b156114ca5782600460008773ffffffffffffffffffffffffffffffffffffffff1673ffffffffffffffffffffffffffffffffffffffff168152602001908152602001600020819055505b3373ffffffffffffffffffffffffffffffffffffffff168573ffffffffffffffffffffffffffffffffffffffff167fcf4e2b398f8f130dfa20ec831a8ad0f918b3c680e9dbad3b2230ad0192f52b166115236001612883565b87878787604051611538959493929190613cc8565b60405180910390a35050505050565b61154f6128a7565b6115596000612925565b565b60046020528060005260406000206000915090505481565b60008060009054906101000a900473ffffffffffffffffffffffffffffffffffffffff16905090565b6060600080600190505b6115b06001612883565b8111611641578373ffffffffffffffffffffffffffffffffffffffff166003600083815260200190815260200160002060020160009054906101000a900473ffffffffffffffffffffffffffffffffffffffff1673ffffffffffffffffffffffffffffffffffffffff160361162e57818061162a90613833565b9250505b808061163990613833565b9150506115a6565b5060008167ffffffffffffffff81111561165e5761165d612fa4565b5b60405190808252806020026020018201604052801561169757816020015b6116846129f1565b81526020019060019003908161167c5790505b509050600080600190505b6116ac6001612883565b811161196f578573ffffffffffffffffffffffffffffffffffffffff166003600083815260200190815260200160002060020160009054906101000a900473ffffffffffffffffffffffffffffffffffffffff1673ffffffffffffffffffffffffffffffffffffffff160361195c576003600082815260200190815260200160002060405180610180016040529081600082015481526020016001820160009054906101000a900473ffffffffffffffffffffffffffffffffffffffff1673ffffffffffffffffffffffffffffffffffffffff1673ffffffffffffffffffffffffffffffffffffffff1681526020016002820160009054906101000a900473ffffffffffffffffffffffffffffffffffffffff1673ffffffffffffffffffffffffffffffffffffffff1673ffffffffffffffffffffffffffffffffffffffff1681526020016003820154815260200160048201548152602001600582018054611814906138aa565b80601f0160208091040260200160405190810160405280929190818152602001828054611840906138aa565b801561188d5780601f106118625761010080835404028352916020019161188d565b820191906000526020600020905b81548152906001019060200180831161187057829003601f168201915b505050505081526020016006820160009054906101000a900460ff16151515158152602001600782015481526020016008820154815260200160098201548152602001600a820160009054906101000a900473ffffffffffffffffffffffffffffffffffffffff1673ffffffffffffffffffffffffffffffffffffffff1673ffffffffffffffffffffffffffffffffffffffff168152602001600b82015481525050838381518110611942576119416138db565b5b6020026020010181905250818061195890613833565b9250505b808061196790613833565b9150506116a2565b50819350505050919050565b60006003600085815260200190815260200160002090508060060160009054906101000a900460ff16156119e4576040517f08c379a00000000000000000000000000000000000000000000000000000000081526004016119db9061341f565b60405180910390fd5b8060010160009054906101000a900473ffffffffffffffffffffffffffffffffffffffff1673ffffffffffffffffffffffffffffffffffffffff163373ffffffffffffffffffffffffffffffffffffffff1614611a76576040517f08c379a0000000000000000000000000000000000000000000000000000000008152600401611a6d90613a2a565b60405180910390fd5b60008311611ab9576040517f08c379a0000000000000000000000000000000000000000000000000000000008152600401611ab090613d6e565b60405180910390fd5b60008211611afc576040517f08c379a0000000000000000000000000000000000000000000000000000000008152600401611af390613dda565b60405180910390fd5b8281600801819055508142611b119190613684565b81600901819055508060010160009054906101000a900473ffffffffffffffffffffffffffffffffffffffff1673ffffffffffffffffffffffffffffffffffffffff168160020160009054906101000a900473ffffffffffffffffffffffffffffffffffffffff1673ffffffffffffffffffffffffffffffffffffffff167f06b9e486c68303eb64052e0493f906f3d93a1b7149b6b8dcff221aebd16c3513868460030154878660090154604051611bcc9493929190613dfa565b60405180910390a350505050565b600260009054906101000a900473ffffffffffffffffffffffffffffffffffffffff1681565b60006003600083815260200190815260200160002090506000816000015403611c5e576040517f08c379a0000000000000000000000000000000000000000000000000000000008152600401611c5590613e8b565b60405180910390fd5b6000816008015411611ca5576040517f08c379a0000000000000000000000000000000000000000000000000000000008152600401611c9c9061373b565b60405180910390fd5b8060060160009054906101000a900460ff1615611cf7576040517f08c379a0000000000000000000000000000000000000000000000000000000008152600401611cee90613ef7565b60405180910390fd5b8060010160009054906101000a900473ffffffffffffffffffffffffffffffffffffffff1673ffffffffffffffffffffffffffffffffffffffff163373ffffffffffffffffffffffffffffffffffffffff1614611d89576040517f08c379a0000000000000000000000000000000000000000000000000000000008152600401611d8090613f63565b60405180910390fd5b60018160060160006101000a81548160ff02191690831515021790555080600a0160009054906101000a900473ffffffffffffffffffffffffffffffffffffffff1673ffffffffffffffffffffffffffffffffffffffff166108fc82600b01549081150290604051600060405180830381858888f19350505050158015611e14573d6000803e3d6000fd5b508060020160009054906101000a900473ffffffffffffffffffffffffffffffffffffffff1673ffffffffffffffffffffffffffffffffffffffff166342842e0e8260010160009054906101000a900473ffffffffffffffffffffffffffffffffffffffff168360010160009054906101000a900473ffffffffffffffffffffffffffffffffffffffff1684600301546040518463ffffffff1660e01b8152600401611ec293929190613fd8565b600060405180830381600087803b158015611edc57600080fd5b505af1158015611ef0573d6000803e3d6000fd5b505050508060010160009054906101000a900473ffffffffffffffffffffffffffffffffffffffff1673ffffffffffffffffffffffffffffffffffffffff168160020160009054906101000a900473ffffffffffffffffffffffffffffffffffffffff1673ffffffffffffffffffffffffffffffffffffffff167f2fd0fd288a849022c51c1ab9e887d7a4f89ac1126432be270b0ba773382ad66183600001548460030154604051611fa392919061400f565b60405180910390a35050565b60036020528060005260406000206000915090508060000154908060010160009054906101000a900473ffffffffffffffffffffffffffffffffffffffff16908060020160009054906101000a900473ffffffffffffffffffffffffffffffffffffffff1690806003015490806004015490806005018054612030906138aa565b80601f016020809104026020016040519081016040528092919081815260200182805461205c906138aa565b80156120a95780601f1061207e576101008083540402835291602001916120a9565b820191906000526020600020905b81548152906001019060200180831161208c57829003601f168201915b5050505050908060060160009054906101000a900460ff169080600701549080600801549080600901549080600a0160009054906101000a900473ffffffffffffffffffffffffffffffffffffffff169080600b015490508c565b600060036000838152602001908152602001600020905060008160020160009054906101000a900473ffffffffffffffffffffffffffffffffffffffff1673ffffffffffffffffffffffffffffffffffffffff16636352211e83600301546040518263ffffffff1660e01b815260040161217e9190612b4e565b602060405180830381865afa15801561219b573d6000803e3d6000fd5b505050506040513d601f19601f820116820180604052508101906121bf919061398b565b90508160060160009054906101000a900460ff1615612213576040517f08c379a000000000000000000000000000000000000000000000000000000000815260040161220a9061341f565b60405180910390fd5b600082600801541161225a576040517f08c379a00000000000000000000000000000000000000000000000000000000081526004016122519061373b565b60405180910390fd5b81600901544210156122a1576040517f08c379a000000000000000000000000000000000000000000000000000000000815260040161229890614084565b60405180910390fd5b3373ffffffffffffffffffffffffffffffffffffffff168173ffffffffffffffffffffffffffffffffffffffff161461230f576040517f08c379a000000000000000000000000000000000000000000000000000000000815260040161230690613a2a565b60405180910390fd5b8160020160009054906101000a900473ffffffffffffffffffffffffffffffffffffffff1673ffffffffffffffffffffffffffffffffffffffff166342842e0e8284600a0160009054906101000a900473ffffffffffffffffffffffffffffffffffffffff1685600301546040518463ffffffff1660e01b8152600401612398939291906140a4565b600060405180830381600087803b1580156123b257600080fd5b505af11580156123c6573d6000803e3d6000fd5b505050508160010160009054906101000a900473ffffffffffffffffffffffffffffffffffffffff1673ffffffffffffffffffffffffffffffffffffffff166108fc83600b01549081150290604051600060405180830381858888f19350505050158015612438573d6000803e3d6000fd5b5060018260060160006101000a81548160ff02191690831515021790555081600a0160009054906101000a900473ffffffffffffffffffffffffffffffffffffffff168260010160006101000a81548173ffffffffffffffffffffffffffffffffffffffff021916908373ffffffffffffffffffffffffffffffffffffffff1602179055506000826008018190555060008260090181905550600082600a0160006101000a81548173ffffffffffffffffffffffffffffffffffffffff021916908373ffffffffffffffffffffffffffffffffffffffff160217905550600082600b018190555081600a0160009054906101000a900473ffffffffffffffffffffffffffffffffffffffff1673ffffffffffffffffffffffffffffffffffffffff168260010160009054906101000a900473ffffffffffffffffffffffffffffffffffffffff1673ffffffffffffffffffffffffffffffffffffffff168360020160009054906101000a900473ffffffffffffffffffffffffffffffffffffffff1673ffffffffffffffffffffffffffffffffffffffff167f6c47fd8bd138d7325768cd34fb84465cf68b7d556baca7bdadea071c5c9a1b0986866003015487600b015460405161260b939291906136b8565b60405180910390a4505050565b60006003600084815260200190815260200160002090508060010160009054906101000a900473ffffffffffffffffffffffffffffffffffffffff1673ffffffffffffffffffffffffffffffffffffffff163373ffffffffffffffffffffffffffffffffffffffff16146126c1576040517f08c379a00000000000000000000000000000000000000000000000000000000081526004016126b890613a2a565b60405180910390fd5b81816004018190555060008160060160006101000a81548160ff021916908315150217905550338160010160006101000a81548173ffffffffffffffffffffffffffffffffffffffff021916908373ffffffffffffffffffffffffffffffffffffffff1602179055508060010160009054906101000a900473ffffffffffffffffffffffffffffffffffffffff1673ffffffffffffffffffffffffffffffffffffffff168160020160009054906101000a900473ffffffffffffffffffffffffffffffffffffffff1673ffffffffffffffffffffffffffffffffffffffff167fcf4e2b398f8f130dfa20ec831a8ad0f918b3c680e9dbad3b2230ad0192f52b16858460030154868660050187600701546040516127e295949392919061415f565b60405180910390a3505050565b60006127fb6001612883565b905090565b6128086128a7565b600073ffffffffffffffffffffffffffffffffffffffff168173ffffffffffffffffffffffffffffffffffffffff1603612877576040517f08c379a000000000000000000000000000000000000000000000000000000000815260040161286e9061422b565b60405180910390fd5b61288081612925565b50565b600081600001549050919050565b6001816000016000828254019250508190555050565b6128af6129e9565b73ffffffffffffffffffffffffffffffffffffffff166128cd611573565b73ffffffffffffffffffffffffffffffffffffffff1614612923576040517f08c379a000000000000000000000000000000000000000000000000000000000815260040161291a90614297565b60405180910390fd5b565b60008060009054906101000a900473ffffffffffffffffffffffffffffffffffffffff169050816000806101000a81548173ffffffffffffffffffffffffffffffffffffffff021916908373ffffffffffffffffffffffffffffffffffffffff1602179055508173ffffffffffffffffffffffffffffffffffffffff168173ffffffffffffffffffffffffffffffffffffffff167f8be0079c531659141344cd1fd0a4f28419497f9722a3daafe3b4186f6b6457e060405160405180910390a35050565b600033905090565b60405180610180016040528060008152602001600073ffffffffffffffffffffffffffffffffffffffff168152602001600073ffffffffffffffffffffffffffffffffffffffff168152602001600081526020016000815260200160608152602001600015158152602001600081526020016000815260200160008152602001600073ffffffffffffffffffffffffffffffffffffffff168152602001600081525090565b6000604051905090565b600080fd5b600080fd5b600073ffffffffffffffffffffffffffffffffffffffff82169050919050565b6000612ad582612aaa565b9050919050565b612ae581612aca565b8114612af057600080fd5b50565b600081359050612b0281612adc565b92915050565b600060208284031215612b1e57612b1d612aa0565b5b6000612b2c84828501612af3565b91505092915050565b6000819050919050565b612b4881612b35565b82525050565b6000602082019050612b636000830184612b3f565b92915050565b612b7281612b35565b8114612b7d57600080fd5b50565b600081359050612b8f81612b69565b92915050565b600060208284031215612bab57612baa612aa0565b5b6000612bb984828501612b80565b91505092915050565b6000612bcd82612aaa565b9050919050565b612bdd81612bc2565b8114612be857600080fd5b50565b600081359050612bfa81612bd4565b92915050565b600060208284031215612c1657612c15612aa0565b5b6000612c2484828501612beb565b91505092915050565b600081519050919050565b600082825260208201905092915050565b6000819050602082019050919050565b612c6281612b35565b82525050565b612c7181612bc2565b82525050565b612c8081612aca565b82525050565b600081519050919050565b600082825260208201905092915050565b60005b83811015612cc0578082015181840152602081019050612ca5565b60008484015250505050565b6000601f19601f8301169050919050565b6000612ce882612c86565b612cf28185612c91565b9350612d02818560208601612ca2565b612d0b81612ccc565b840191505092915050565b60008115159050919050565b612d2b81612d16565b82525050565b600061018083016000830151612d4a6000860182612c59565b506020830151612d5d6020860182612c68565b506040830151612d706040860182612c77565b506060830151612d836060860182612c59565b506080830151612d966080860182612c59565b5060a083015184820360a0860152612dae8282612cdd565b91505060c0830151612dc360c0860182612d22565b5060e0830151612dd660e0860182612c59565b50610100830151612deb610100860182612c59565b50610120830151612e00610120860182612c59565b50610140830151612e15610140860182612c68565b50610160830151612e2a610160860182612c59565b508091505092915050565b6000612e418383612d31565b905092915050565b6000602082019050919050565b6000612e6182612c2d565b612e6b8185612c38565b935083602082028501612e7d85612c49565b8060005b85811015612eb95784840389528151612e9a8582612e35565b9450612ea583612e49565b925060208a01995050600181019050612e81565b50829750879550505050505092915050565b60006020820190508181036000830152612ee58184612e56565b905092915050565b600080fd5b600080fd5b600080fd5b60008083601f840112612f1257612f11612eed565b5b8235905067ffffffffffffffff811115612f2f57612f2e612ef2565b5b602083019150836020820283011115612f4b57612f4a612ef7565b5b9250929050565b60008060208385031215612f6957612f68612aa0565b5b600083013567ffffffffffffffff811115612f8757612f86612aa5565b5b612f9385828601612efc565b92509250509250929050565b600080fd5b7f4e487b7100000000000000000000000000000000000000000000000000000000600052604160045260246000fd5b612fdc82612ccc565b810181811067ffffffffffffffff82111715612ffb57612ffa612fa4565b5b80604052505050565b600061300e612a96565b905061301a8282612fd3565b919050565b600067ffffffffffffffff82111561303a57613039612fa4565b5b61304382612ccc565b9050602081019050919050565b82818337600083830152505050565b600061307261306d8461301f565b613004565b90508281526020810184848401111561308e5761308d612f9f565b5b613099848285613050565b509392505050565b600082601f8301126130b6576130b5612eed565b5b81356130c684826020860161305f565b91505092915050565b600080600080600060a086880312156130eb576130ea612aa0565b5b60006130f988828901612af3565b955050602061310a88828901612b80565b945050604061311b88828901612b80565b935050606086013567ffffffffffffffff81111561313c5761313b612aa5565b5b613148888289016130a1565b925050608061315988828901612b80565b9150509295509295909350565b61316f81612aca565b82525050565b600060208201905061318a6000830184613166565b92915050565b6000806000606084860312156131a9576131a8612aa0565b5b60006131b786828701612b80565b93505060206131c886828701612b80565b92505060406131d986828701612b80565b9150509250925092565b6131ec81612bc2565b82525050565b600060208201905061320760008301846131e3565b92915050565b600082825260208201905092915050565b600061322982612c86565b613233818561320d565b9350613243818560208601612ca2565b61324c81612ccc565b840191505092915050565b61326081612d16565b82525050565b60006101808201905061327c600083018f612b3f565b613289602083018e6131e3565b613296604083018d613166565b6132a3606083018c612b3f565b6132b0608083018b612b3f565b81810360a08301526132c2818a61321e565b90506132d160c0830189613257565b6132de60e0830188612b3f565b6132ec610100830187612b3f565b6132fa610120830186612b3f565b6133086101408301856131e3565b613316610160830184612b3f565b9d9c50505050505050505050505050565b6000806040838503121561333e5761333d612aa0565b5b600061334c85828601612b80565b925050602061335d85828601612b80565b9150509250929050565b7f4e6f7420656e6f75676820455448000000000000000000000000000000000000600082015250565b600061339d600e8361320d565b91506133a882613367565b602082019050919050565b600060208201905081810360008301526133cc81613390565b9050919050565b7f416c726561647920736f6c64206f757400000000000000000000000000000000600082015250565b600061340960108361320d565b9150613414826133d3565b602082019050919050565b60006020820190508181036000830152613438816133fc565b9050919050565b7f596f752063616e27742062757920796f7572206f776e204e4654000000000000600082015250565b6000613475601a8361320d565b91506134808261343f565b602082019050919050565b600060208201905081810360008301526134a481613468565b9050919050565b7f447572696e67207468652061756374696f6e2c20796f752063616e277420627560008201527f792074686973204e465400000000000000000000000000000000000000000000602082015250565b6000613507602a8361320d565b9150613512826134ab565b604082019050919050565b60006020820190508181036000830152613536816134fa565b9050919050565b7f4e487b7100000000000000000000000000000000000000000000000000000000600052601260045260246000fd5b7f4e487b7100000000000000000000000000000000000000000000000000000000600052601160045260246000fd5b60006135a682612b35565b91506135b183612b35565b9250826135c1576135c061353d565b5b828204905092915050565b60006135d782612b35565b91506135e283612b35565b92508282039050818111156135fa576135f961356c565b5b92915050565b60008151905061360f81612bd4565b92915050565b60006020828403121561362b5761362a612aa0565b5b600061363984828501613600565b91505092915050565b600061364d82612b35565b915061365883612b35565b925082820261366681612b35565b9150828204841483151761367d5761367c61356c565b5b5092915050565b600061368f82612b35565b915061369a83612b35565b92508282019050808211156136b2576136b161356c565b5b92915050565b60006060820190506136cd6000830186612b3f565b6136da6020830185612b3f565b6136e76040830184612b3f565b949350505050565b7f41756374696f6e206e6f74207374617274656400000000000000000000000000600082015250565b600061372560138361320d565b9150613730826136ef565b602082019050919050565b6000602082019050818103600083015261375481613718565b9050919050565b7f41756374696f6e20697320656e64656400000000000000000000000000000000600082015250565b600061379160108361320d565b915061379c8261375b565b602082019050919050565b600060208201905081810360008301526137c081613784565b9050919050565b7f42696420616d6f756e7420697320746f6f206c6f770000000000000000000000600082015250565b60006137fd60158361320d565b9150613808826137c7565b602082019050919050565b6000602082019050818103600083015261382c816137f0565b9050919050565b600061383e82612b35565b91507fffffffffffffffffffffffffffffffffffffffffffffffffffffffffffffffff82036138705761386f61356c565b5b600182019050919050565b7f4e487b7100000000000000000000000000000000000000000000000000000000600052602260045260246000fd5b600060028204905060018216806138c257607f821691505b6020821081036138d5576138d461387b565b5b50919050565b7f4e487b7100000000000000000000000000000000000000000000000000000000600052603260045260246000fd5b7f4e6f204554482073656e74000000000000000000000000000000000000000000600082015250565b6000613940600b8361320d565b915061394b8261390a565b602082019050919050565b6000602082019050818103600083015261396f81613933565b9050919050565b60008151905061398581612adc565b92915050565b6000602082840312156139a1576139a0612aa0565b5b60006139af84828501613976565b91505092915050565b7f596f7520617265206e6f7420746865206f776e6572206f662074686973204e4660008201527f5400000000000000000000000000000000000000000000000000000000000000602082015250565b6000613a1460218361320d565b9150613a1f826139b8565b604082019050919050565b60006020820190508181036000830152613a4381613a07565b9050919050565b60008190508160005260206000209050919050565b60006020601f8301049050919050565b600082821b905092915050565b600060088302613aac7fffffffffffffffffffffffffffffffffffffffffffffffffffffffffffffffff82613a6f565b613ab68683613a6f565b95508019841693508086168417925050509392505050565b6000819050919050565b6000613af3613aee613ae984612b35565b613ace565b612b35565b9050919050565b6000819050919050565b613b0d83613ad8565b613b21613b1982613afa565b848454613a7c565b825550505050565b600090565b613b36613b29565b613b41818484613b04565b505050565b5b81811015613b6557613b5a600082613b2e565b600181019050613b47565b5050565b601f821115613baa57613b7b81613a4a565b613b8484613a5f565b81016020851015613b93578190505b613ba7613b9f85613a5f565b830182613b46565b50505b505050565b600082821c905092915050565b6000613bcd60001984600802613baf565b1980831691505092915050565b6000613be68383613bbc565b9150826002028217905092915050565b613bff82612c86565b67ffffffffffffffff811115613c1857613c17612fa4565b5b613c2282546138aa565b613c2d828285613b69565b600060209050601f831160018114613c605760008415613c4e578287015190505b613c588582613bda565b865550613cc0565b601f198416613c6e86613a4a565b60005b82811015613c9657848901518255600182019150602085019450602081019050613c71565b86831015613cb35784890151613caf601f891682613bbc565b8355505b6001600288020188555050505b505050505050565b600060a082019050613cdd6000830188612b3f565b613cea6020830187612b3f565b613cf76040830186612b3f565b8181036060830152613d09818561321e565b9050613d186080830184612b3f565b9695505050505050565b7f496e76616c6964206f70656e696e672070726963650000000000000000000000600082015250565b6000613d5860158361320d565b9150613d6382613d22565b602082019050919050565b60006020820190508181036000830152613d8781613d4b565b9050919050565b7f496e76616c69642061756374696f6e206475726174696f6e0000000000000000600082015250565b6000613dc460188361320d565b9150613dcf82613d8e565b602082019050919050565b60006020820190508181036000830152613df381613db7565b9050919050565b6000608082019050613e0f6000830187612b3f565b613e1c6020830186612b3f565b613e296040830185612b3f565b613e366060830184612b3f565b95945050505050565b7f546f6b656e206e6f7420666f756e640000000000000000000000000000000000600082015250565b6000613e75600f8361320d565b9150613e8082613e3f565b602082019050919050565b60006020820190508181036000830152613ea481613e68565b9050919050565b7f546f6b656e20697320616c726561647920736f6c640000000000000000000000600082015250565b6000613ee160158361320d565b9150613eec82613eab565b602082019050919050565b60006020820190508181036000830152613f1081613ed4565b9050919050565b7f596f7520617265206e6f74207468652073656c6c657200000000000000000000600082015250565b6000613f4d60168361320d565b9150613f5882613f17565b602082019050919050565b60006020820190508181036000830152613f7c81613f40565b9050919050565b6000613f9e613f99613f9484612aaa565b613ace565b612aaa565b9050919050565b6000613fb082613f83565b9050919050565b6000613fc282613fa5565b9050919050565b613fd281613fb7565b82525050565b6000606082019050613fed6000830186613fc9565b613ffa6020830185613fc9565b6140076040830184612b3f565b949350505050565b60006040820190506140246000830185612b3f565b6140316020830184612b3f565b9392505050565b7f41756374696f6e20686173206e6f7420656e6465642079657400000000000000600082015250565b600061406e60198361320d565b915061407982614038565b602082019050919050565b6000602082019050818103600083015261409d81614061565b9050919050565b60006060820190506140b96000830186613166565b6140c66020830185613fc9565b6140d36040830184612b3f565b949350505050565b600081546140e8816138aa565b6140f2818661320d565b9450600182166000811461410d576001811461412357614156565b60ff198316865281151560200286019350614156565b61412c85613a4a565b60005b8381101561414e5781548189015260018201915060208101905061412f565b808801955050505b50505092915050565b600060a0820190506141746000830188612b3f565b6141816020830187612b3f565b61418e6040830186612b3f565b81810360608301526141a081856140db565b90506141af6080830184612b3f565b9695505050505050565b7f4f776e61626c653a206e6577206f776e657220697320746865207a65726f206160008201527f6464726573730000000000000000000000000000000000000000000000000000602082015250565b600061421560268361320d565b9150614220826141b9565b604082019050919050565b6000602082019050818103600083015261424481614208565b9050919050565b7f4f776e61626c653a2063616c6c6572206973206e6f7420746865206f776e6572600082015250565b600061428160208361320d565b915061428c8261424b565b602082019050919050565b600060208201905081810360008301526142b081614274565b905091905056fea26469706673582212201d96b0c032d4745b771099586572b69b4cd19a48fdda290ee86165630dc590ad64736f6c63430008120033",
  "immutableReferences": {},
  "source": "// SPDX-License-Identifier: MIT\npragma solidity ^0.8.1;\n\nimport \"../node_modules/@openzeppelin/contracts/token/ERC721/ERC721.sol\";\nimport \"../node_modules/@openzeppelin/contracts/token/ERC721/IERC721.sol\";\nimport \"../node_modules/@openzeppelin/contracts/access/Ownable.sol\";\nimport \"../node_modules/@openzeppelin/contracts/utils/Counters.sol\";\nimport \"./RTToken.sol\";\n\n\ncontract Marketplace is Ownable {\n    using Counters for Counters.Counter;\n    Counters.Counter private _Ids;\n    address payable public marketAddress;\n\n    struct TokenInfo {\n        uint256 id;\n        address payable seller;\n        address NFTaddress;\n        uint256 tokenId;\n        uint256 price;\n        string metadata;\n        bool sold;\n        uint256 creatorFee;\n        uint256 openingPrice; // \n        uint256 auctionEndTime; //   \n        address payable highestBidder; //   \n        uint256 highestBid; //  \n    }\n\n    mapping(uint256 => TokenInfo) public TokenOnSale;\n    mapping(address => uint256) public lowestPriceByCollection;\n    mapping(address => uint256) public totalSalesByCollection;\n\n    event Add(uint256 id, address indexed NftAddress, address indexed seller, uint256 tokenId, uint256 price, string metadata, uint256 creatorFee);\n    event Buy(uint256 id, address indexed NftAddress, address indexed seller, address indexed buyer, uint256 tokenId, uint256 price);\n    event AuctionCreated(uint256 id, address indexed NftAddress, address indexed seller, uint256 tokenId, uint256 openingPrice, uint256 auctionEndTime);\n    event BidderChanged(uint256 id, address indexed NftAddress, address indexed bidder, uint256 tokenId, uint256 bidAmount);\n    event AuctionEnded(uint256 id, address indexed NftAddress, address indexed seller, address indexed winner, uint256 tokenId, uint256 winningBid);\n    event AuctionCancelled(uint256 id, address indexed NftAddress, address indexed seller, uint256 tokenId);\n\n    constructor() {\n        marketAddress = payable(msg.sender);\n    }\n\n    function getLatestId() public view returns (uint256) {\n        return _Ids.current();\n    }\n\n    function addNftToMarket(address _NFTaddress, uint256 _tokenId, uint256 _price, string memory _metadata, uint256 _creatorFee) external {\n        require(ERC721(_NFTaddress).ownerOf(_tokenId) == msg.sender, \"You are not the owner of this NFT\");\n\n        _Ids.increment();\n        TokenOnSale[_Ids.current()] = TokenInfo(_Ids.current(), payable(msg.sender), _NFTaddress, _tokenId, _price, _metadata, false, _creatorFee, 0, 0, payable(address(0)), 0);\n        if (_price < lowestPriceByCollection[_NFTaddress] || lowestPriceByCollection[_NFTaddress] == 0) {\n            lowestPriceByCollection[_NFTaddress] = _price;\n        }\n\n        emit Add(_Ids.current(), _NFTaddress, msg.sender, _tokenId, _price, _metadata, _creatorFee);\n    }\n\n\n    function buyNfts(uint256[] calldata _ids) external payable {\n        require(msg.value > 0, \"No ETH sent\");\n\n        for (uint256 i = 0; i < _ids.length; i++) {\n            buyNft(_ids[i]);\n        }\n    }\n\n    function buyNft(uint256 _id) public payable {\n        TokenInfo storage token = TokenOnSale[_id];\n        require(msg.value >= token.price, \"Not enough ETH\");\n        require(!token.sold, \"Already sold out\");\n        require(msg.sender != token.seller, \"You can't buy your own NFT\");\n        require(token.openingPrice == 0, \"During the auction, you can't buy this NFT\");\n\n        uint256 marketFee = token.price / 100;\n        uint256 creatorRoyalty = 0;\n        uint256 sellerAmount = token.price - marketFee;\n\n        marketAddress.transfer(marketFee);\n\n        address payable creator = RTToken(token.NFTaddress).getCreator();\n        if (token.seller != creator) {\n            creatorRoyalty = token.price * token.creatorFee / 1000;\n            sellerAmount -= creatorRoyalty;\n            creator.transfer(creatorRoyalty);\n        }\n        token.seller.transfer(sellerAmount);\n\n        totalSalesByCollection[token.NFTaddress] += token.price;\n        token.sold = true;\n        token.seller = payable(msg.sender);\n\n        emit Buy(_id, token.NFTaddress, token.seller, msg.sender, token.tokenId, token.price);\n    }\n\n    function reAddNftToMarket(uint256 _id, uint256 _price) external {\n        TokenInfo storage token = TokenOnSale[_id];\n        require(msg.sender == token.seller, \"You are not the owner of this NFT\");\n\n        token.price = _price;\n        token.sold = false;\n        token.seller = payable(msg.sender);\n\n\n        emit Add(_id, token.NFTaddress, token.seller, token.tokenId, _price, token.metadata, token.creatorFee);\n    }\n\n    function startAuction(uint256 _id, uint256 _openingPrice, uint256 _duration) external {\n        TokenInfo storage token = TokenOnSale[_id];\n        require(!token.sold, \"Already sold out\");\n        require(msg.sender == token.seller, \"You are not the owner of this NFT\");\n        require(_openingPrice > 0, \"Invalid opening price\");\n        require(_duration > 0, \"Invalid auction duration\");\n\n        token.openingPrice = _openingPrice;\n        token.auctionEndTime = block.timestamp + _duration;\n\n        emit AuctionCreated(_id, token.NFTaddress, token.seller, token.tokenId, _openingPrice, token.auctionEndTime);\n    }\n\n    function bidInAuction(uint256 _id) external payable {\n        TokenInfo storage token = TokenOnSale[_id];\n        require(!token.sold, \"Already sold out\");\n        require(token.openingPrice > 0, \"Auction not started\");\n        require(block.timestamp < token.auctionEndTime, \"Auction is ended\");\n        require(msg.value > token.highestBid, \"Bid amount is too low\");\n\n        if (token.highestBid != 0) {\n            token.highestBidder.transfer(token.highestBid); //      \n        }\n\n        token.highestBidder = payable(msg.sender);\n        token.highestBid = msg.value;\n\n        emit BidderChanged(_id, token.NFTaddress, msg.sender, token.tokenId, msg.value);\n    }\n\n    function endAuction(uint256 _id) public {\n        TokenInfo storage token = TokenOnSale[_id];\n        address owner = IERC721(token.NFTaddress).ownerOf(token.tokenId);\n\n        require(!token.sold, \"Already sold out\");\n        require(token.openingPrice > 0, \"Auction not started\");\n        require(block.timestamp >= token.auctionEndTime, \"Auction has not ended yet\");\n        require(owner == msg.sender, \"You are not the owner of this NFT\");\n\n        //      NFT    \n        IERC721(token.NFTaddress).safeTransferFrom(owner, token.highestBidder, token.tokenId);\n        token.seller.transfer(token.highestBid);\n        token.sold = true;\n        token.seller = payable(token.highestBidder);\n\n        //    \n        token.openingPrice = 0;\n        token.auctionEndTime = 0;\n        token.highestBidder = payable(address(0));\n        token.highestBid = 0;\n\n        emit AuctionEnded(_id, token.NFTaddress, token.seller, token.highestBidder, token.tokenId, token.highestBid);\n    }\n\n    // function timer() external {\n    //     for (uint256 i = 1; i <= _Ids.current(); i++) {\n    //         TokenInfo storage token = TokenOnSale[i];\n    //         if (!token.sold && token.openingPrice > 0 && block.timestamp >= token.auctionEndTime && token.highestBidder != address(0)) {\n    //             require(msg.sender == token.highestBidder, \"Only last highest bidder can end the auction\");\n    //             endAuction(i);\n    //         }\n    //     }\n    // }\n\n    function cancelAuction(uint256 _id) external {\n        TokenInfo storage token = TokenOnSale[_id];\n        require(token.id != 0, \"Token not found\");\n        require(token.openingPrice > 0, \"Auction not started\");\n        require(!token.sold, \"Token is already sold\");\n        require(msg.sender == token.seller, \"You are not the seller\");\n\n        token.sold = true;\n        token.highestBidder.transfer(token.highestBid);\n        IERC721(token.NFTaddress).safeTransferFrom(token.seller, token.seller, token.tokenId);\n\n        emit AuctionCancelled(token.id, token.NFTaddress, token.seller, token.tokenId);\n    }\n\n    function getAllTokensInCollection(address _NFTaddress) public view returns (TokenInfo[] memory) {\n        uint256 count = 0;\n        for (uint256 i = 1; i <= _Ids.current(); i++) {\n            if (TokenOnSale[i].NFTaddress == _NFTaddress) {\n                count++;\n            }\n        }\n        TokenInfo[] memory tokens = new TokenInfo[](count);\n\n        uint256 index = 0;\n        for (uint256 i = 1; i <= _Ids.current(); i++) {\n            if (TokenOnSale[i].NFTaddress == _NFTaddress) {\n                tokens[index] = TokenOnSale[i];\n                index++;\n            }\n        }\n\n        return tokens;\n    }\n\n    function getUserTokens(address payable _address) public view returns (TokenInfo[] memory) {\n        uint256 count = 0;\n        for (uint256 i = 1; i <= _Ids.current(); i++) {\n            if (TokenOnSale[i].seller == _address) {\n                count++;\n            }\n        }\n        TokenInfo[] memory tokens = new TokenInfo[](count);\n\n        uint256 index = 0;\n        for (uint256 i = 1; i <= _Ids.current(); i++) {\n            if (TokenOnSale[i].seller == _address) {\n                tokens[index] = TokenOnSale[i];\n                index++;\n            }\n        }\n\n        return tokens;\n    }\n}\n",
  "sourcePath": "/Users/kimjh/Documents/workspace/ZDB/rooftop/nft/contracts/Marketplace.sol",
  "compiler": {
    "name": "solc",
    "version": "0.8.18+commit.87f61d96.Emscripten.clang"
  },
  "schemaVersion": "3.4.14",
  "updatedAt": "2023-06-30T04:39:33.604Z",
  "networkType": "ethereum",
  "devdoc": {
    "kind": "dev",
    "methods": {
      "owner()": {
        "details": "Returns the address of the current owner."
      },
      "renounceOwnership()": {
        "details": "Leaves the contract without owner. It will not be possible to call `onlyOwner` functions. Can only be called by the current owner. NOTE: Renouncing ownership will leave the contract without an owner, thereby disabling any functionality that is only available to the owner."
      },
      "transferOwnership(address)": {
        "details": "Transfers ownership of the contract to a new account (`newOwner`). Can only be called by the current owner."
      }
    },
    "version": 1
  },
  "userdoc": {
    "kind": "user",
    "methods": {},
    "version": 1
  }
}