{
  "contractName": "Marketplace",
  "abi": [
    {
      "inputs": [],
      "stateMutability": "nonpayable",
      "type": "constructor"
    },
    {
      "anonymous": false,
      "inputs": [
        {
          "indexed": false,
          "internalType": "uint256",
          "name": "id",
          "type": "uint256"
        },
        {
          "indexed": true,
          "internalType": "address",
          "name": "NftAddress",
          "type": "address"
        },
        {
          "indexed": true,
          "internalType": "address",
          "name": "seller",
          "type": "address"
        },
        {
          "indexed": false,
          "internalType": "uint256",
          "name": "tokenId",
          "type": "uint256"
        },
        {
          "indexed": false,
          "internalType": "uint256",
          "name": "price",
          "type": "uint256"
        },
        {
          "indexed": false,
          "internalType": "string",
          "name": "metadata",
          "type": "string"
        },
        {
          "indexed": false,
          "internalType": "uint256",
          "name": "creatorFee",
          "type": "uint256"
        }
      ],
      "name": "Add",
      "type": "event"
    },
    {
      "anonymous": false,
      "inputs": [
        {
          "indexed": false,
          "internalType": "uint256",
          "name": "id",
          "type": "uint256"
        },
        {
          "indexed": true,
          "internalType": "address",
          "name": "NftAddress",
          "type": "address"
        },
        {
          "indexed": true,
          "internalType": "address",
          "name": "seller",
          "type": "address"
        },
        {
          "indexed": false,
          "internalType": "uint256",
          "name": "tokenId",
          "type": "uint256"
        }
      ],
      "name": "AuctionCancelled",
      "type": "event"
    },
    {
      "anonymous": false,
      "inputs": [
        {
          "indexed": false,
          "internalType": "uint256",
          "name": "id",
          "type": "uint256"
        },
        {
          "indexed": true,
          "internalType": "address",
          "name": "NftAddress",
          "type": "address"
        },
        {
          "indexed": true,
          "internalType": "address",
          "name": "seller",
          "type": "address"
        },
        {
          "indexed": false,
          "internalType": "uint256",
          "name": "tokenId",
          "type": "uint256"
        },
        {
          "indexed": false,
          "internalType": "uint256",
          "name": "openingPrice",
          "type": "uint256"
        },
        {
          "indexed": false,
          "internalType": "uint256",
          "name": "auctionEndTime",
          "type": "uint256"
        }
      ],
      "name": "AuctionCreated",
      "type": "event"
    },
    {
      "anonymous": false,
      "inputs": [
        {
          "indexed": false,
          "internalType": "uint256",
          "name": "id",
          "type": "uint256"
        },
        {
          "indexed": true,
          "internalType": "address",
          "name": "NftAddress",
          "type": "address"
        },
        {
          "indexed": true,
          "internalType": "address",
          "name": "seller",
          "type": "address"
        },
        {
          "indexed": true,
          "internalType": "address",
          "name": "winner",
          "type": "address"
        },
        {
          "indexed": false,
          "internalType": "uint256",
          "name": "tokenId",
          "type": "uint256"
        },
        {
          "indexed": false,
          "internalType": "uint256",
          "name": "winningBid",
          "type": "uint256"
        }
      ],
      "name": "AuctionEnded",
      "type": "event"
    },
    {
      "anonymous": false,
      "inputs": [
        {
          "indexed": false,
          "internalType": "uint256",
          "name": "id",
          "type": "uint256"
        },
        {
          "indexed": true,
          "internalType": "address",
          "name": "NftAddress",
          "type": "address"
        },
        {
          "indexed": true,
          "internalType": "address",
          "name": "bidder",
          "type": "address"
        },
        {
          "indexed": false,
          "internalType": "uint256",
          "name": "tokenId",
          "type": "uint256"
        },
        {
          "indexed": false,
          "internalType": "uint256",
          "name": "bidAmount",
          "type": "uint256"
        }
      ],
      "name": "BidderChanged",
      "type": "event"
    },
    {
      "anonymous": false,
      "inputs": [
        {
          "indexed": false,
          "internalType": "uint256",
          "name": "id",
          "type": "uint256"
        },
        {
          "indexed": true,
          "internalType": "address",
          "name": "NftAddress",
          "type": "address"
        },
        {
          "indexed": true,
          "internalType": "address",
          "name": "seller",
          "type": "address"
        },
        {
          "indexed": true,
          "internalType": "address",
          "name": "buyer",
          "type": "address"
        },
        {
          "indexed": false,
          "internalType": "uint256",
          "name": "tokenId",
          "type": "uint256"
        },
        {
          "indexed": false,
          "internalType": "uint256",
          "name": "price",
          "type": "uint256"
        }
      ],
      "name": "Buy",
      "type": "event"
    },
    {
      "anonymous": false,
      "inputs": [
        {
          "indexed": true,
          "internalType": "address",
          "name": "previousOwner",
          "type": "address"
        },
        {
          "indexed": true,
          "internalType": "address",
          "name": "newOwner",
          "type": "address"
        }
      ],
      "name": "OwnershipTransferred",
      "type": "event"
    },
    {
      "inputs": [
        {
          "internalType": "uint256",
          "name": "",
          "type": "uint256"
        }
      ],
      "name": "TokenOnSale",
      "outputs": [
        {
          "internalType": "uint256",
          "name": "id",
          "type": "uint256"
        },
        {
          "internalType": "address payable",
          "name": "seller",
          "type": "address"
        },
        {
          "internalType": "address",
          "name": "NFTaddress",
          "type": "address"
        },
        {
          "internalType": "uint256",
          "name": "tokenId",
          "type": "uint256"
        },
        {
          "internalType": "uint256",
          "name": "price",
          "type": "uint256"
        },
        {
          "internalType": "string",
          "name": "metadata",
          "type": "string"
        },
        {
          "internalType": "bool",
          "name": "sold",
          "type": "bool"
        },
        {
          "internalType": "uint256",
          "name": "creatorFee",
          "type": "uint256"
        },
        {
          "internalType": "uint256",
          "name": "openingPrice",
          "type": "uint256"
        },
        {
          "internalType": "uint256",
          "name": "auctionEndTime",
          "type": "uint256"
        },
        {
          "internalType": "address payable",
          "name": "highestBidder",
          "type": "address"
        },
        {
          "internalType": "uint256",
          "name": "highestBid",
          "type": "uint256"
        }
      ],
      "stateMutability": "view",
      "type": "function",
      "constant": true
    },
    {
      "inputs": [
        {
          "internalType": "address",
          "name": "",
          "type": "address"
        }
      ],
      "name": "lowestPriceByCollection",
      "outputs": [
        {
          "internalType": "uint256",
          "name": "",
          "type": "uint256"
        }
      ],
      "stateMutability": "view",
      "type": "function",
      "constant": true
    },
    {
      "inputs": [],
      "name": "marketAddress",
      "outputs": [
        {
          "internalType": "address payable",
          "name": "",
          "type": "address"
        }
      ],
      "stateMutability": "view",
      "type": "function",
      "constant": true
    },
    {
      "inputs": [],
      "name": "owner",
      "outputs": [
        {
          "internalType": "address",
          "name": "",
          "type": "address"
        }
      ],
      "stateMutability": "view",
      "type": "function",
      "constant": true
    },
    {
      "inputs": [],
      "name": "renounceOwnership",
      "outputs": [],
      "stateMutability": "nonpayable",
      "type": "function"
    },
    {
      "inputs": [
        {
          "internalType": "address",
          "name": "",
          "type": "address"
        }
      ],
      "name": "totalSalesByCollection",
      "outputs": [
        {
          "internalType": "uint256",
          "name": "",
          "type": "uint256"
        }
      ],
      "stateMutability": "view",
      "type": "function",
      "constant": true
    },
    {
      "inputs": [
        {
          "internalType": "address",
          "name": "newOwner",
          "type": "address"
        }
      ],
      "name": "transferOwnership",
      "outputs": [],
      "stateMutability": "nonpayable",
      "type": "function"
    },
    {
      "inputs": [],
      "name": "getLatestId",
      "outputs": [
        {
          "internalType": "uint256",
          "name": "",
          "type": "uint256"
        }
      ],
      "stateMutability": "view",
      "type": "function",
      "constant": true
    },
    {
      "inputs": [
        {
          "internalType": "address",
          "name": "_NFTaddress",
          "type": "address"
        },
        {
          "internalType": "uint256",
          "name": "_tokenId",
          "type": "uint256"
        },
        {
          "internalType": "uint256",
          "name": "_price",
          "type": "uint256"
        },
        {
          "internalType": "string",
          "name": "_metadata",
          "type": "string"
        },
        {
          "internalType": "uint256",
          "name": "_creatorFee",
          "type": "uint256"
        }
      ],
      "name": "addNftToMarket",
      "outputs": [],
      "stateMutability": "nonpayable",
      "type": "function"
    },
    {
      "inputs": [
        {
          "internalType": "uint256[]",
          "name": "_ids",
          "type": "uint256[]"
        }
      ],
      "name": "buyNfts",
      "outputs": [],
      "stateMutability": "payable",
      "type": "function",
      "payable": true
    },
    {
      "inputs": [
        {
          "internalType": "uint256",
          "name": "_id",
          "type": "uint256"
        }
      ],
      "name": "buyNft",
      "outputs": [],
      "stateMutability": "payable",
      "type": "function",
      "payable": true
    },
    {
      "inputs": [
        {
          "internalType": "uint256",
          "name": "_id",
          "type": "uint256"
        },
        {
          "internalType": "uint256",
          "name": "_price",
          "type": "uint256"
        }
      ],
      "name": "reAddNftToMarket",
      "outputs": [],
      "stateMutability": "nonpayable",
      "type": "function"
    },
    {
      "inputs": [
        {
          "internalType": "uint256",
          "name": "_id",
          "type": "uint256"
        },
        {
          "internalType": "uint256",
          "name": "_openingPrice",
          "type": "uint256"
        },
        {
          "internalType": "uint256",
          "name": "_duration",
          "type": "uint256"
        }
      ],
      "name": "startAuction",
      "outputs": [],
      "stateMutability": "nonpayable",
      "type": "function"
    },
    {
      "inputs": [
        {
          "internalType": "uint256",
          "name": "_id",
          "type": "uint256"
        }
      ],
      "name": "bidInAuction",
      "outputs": [],
      "stateMutability": "payable",
      "type": "function",
      "payable": true
    },
    {
      "inputs": [
        {
          "internalType": "uint256",
          "name": "_id",
          "type": "uint256"
        }
      ],
      "name": "endAuction",
      "outputs": [],
      "stateMutability": "nonpayable",
      "type": "function"
    },
    {
      "inputs": [
        {
          "internalType": "uint256",
          "name": "_id",
          "type": "uint256"
        }
      ],
      "name": "cancelAuction",
      "outputs": [],
      "stateMutability": "nonpayable",
      "type": "function"
    },
    {
      "inputs": [
        {
          "internalType": "address",
          "name": "_NFTaddress",
          "type": "address"
        }
      ],
      "name": "getAllTokensInCollection",
      "outputs": [
        {
          "components": [
            {
              "internalType": "uint256",
              "name": "id",
              "type": "uint256"
            },
            {
              "internalType": "address payable",
              "name": "seller",
              "type": "address"
            },
            {
              "internalType": "address",
              "name": "NFTaddress",
              "type": "address"
            },
            {
              "internalType": "uint256",
              "name": "tokenId",
              "type": "uint256"
            },
            {
              "internalType": "uint256",
              "name": "price",
              "type": "uint256"
            },
            {
              "internalType": "string",
              "name": "metadata",
              "type": "string"
            },
            {
              "internalType": "bool",
              "name": "sold",
              "type": "bool"
            },
            {
              "internalType": "uint256",
              "name": "creatorFee",
              "type": "uint256"
            },
            {
              "internalType": "uint256",
              "name": "openingPrice",
              "type": "uint256"
            },
            {
              "internalType": "uint256",
              "name": "auctionEndTime",
              "type": "uint256"
            },
            {
              "internalType": "address payable",
              "name": "highestBidder",
              "type": "address"
            },
            {
              "internalType": "uint256",
              "name": "highestBid",
              "type": "uint256"
            }
          ],
          "internalType": "struct Marketplace.TokenInfo[]",
          "name": "",
          "type": "tuple[]"
        }
      ],
      "stateMutability": "view",
      "type": "function",
      "constant": true
    },
    {
      "inputs": [
        {
          "internalType": "address payable",
          "name": "_address",
          "type": "address"
        }
      ],
      "name": "getUserTokens",
      "outputs": [
        {
          "components": [
            {
              "internalType": "uint256",
              "name": "id",
              "type": "uint256"
            },
            {
              "internalType": "address payable",
              "name": "seller",
              "type": "address"
            },
            {
              "internalType": "address",
              "name": "NFTaddress",
              "type": "address"
            },
            {
              "internalType": "uint256",
              "name": "tokenId",
              "type": "uint256"
            },
            {
              "internalType": "uint256",
              "name": "price",
              "type": "uint256"
            },
            {
              "internalType": "string",
              "name": "metadata",
              "type": "string"
            },
            {
              "internalType": "bool",
              "name": "sold",
              "type": "bool"
            },
            {
              "internalType": "uint256",
              "name": "creatorFee",
              "type": "uint256"
            },
            {
              "internalType": "uint256",
              "name": "openingPrice",
              "type": "uint256"
            },
            {
              "internalType": "uint256",
              "name": "auctionEndTime",
              "type": "uint256"
            },
            {
              "internalType": "address payable",
              "name": "highestBidder",
              "type": "address"
            },
            {
              "internalType": "uint256",
              "name": "highestBid",
              "type": "uint256"
            }
          ],
          "internalType": "struct Marketplace.TokenInfo[]",
          "name": "",
          "type": "tuple[]"
        }
      ],
      "stateMutability": "view",
      "type": "function",
      "constant": true
    },
    {
      "inputs": [
        {
          "internalType": "address[]",
          "name": "_targets",
          "type": "address[]"
        },
        {
          "internalType": "uint256[]",
          "name": "_ids",
          "type": "uint256[]"
        }
      ],
      "name": "setAirdrop",
      "outputs": [],
      "stateMutability": "payable",
      "type": "function",
      "payable": true
    }
  ],
  "bytecode": "0x60806040523480156200001157600080fd5b5062000032620000266200007960201b60201c565b6200008160201b60201c565b33600260006101000a81548173ffffffffffffffffffffffffffffffffffffffff021916908373ffffffffffffffffffffffffffffffffffffffff16021790555062000145565b600033905090565b60008060009054906101000a900473ffffffffffffffffffffffffffffffffffffffff169050816000806101000a81548173ffffffffffffffffffffffffffffffffffffffff021916908373ffffffffffffffffffffffffffffffffffffffff1602179055508173ffffffffffffffffffffffffffffffffffffffff168173ffffffffffffffffffffffffffffffffffffffff167f8be0079c531659141344cd1fd0a4f28419497f9722a3daafe3b4186f6b6457e060405160405180910390a35050565b6147ef80620001556000396000f3fe6080604052600436106101145760003560e01c80638da5cb5b116100a0578063b2b088f611610064578063b2b088f614610365578063b9a2de3a146103ad578063eb5af731146103d6578063eff91c7e146103ff578063f2fde38b1461042a57610114565b80638da5cb5b14610280578063918f2e52146102ab57806391e078bb146102e8578063956236411461031157806396b5a7551461033c57610114565b80635d596402116100e75780635d596402146101cb5780636012de1a146101e757806365bae49e14610210578063715018a61461022c57806377b02fe01461024357610114565b806321c4d76e14610119578063243adbdd146101565780632975bfd414610172578063519dc8d21461018e575b600080fd5b34801561012557600080fd5b50610140600480360381019061013b9190612e20565b610453565b60405161014d9190612e66565b60405180910390f35b610170600480360381019061016b9190612ead565b61046b565b005b61018c60048036038101906101879190612ead565b610a0f565b005b34801561019a57600080fd5b506101b560048036038101906101b09190612f18565b610ca8565b6040516101c291906131e3565b60405180910390f35b6101e560048036038101906101e0919061326a565b611087565b005b3480156101f357600080fd5b5061020e600480360381019061020991906133e7565b611112565b005b61022a600480360381019061022591906134d4565b61156e565b005b34801561023857600080fd5b506102416118b5565b005b34801561024f57600080fd5b5061026a60048036038101906102659190612e20565b6118c9565b6040516102779190612e66565b60405180910390f35b34801561028c57600080fd5b506102956118e1565b6040516102a29190613564565b60405180910390f35b3480156102b757600080fd5b506102d260048036038101906102cd9190612e20565b61190a565b6040516102df91906131e3565b60405180910390f35b3480156102f457600080fd5b5061030f600480360381019061030a919061357f565b611ce9565b005b34801561031d57600080fd5b50610326611f48565b60405161033391906135e1565b60405180910390f35b34801561034857600080fd5b50610363600480360381019061035e9190612ead565b611f6e565b005b34801561037157600080fd5b5061038c60048036038101906103879190612ead565b612324565b6040516103a49c9b9a99989796959493929190613655565b60405180910390f35b3480156103b957600080fd5b506103d460048036038101906103cf9190612ead565b612479565b005b3480156103e257600080fd5b506103fd60048036038101906103f89190613716565b61285c565b005b34801561040b57600080fd5b50610414612b07565b6040516104219190612e66565b60405180910390f35b34801561043657600080fd5b50610451600480360381019061044c9190612e20565b612b18565b005b60056020528060005260406000206000915090505481565b600060036000838152602001908152602001600020905080600401543410156104c9576040517f08c379a00000000000000000000000000000000000000000000000000000000081526004016104c0906137a2565b60405180910390fd5b8060060160009054906101000a900460ff161561051b576040517f08c379a00000000000000000000000000000000000000000000000000000000081526004016105129061380e565b60405180910390fd5b8060010160009054906101000a900473ffffffffffffffffffffffffffffffffffffffff1673ffffffffffffffffffffffffffffffffffffffff163373ffffffffffffffffffffffffffffffffffffffff16036105ad576040517f08c379a00000000000000000000000000000000000000000000000000000000081526004016105a49061387a565b60405180910390fd5b60008160080154146105f4576040517f08c379a00000000000000000000000000000000000000000000000000000000081526004016105eb9061390c565b60405180910390fd5b600060648260040154610607919061398a565b905060008082846004015461061c91906139bb565b9050600260009054906101000a900473ffffffffffffffffffffffffffffffffffffffff1673ffffffffffffffffffffffffffffffffffffffff166108fc849081150290604051600060405180830381858888f19350505050158015610686573d6000803e3d6000fd5b5060008460020160009054906101000a900473ffffffffffffffffffffffffffffffffffffffff1673ffffffffffffffffffffffffffffffffffffffff16630ee2cb106040518163ffffffff1660e01b8152600401602060405180830381865afa1580156106f8573d6000803e3d6000fd5b505050506040513d601f19601f8201168201806040525081019061071c9190613a04565b90508073ffffffffffffffffffffffffffffffffffffffff168560010160009054906101000a900473ffffffffffffffffffffffffffffffffffffffff1673ffffffffffffffffffffffffffffffffffffffff16146107ee576103e88560070154866004015461078c9190613a31565b610796919061398a565b925082826107a491906139bb565b91508073ffffffffffffffffffffffffffffffffffffffff166108fc849081150290604051600060405180830381858888f193505050501580156107ec573d6000803e3d6000fd5b505b8460010160009054906101000a900473ffffffffffffffffffffffffffffffffffffffff1673ffffffffffffffffffffffffffffffffffffffff166108fc839081150290604051600060405180830381858888f19350505050158015610858573d6000803e3d6000fd5b508460040154600560008760020160009054906101000a900473ffffffffffffffffffffffffffffffffffffffff1673ffffffffffffffffffffffffffffffffffffffff1673ffffffffffffffffffffffffffffffffffffffff16815260200190815260200160002060008282546108d09190613a73565b9250508190555060018560060160006101000a81548160ff021916908315150217905550338560010160006101000a81548173ffffffffffffffffffffffffffffffffffffffff021916908373ffffffffffffffffffffffffffffffffffffffff1602179055503373ffffffffffffffffffffffffffffffffffffffff168560010160009054906101000a900473ffffffffffffffffffffffffffffffffffffffff1673ffffffffffffffffffffffffffffffffffffffff168660020160009054906101000a900473ffffffffffffffffffffffffffffffffffffffff1673ffffffffffffffffffffffffffffffffffffffff167f75707d5d3d11632aafe99e9e60317891909f271b10026e79014651df900c32a08989600301548a600401546040516109ff93929190613aa7565b60405180910390a4505050505050565b60006003600083815260200190815260200160002090508060060160009054906101000a900460ff1615610a78576040517f08c379a0000000000000000000000000000000000000000000000000000000008152600401610a6f9061380e565b60405180910390fd5b6000816008015411610abf576040517f08c379a0000000000000000000000000000000000000000000000000000000008152600401610ab690613b2a565b60405180910390fd5b80600901544210610b05576040517f08c379a0000000000000000000000000000000000000000000000000000000008152600401610afc90613b96565b60405180910390fd5b80600b01543411610b4b576040517f08c379a0000000000000000000000000000000000000000000000000000000008152600401610b4290613c02565b60405180910390fd5b600081600b015414610bc75780600a0160009054906101000a900473ffffffffffffffffffffffffffffffffffffffff1673ffffffffffffffffffffffffffffffffffffffff166108fc82600b01549081150290604051600060405180830381858888f19350505050158015610bc5573d6000803e3d6000fd5b505b3381600a0160006101000a81548173ffffffffffffffffffffffffffffffffffffffff021916908373ffffffffffffffffffffffffffffffffffffffff1602179055503481600b01819055503373ffffffffffffffffffffffffffffffffffffffff168160020160009054906101000a900473ffffffffffffffffffffffffffffffffffffffff1673ffffffffffffffffffffffffffffffffffffffff167f0efc41f9ac6b1327ea0a4ce681dbef148dc7ef1663380fb4681a5d3a8ef2977784846003015434604051610c9c93929190613aa7565b60405180910390a35050565b6060600080600190505b610cbc6001612b9b565b8111610d4d578373ffffffffffffffffffffffffffffffffffffffff166003600083815260200190815260200160002060010160009054906101000a900473ffffffffffffffffffffffffffffffffffffffff1673ffffffffffffffffffffffffffffffffffffffff1603610d3a578180610d3690613c22565b9250505b8080610d4590613c22565b915050610cb2565b5060008167ffffffffffffffff811115610d6a57610d696132bc565b5b604051908082528060200260200182016040528015610da357816020015b610d90612d09565b815260200190600190039081610d885790505b509050600080600190505b610db86001612b9b565b811161107b578573ffffffffffffffffffffffffffffffffffffffff166003600083815260200190815260200160002060010160009054906101000a900473ffffffffffffffffffffffffffffffffffffffff1673ffffffffffffffffffffffffffffffffffffffff1603611068576003600082815260200190815260200160002060405180610180016040529081600082015481526020016001820160009054906101000a900473ffffffffffffffffffffffffffffffffffffffff1673ffffffffffffffffffffffffffffffffffffffff1673ffffffffffffffffffffffffffffffffffffffff1681526020016002820160009054906101000a900473ffffffffffffffffffffffffffffffffffffffff1673ffffffffffffffffffffffffffffffffffffffff1673ffffffffffffffffffffffffffffffffffffffff1681526020016003820154815260200160048201548152602001600582018054610f2090613c99565b80601f0160208091040260200160405190810160405280929190818152602001828054610f4c90613c99565b8015610f995780601f10610f6e57610100808354040283529160200191610f99565b820191906000526020600020905b815481529060010190602001808311610f7c57829003601f168201915b505050505081526020016006820160009054906101000a900460ff16151515158152602001600782015481526020016008820154815260200160098201548152602001600a820160009054906101000a900473ffffffffffffffffffffffffffffffffffffffff1673ffffffffffffffffffffffffffffffffffffffff1673ffffffffffffffffffffffffffffffffffffffff168152602001600b8201548152505083838151811061104e5761104d613cca565b5b6020026020010181905250818061106490613c22565b9250505b808061107390613c22565b915050610dae565b50819350505050919050565b600034116110ca576040517f08c379a00000000000000000000000000000000000000000000000000000000081526004016110c190613d45565b60405180910390fd5b60005b8282905081101561110d576110fa8383838181106110ee576110ed613cca565b5b9050602002013561046b565b808061110590613c22565b9150506110cd565b505050565b3373ffffffffffffffffffffffffffffffffffffffff168573ffffffffffffffffffffffffffffffffffffffff16636352211e866040518263ffffffff1660e01b81526004016111629190612e66565b602060405180830381865afa15801561117f573d6000803e3d6000fd5b505050506040513d601f19601f820116820180604052508101906111a39190613d7a565b73ffffffffffffffffffffffffffffffffffffffff16146111f9576040517f08c379a00000000000000000000000000000000000000000000000000000000081526004016111f090613e19565b60405180910390fd5b6112036001612ba9565b6040518061018001604052806112196001612b9b565b81526020013373ffffffffffffffffffffffffffffffffffffffff1681526020018673ffffffffffffffffffffffffffffffffffffffff1681526020018581526020018481526020018381526020016000151581526020018281526020016000815260200160008152602001600073ffffffffffffffffffffffffffffffffffffffff1681526020016000815250600360006112b56001612b9b565b81526020019081526020016000206000820151816000015560208201518160010160006101000a81548173ffffffffffffffffffffffffffffffffffffffff021916908373ffffffffffffffffffffffffffffffffffffffff16021790555060408201518160020160006101000a81548173ffffffffffffffffffffffffffffffffffffffff021916908373ffffffffffffffffffffffffffffffffffffffff160217905550606082015181600301556080820151816004015560a08201518160050190816113849190613fe5565b5060c08201518160060160006101000a81548160ff02191690831515021790555060e082015181600701556101008201518160080155610120820151816009015561014082015181600a0160006101000a81548173ffffffffffffffffffffffffffffffffffffffff021916908373ffffffffffffffffffffffffffffffffffffffff16021790555061016082015181600b0155905050600460008673ffffffffffffffffffffffffffffffffffffffff1673ffffffffffffffffffffffffffffffffffffffff168152602001908152602001600020548310806114a757506000600460008773ffffffffffffffffffffffffffffffffffffffff1673ffffffffffffffffffffffffffffffffffffffff16815260200190815260200160002054145b156114f15782600460008773ffffffffffffffffffffffffffffffffffffffff1673ffffffffffffffffffffffffffffffffffffffff168152602001908152602001600020819055505b3373ffffffffffffffffffffffffffffffffffffffff168573ffffffffffffffffffffffffffffffffffffffff167fcf4e2b398f8f130dfa20ec831a8ad0f918b3c680e9dbad3b2230ad0192f52b1661154a6001612b9b565b8787878760405161155f9594939291906140b7565b60405180910390a35050505050565b611576612bbf565b8181905084849050146115be576040517f08c379a00000000000000000000000000000000000000000000000000000000081526004016115b59061415d565b60405180910390fd5b60005b828290508110156118ae5760008383838181106115e1576115e0613cca565b5b9050602002013590506000600360008381526020019081526020016000206000015403611643576040517f08c379a000000000000000000000000000000000000000000000000000000000815260040161163a906141c9565b60405180910390fd5b6003600082815260200190815260200160002060020160009054906101000a900473ffffffffffffffffffffffffffffffffffffffff1673ffffffffffffffffffffffffffffffffffffffff16630ee2cb106040518163ffffffff1660e01b8152600401602060405180830381865afa1580156116c4573d6000803e3d6000fd5b505050506040513d601f19601f820116820180604052508101906116e89190613a04565b73ffffffffffffffffffffffffffffffffffffffff166003600083815260200190815260200160002060010160009054906101000a900473ffffffffffffffffffffffffffffffffffffffff1673ffffffffffffffffffffffffffffffffffffffff161461178b576040517f08c379a000000000000000000000000000000000000000000000000000000000815260040161178290614235565b60405180910390fd5b6003600082815260200190815260200160002060060160009054906101000a900460ff16156117ef576040517f08c379a00000000000000000000000000000000000000000000000000000000081526004016117e6906142a1565b60405180910390fd5b85858381811061180257611801613cca565b5b90506020020160208101906118179190612e20565b6003600083815260200190815260200160002060010160006101000a81548173ffffffffffffffffffffffffffffffffffffffff021916908373ffffffffffffffffffffffffffffffffffffffff16021790555060016003600083815260200190815260200160002060060160006101000a81548160ff0219169083151502179055505080806118a690613c22565b9150506115c1565b5050505050565b6118bd612bbf565b6118c76000612c3d565b565b60046020528060005260406000206000915090505481565b60008060009054906101000a900473ffffffffffffffffffffffffffffffffffffffff16905090565b6060600080600190505b61191e6001612b9b565b81116119af578373ffffffffffffffffffffffffffffffffffffffff166003600083815260200190815260200160002060020160009054906101000a900473ffffffffffffffffffffffffffffffffffffffff1673ffffffffffffffffffffffffffffffffffffffff160361199c57818061199890613c22565b9250505b80806119a790613c22565b915050611914565b5060008167ffffffffffffffff8111156119cc576119cb6132bc565b5b604051908082528060200260200182016040528015611a0557816020015b6119f2612d09565b8152602001906001900390816119ea5790505b509050600080600190505b611a1a6001612b9b565b8111611cdd578573ffffffffffffffffffffffffffffffffffffffff166003600083815260200190815260200160002060020160009054906101000a900473ffffffffffffffffffffffffffffffffffffffff1673ffffffffffffffffffffffffffffffffffffffff1603611cca576003600082815260200190815260200160002060405180610180016040529081600082015481526020016001820160009054906101000a900473ffffffffffffffffffffffffffffffffffffffff1673ffffffffffffffffffffffffffffffffffffffff1673ffffffffffffffffffffffffffffffffffffffff1681526020016002820160009054906101000a900473ffffffffffffffffffffffffffffffffffffffff1673ffffffffffffffffffffffffffffffffffffffff1673ffffffffffffffffffffffffffffffffffffffff1681526020016003820154815260200160048201548152602001600582018054611b8290613c99565b80601f0160208091040260200160405190810160405280929190818152602001828054611bae90613c99565b8015611bfb5780601f10611bd057610100808354040283529160200191611bfb565b820191906000526020600020905b815481529060010190602001808311611bde57829003601f168201915b505050505081526020016006820160009054906101000a900460ff16151515158152602001600782015481526020016008820154815260200160098201548152602001600a820160009054906101000a900473ffffffffffffffffffffffffffffffffffffffff1673ffffffffffffffffffffffffffffffffffffffff1673ffffffffffffffffffffffffffffffffffffffff168152602001600b82015481525050838381518110611cb057611caf613cca565b5b60200260200101819052508180611cc690613c22565b9250505b8080611cd590613c22565b915050611a10565b50819350505050919050565b60006003600085815260200190815260200160002090508060060160009054906101000a900460ff1615611d52576040517f08c379a0000000000000000000000000000000000000000000000000000000008152600401611d499061380e565b60405180910390fd5b8060010160009054906101000a900473ffffffffffffffffffffffffffffffffffffffff1673ffffffffffffffffffffffffffffffffffffffff163373ffffffffffffffffffffffffffffffffffffffff1614611de4576040517f08c379a0000000000000000000000000000000000000000000000000000000008152600401611ddb90613e19565b60405180910390fd5b60008311611e27576040517f08c379a0000000000000000000000000000000000000000000000000000000008152600401611e1e9061430d565b60405180910390fd5b60008211611e6a576040517f08c379a0000000000000000000000000000000000000000000000000000000008152600401611e6190614379565b60405180910390fd5b8281600801819055508142611e7f9190613a73565b81600901819055508060010160009054906101000a900473ffffffffffffffffffffffffffffffffffffffff1673ffffffffffffffffffffffffffffffffffffffff168160020160009054906101000a900473ffffffffffffffffffffffffffffffffffffffff1673ffffffffffffffffffffffffffffffffffffffff167f06b9e486c68303eb64052e0493f906f3d93a1b7149b6b8dcff221aebd16c3513868460030154878660090154604051611f3a9493929190614399565b60405180910390a350505050565b600260009054906101000a900473ffffffffffffffffffffffffffffffffffffffff1681565b60006003600083815260200190815260200160002090506000816000015403611fcc576040517f08c379a0000000000000000000000000000000000000000000000000000000008152600401611fc3906141c9565b60405180910390fd5b6000816008015411612013576040517f08c379a000000000000000000000000000000000000000000000000000000000815260040161200a90613b2a565b60405180910390fd5b8060060160009054906101000a900460ff1615612065576040517f08c379a000000000000000000000000000000000000000000000000000000000815260040161205c9061442a565b60405180910390fd5b8060010160009054906101000a900473ffffffffffffffffffffffffffffffffffffffff1673ffffffffffffffffffffffffffffffffffffffff163373ffffffffffffffffffffffffffffffffffffffff16146120f7576040517f08c379a00000000000000000000000000000000000000000000000000000000081526004016120ee90614496565b60405180910390fd5b600081600b015414158015612110575042816009015410155b8061212e5750600081600b015414801561212d5750428160090154105b5b8061214c5750600081600b015414801561214b5750428160090154115b5b61218b576040517f08c379a000000000000000000000000000000000000000000000000000000000815260040161218290614528565b60405180910390fd5b600081600b0154146122075780600a0160009054906101000a900473ffffffffffffffffffffffffffffffffffffffff1673ffffffffffffffffffffffffffffffffffffffff166108fc82600b01549081150290604051600060405180830381858888f19350505050158015612205573d6000803e3d6000fd5b505b6000816008018190555060008160090181905550600081600a0160006101000a81548173ffffffffffffffffffffffffffffffffffffffff021916908373ffffffffffffffffffffffffffffffffffffffff160217905550600081600b01819055508060010160009054906101000a900473ffffffffffffffffffffffffffffffffffffffff1673ffffffffffffffffffffffffffffffffffffffff168160020160009054906101000a900473ffffffffffffffffffffffffffffffffffffffff1673ffffffffffffffffffffffffffffffffffffffff167f2fd0fd288a849022c51c1ab9e887d7a4f89ac1126432be270b0ba773382ad66183600001548460030154604051612318929190614548565b60405180910390a35050565b60036020528060005260406000206000915090508060000154908060010160009054906101000a900473ffffffffffffffffffffffffffffffffffffffff16908060020160009054906101000a900473ffffffffffffffffffffffffffffffffffffffff16908060030154908060040154908060050180546123a590613c99565b80601f01602080910402602001604051908101604052809291908181526020018280546123d190613c99565b801561241e5780601f106123f35761010080835404028352916020019161241e565b820191906000526020600020905b81548152906001019060200180831161240157829003601f168201915b5050505050908060060160009054906101000a900460ff169080600701549080600801549080600901549080600a0160009054906101000a900473ffffffffffffffffffffffffffffffffffffffff169080600b015490508c565b60006003600083815260200190815260200160002090508060060160009054906101000a900460ff16156124e2576040517f08c379a00000000000000000000000000000000000000000000000000000000081526004016124d99061380e565b60405180910390fd5b6000816008015411612529576040517f08c379a000000000000000000000000000000000000000000000000000000000815260040161252090613b2a565b60405180910390fd5b8060090154421015612570576040517f08c379a0000000000000000000000000000000000000000000000000000000008152600401612567906145bd565b60405180910390fd5b8060010160009054906101000a900473ffffffffffffffffffffffffffffffffffffffff1673ffffffffffffffffffffffffffffffffffffffff163373ffffffffffffffffffffffffffffffffffffffff1614612602576040517f08c379a00000000000000000000000000000000000000000000000000000000081526004016125f990614496565b60405180910390fd5b8060010160009054906101000a900473ffffffffffffffffffffffffffffffffffffffff1673ffffffffffffffffffffffffffffffffffffffff166108fc82600b01549081150290604051600060405180830381858888f19350505050158015612670573d6000803e3d6000fd5b5060018160060160006101000a81548160ff02191690831515021790555080600a0160009054906101000a900473ffffffffffffffffffffffffffffffffffffffff168160010160006101000a81548173ffffffffffffffffffffffffffffffffffffffff021916908373ffffffffffffffffffffffffffffffffffffffff16021790555080600b015481600401819055506000816008018190555060008160090181905550600081600a0160006101000a81548173ffffffffffffffffffffffffffffffffffffffff021916908373ffffffffffffffffffffffffffffffffffffffff160217905550600081600b018190555080600a0160009054906101000a900473ffffffffffffffffffffffffffffffffffffffff1673ffffffffffffffffffffffffffffffffffffffff168160010160009054906101000a900473ffffffffffffffffffffffffffffffffffffffff1673ffffffffffffffffffffffffffffffffffffffff168260020160009054906101000a900473ffffffffffffffffffffffffffffffffffffffff1673ffffffffffffffffffffffffffffffffffffffff167f6c47fd8bd138d7325768cd34fb84465cf68b7d556baca7bdadea071c5c9a1b0985856003015486600b015460405161285093929190613aa7565b60405180910390a45050565b60006003600084815260200190815260200160002090508060010160009054906101000a900473ffffffffffffffffffffffffffffffffffffffff1673ffffffffffffffffffffffffffffffffffffffff163373ffffffffffffffffffffffffffffffffffffffff1614612905576040517f08c379a00000000000000000000000000000000000000000000000000000000081526004016128fc90613e19565b60405180910390fd5b81816004018190555060008160060160006101000a81548160ff021916908315150217905550338160010160006101000a81548173ffffffffffffffffffffffffffffffffffffffff021916908373ffffffffffffffffffffffffffffffffffffffff160217905550600460008260020160009054906101000a900473ffffffffffffffffffffffffffffffffffffffff1673ffffffffffffffffffffffffffffffffffffffff1673ffffffffffffffffffffffffffffffffffffffff16815260200190815260200160002054821015612a425781600460008360020160009054906101000a900473ffffffffffffffffffffffffffffffffffffffff1673ffffffffffffffffffffffffffffffffffffffff1673ffffffffffffffffffffffffffffffffffffffff168152602001908152602001600020819055505b8060010160009054906101000a900473ffffffffffffffffffffffffffffffffffffffff1673ffffffffffffffffffffffffffffffffffffffff168160020160009054906101000a900473ffffffffffffffffffffffffffffffffffffffff1673ffffffffffffffffffffffffffffffffffffffff167fcf4e2b398f8f130dfa20ec831a8ad0f918b3c680e9dbad3b2230ad0192f52b1685846003015486866005018760070154604051612afa959493929190614661565b60405180910390a3505050565b6000612b136001612b9b565b905090565b612b20612bbf565b600073ffffffffffffffffffffffffffffffffffffffff168173ffffffffffffffffffffffffffffffffffffffff1603612b8f576040517f08c379a0000000000000000000000000000000000000000000000000000000008152600401612b869061472d565b60405180910390fd5b612b9881612c3d565b50565b600081600001549050919050565b6001816000016000828254019250508190555050565b612bc7612d01565b73ffffffffffffffffffffffffffffffffffffffff16612be56118e1565b73ffffffffffffffffffffffffffffffffffffffff1614612c3b576040517f08c379a0000000000000000000000000000000000000000000000000000000008152600401612c3290614799565b60405180910390fd5b565b60008060009054906101000a900473ffffffffffffffffffffffffffffffffffffffff169050816000806101000a81548173ffffffffffffffffffffffffffffffffffffffff021916908373ffffffffffffffffffffffffffffffffffffffff1602179055508173ffffffffffffffffffffffffffffffffffffffff168173ffffffffffffffffffffffffffffffffffffffff167f8be0079c531659141344cd1fd0a4f28419497f9722a3daafe3b4186f6b6457e060405160405180910390a35050565b600033905090565b60405180610180016040528060008152602001600073ffffffffffffffffffffffffffffffffffffffff168152602001600073ffffffffffffffffffffffffffffffffffffffff168152602001600081526020016000815260200160608152602001600015158152602001600081526020016000815260200160008152602001600073ffffffffffffffffffffffffffffffffffffffff168152602001600081525090565b6000604051905090565b600080fd5b600080fd5b600073ffffffffffffffffffffffffffffffffffffffff82169050919050565b6000612ded82612dc2565b9050919050565b612dfd81612de2565b8114612e0857600080fd5b50565b600081359050612e1a81612df4565b92915050565b600060208284031215612e3657612e35612db8565b5b6000612e4484828501612e0b565b91505092915050565b6000819050919050565b612e6081612e4d565b82525050565b6000602082019050612e7b6000830184612e57565b92915050565b612e8a81612e4d565b8114612e9557600080fd5b50565b600081359050612ea781612e81565b92915050565b600060208284031215612ec357612ec2612db8565b5b6000612ed184828501612e98565b91505092915050565b6000612ee582612dc2565b9050919050565b612ef581612eda565b8114612f0057600080fd5b50565b600081359050612f1281612eec565b92915050565b600060208284031215612f2e57612f2d612db8565b5b6000612f3c84828501612f03565b91505092915050565b600081519050919050565b600082825260208201905092915050565b6000819050602082019050919050565b612f7a81612e4d565b82525050565b612f8981612eda565b82525050565b612f9881612de2565b82525050565b600081519050919050565b600082825260208201905092915050565b60005b83811015612fd8578082015181840152602081019050612fbd565b60008484015250505050565b6000601f19601f8301169050919050565b600061300082612f9e565b61300a8185612fa9565b935061301a818560208601612fba565b61302381612fe4565b840191505092915050565b60008115159050919050565b6130438161302e565b82525050565b6000610180830160008301516130626000860182612f71565b5060208301516130756020860182612f80565b5060408301516130886040860182612f8f565b50606083015161309b6060860182612f71565b5060808301516130ae6080860182612f71565b5060a083015184820360a08601526130c68282612ff5565b91505060c08301516130db60c086018261303a565b5060e08301516130ee60e0860182612f71565b50610100830151613103610100860182612f71565b50610120830151613118610120860182612f71565b5061014083015161312d610140860182612f80565b50610160830151613142610160860182612f71565b508091505092915050565b60006131598383613049565b905092915050565b6000602082019050919050565b600061317982612f45565b6131838185612f50565b93508360208202850161319585612f61565b8060005b858110156131d157848403895281516131b2858261314d565b94506131bd83613161565b925060208a01995050600181019050613199565b50829750879550505050505092915050565b600060208201905081810360008301526131fd818461316e565b905092915050565b600080fd5b600080fd5b600080fd5b60008083601f84011261322a57613229613205565b5b8235905067ffffffffffffffff8111156132475761324661320a565b5b6020830191508360208202830111156132635761326261320f565b5b9250929050565b6000806020838503121561328157613280612db8565b5b600083013567ffffffffffffffff81111561329f5761329e612dbd565b5b6132ab85828601613214565b92509250509250929050565b600080fd5b7f4e487b7100000000000000000000000000000000000000000000000000000000600052604160045260246000fd5b6132f482612fe4565b810181811067ffffffffffffffff82111715613313576133126132bc565b5b80604052505050565b6000613326612dae565b905061333282826132eb565b919050565b600067ffffffffffffffff821115613352576133516132bc565b5b61335b82612fe4565b9050602081019050919050565b82818337600083830152505050565b600061338a61338584613337565b61331c565b9050828152602081018484840111156133a6576133a56132b7565b5b6133b1848285613368565b509392505050565b600082601f8301126133ce576133cd613205565b5b81356133de848260208601613377565b91505092915050565b600080600080600060a0868803121561340357613402612db8565b5b600061341188828901612e0b565b955050602061342288828901612e98565b945050604061343388828901612e98565b935050606086013567ffffffffffffffff81111561345457613453612dbd565b5b613460888289016133b9565b925050608061347188828901612e98565b9150509295509295909350565b60008083601f84011261349457613493613205565b5b8235905067ffffffffffffffff8111156134b1576134b061320a565b5b6020830191508360208202830111156134cd576134cc61320f565b5b9250929050565b600080600080604085870312156134ee576134ed612db8565b5b600085013567ffffffffffffffff81111561350c5761350b612dbd565b5b6135188782880161347e565b9450945050602085013567ffffffffffffffff81111561353b5761353a612dbd565b5b61354787828801613214565b925092505092959194509250565b61355e81612de2565b82525050565b60006020820190506135796000830184613555565b92915050565b60008060006060848603121561359857613597612db8565b5b60006135a686828701612e98565b93505060206135b786828701612e98565b92505060406135c886828701612e98565b9150509250925092565b6135db81612eda565b82525050565b60006020820190506135f660008301846135d2565b92915050565b600082825260208201905092915050565b600061361882612f9e565b61362281856135fc565b9350613632818560208601612fba565b61363b81612fe4565b840191505092915050565b61364f8161302e565b82525050565b60006101808201905061366b600083018f612e57565b613678602083018e6135d2565b613685604083018d613555565b613692606083018c612e57565b61369f608083018b612e57565b81810360a08301526136b1818a61360d565b90506136c060c0830189613646565b6136cd60e0830188612e57565b6136db610100830187612e57565b6136e9610120830186612e57565b6136f76101408301856135d2565b613705610160830184612e57565b9d9c50505050505050505050505050565b6000806040838503121561372d5761372c612db8565b5b600061373b85828601612e98565b925050602061374c85828601612e98565b9150509250929050565b7f4e6f7420656e6f75676820455448000000000000000000000000000000000000600082015250565b600061378c600e836135fc565b915061379782613756565b602082019050919050565b600060208201905081810360008301526137bb8161377f565b9050919050565b7f416c726561647920736f6c64206f757400000000000000000000000000000000600082015250565b60006137f86010836135fc565b9150613803826137c2565b602082019050919050565b60006020820190508181036000830152613827816137eb565b9050919050565b7f596f752063616e27742062757920796f7572206f776e204e4654000000000000600082015250565b6000613864601a836135fc565b915061386f8261382e565b602082019050919050565b6000602082019050818103600083015261389381613857565b9050919050565b7f447572696e67207468652061756374696f6e2c20796f752063616e277420627560008201527f792074686973204e465400000000000000000000000000000000000000000000602082015250565b60006138f6602a836135fc565b91506139018261389a565b604082019050919050565b60006020820190508181036000830152613925816138e9565b9050919050565b7f4e487b7100000000000000000000000000000000000000000000000000000000600052601260045260246000fd5b7f4e487b7100000000000000000000000000000000000000000000000000000000600052601160045260246000fd5b600061399582612e4d565b91506139a083612e4d565b9250826139b0576139af61392c565b5b828204905092915050565b60006139c682612e4d565b91506139d183612e4d565b92508282039050818111156139e9576139e861395b565b5b92915050565b6000815190506139fe81612eec565b92915050565b600060208284031215613a1a57613a19612db8565b5b6000613a28848285016139ef565b91505092915050565b6000613a3c82612e4d565b9150613a4783612e4d565b9250828202613a5581612e4d565b91508282048414831517613a6c57613a6b61395b565b5b5092915050565b6000613a7e82612e4d565b9150613a8983612e4d565b9250828201905080821115613aa157613aa061395b565b5b92915050565b6000606082019050613abc6000830186612e57565b613ac96020830185612e57565b613ad66040830184612e57565b949350505050565b7f41756374696f6e206e6f74207374617274656400000000000000000000000000600082015250565b6000613b146013836135fc565b9150613b1f82613ade565b602082019050919050565b60006020820190508181036000830152613b4381613b07565b9050919050565b7f41756374696f6e20697320656e64656400000000000000000000000000000000600082015250565b6000613b806010836135fc565b9150613b8b82613b4a565b602082019050919050565b60006020820190508181036000830152613baf81613b73565b9050919050565b7f42696420616d6f756e7420697320746f6f206c6f770000000000000000000000600082015250565b6000613bec6015836135fc565b9150613bf782613bb6565b602082019050919050565b60006020820190508181036000830152613c1b81613bdf565b9050919050565b6000613c2d82612e4d565b91507fffffffffffffffffffffffffffffffffffffffffffffffffffffffffffffffff8203613c5f57613c5e61395b565b5b600182019050919050565b7f4e487b7100000000000000000000000000000000000000000000000000000000600052602260045260246000fd5b60006002820490506001821680613cb157607f821691505b602082108103613cc457613cc3613c6a565b5b50919050565b7f4e487b7100000000000000000000000000000000000000000000000000000000600052603260045260246000fd5b7f4e6f204554482073656e74000000000000000000000000000000000000000000600082015250565b6000613d2f600b836135fc565b9150613d3a82613cf9565b602082019050919050565b60006020820190508181036000830152613d5e81613d22565b9050919050565b600081519050613d7481612df4565b92915050565b600060208284031215613d9057613d8f612db8565b5b6000613d9e84828501613d65565b91505092915050565b7f596f7520617265206e6f7420746865206f776e6572206f662074686973204e4660008201527f5400000000000000000000000000000000000000000000000000000000000000602082015250565b6000613e036021836135fc565b9150613e0e82613da7565b604082019050919050565b60006020820190508181036000830152613e3281613df6565b9050919050565b60008190508160005260206000209050919050565b60006020601f8301049050919050565b600082821b905092915050565b600060088302613e9b7fffffffffffffffffffffffffffffffffffffffffffffffffffffffffffffffff82613e5e565b613ea58683613e5e565b95508019841693508086168417925050509392505050565b6000819050919050565b6000613ee2613edd613ed884612e4d565b613ebd565b612e4d565b9050919050565b6000819050919050565b613efc83613ec7565b613f10613f0882613ee9565b848454613e6b565b825550505050565b600090565b613f25613f18565b613f30818484613ef3565b505050565b5b81811015613f5457613f49600082613f1d565b600181019050613f36565b5050565b601f821115613f9957613f6a81613e39565b613f7384613e4e565b81016020851015613f82578190505b613f96613f8e85613e4e565b830182613f35565b50505b505050565b600082821c905092915050565b6000613fbc60001984600802613f9e565b1980831691505092915050565b6000613fd58383613fab565b9150826002028217905092915050565b613fee82612f9e565b67ffffffffffffffff811115614007576140066132bc565b5b6140118254613c99565b61401c828285613f58565b600060209050601f83116001811461404f576000841561403d578287015190505b6140478582613fc9565b8655506140af565b601f19841661405d86613e39565b60005b8281101561408557848901518255600182019150602085019450602081019050614060565b868310156140a2578489015161409e601f891682613fab565b8355505b6001600288020188555050505b505050505050565b600060a0820190506140cc6000830188612e57565b6140d96020830187612e57565b6140e66040830186612e57565b81810360608301526140f8818561360d565b90506141076080830184612e57565b9695505050505050565b7f496e76616c696420696e707574206c656e677468000000000000000000000000600082015250565b60006141476014836135fc565b915061415282614111565b602082019050919050565b600060208201905081810360008301526141768161413a565b9050919050565b7f546f6b656e206e6f7420666f756e640000000000000000000000000000000000600082015250565b60006141b3600f836135fc565b91506141be8261417d565b602082019050919050565b600060208201905081810360008301526141e2816141a6565b9050919050565b7f546f6b656e2073656c6c6572206d7573742062652043726561746f7200000000600082015250565b600061421f601c836135fc565b915061422a826141e9565b602082019050919050565b6000602082019050818103600083015261424e81614212565b9050919050565b7f416c726561647920736f6c646f75740000000000000000000000000000000000600082015250565b600061428b600f836135fc565b915061429682614255565b602082019050919050565b600060208201905081810360008301526142ba8161427e565b9050919050565b7f496e76616c6964206f70656e696e672070726963650000000000000000000000600082015250565b60006142f76015836135fc565b9150614302826142c1565b602082019050919050565b60006020820190508181036000830152614326816142ea565b9050919050565b7f496e76616c69642061756374696f6e206475726174696f6e0000000000000000600082015250565b60006143636018836135fc565b915061436e8261432d565b602082019050919050565b6000602082019050818103600083015261439281614356565b9050919050565b60006080820190506143ae6000830187612e57565b6143bb6020830186612e57565b6143c86040830185612e57565b6143d56060830184612e57565b95945050505050565b7f546f6b656e20697320616c726561647920736f6c640000000000000000000000600082015250565b60006144146015836135fc565b915061441f826143de565b602082019050919050565b6000602082019050818103600083015261444381614407565b9050919050565b7f596f7520617265206e6f74207468652073656c6c657200000000000000000000600082015250565b60006144806016836135fc565b915061448b8261444a565b602082019050919050565b600060208201905081810360008301526144af81614473565b9050919050565b7f496e207468697320636f6e646974696f6e2c204f776e65722063616e2774206360008201527f616e63656c2041756374696f6e00000000000000000000000000000000000000602082015250565b6000614512602d836135fc565b915061451d826144b6565b604082019050919050565b6000602082019050818103600083015261454181614505565b9050919050565b600060408201905061455d6000830185612e57565b61456a6020830184612e57565b9392505050565b7f41756374696f6e20686173206e6f7420656e6465642079657400000000000000600082015250565b60006145a76019836135fc565b91506145b282614571565b602082019050919050565b600060208201905081810360008301526145d68161459a565b9050919050565b600081546145ea81613c99565b6145f481866135fc565b9450600182166000811461460f576001811461462557614658565b60ff198316865281151560200286019350614658565b61462e85613e39565b60005b8381101561465057815481890152600182019150602081019050614631565b808801955050505b50505092915050565b600060a0820190506146766000830188612e57565b6146836020830187612e57565b6146906040830186612e57565b81810360608301526146a281856145dd565b90506146b16080830184612e57565b9695505050505050565b7f4f776e61626c653a206e6577206f776e657220697320746865207a65726f206160008201527f6464726573730000000000000000000000000000000000000000000000000000602082015250565b60006147176026836135fc565b9150614722826146bb565b604082019050919050565b600060208201905081810360008301526147468161470a565b9050919050565b7f4f776e61626c653a2063616c6c6572206973206e6f7420746865206f776e6572600082015250565b60006147836020836135fc565b915061478e8261474d565b602082019050919050565b600060208201905081810360008301526147b281614776565b905091905056fea26469706673582212207866be483f5a81a90f714adf9a9f0e0d7d105d1e1a022e0c3d5da6605339ccb264736f6c63430008120033",
  "immutableReferences": {},
  "source": "// SPDX-License-Identifier: MIT\npragma solidity ^0.8.1;\n\nimport \"../node_modules/@openzeppelin/contracts/token/ERC721/ERC721.sol\";\nimport \"../node_modules/@openzeppelin/contracts/token/ERC721/IERC721.sol\";\nimport \"../node_modules/@openzeppelin/contracts/access/Ownable.sol\";\nimport \"../node_modules/@openzeppelin/contracts/utils/Counters.sol\";\nimport \"./RTToken.sol\";\n\n\ncontract Marketplace is Ownable {\n    using Counters for Counters.Counter;\n    Counters.Counter private _Ids;\n    address payable public marketAddress;\n\n    struct TokenInfo {\n        uint256 id;\n        address payable seller;\n        address NFTaddress;\n        uint256 tokenId;\n        uint256 price;\n        string metadata;\n        bool sold;\n        uint256 creatorFee;\n        uint256 openingPrice; // \n        uint256 auctionEndTime; //   \n        address payable highestBidder; //   \n        uint256 highestBid; //  \n    }\n\n    mapping(uint256 => TokenInfo) public TokenOnSale;\n    mapping(address => uint256) public lowestPriceByCollection;\n    mapping(address => uint256) public totalSalesByCollection;\n\n    event Add(uint256 id, address indexed NftAddress, address indexed seller, uint256 tokenId, uint256 price, string metadata, uint256 creatorFee);\n    event Buy(uint256 id, address indexed NftAddress, address indexed seller, address indexed buyer, uint256 tokenId, uint256 price);\n    event AuctionCreated(uint256 id, address indexed NftAddress, address indexed seller, uint256 tokenId, uint256 openingPrice, uint256 auctionEndTime);\n    event BidderChanged(uint256 id, address indexed NftAddress, address indexed bidder, uint256 tokenId, uint256 bidAmount);\n    event AuctionEnded(uint256 id, address indexed NftAddress, address indexed seller, address indexed winner, uint256 tokenId, uint256 winningBid);\n    event AuctionCancelled(uint256 id, address indexed NftAddress, address indexed seller, uint256 tokenId);\n\n    constructor() {\n        marketAddress = payable(msg.sender);\n    }\n\n    function getLatestId() public view returns (uint256) {\n        return _Ids.current();\n    }\n\n    function addNftToMarket(address _NFTaddress, uint256 _tokenId, uint256 _price, string memory _metadata, uint256 _creatorFee) external {\n        require(ERC721(_NFTaddress).ownerOf(_tokenId) == msg.sender, \"You are not the owner of this NFT\");\n\n        _Ids.increment();\n        TokenOnSale[_Ids.current()] = TokenInfo(_Ids.current(), payable(msg.sender), _NFTaddress, _tokenId, _price, _metadata, false, _creatorFee, 0, 0, payable(address(0)), 0);\n        if (_price < lowestPriceByCollection[_NFTaddress] || lowestPriceByCollection[_NFTaddress] == 0) {\n            lowestPriceByCollection[_NFTaddress] = _price;\n        }\n\n        emit Add(_Ids.current(), _NFTaddress, msg.sender, _tokenId, _price, _metadata, _creatorFee);\n    }\n\n\n    function buyNfts(uint256[] calldata _ids) external payable {\n        require(msg.value > 0, \"No ETH sent\");\n\n        for (uint256 i = 0; i < _ids.length; i++) {\n            buyNft(_ids[i]);\n        }\n    }\n\n    function buyNft(uint256 _id) public payable {\n        TokenInfo storage token = TokenOnSale[_id];\n        require(msg.value >= token.price, \"Not enough ETH\");\n        require(!token.sold, \"Already sold out\");\n        require(msg.sender != token.seller, \"You can't buy your own NFT\");\n        require(token.openingPrice == 0, \"During the auction, you can't buy this NFT\");\n\n        uint256 marketFee = token.price / 100;\n        uint256 creatorRoyalty = 0;\n        uint256 sellerAmount = token.price - marketFee;\n\n        marketAddress.transfer(marketFee);\n\n        address payable creator = RTToken(token.NFTaddress).getCreator();\n        if (token.seller != creator) {\n            creatorRoyalty = token.price * token.creatorFee / 1000;\n            sellerAmount -= creatorRoyalty;\n            creator.transfer(creatorRoyalty);\n        }\n        token.seller.transfer(sellerAmount);\n\n        totalSalesByCollection[token.NFTaddress] += token.price;\n        token.sold = true;\n        token.seller = payable(msg.sender);\n\n        emit Buy(_id, token.NFTaddress, token.seller, msg.sender, token.tokenId, token.price);\n    }\n\n    function reAddNftToMarket(uint256 _id, uint256 _price) external {\n        TokenInfo storage token = TokenOnSale[_id];\n        require(msg.sender == token.seller, \"You are not the owner of this NFT\");\n\n        token.price = _price;\n        token.sold = false;\n        token.seller = payable(msg.sender);\n\n        if (_price < lowestPriceByCollection[token.NFTaddress]) {\n            lowestPriceByCollection[token.NFTaddress] = _price;\n        }\n\n        emit Add(_id, token.NFTaddress, token.seller, token.tokenId, _price, token.metadata, token.creatorFee);\n    }\n\n    function startAuction(uint256 _id, uint256 _openingPrice, uint256 _duration) external {\n        TokenInfo storage token = TokenOnSale[_id];\n        require(!token.sold, \"Already sold out\");\n        require(msg.sender == token.seller, \"You are not the owner of this NFT\");\n        require(_openingPrice > 0, \"Invalid opening price\");\n        require(_duration > 0, \"Invalid auction duration\");\n\n        token.openingPrice = _openingPrice;\n        token.auctionEndTime = block.timestamp + _duration;\n\n        emit AuctionCreated(_id, token.NFTaddress, token.seller, token.tokenId, _openingPrice, token.auctionEndTime);\n    }\n\n    function bidInAuction(uint256 _id) external payable {\n        TokenInfo storage token = TokenOnSale[_id];\n        require(!token.sold, \"Already sold out\");\n        require(token.openingPrice > 0, \"Auction not started\");\n        require(block.timestamp < token.auctionEndTime, \"Auction is ended\");\n        require(msg.value > token.highestBid, \"Bid amount is too low\");\n\n        if (token.highestBid != 0) {\n            token.highestBidder.transfer(token.highestBid); //      \n        }\n\n        token.highestBidder = payable(msg.sender);\n        token.highestBid = msg.value;\n\n        emit BidderChanged(_id, token.NFTaddress, msg.sender, token.tokenId, msg.value);\n    }\n\n    function endAuction(uint256 _id) public {\n        TokenInfo storage token = TokenOnSale[_id];\n\n        require(!token.sold, \"Already sold out\");\n        require(token.openingPrice > 0, \"Auction not started\");\n        require(block.timestamp >= token.auctionEndTime, \"Auction has not ended yet\");\n        require(msg.sender == token.seller, \"You are not the seller\");\n\n        //      NFT    \n        token.seller.transfer(token.highestBid);\n        token.sold = true;\n        token.seller = payable(token.highestBidder);\n        token.price = token.highestBid;\n\n        //    \n        token.openingPrice = 0;\n        token.auctionEndTime = 0;\n        token.highestBidder = payable(address(0));\n        token.highestBid = 0;\n\n        emit AuctionEnded(_id, token.NFTaddress, token.seller, token.highestBidder, token.tokenId, token.highestBid);\n    }\n\n    // function timer() external {\n    //     for (uint256 i = 1; i <= _Ids.current(); i++) {\n    //         TokenInfo storage token = TokenOnSale[i];\n    //         if (!token.sold && token.openingPrice > 0 && block.timestamp >= token.auctionEndTime && token.highestBidder != address(0)) {\n    //             require(msg.sender == token.highestBidder, \"Only last highest bidder can end the auction\");\n    //             endAuction(i);\n    //         }\n    //     }\n    // }\n\n    function cancelAuction(uint256 _id) external {\n        TokenInfo storage token = TokenOnSale[_id];\n        require(token.id != 0, \"Token not found\");\n        require(token.openingPrice > 0, \"Auction not started\");\n        require(!token.sold, \"Token is already sold\");\n        require(msg.sender == token.seller, \"You are not the seller\");\n        require((token.highestBid != 0 && token.auctionEndTime >= block.timestamp) \n            || (token.highestBid == 0 && token.auctionEndTime < block.timestamp) \n            || (token.highestBid == 0 && token.auctionEndTime > block.timestamp)\n        , \"In this condition, Owner can't cancel Auction\");\n\n\n\n        if (token.highestBid != 0) {\n            token.highestBidder.transfer(token.highestBid);\n        }\n\n        token.openingPrice = 0;\n        token.auctionEndTime = 0;\n        token.highestBidder = payable(address(0));\n        token.highestBid = 0;\n\n        emit AuctionCancelled(token.id, token.NFTaddress, token.seller, token.tokenId);\n    }\n\n    function getAllTokensInCollection(address _NFTaddress) public view returns (TokenInfo[] memory) {\n        uint256 count = 0;\n        for (uint256 i = 1; i <= _Ids.current(); i++) {\n            if (TokenOnSale[i].NFTaddress == _NFTaddress) {\n                count++;\n            }\n        }\n        TokenInfo[] memory tokens = new TokenInfo[](count);\n\n        uint256 index = 0;\n        for (uint256 i = 1; i <= _Ids.current(); i++) {\n            if (TokenOnSale[i].NFTaddress == _NFTaddress) {\n                tokens[index] = TokenOnSale[i];\n                index++;\n            }\n        }\n\n        return tokens;\n    }\n\n\n    function getUserTokens(address payable _address) public view returns (TokenInfo[] memory) {\n        uint256 count = 0;\n        for (uint256 i = 1; i <= _Ids.current(); i++) {\n            if (TokenOnSale[i].seller == _address) {\n                count++;\n            }\n        }\n        TokenInfo[] memory tokens = new TokenInfo[](count);\n\n        uint256 index = 0;\n        for (uint256 i = 1; i <= _Ids.current(); i++) {\n            if (TokenOnSale[i].seller == _address) {\n                tokens[index] = TokenOnSale[i];\n                index++;\n            }\n        }\n\n        return tokens;\n    }\n\n\n    // function setAirdrop(address[] calldata _targets, address _NFTaddress) external payable onlyOwner {\n    //     address payable creator = RTToken(_NFTaddress).getCreator();\n    //     require(_targets.length > 0, \"No targets\");\n\n    //     TokenInfo[] memory tokens = getAllTokensInCollection(_NFTaddress);\n    //     uint256 tokenCount = tokens.length;\n\n    //     for (uint256 i = 0; i < tokenCount; i++) {\n    //         if (i < _targets.length && !tokens[i].sold && tokens[i].seller == creator) {\n    //             uint256 tokenId = tokens[i].tokenId;\n    //             TokenOnSale[tokenId].seller = payable(_targets[i]);\n    //             TokenOnSale[tokenId].sold = true;\n    //         } else {\n    //             break; // targets    \n    //         }\n    //     }\n    // }\n\n    function setAirdrop(address[] calldata _targets, uint256[] calldata _ids) external payable onlyOwner {\n        require(_targets.length == _ids.length, \"Invalid input length\");\n\n        for (uint256 i = 0; i < _ids.length; i++) {\n            uint256 id = _ids[i];\n            require(TokenOnSale[id].id != 0, \"Token not found\");\n            require(TokenOnSale[id].seller == RTToken(TokenOnSale[id].NFTaddress).getCreator(), \"Token seller must be Creator\");\n            require(!TokenOnSale[id].sold, \"Already soldout\");\n\n            TokenOnSale[id].seller = payable(_targets[i]);\n            TokenOnSale[id].sold = true;\n        }\n    }\n}",
  "sourcePath": "/Users/kimjh/Documents/workspace/ZDB/rooftop/nft/contracts/Marketplace.sol",
  "compiler": {
    "name": "solc",
    "version": "0.8.18+commit.87f61d96.Emscripten.clang"
  },
  "schemaVersion": "3.4.14",
  "updatedAt": "2023-07-13T07:48:05.740Z",
  "networkType": "ethereum",
  "devdoc": {
    "kind": "dev",
    "methods": {
      "owner()": {
        "details": "Returns the address of the current owner."
      },
      "renounceOwnership()": {
        "details": "Leaves the contract without owner. It will not be possible to call `onlyOwner` functions. Can only be called by the current owner. NOTE: Renouncing ownership will leave the contract without an owner, thereby disabling any functionality that is only available to the owner."
      },
      "transferOwnership(address)": {
        "details": "Transfers ownership of the contract to a new account (`newOwner`). Can only be called by the current owner."
      }
    },
    "version": 1
  },
  "userdoc": {
    "kind": "user",
    "methods": {},
    "version": 1
  }
}