{
  "contractName": "Marketplace",
  "abi": [
    {
      "inputs": [],
      "stateMutability": "nonpayable",
      "type": "constructor"
    },
    {
      "anonymous": false,
      "inputs": [
        {
          "indexed": false,
          "internalType": "uint256",
          "name": "id",
          "type": "uint256"
        },
        {
          "indexed": true,
          "internalType": "address",
          "name": "NftAddress",
          "type": "address"
        },
        {
          "indexed": true,
          "internalType": "address",
          "name": "seller",
          "type": "address"
        },
        {
          "indexed": false,
          "internalType": "uint256",
          "name": "tokenId",
          "type": "uint256"
        },
        {
          "indexed": false,
          "internalType": "uint256",
          "name": "price",
          "type": "uint256"
        },
        {
          "indexed": false,
          "internalType": "string",
          "name": "metadata",
          "type": "string"
        },
        {
          "indexed": false,
          "internalType": "uint256",
          "name": "creatorFee",
          "type": "uint256"
        }
      ],
      "name": "Add",
      "type": "event"
    },
    {
      "anonymous": false,
      "inputs": [
        {
          "indexed": false,
          "internalType": "uint256",
          "name": "id",
          "type": "uint256"
        },
        {
          "indexed": true,
          "internalType": "address",
          "name": "NftAddress",
          "type": "address"
        },
        {
          "indexed": true,
          "internalType": "address",
          "name": "seller",
          "type": "address"
        },
        {
          "indexed": false,
          "internalType": "uint256",
          "name": "tokenId",
          "type": "uint256"
        }
      ],
      "name": "AuctionCancelled",
      "type": "event"
    },
    {
      "anonymous": false,
      "inputs": [
        {
          "indexed": false,
          "internalType": "uint256",
          "name": "id",
          "type": "uint256"
        },
        {
          "indexed": true,
          "internalType": "address",
          "name": "NftAddress",
          "type": "address"
        },
        {
          "indexed": true,
          "internalType": "address",
          "name": "seller",
          "type": "address"
        },
        {
          "indexed": false,
          "internalType": "uint256",
          "name": "tokenId",
          "type": "uint256"
        },
        {
          "indexed": false,
          "internalType": "uint256",
          "name": "openingPrice",
          "type": "uint256"
        },
        {
          "indexed": false,
          "internalType": "uint256",
          "name": "auctionEndTime",
          "type": "uint256"
        }
      ],
      "name": "AuctionCreated",
      "type": "event"
    },
    {
      "anonymous": false,
      "inputs": [
        {
          "indexed": false,
          "internalType": "uint256",
          "name": "id",
          "type": "uint256"
        },
        {
          "indexed": true,
          "internalType": "address",
          "name": "NftAddress",
          "type": "address"
        },
        {
          "indexed": true,
          "internalType": "address",
          "name": "seller",
          "type": "address"
        },
        {
          "indexed": true,
          "internalType": "address",
          "name": "winner",
          "type": "address"
        },
        {
          "indexed": false,
          "internalType": "uint256",
          "name": "tokenId",
          "type": "uint256"
        },
        {
          "indexed": false,
          "internalType": "uint256",
          "name": "winningBid",
          "type": "uint256"
        }
      ],
      "name": "AuctionEnded",
      "type": "event"
    },
    {
      "anonymous": false,
      "inputs": [
        {
          "indexed": false,
          "internalType": "uint256",
          "name": "id",
          "type": "uint256"
        },
        {
          "indexed": true,
          "internalType": "address",
          "name": "NftAddress",
          "type": "address"
        },
        {
          "indexed": true,
          "internalType": "address",
          "name": "bidder",
          "type": "address"
        },
        {
          "indexed": false,
          "internalType": "uint256",
          "name": "tokenId",
          "type": "uint256"
        },
        {
          "indexed": false,
          "internalType": "uint256",
          "name": "bidAmount",
          "type": "uint256"
        }
      ],
      "name": "BidderChanged",
      "type": "event"
    },
    {
      "anonymous": false,
      "inputs": [
        {
          "indexed": false,
          "internalType": "uint256",
          "name": "id",
          "type": "uint256"
        },
        {
          "indexed": true,
          "internalType": "address",
          "name": "NftAddress",
          "type": "address"
        },
        {
          "indexed": true,
          "internalType": "address",
          "name": "seller",
          "type": "address"
        },
        {
          "indexed": true,
          "internalType": "address",
          "name": "buyer",
          "type": "address"
        },
        {
          "indexed": false,
          "internalType": "uint256",
          "name": "tokenId",
          "type": "uint256"
        },
        {
          "indexed": false,
          "internalType": "uint256",
          "name": "price",
          "type": "uint256"
        }
      ],
      "name": "Buy",
      "type": "event"
    },
    {
      "anonymous": false,
      "inputs": [
        {
          "indexed": true,
          "internalType": "address",
          "name": "previousOwner",
          "type": "address"
        },
        {
          "indexed": true,
          "internalType": "address",
          "name": "newOwner",
          "type": "address"
        }
      ],
      "name": "OwnershipTransferred",
      "type": "event"
    },
    {
      "inputs": [
        {
          "internalType": "uint256",
          "name": "",
          "type": "uint256"
        }
      ],
      "name": "TokenOnSale",
      "outputs": [
        {
          "internalType": "uint256",
          "name": "id",
          "type": "uint256"
        },
        {
          "internalType": "address payable",
          "name": "seller",
          "type": "address"
        },
        {
          "internalType": "address",
          "name": "NFTaddress",
          "type": "address"
        },
        {
          "internalType": "uint256",
          "name": "tokenId",
          "type": "uint256"
        },
        {
          "internalType": "uint256",
          "name": "price",
          "type": "uint256"
        },
        {
          "internalType": "string",
          "name": "metadata",
          "type": "string"
        },
        {
          "internalType": "bool",
          "name": "sold",
          "type": "bool"
        },
        {
          "internalType": "uint256",
          "name": "creatorFee",
          "type": "uint256"
        },
        {
          "internalType": "uint256",
          "name": "openingPrice",
          "type": "uint256"
        },
        {
          "internalType": "uint256",
          "name": "auctionEndTime",
          "type": "uint256"
        },
        {
          "internalType": "address payable",
          "name": "highestBidder",
          "type": "address"
        },
        {
          "internalType": "uint256",
          "name": "highestBid",
          "type": "uint256"
        }
      ],
      "stateMutability": "view",
      "type": "function",
      "constant": true
    },
    {
      "inputs": [
        {
          "internalType": "address",
          "name": "",
          "type": "address"
        }
      ],
      "name": "lowestPriceByCollection",
      "outputs": [
        {
          "internalType": "uint256",
          "name": "",
          "type": "uint256"
        }
      ],
      "stateMutability": "view",
      "type": "function",
      "constant": true
    },
    {
      "inputs": [],
      "name": "marketAddress",
      "outputs": [
        {
          "internalType": "address payable",
          "name": "",
          "type": "address"
        }
      ],
      "stateMutability": "view",
      "type": "function",
      "constant": true
    },
    {
      "inputs": [],
      "name": "owner",
      "outputs": [
        {
          "internalType": "address",
          "name": "",
          "type": "address"
        }
      ],
      "stateMutability": "view",
      "type": "function",
      "constant": true
    },
    {
      "inputs": [],
      "name": "renounceOwnership",
      "outputs": [],
      "stateMutability": "nonpayable",
      "type": "function"
    },
    {
      "inputs": [
        {
          "internalType": "address",
          "name": "",
          "type": "address"
        }
      ],
      "name": "totalSalesByCollection",
      "outputs": [
        {
          "internalType": "uint256",
          "name": "",
          "type": "uint256"
        }
      ],
      "stateMutability": "view",
      "type": "function",
      "constant": true
    },
    {
      "inputs": [
        {
          "internalType": "address",
          "name": "newOwner",
          "type": "address"
        }
      ],
      "name": "transferOwnership",
      "outputs": [],
      "stateMutability": "nonpayable",
      "type": "function"
    },
    {
      "inputs": [],
      "name": "getLatestId",
      "outputs": [
        {
          "internalType": "uint256",
          "name": "",
          "type": "uint256"
        }
      ],
      "stateMutability": "view",
      "type": "function",
      "constant": true
    },
    {
      "inputs": [
        {
          "internalType": "address",
          "name": "_NFTaddress",
          "type": "address"
        },
        {
          "internalType": "uint256",
          "name": "_tokenId",
          "type": "uint256"
        },
        {
          "internalType": "uint256",
          "name": "_price",
          "type": "uint256"
        },
        {
          "internalType": "string",
          "name": "_metadata",
          "type": "string"
        },
        {
          "internalType": "uint256",
          "name": "_creatorFee",
          "type": "uint256"
        }
      ],
      "name": "addNftToMarket",
      "outputs": [],
      "stateMutability": "nonpayable",
      "type": "function"
    },
    {
      "inputs": [
        {
          "internalType": "uint256[]",
          "name": "_ids",
          "type": "uint256[]"
        }
      ],
      "name": "buyNfts",
      "outputs": [],
      "stateMutability": "payable",
      "type": "function",
      "payable": true
    },
    {
      "inputs": [
        {
          "internalType": "uint256",
          "name": "_id",
          "type": "uint256"
        }
      ],
      "name": "buyNft",
      "outputs": [],
      "stateMutability": "payable",
      "type": "function",
      "payable": true
    },
    {
      "inputs": [
        {
          "internalType": "uint256",
          "name": "_id",
          "type": "uint256"
        },
        {
          "internalType": "uint256",
          "name": "_price",
          "type": "uint256"
        }
      ],
      "name": "reAddNftToMarket",
      "outputs": [],
      "stateMutability": "nonpayable",
      "type": "function"
    },
    {
      "inputs": [
        {
          "internalType": "uint256",
          "name": "_id",
          "type": "uint256"
        },
        {
          "internalType": "uint256",
          "name": "_openingPrice",
          "type": "uint256"
        },
        {
          "internalType": "uint256",
          "name": "_duration",
          "type": "uint256"
        }
      ],
      "name": "startAuction",
      "outputs": [],
      "stateMutability": "nonpayable",
      "type": "function"
    },
    {
      "inputs": [
        {
          "internalType": "uint256",
          "name": "_id",
          "type": "uint256"
        }
      ],
      "name": "bidInAuction",
      "outputs": [],
      "stateMutability": "payable",
      "type": "function",
      "payable": true
    },
    {
      "inputs": [],
      "name": "timer",
      "outputs": [],
      "stateMutability": "nonpayable",
      "type": "function"
    },
    {
      "inputs": [
        {
          "internalType": "uint256",
          "name": "_id",
          "type": "uint256"
        }
      ],
      "name": "cancelAuction",
      "outputs": [],
      "stateMutability": "nonpayable",
      "type": "function"
    },
    {
      "inputs": [
        {
          "internalType": "address",
          "name": "_NFTaddress",
          "type": "address"
        }
      ],
      "name": "getAllTokensInCollection",
      "outputs": [
        {
          "components": [
            {
              "internalType": "uint256",
              "name": "id",
              "type": "uint256"
            },
            {
              "internalType": "address payable",
              "name": "seller",
              "type": "address"
            },
            {
              "internalType": "address",
              "name": "NFTaddress",
              "type": "address"
            },
            {
              "internalType": "uint256",
              "name": "tokenId",
              "type": "uint256"
            },
            {
              "internalType": "uint256",
              "name": "price",
              "type": "uint256"
            },
            {
              "internalType": "string",
              "name": "metadata",
              "type": "string"
            },
            {
              "internalType": "bool",
              "name": "sold",
              "type": "bool"
            },
            {
              "internalType": "uint256",
              "name": "creatorFee",
              "type": "uint256"
            },
            {
              "internalType": "uint256",
              "name": "openingPrice",
              "type": "uint256"
            },
            {
              "internalType": "uint256",
              "name": "auctionEndTime",
              "type": "uint256"
            },
            {
              "internalType": "address payable",
              "name": "highestBidder",
              "type": "address"
            },
            {
              "internalType": "uint256",
              "name": "highestBid",
              "type": "uint256"
            }
          ],
          "internalType": "struct Marketplace.TokenInfo[]",
          "name": "",
          "type": "tuple[]"
        }
      ],
      "stateMutability": "view",
      "type": "function",
      "constant": true
    },
    {
      "inputs": [
        {
          "internalType": "address payable",
          "name": "_address",
          "type": "address"
        }
      ],
      "name": "getUserTokens",
      "outputs": [
        {
          "components": [
            {
              "internalType": "uint256",
              "name": "id",
              "type": "uint256"
            },
            {
              "internalType": "address payable",
              "name": "seller",
              "type": "address"
            },
            {
              "internalType": "address",
              "name": "NFTaddress",
              "type": "address"
            },
            {
              "internalType": "uint256",
              "name": "tokenId",
              "type": "uint256"
            },
            {
              "internalType": "uint256",
              "name": "price",
              "type": "uint256"
            },
            {
              "internalType": "string",
              "name": "metadata",
              "type": "string"
            },
            {
              "internalType": "bool",
              "name": "sold",
              "type": "bool"
            },
            {
              "internalType": "uint256",
              "name": "creatorFee",
              "type": "uint256"
            },
            {
              "internalType": "uint256",
              "name": "openingPrice",
              "type": "uint256"
            },
            {
              "internalType": "uint256",
              "name": "auctionEndTime",
              "type": "uint256"
            },
            {
              "internalType": "address payable",
              "name": "highestBidder",
              "type": "address"
            },
            {
              "internalType": "uint256",
              "name": "highestBid",
              "type": "uint256"
            }
          ],
          "internalType": "struct Marketplace.TokenInfo[]",
          "name": "",
          "type": "tuple[]"
        }
      ],
      "stateMutability": "view",
      "type": "function",
      "constant": true
    }
  ],
  "bytecode": "0x60806040523480156200001157600080fd5b5062000032620000266200007960201b60201c565b6200008160201b60201c565b33600260006101000a81548173ffffffffffffffffffffffffffffffffffffffff021916908373ffffffffffffffffffffffffffffffffffffffff16021790555062000145565b600033905090565b60008060009054906101000a900473ffffffffffffffffffffffffffffffffffffffff169050816000806101000a81548173ffffffffffffffffffffffffffffffffffffffff021916908373ffffffffffffffffffffffffffffffffffffffff1602179055508173ffffffffffffffffffffffffffffffffffffffff168173ffffffffffffffffffffffffffffffffffffffff167f8be0079c531659141344cd1fd0a4f28419497f9722a3daafe3b4186f6b6457e060405160405180910390a35050565b61442f80620001556000396000f3fe6080604052600436106101095760003560e01c80638da5cb5b1161009557806396b5a7551161006457806396b5a7551461032c578063b2b088f614610355578063eb5af7311461039d578063eff91c7e146103c6578063f2fde38b146103f157610109565b80638da5cb5b14610270578063918f2e521461029b57806391e078bb146102d8578063956236411461030157610109565b80635d596402116100dc5780635d596402146101c05780636012de1a146101dc578063715018a61461020557806377b02fe01461021c57806388c9cb3c1461025957610109565b806321c4d76e1461010e578063243adbdd1461014b5780632975bfd414610167578063519dc8d214610183575b600080fd5b34801561011a57600080fd5b5061013560048036038101906101309190612bb8565b61041a565b6040516101429190612bfe565b60405180910390f35b61016560048036038101906101609190612c45565b610432565b005b610181600480360381019061017c9190612c45565b6109d3565b005b34801561018f57600080fd5b506101aa60048036038101906101a59190612cb0565b610c6c565b6040516101b79190612f7b565b60405180910390f35b6101da60048036038101906101d59190613002565b61104b565b005b3480156101e857600080fd5b5061020360048036038101906101fe919061317f565b6110d6565b005b34801561021157600080fd5b5061021a611532565b005b34801561022857600080fd5b50610243600480360381019061023e9190612bb8565b611546565b6040516102509190612bfe565b60405180910390f35b34801561026557600080fd5b5061026e61155e565b005b34801561027c57600080fd5b506102856116d4565b6040516102929190613225565b60405180910390f35b3480156102a757600080fd5b506102c260048036038101906102bd9190612bb8565b6116fd565b6040516102cf9190612f7b565b60405180910390f35b3480156102e457600080fd5b506102ff60048036038101906102fa9190613240565b611adc565b005b34801561030d57600080fd5b50610316611d3b565b60405161032391906132a2565b60405180910390f35b34801561033857600080fd5b50610353600480360381019061034e9190612c45565b611d61565b005b34801561036157600080fd5b5061037c60048036038101906103779190612c45565b612110565b6040516103949c9b9a99989796959493929190613316565b60405180910390f35b3480156103a957600080fd5b506103c460048036038101906103bf91906133d7565b612265565b005b3480156103d257600080fd5b506103db6123f9565b6040516103e89190612bfe565b60405180910390f35b3480156103fd57600080fd5b5061041860048036038101906104139190612bb8565b61240a565b005b60056020528060005260406000206000915090505481565b60006003600083815260200190815260200160002090508060040154341015610490576040517f08c379a000000000000000000000000000000000000000000000000000000000815260040161048790613463565b60405180910390fd5b8060060160009054906101000a900460ff16156104e2576040517f08c379a00000000000000000000000000000000000000000000000000000000081526004016104d9906134cf565b60405180910390fd5b8060010160009054906101000a900473ffffffffffffffffffffffffffffffffffffffff1673ffffffffffffffffffffffffffffffffffffffff163373ffffffffffffffffffffffffffffffffffffffff1603610574576040517f08c379a000000000000000000000000000000000000000000000000000000000815260040161056b9061353b565b60405180910390fd5b60008160080154146105bb576040517f08c379a00000000000000000000000000000000000000000000000000000000081526004016105b2906135cd565b60405180910390fd5b6000606482600401546105ce919061364b565b9050600080818385600401546105e4919061367c565b6105ee919061367c565b9050600260009054906101000a900473ffffffffffffffffffffffffffffffffffffffff1673ffffffffffffffffffffffffffffffffffffffff166108fc849081150290604051600060405180830381858888f19350505050158015610658573d6000803e3d6000fd5b5060008460020160009054906101000a900473ffffffffffffffffffffffffffffffffffffffff1673ffffffffffffffffffffffffffffffffffffffff16630ee2cb106040518163ffffffff1660e01b8152600401602060405180830381865afa1580156106ca573d6000803e3d6000fd5b505050506040513d601f19601f820116820180604052508101906106ee91906136c5565b90508073ffffffffffffffffffffffffffffffffffffffff168560010160009054906101000a900473ffffffffffffffffffffffffffffffffffffffff1673ffffffffffffffffffffffffffffffffffffffff16146107b2576103e88560070154866004015461075e91906136f2565b610768919061364b565b92508073ffffffffffffffffffffffffffffffffffffffff166108fc849081150290604051600060405180830381858888f193505050501580156107b0573d6000803e3d6000fd5b505b8460010160009054906101000a900473ffffffffffffffffffffffffffffffffffffffff1673ffffffffffffffffffffffffffffffffffffffff166108fc839081150290604051600060405180830381858888f1935050505015801561081c573d6000803e3d6000fd5b508460040154600560008760020160009054906101000a900473ffffffffffffffffffffffffffffffffffffffff1673ffffffffffffffffffffffffffffffffffffffff1673ffffffffffffffffffffffffffffffffffffffff16815260200190815260200160002060008282546108949190613734565b9250508190555060018560060160006101000a81548160ff021916908315150217905550338560010160006101000a81548173ffffffffffffffffffffffffffffffffffffffff021916908373ffffffffffffffffffffffffffffffffffffffff1602179055503373ffffffffffffffffffffffffffffffffffffffff168560010160009054906101000a900473ffffffffffffffffffffffffffffffffffffffff1673ffffffffffffffffffffffffffffffffffffffff168660020160009054906101000a900473ffffffffffffffffffffffffffffffffffffffff1673ffffffffffffffffffffffffffffffffffffffff167f75707d5d3d11632aafe99e9e60317891909f271b10026e79014651df900c32a08989600301548a600401546040516109c393929190613768565b60405180910390a4505050505050565b60006003600083815260200190815260200160002090508060060160009054906101000a900460ff1615610a3c576040517f08c379a0000000000000000000000000000000000000000000000000000000008152600401610a33906134cf565b60405180910390fd5b6000816008015411610a83576040517f08c379a0000000000000000000000000000000000000000000000000000000008152600401610a7a906137eb565b60405180910390fd5b80600901544210610ac9576040517f08c379a0000000000000000000000000000000000000000000000000000000008152600401610ac090613857565b60405180910390fd5b80600b01543411610b0f576040517f08c379a0000000000000000000000000000000000000000000000000000000008152600401610b06906138c3565b60405180910390fd5b600081600b015414610b8b5780600a0160009054906101000a900473ffffffffffffffffffffffffffffffffffffffff1673ffffffffffffffffffffffffffffffffffffffff166108fc82600b01549081150290604051600060405180830381858888f19350505050158015610b89573d6000803e3d6000fd5b505b3381600a0160006101000a81548173ffffffffffffffffffffffffffffffffffffffff021916908373ffffffffffffffffffffffffffffffffffffffff1602179055503481600b01819055503373ffffffffffffffffffffffffffffffffffffffff168160020160009054906101000a900473ffffffffffffffffffffffffffffffffffffffff1673ffffffffffffffffffffffffffffffffffffffff167f0efc41f9ac6b1327ea0a4ce681dbef148dc7ef1663380fb4681a5d3a8ef2977784846003015434604051610c6093929190613768565b60405180910390a35050565b6060600080600190505b610c80600161248d565b8111610d11578373ffffffffffffffffffffffffffffffffffffffff166003600083815260200190815260200160002060010160009054906101000a900473ffffffffffffffffffffffffffffffffffffffff1673ffffffffffffffffffffffffffffffffffffffff1603610cfe578180610cfa906138e3565b9250505b8080610d09906138e3565b915050610c76565b5060008167ffffffffffffffff811115610d2e57610d2d613054565b5b604051908082528060200260200182016040528015610d6757816020015b610d54612aa1565b815260200190600190039081610d4c5790505b509050600080600190505b610d7c600161248d565b811161103f578573ffffffffffffffffffffffffffffffffffffffff166003600083815260200190815260200160002060010160009054906101000a900473ffffffffffffffffffffffffffffffffffffffff1673ffffffffffffffffffffffffffffffffffffffff160361102c576003600082815260200190815260200160002060405180610180016040529081600082015481526020016001820160009054906101000a900473ffffffffffffffffffffffffffffffffffffffff1673ffffffffffffffffffffffffffffffffffffffff1673ffffffffffffffffffffffffffffffffffffffff1681526020016002820160009054906101000a900473ffffffffffffffffffffffffffffffffffffffff1673ffffffffffffffffffffffffffffffffffffffff1673ffffffffffffffffffffffffffffffffffffffff1681526020016003820154815260200160048201548152602001600582018054610ee49061395a565b80601f0160208091040260200160405190810160405280929190818152602001828054610f109061395a565b8015610f5d5780601f10610f3257610100808354040283529160200191610f5d565b820191906000526020600020905b815481529060010190602001808311610f4057829003601f168201915b505050505081526020016006820160009054906101000a900460ff16151515158152602001600782015481526020016008820154815260200160098201548152602001600a820160009054906101000a900473ffffffffffffffffffffffffffffffffffffffff1673ffffffffffffffffffffffffffffffffffffffff1673ffffffffffffffffffffffffffffffffffffffff168152602001600b820154815250508383815181106110125761101161398b565b5b60200260200101819052508180611028906138e3565b9250505b8080611037906138e3565b915050610d72565b50819350505050919050565b6000341161108e576040517f08c379a000000000000000000000000000000000000000000000000000000000815260040161108590613a06565b60405180910390fd5b60005b828290508110156110d1576110be8383838181106110b2576110b161398b565b5b90506020020135610432565b80806110c9906138e3565b915050611091565b505050565b3373ffffffffffffffffffffffffffffffffffffffff168573ffffffffffffffffffffffffffffffffffffffff16636352211e866040518263ffffffff1660e01b81526004016111269190612bfe565b602060405180830381865afa158015611143573d6000803e3d6000fd5b505050506040513d601f19601f820116820180604052508101906111679190613a3b565b73ffffffffffffffffffffffffffffffffffffffff16146111bd576040517f08c379a00000000000000000000000000000000000000000000000000000000081526004016111b490613ada565b60405180910390fd5b6111c7600161249b565b6040518061018001604052806111dd600161248d565b81526020013373ffffffffffffffffffffffffffffffffffffffff1681526020018673ffffffffffffffffffffffffffffffffffffffff1681526020018581526020018481526020018381526020016000151581526020018281526020016000815260200160008152602001600073ffffffffffffffffffffffffffffffffffffffff168152602001600081525060036000611279600161248d565b81526020019081526020016000206000820151816000015560208201518160010160006101000a81548173ffffffffffffffffffffffffffffffffffffffff021916908373ffffffffffffffffffffffffffffffffffffffff16021790555060408201518160020160006101000a81548173ffffffffffffffffffffffffffffffffffffffff021916908373ffffffffffffffffffffffffffffffffffffffff160217905550606082015181600301556080820151816004015560a08201518160050190816113489190613ca6565b5060c08201518160060160006101000a81548160ff02191690831515021790555060e082015181600701556101008201518160080155610120820151816009015561014082015181600a0160006101000a81548173ffffffffffffffffffffffffffffffffffffffff021916908373ffffffffffffffffffffffffffffffffffffffff16021790555061016082015181600b0155905050600460008673ffffffffffffffffffffffffffffffffffffffff1673ffffffffffffffffffffffffffffffffffffffff1681526020019081526020016000205483108061146b57506000600460008773ffffffffffffffffffffffffffffffffffffffff1673ffffffffffffffffffffffffffffffffffffffff16815260200190815260200160002054145b156114b55782600460008773ffffffffffffffffffffffffffffffffffffffff1673ffffffffffffffffffffffffffffffffffffffff168152602001908152602001600020819055505b3373ffffffffffffffffffffffffffffffffffffffff168573ffffffffffffffffffffffffffffffffffffffff167fcf4e2b398f8f130dfa20ec831a8ad0f918b3c680e9dbad3b2230ad0192f52b1661150e600161248d565b87878787604051611523959493929190613d78565b60405180910390a35050505050565b61153a6124b1565b611544600061252f565b565b60046020528060005260406000206000915090505481565b6000600190505b61156f600161248d565b81116116d15760006003600083815260200190815260200160002090508060060160009054906101000a900460ff161580156115af575060008160080154115b80156115bf575080600901544210155b801561161c5750600073ffffffffffffffffffffffffffffffffffffffff1681600a0160009054906101000a900473ffffffffffffffffffffffffffffffffffffffff1673ffffffffffffffffffffffffffffffffffffffff1614155b156116bd5780600a0160009054906101000a900473ffffffffffffffffffffffffffffffffffffffff1673ffffffffffffffffffffffffffffffffffffffff163373ffffffffffffffffffffffffffffffffffffffff16146116b3576040517f08c379a00000000000000000000000000000000000000000000000000000000081526004016116aa90613e44565b60405180910390fd5b6116bc826125f3565b5b5080806116c9906138e3565b915050611565565b50565b60008060009054906101000a900473ffffffffffffffffffffffffffffffffffffffff16905090565b6060600080600190505b611711600161248d565b81116117a2578373ffffffffffffffffffffffffffffffffffffffff166003600083815260200190815260200160002060020160009054906101000a900473ffffffffffffffffffffffffffffffffffffffff1673ffffffffffffffffffffffffffffffffffffffff160361178f57818061178b906138e3565b9250505b808061179a906138e3565b915050611707565b5060008167ffffffffffffffff8111156117bf576117be613054565b5b6040519080825280602002602001820160405280156117f857816020015b6117e5612aa1565b8152602001906001900390816117dd5790505b509050600080600190505b61180d600161248d565b8111611ad0578573ffffffffffffffffffffffffffffffffffffffff166003600083815260200190815260200160002060020160009054906101000a900473ffffffffffffffffffffffffffffffffffffffff1673ffffffffffffffffffffffffffffffffffffffff1603611abd576003600082815260200190815260200160002060405180610180016040529081600082015481526020016001820160009054906101000a900473ffffffffffffffffffffffffffffffffffffffff1673ffffffffffffffffffffffffffffffffffffffff1673ffffffffffffffffffffffffffffffffffffffff1681526020016002820160009054906101000a900473ffffffffffffffffffffffffffffffffffffffff1673ffffffffffffffffffffffffffffffffffffffff1673ffffffffffffffffffffffffffffffffffffffff16815260200160038201548152602001600482015481526020016005820180546119759061395a565b80601f01602080910402602001604051908101604052809291908181526020018280546119a19061395a565b80156119ee5780601f106119c3576101008083540402835291602001916119ee565b820191906000526020600020905b8154815290600101906020018083116119d157829003601f168201915b505050505081526020016006820160009054906101000a900460ff16151515158152602001600782015481526020016008820154815260200160098201548152602001600a820160009054906101000a900473ffffffffffffffffffffffffffffffffffffffff1673ffffffffffffffffffffffffffffffffffffffff1673ffffffffffffffffffffffffffffffffffffffff168152602001600b82015481525050838381518110611aa357611aa261398b565b5b60200260200101819052508180611ab9906138e3565b9250505b8080611ac8906138e3565b915050611803565b50819350505050919050565b60006003600085815260200190815260200160002090508060060160009054906101000a900460ff1615611b45576040517f08c379a0000000000000000000000000000000000000000000000000000000008152600401611b3c906134cf565b60405180910390fd5b8060010160009054906101000a900473ffffffffffffffffffffffffffffffffffffffff1673ffffffffffffffffffffffffffffffffffffffff163373ffffffffffffffffffffffffffffffffffffffff1614611bd7576040517f08c379a0000000000000000000000000000000000000000000000000000000008152600401611bce90613ada565b60405180910390fd5b60008311611c1a576040517f08c379a0000000000000000000000000000000000000000000000000000000008152600401611c1190613eb0565b60405180910390fd5b60008211611c5d576040517f08c379a0000000000000000000000000000000000000000000000000000000008152600401611c5490613f1c565b60405180910390fd5b8281600801819055508142611c729190613734565b81600901819055508060010160009054906101000a900473ffffffffffffffffffffffffffffffffffffffff1673ffffffffffffffffffffffffffffffffffffffff168160020160009054906101000a900473ffffffffffffffffffffffffffffffffffffffff1673ffffffffffffffffffffffffffffffffffffffff167f06b9e486c68303eb64052e0493f906f3d93a1b7149b6b8dcff221aebd16c3513868460030154878660090154604051611d2d9493929190613f3c565b60405180910390a350505050565b600260009054906101000a900473ffffffffffffffffffffffffffffffffffffffff1681565b60006003600083815260200190815260200160002090506000816000015403611dbf576040517f08c379a0000000000000000000000000000000000000000000000000000000008152600401611db690613fcd565b60405180910390fd5b6000816008015411611e06576040517f08c379a0000000000000000000000000000000000000000000000000000000008152600401611dfd906137eb565b60405180910390fd5b8060060160009054906101000a900460ff1615611e58576040517f08c379a0000000000000000000000000000000000000000000000000000000008152600401611e4f90614039565b60405180910390fd5b8060010160009054906101000a900473ffffffffffffffffffffffffffffffffffffffff1673ffffffffffffffffffffffffffffffffffffffff163373ffffffffffffffffffffffffffffffffffffffff1614611eea576040517f08c379a0000000000000000000000000000000000000000000000000000000008152600401611ee1906140a5565b60405180910390fd5b60018160060160006101000a81548160ff02191690831515021790555080600a0160009054906101000a900473ffffffffffffffffffffffffffffffffffffffff1673ffffffffffffffffffffffffffffffffffffffff166108fc82600b01549081150290604051600060405180830381858888f19350505050158015611f75573d6000803e3d6000fd5b508060020160009054906101000a900473ffffffffffffffffffffffffffffffffffffffff1673ffffffffffffffffffffffffffffffffffffffff166342842e0e8260010160009054906101000a900473ffffffffffffffffffffffffffffffffffffffff168360010160009054906101000a900473ffffffffffffffffffffffffffffffffffffffff1684600301546040518463ffffffff1660e01b81526004016120239392919061411a565b600060405180830381600087803b15801561203d57600080fd5b505af1158015612051573d6000803e3d6000fd5b505050508060010160009054906101000a900473ffffffffffffffffffffffffffffffffffffffff1673ffffffffffffffffffffffffffffffffffffffff168160020160009054906101000a900473ffffffffffffffffffffffffffffffffffffffff1673ffffffffffffffffffffffffffffffffffffffff167f2fd0fd288a849022c51c1ab9e887d7a4f89ac1126432be270b0ba773382ad66183600001548460030154604051612104929190614151565b60405180910390a35050565b60036020528060005260406000206000915090508060000154908060010160009054906101000a900473ffffffffffffffffffffffffffffffffffffffff16908060020160009054906101000a900473ffffffffffffffffffffffffffffffffffffffff16908060030154908060040154908060050180546121919061395a565b80601f01602080910402602001604051908101604052809291908181526020018280546121bd9061395a565b801561220a5780601f106121df5761010080835404028352916020019161220a565b820191906000526020600020905b8154815290600101906020018083116121ed57829003601f168201915b5050505050908060060160009054906101000a900460ff169080600701549080600801549080600901549080600a0160009054906101000a900473ffffffffffffffffffffffffffffffffffffffff169080600b015490508c565b60006003600084815260200190815260200160002090508060010160009054906101000a900473ffffffffffffffffffffffffffffffffffffffff1673ffffffffffffffffffffffffffffffffffffffff163373ffffffffffffffffffffffffffffffffffffffff161461230e576040517f08c379a000000000000000000000000000000000000000000000000000000000815260040161230590613ada565b60405180910390fd5b81816004018190555060008160060160006101000a81548160ff0219169083151502179055508060010160009054906101000a900473ffffffffffffffffffffffffffffffffffffffff1673ffffffffffffffffffffffffffffffffffffffff168160020160009054906101000a900473ffffffffffffffffffffffffffffffffffffffff1673ffffffffffffffffffffffffffffffffffffffff167fcf4e2b398f8f130dfa20ec831a8ad0f918b3c680e9dbad3b2230ad0192f52b16858460030154868660050187600701546040516123ec9594939291906141fe565b60405180910390a3505050565b6000612405600161248d565b905090565b6124126124b1565b600073ffffffffffffffffffffffffffffffffffffffff168173ffffffffffffffffffffffffffffffffffffffff1603612481576040517f08c379a0000000000000000000000000000000000000000000000000000000008152600401612478906142ca565b60405180910390fd5b61248a8161252f565b50565b600081600001549050919050565b6001816000016000828254019250508190555050565b6124b9612a99565b73ffffffffffffffffffffffffffffffffffffffff166124d76116d4565b73ffffffffffffffffffffffffffffffffffffffff161461252d576040517f08c379a000000000000000000000000000000000000000000000000000000000815260040161252490614336565b60405180910390fd5b565b60008060009054906101000a900473ffffffffffffffffffffffffffffffffffffffff169050816000806101000a81548173ffffffffffffffffffffffffffffffffffffffff021916908373ffffffffffffffffffffffffffffffffffffffff1602179055508173ffffffffffffffffffffffffffffffffffffffff168173ffffffffffffffffffffffffffffffffffffffff167f8be0079c531659141344cd1fd0a4f28419497f9722a3daafe3b4186f6b6457e060405160405180910390a35050565b600060036000838152602001908152602001600020905060008160020160009054906101000a900473ffffffffffffffffffffffffffffffffffffffff1673ffffffffffffffffffffffffffffffffffffffff16636352211e83600301546040518263ffffffff1660e01b815260040161266d9190612bfe565b602060405180830381865afa15801561268a573d6000803e3d6000fd5b505050506040513d601f19601f820116820180604052508101906126ae9190613a3b565b90508160060160009054906101000a900460ff1615612702576040517f08c379a00000000000000000000000000000000000000000000000000000000081526004016126f9906134cf565b60405180910390fd5b6000826008015411612749576040517f08c379a0000000000000000000000000000000000000000000000000000000008152600401612740906137eb565b60405180910390fd5b8160090154421015612790576040517f08c379a0000000000000000000000000000000000000000000000000000000008152600401612787906143a2565b60405180910390fd5b8160020160009054906101000a900473ffffffffffffffffffffffffffffffffffffffff1673ffffffffffffffffffffffffffffffffffffffff166342842e0e8284600a0160009054906101000a900473ffffffffffffffffffffffffffffffffffffffff1685600301546040518463ffffffff1660e01b8152600401612819939291906143c2565b600060405180830381600087803b15801561283357600080fd5b505af1158015612847573d6000803e3d6000fd5b505050508160010160009054906101000a900473ffffffffffffffffffffffffffffffffffffffff1673ffffffffffffffffffffffffffffffffffffffff166108fc83600b01549081150290604051600060405180830381858888f193505050501580156128b9573d6000803e3d6000fd5b5060018260060160006101000a81548160ff02191690831515021790555081600a0160009054906101000a900473ffffffffffffffffffffffffffffffffffffffff168260010160006101000a81548173ffffffffffffffffffffffffffffffffffffffff021916908373ffffffffffffffffffffffffffffffffffffffff1602179055506000826008018190555060008260090181905550600082600a0160006101000a81548173ffffffffffffffffffffffffffffffffffffffff021916908373ffffffffffffffffffffffffffffffffffffffff160217905550600082600b018190555081600a0160009054906101000a900473ffffffffffffffffffffffffffffffffffffffff1673ffffffffffffffffffffffffffffffffffffffff168260010160009054906101000a900473ffffffffffffffffffffffffffffffffffffffff1673ffffffffffffffffffffffffffffffffffffffff168360020160009054906101000a900473ffffffffffffffffffffffffffffffffffffffff1673ffffffffffffffffffffffffffffffffffffffff167f6c47fd8bd138d7325768cd34fb84465cf68b7d556baca7bdadea071c5c9a1b0986866003015487600b0154604051612a8c93929190613768565b60405180910390a4505050565b600033905090565b60405180610180016040528060008152602001600073ffffffffffffffffffffffffffffffffffffffff168152602001600073ffffffffffffffffffffffffffffffffffffffff168152602001600081526020016000815260200160608152602001600015158152602001600081526020016000815260200160008152602001600073ffffffffffffffffffffffffffffffffffffffff168152602001600081525090565b6000604051905090565b600080fd5b600080fd5b600073ffffffffffffffffffffffffffffffffffffffff82169050919050565b6000612b8582612b5a565b9050919050565b612b9581612b7a565b8114612ba057600080fd5b50565b600081359050612bb281612b8c565b92915050565b600060208284031215612bce57612bcd612b50565b5b6000612bdc84828501612ba3565b91505092915050565b6000819050919050565b612bf881612be5565b82525050565b6000602082019050612c136000830184612bef565b92915050565b612c2281612be5565b8114612c2d57600080fd5b50565b600081359050612c3f81612c19565b92915050565b600060208284031215612c5b57612c5a612b50565b5b6000612c6984828501612c30565b91505092915050565b6000612c7d82612b5a565b9050919050565b612c8d81612c72565b8114612c9857600080fd5b50565b600081359050612caa81612c84565b92915050565b600060208284031215612cc657612cc5612b50565b5b6000612cd484828501612c9b565b91505092915050565b600081519050919050565b600082825260208201905092915050565b6000819050602082019050919050565b612d1281612be5565b82525050565b612d2181612c72565b82525050565b612d3081612b7a565b82525050565b600081519050919050565b600082825260208201905092915050565b60005b83811015612d70578082015181840152602081019050612d55565b60008484015250505050565b6000601f19601f8301169050919050565b6000612d9882612d36565b612da28185612d41565b9350612db2818560208601612d52565b612dbb81612d7c565b840191505092915050565b60008115159050919050565b612ddb81612dc6565b82525050565b600061018083016000830151612dfa6000860182612d09565b506020830151612e0d6020860182612d18565b506040830151612e206040860182612d27565b506060830151612e336060860182612d09565b506080830151612e466080860182612d09565b5060a083015184820360a0860152612e5e8282612d8d565b91505060c0830151612e7360c0860182612dd2565b5060e0830151612e8660e0860182612d09565b50610100830151612e9b610100860182612d09565b50610120830151612eb0610120860182612d09565b50610140830151612ec5610140860182612d18565b50610160830151612eda610160860182612d09565b508091505092915050565b6000612ef18383612de1565b905092915050565b6000602082019050919050565b6000612f1182612cdd565b612f1b8185612ce8565b935083602082028501612f2d85612cf9565b8060005b85811015612f695784840389528151612f4a8582612ee5565b9450612f5583612ef9565b925060208a01995050600181019050612f31565b50829750879550505050505092915050565b60006020820190508181036000830152612f958184612f06565b905092915050565b600080fd5b600080fd5b600080fd5b60008083601f840112612fc257612fc1612f9d565b5b8235905067ffffffffffffffff811115612fdf57612fde612fa2565b5b602083019150836020820283011115612ffb57612ffa612fa7565b5b9250929050565b6000806020838503121561301957613018612b50565b5b600083013567ffffffffffffffff81111561303757613036612b55565b5b61304385828601612fac565b92509250509250929050565b600080fd5b7f4e487b7100000000000000000000000000000000000000000000000000000000600052604160045260246000fd5b61308c82612d7c565b810181811067ffffffffffffffff821117156130ab576130aa613054565b5b80604052505050565b60006130be612b46565b90506130ca8282613083565b919050565b600067ffffffffffffffff8211156130ea576130e9613054565b5b6130f382612d7c565b9050602081019050919050565b82818337600083830152505050565b600061312261311d846130cf565b6130b4565b90508281526020810184848401111561313e5761313d61304f565b5b613149848285613100565b509392505050565b600082601f83011261316657613165612f9d565b5b813561317684826020860161310f565b91505092915050565b600080600080600060a0868803121561319b5761319a612b50565b5b60006131a988828901612ba3565b95505060206131ba88828901612c30565b94505060406131cb88828901612c30565b935050606086013567ffffffffffffffff8111156131ec576131eb612b55565b5b6131f888828901613151565b925050608061320988828901612c30565b9150509295509295909350565b61321f81612b7a565b82525050565b600060208201905061323a6000830184613216565b92915050565b60008060006060848603121561325957613258612b50565b5b600061326786828701612c30565b935050602061327886828701612c30565b925050604061328986828701612c30565b9150509250925092565b61329c81612c72565b82525050565b60006020820190506132b76000830184613293565b92915050565b600082825260208201905092915050565b60006132d982612d36565b6132e381856132bd565b93506132f3818560208601612d52565b6132fc81612d7c565b840191505092915050565b61331081612dc6565b82525050565b60006101808201905061332c600083018f612bef565b613339602083018e613293565b613346604083018d613216565b613353606083018c612bef565b613360608083018b612bef565b81810360a0830152613372818a6132ce565b905061338160c0830189613307565b61338e60e0830188612bef565b61339c610100830187612bef565b6133aa610120830186612bef565b6133b8610140830185613293565b6133c6610160830184612bef565b9d9c50505050505050505050505050565b600080604083850312156133ee576133ed612b50565b5b60006133fc85828601612c30565b925050602061340d85828601612c30565b9150509250929050565b7f4e6f7420656e6f75676820455448000000000000000000000000000000000000600082015250565b600061344d600e836132bd565b915061345882613417565b602082019050919050565b6000602082019050818103600083015261347c81613440565b9050919050565b7f416c726561647920736f6c64206f757400000000000000000000000000000000600082015250565b60006134b96010836132bd565b91506134c482613483565b602082019050919050565b600060208201905081810360008301526134e8816134ac565b9050919050565b7f596f752063616e27742062757920796f7572206f776e204e4654000000000000600082015250565b6000613525601a836132bd565b9150613530826134ef565b602082019050919050565b6000602082019050818103600083015261355481613518565b9050919050565b7f447572696e67207468652061756374696f6e2c20796f752063616e277420627560008201527f792074686973204e465400000000000000000000000000000000000000000000602082015250565b60006135b7602a836132bd565b91506135c28261355b565b604082019050919050565b600060208201905081810360008301526135e6816135aa565b9050919050565b7f4e487b7100000000000000000000000000000000000000000000000000000000600052601260045260246000fd5b7f4e487b7100000000000000000000000000000000000000000000000000000000600052601160045260246000fd5b600061365682612be5565b915061366183612be5565b925082613671576136706135ed565b5b828204905092915050565b600061368782612be5565b915061369283612be5565b92508282039050818111156136aa576136a961361c565b5b92915050565b6000815190506136bf81612c84565b92915050565b6000602082840312156136db576136da612b50565b5b60006136e9848285016136b0565b91505092915050565b60006136fd82612be5565b915061370883612be5565b925082820261371681612be5565b9150828204841483151761372d5761372c61361c565b5b5092915050565b600061373f82612be5565b915061374a83612be5565b92508282019050808211156137625761376161361c565b5b92915050565b600060608201905061377d6000830186612bef565b61378a6020830185612bef565b6137976040830184612bef565b949350505050565b7f41756374696f6e206e6f74207374617274656400000000000000000000000000600082015250565b60006137d56013836132bd565b91506137e08261379f565b602082019050919050565b60006020820190508181036000830152613804816137c8565b9050919050565b7f41756374696f6e206e6f7420656e646564207965740000000000000000000000600082015250565b60006138416015836132bd565b915061384c8261380b565b602082019050919050565b6000602082019050818103600083015261387081613834565b9050919050565b7f42696420616d6f756e7420697320746f6f206c6f770000000000000000000000600082015250565b60006138ad6015836132bd565b91506138b882613877565b602082019050919050565b600060208201905081810360008301526138dc816138a0565b9050919050565b60006138ee82612be5565b91507fffffffffffffffffffffffffffffffffffffffffffffffffffffffffffffffff82036139205761391f61361c565b5b600182019050919050565b7f4e487b7100000000000000000000000000000000000000000000000000000000600052602260045260246000fd5b6000600282049050600182168061397257607f821691505b6020821081036139855761398461392b565b5b50919050565b7f4e487b7100000000000000000000000000000000000000000000000000000000600052603260045260246000fd5b7f4e6f204554482073656e74000000000000000000000000000000000000000000600082015250565b60006139f0600b836132bd565b91506139fb826139ba565b602082019050919050565b60006020820190508181036000830152613a1f816139e3565b9050919050565b600081519050613a3581612b8c565b92915050565b600060208284031215613a5157613a50612b50565b5b6000613a5f84828501613a26565b91505092915050565b7f596f7520617265206e6f7420746865206f776e6572206f662074686973204e4660008201527f5400000000000000000000000000000000000000000000000000000000000000602082015250565b6000613ac46021836132bd565b9150613acf82613a68565b604082019050919050565b60006020820190508181036000830152613af381613ab7565b9050919050565b60008190508160005260206000209050919050565b60006020601f8301049050919050565b600082821b905092915050565b600060088302613b5c7fffffffffffffffffffffffffffffffffffffffffffffffffffffffffffffffff82613b1f565b613b668683613b1f565b95508019841693508086168417925050509392505050565b6000819050919050565b6000613ba3613b9e613b9984612be5565b613b7e565b612be5565b9050919050565b6000819050919050565b613bbd83613b88565b613bd1613bc982613baa565b848454613b2c565b825550505050565b600090565b613be6613bd9565b613bf1818484613bb4565b505050565b5b81811015613c1557613c0a600082613bde565b600181019050613bf7565b5050565b601f821115613c5a57613c2b81613afa565b613c3484613b0f565b81016020851015613c43578190505b613c57613c4f85613b0f565b830182613bf6565b50505b505050565b600082821c905092915050565b6000613c7d60001984600802613c5f565b1980831691505092915050565b6000613c968383613c6c565b9150826002028217905092915050565b613caf82612d36565b67ffffffffffffffff811115613cc857613cc7613054565b5b613cd2825461395a565b613cdd828285613c19565b600060209050601f831160018114613d105760008415613cfe578287015190505b613d088582613c8a565b865550613d70565b601f198416613d1e86613afa565b60005b82811015613d4657848901518255600182019150602085019450602081019050613d21565b86831015613d635784890151613d5f601f891682613c6c565b8355505b6001600288020188555050505b505050505050565b600060a082019050613d8d6000830188612bef565b613d9a6020830187612bef565b613da76040830186612bef565b8181036060830152613db981856132ce565b9050613dc86080830184612bef565b9695505050505050565b7f4f6e6c79206c6173742068696768657374206269646465722063616e20656e6460008201527f207468652061756374696f6e0000000000000000000000000000000000000000602082015250565b6000613e2e602c836132bd565b9150613e3982613dd2565b604082019050919050565b60006020820190508181036000830152613e5d81613e21565b9050919050565b7f496e76616c6964206f70656e696e672070726963650000000000000000000000600082015250565b6000613e9a6015836132bd565b9150613ea582613e64565b602082019050919050565b60006020820190508181036000830152613ec981613e8d565b9050919050565b7f496e76616c69642061756374696f6e206475726174696f6e0000000000000000600082015250565b6000613f066018836132bd565b9150613f1182613ed0565b602082019050919050565b60006020820190508181036000830152613f3581613ef9565b9050919050565b6000608082019050613f516000830187612bef565b613f5e6020830186612bef565b613f6b6040830185612bef565b613f786060830184612bef565b95945050505050565b7f546f6b656e206e6f7420666f756e640000000000000000000000000000000000600082015250565b6000613fb7600f836132bd565b9150613fc282613f81565b602082019050919050565b60006020820190508181036000830152613fe681613faa565b9050919050565b7f546f6b656e20697320616c726561647920736f6c640000000000000000000000600082015250565b60006140236015836132bd565b915061402e82613fed565b602082019050919050565b6000602082019050818103600083015261405281614016565b9050919050565b7f596f7520617265206e6f74207468652073656c6c657200000000000000000000600082015250565b600061408f6016836132bd565b915061409a82614059565b602082019050919050565b600060208201905081810360008301526140be81614082565b9050919050565b60006140e06140db6140d684612b5a565b613b7e565b612b5a565b9050919050565b60006140f2826140c5565b9050919050565b6000614104826140e7565b9050919050565b614114816140f9565b82525050565b600060608201905061412f600083018661410b565b61413c602083018561410b565b6141496040830184612bef565b949350505050565b60006040820190506141666000830185612bef565b6141736020830184612bef565b9392505050565b600081546141878161395a565b61419181866132bd565b945060018216600081146141ac57600181146141c2576141f5565b60ff1983168652811515602002860193506141f5565b6141cb85613afa565b60005b838110156141ed578154818901526001820191506020810190506141ce565b808801955050505b50505092915050565b600060a0820190506142136000830188612bef565b6142206020830187612bef565b61422d6040830186612bef565b818103606083015261423f818561417a565b905061424e6080830184612bef565b9695505050505050565b7f4f776e61626c653a206e6577206f776e657220697320746865207a65726f206160008201527f6464726573730000000000000000000000000000000000000000000000000000602082015250565b60006142b46026836132bd565b91506142bf82614258565b604082019050919050565b600060208201905081810360008301526142e3816142a7565b9050919050565b7f4f776e61626c653a2063616c6c6572206973206e6f7420746865206f776e6572600082015250565b60006143206020836132bd565b915061432b826142ea565b602082019050919050565b6000602082019050818103600083015261434f81614313565b9050919050565b7f41756374696f6e20686173206e6f7420656e6465642079657400000000000000600082015250565b600061438c6019836132bd565b915061439782614356565b602082019050919050565b600060208201905081810360008301526143bb8161437f565b9050919050565b60006060820190506143d76000830186613216565b6143e4602083018561410b565b6143f16040830184612bef565b94935050505056fea2646970667358221220eb61a9e003cd4054a90b124889c0372009c2f21746b822c6dcd93121e14f5a0c64736f6c63430008120033",
  "immutableReferences": {},
  "source": "// SPDX-License-Identifier: MIT\npragma solidity ^0.8.1;\n\nimport \"../node_modules/@openzeppelin/contracts/token/ERC721/ERC721.sol\";\nimport \"../node_modules/@openzeppelin/contracts/token/ERC721/IERC721.sol\";\nimport \"../node_modules/@openzeppelin/contracts/access/Ownable.sol\";\nimport \"../node_modules/@openzeppelin/contracts/utils/Counters.sol\";\nimport \"./RTToken.sol\";\n\n\ncontract Marketplace is Ownable {\n    using Counters for Counters.Counter;\n    Counters.Counter private _Ids;\n    address payable public marketAddress;\n\n    struct TokenInfo {\n        uint256 id;\n        address payable seller;\n        address NFTaddress;\n        uint256 tokenId;\n        uint256 price;\n        string metadata;\n        bool sold;\n        uint256 creatorFee;\n        uint256 openingPrice; // \n        uint256 auctionEndTime; //   \n        address payable highestBidder; //   \n        uint256 highestBid; //  \n    }\n\n    mapping(uint256 => TokenInfo) public TokenOnSale;\n    mapping(address => uint256) public lowestPriceByCollection;\n    mapping(address => uint256) public totalSalesByCollection;\n\n    event Add(uint256 id, address indexed NftAddress, address indexed seller, uint256 tokenId, uint256 price, string metadata, uint256 creatorFee);\n    event Buy(uint256 id, address indexed NftAddress, address indexed seller, address indexed buyer, uint256 tokenId, uint256 price);\n    event AuctionCreated(uint256 id, address indexed NftAddress, address indexed seller, uint256 tokenId, uint256 openingPrice, uint256 auctionEndTime);\n    event BidderChanged(uint256 id, address indexed NftAddress, address indexed bidder, uint256 tokenId, uint256 bidAmount);\n    event AuctionEnded(uint256 id, address indexed NftAddress, address indexed seller, address indexed winner, uint256 tokenId, uint256 winningBid);\n    event AuctionCancelled(uint256 id, address indexed NftAddress, address indexed seller, uint256 tokenId);\n\n    constructor() {\n        marketAddress = payable(msg.sender);\n    }\n\n    function getLatestId() public view returns (uint256) {\n        return _Ids.current();\n    }\n\n    function addNftToMarket(address _NFTaddress, uint256 _tokenId, uint256 _price, string memory _metadata, uint256 _creatorFee) external {\n        require(ERC721(_NFTaddress).ownerOf(_tokenId) == msg.sender, \"You are not the owner of this NFT\");\n\n        _Ids.increment();\n        TokenOnSale[_Ids.current()] = TokenInfo(_Ids.current(), payable(msg.sender), _NFTaddress, _tokenId, _price, _metadata, false, _creatorFee, 0, 0, payable(address(0)), 0);\n        if (_price < lowestPriceByCollection[_NFTaddress] || lowestPriceByCollection[_NFTaddress] == 0) {\n            lowestPriceByCollection[_NFTaddress] = _price;\n        }\n\n        emit Add(_Ids.current(), _NFTaddress, msg.sender, _tokenId, _price, _metadata, _creatorFee);\n    }\n\n\n    function buyNfts(uint256[] calldata _ids) external payable {\n        require(msg.value > 0, \"No ETH sent\");\n\n        for (uint256 i = 0; i < _ids.length; i++) {\n            buyNft(_ids[i]);\n        }\n    }\n\n    function buyNft(uint256 _id) public payable {\n        TokenInfo storage token = TokenOnSale[_id];\n        require(msg.value >= token.price, \"Not enough ETH\");\n        require(!token.sold, \"Already sold out\");\n        require(msg.sender != token.seller, \"You can't buy your own NFT\");\n        require(token.openingPrice == 0, \"During the auction, you can't buy this NFT\");\n\n        uint256 marketFee = token.price / 100;\n        uint256 creatorRoyalty = 0;\n        uint256 sellerAmount = token.price - marketFee - creatorRoyalty;\n\n        marketAddress.transfer(marketFee);\n\n        address payable creator = RTToken(token.NFTaddress).getCreator();\n        if (token.seller != creator) {\n            creatorRoyalty = token.price * token.creatorFee / 1000;\n            creator.transfer(creatorRoyalty);\n        }\n        token.seller.transfer(sellerAmount);\n\n        totalSalesByCollection[token.NFTaddress] += token.price;\n        token.sold = true;\n        token.seller = payable(msg.sender);\n\n        emit Buy(_id, token.NFTaddress, token.seller, msg.sender, token.tokenId, token.price);\n    }\n\n    function reAddNftToMarket(uint256 _id, uint256 _price) external {\n        TokenInfo storage token = TokenOnSale[_id];\n        require(msg.sender == token.seller, \"You are not the owner of this NFT\");\n\n        token.price = _price;\n        token.sold = false;\n\n        emit Add(_id, token.NFTaddress, token.seller, token.tokenId, _price, token.metadata, token.creatorFee);\n    }\n\n    function startAuction(uint256 _id, uint256 _openingPrice, uint256 _duration) external {\n        TokenInfo storage token = TokenOnSale[_id];\n        require(!token.sold, \"Already sold out\");\n        require(msg.sender == token.seller, \"You are not the owner of this NFT\");\n        require(_openingPrice > 0, \"Invalid opening price\");\n        require(_duration > 0, \"Invalid auction duration\");\n\n        token.openingPrice = _openingPrice;\n        token.auctionEndTime = block.timestamp + _duration;\n\n        emit AuctionCreated(_id, token.NFTaddress, token.seller, token.tokenId, _openingPrice, token.auctionEndTime);\n    }\n\n    function bidInAuction(uint256 _id) external payable {\n        TokenInfo storage token = TokenOnSale[_id];\n        require(!token.sold, \"Already sold out\");\n        require(token.openingPrice > 0, \"Auction not started\");\n        require(block.timestamp < token.auctionEndTime, \"Auction not ended yet\");\n        require(msg.value > token.highestBid, \"Bid amount is too low\");\n\n        if (token.highestBid != 0) {\n            token.highestBidder.transfer(token.highestBid); //      \n        }\n\n        token.highestBidder = payable(msg.sender);\n        token.highestBid = msg.value;\n\n        emit BidderChanged(_id, token.NFTaddress, msg.sender, token.tokenId, msg.value);\n    }\n\n    function endAuction(uint256 _id) internal {\n        TokenInfo storage token = TokenOnSale[_id];\n        address owner = IERC721(token.NFTaddress).ownerOf(token.tokenId);\n\n        require(!token.sold, \"Already sold out\");\n        require(token.openingPrice > 0, \"Auction not started\");\n        require(block.timestamp >= token.auctionEndTime, \"Auction has not ended yet\");\n        // require(owner == msg.sender, \"You are not the owner of this NFT\");\n\n        //      NFT    \n        IERC721(token.NFTaddress).safeTransferFrom(owner, token.highestBidder, token.tokenId);\n        token.seller.transfer(token.highestBid);\n        token.sold = true;\n        token.seller = payable(token.highestBidder);\n\n        //    \n        token.openingPrice = 0;\n        token.auctionEndTime = 0;\n        token.highestBidder = payable(address(0));\n        token.highestBid = 0;\n\n        emit AuctionEnded(_id, token.NFTaddress, token.seller, token.highestBidder, token.tokenId, token.highestBid);\n    }\n\n    function timer() external {\n        for (uint256 i = 1; i <= _Ids.current(); i++) {\n            TokenInfo storage token = TokenOnSale[i];\n            if (!token.sold && token.openingPrice > 0 && block.timestamp >= token.auctionEndTime && token.highestBidder != address(0)) {\n                require(msg.sender == token.highestBidder, \"Only last highest bidder can end the auction\");\n                endAuction(i);\n            }\n        }\n    }\n\n    function cancelAuction(uint256 _id) external {\n        TokenInfo storage token = TokenOnSale[_id];\n        require(token.id != 0, \"Token not found\");\n        require(token.openingPrice > 0, \"Auction not started\");\n        require(!token.sold, \"Token is already sold\");\n        require(msg.sender == token.seller, \"You are not the seller\");\n\n        token.sold = true;\n        token.highestBidder.transfer(token.highestBid);\n        IERC721(token.NFTaddress).safeTransferFrom(token.seller, token.seller, token.tokenId);\n\n        emit AuctionCancelled(token.id, token.NFTaddress, token.seller, token.tokenId);\n    }\n\n    function getAllTokensInCollection(address _NFTaddress) public view returns (TokenInfo[] memory) {\n        uint256 count = 0;\n        for (uint256 i = 1; i <= _Ids.current(); i++) {\n            if (TokenOnSale[i].NFTaddress == _NFTaddress) {\n                count++;\n            }\n        }\n        TokenInfo[] memory tokens = new TokenInfo[](count);\n\n        uint256 index = 0;\n        for (uint256 i = 1; i <= _Ids.current(); i++) {\n            if (TokenOnSale[i].NFTaddress == _NFTaddress) {\n                tokens[index] = TokenOnSale[i];\n                index++;\n            }\n        }\n\n        return tokens;\n    }\n\n    function getUserTokens(address payable _address) public view returns (TokenInfo[] memory) {\n        uint256 count = 0;\n        for (uint256 i = 1; i <= _Ids.current(); i++) {\n            if (TokenOnSale[i].seller == _address) {\n                count++;\n            }\n        }\n        TokenInfo[] memory tokens = new TokenInfo[](count);\n\n        uint256 index = 0;\n        for (uint256 i = 1; i <= _Ids.current(); i++) {\n            if (TokenOnSale[i].seller == _address) {\n                tokens[index] = TokenOnSale[i];\n                index++;\n            }\n        }\n\n        return tokens;\n    }\n}\n",
  "sourcePath": "/Users/kimjh/Documents/workspace/ZDB/rooftop/nft/contracts/Marketplace.sol",
  "compiler": {
    "name": "solc",
    "version": "0.8.18+commit.87f61d96.Emscripten.clang"
  },
  "schemaVersion": "3.4.14",
  "updatedAt": "2023-06-27T07:58:52.977Z",
  "networkType": "ethereum",
  "devdoc": {
    "kind": "dev",
    "methods": {
      "owner()": {
        "details": "Returns the address of the current owner."
      },
      "renounceOwnership()": {
        "details": "Leaves the contract without owner. It will not be possible to call `onlyOwner` functions. Can only be called by the current owner. NOTE: Renouncing ownership will leave the contract without an owner, thereby disabling any functionality that is only available to the owner."
      },
      "transferOwnership(address)": {
        "details": "Transfers ownership of the contract to a new account (`newOwner`). Can only be called by the current owner."
      }
    },
    "version": 1
  },
  "userdoc": {
    "kind": "user",
    "methods": {},
    "version": 1
  }
}