{
  "contractName": "Marketplace",
  "abi": [
    {
      "inputs": [],
      "stateMutability": "nonpayable",
      "type": "constructor"
    },
    {
      "anonymous": false,
      "inputs": [
        {
          "indexed": false,
          "internalType": "uint256",
          "name": "id",
          "type": "uint256"
        },
        {
          "indexed": true,
          "internalType": "address",
          "name": "NftAddress",
          "type": "address"
        },
        {
          "indexed": true,
          "internalType": "address",
          "name": "seller",
          "type": "address"
        },
        {
          "indexed": false,
          "internalType": "uint256",
          "name": "tokenId",
          "type": "uint256"
        },
        {
          "indexed": false,
          "internalType": "uint256",
          "name": "price",
          "type": "uint256"
        },
        {
          "indexed": false,
          "internalType": "string",
          "name": "metadata",
          "type": "string"
        },
        {
          "indexed": false,
          "internalType": "uint256",
          "name": "creatorFee",
          "type": "uint256"
        }
      ],
      "name": "Add",
      "type": "event"
    },
    {
      "anonymous": false,
      "inputs": [
        {
          "indexed": false,
          "internalType": "uint256",
          "name": "id",
          "type": "uint256"
        },
        {
          "indexed": true,
          "internalType": "address",
          "name": "NftAddress",
          "type": "address"
        },
        {
          "indexed": true,
          "internalType": "address",
          "name": "seller",
          "type": "address"
        },
        {
          "indexed": false,
          "internalType": "uint256",
          "name": "tokenId",
          "type": "uint256"
        }
      ],
      "name": "AuctionCancelled",
      "type": "event"
    },
    {
      "anonymous": false,
      "inputs": [
        {
          "indexed": false,
          "internalType": "uint256",
          "name": "id",
          "type": "uint256"
        },
        {
          "indexed": true,
          "internalType": "address",
          "name": "NftAddress",
          "type": "address"
        },
        {
          "indexed": true,
          "internalType": "address",
          "name": "seller",
          "type": "address"
        },
        {
          "indexed": false,
          "internalType": "uint256",
          "name": "tokenId",
          "type": "uint256"
        },
        {
          "indexed": false,
          "internalType": "uint256",
          "name": "openingPrice",
          "type": "uint256"
        },
        {
          "indexed": false,
          "internalType": "uint256",
          "name": "auctionEndTime",
          "type": "uint256"
        }
      ],
      "name": "AuctionCreated",
      "type": "event"
    },
    {
      "anonymous": false,
      "inputs": [
        {
          "indexed": false,
          "internalType": "uint256",
          "name": "id",
          "type": "uint256"
        },
        {
          "indexed": true,
          "internalType": "address",
          "name": "NftAddress",
          "type": "address"
        },
        {
          "indexed": true,
          "internalType": "address",
          "name": "seller",
          "type": "address"
        },
        {
          "indexed": true,
          "internalType": "address",
          "name": "winner",
          "type": "address"
        },
        {
          "indexed": false,
          "internalType": "uint256",
          "name": "tokenId",
          "type": "uint256"
        },
        {
          "indexed": false,
          "internalType": "uint256",
          "name": "winningBid",
          "type": "uint256"
        }
      ],
      "name": "AuctionEnded",
      "type": "event"
    },
    {
      "anonymous": false,
      "inputs": [
        {
          "indexed": false,
          "internalType": "uint256",
          "name": "id",
          "type": "uint256"
        },
        {
          "indexed": true,
          "internalType": "address",
          "name": "NftAddress",
          "type": "address"
        },
        {
          "indexed": true,
          "internalType": "address",
          "name": "bidder",
          "type": "address"
        },
        {
          "indexed": false,
          "internalType": "uint256",
          "name": "tokenId",
          "type": "uint256"
        },
        {
          "indexed": false,
          "internalType": "uint256",
          "name": "bidAmount",
          "type": "uint256"
        }
      ],
      "name": "BidderChanged",
      "type": "event"
    },
    {
      "anonymous": false,
      "inputs": [
        {
          "indexed": false,
          "internalType": "uint256",
          "name": "id",
          "type": "uint256"
        },
        {
          "indexed": true,
          "internalType": "address",
          "name": "NftAddress",
          "type": "address"
        },
        {
          "indexed": true,
          "internalType": "address",
          "name": "seller",
          "type": "address"
        },
        {
          "indexed": true,
          "internalType": "address",
          "name": "buyer",
          "type": "address"
        },
        {
          "indexed": false,
          "internalType": "uint256",
          "name": "tokenId",
          "type": "uint256"
        },
        {
          "indexed": false,
          "internalType": "uint256",
          "name": "price",
          "type": "uint256"
        }
      ],
      "name": "Buy",
      "type": "event"
    },
    {
      "anonymous": false,
      "inputs": [
        {
          "indexed": true,
          "internalType": "address",
          "name": "previousOwner",
          "type": "address"
        },
        {
          "indexed": true,
          "internalType": "address",
          "name": "newOwner",
          "type": "address"
        }
      ],
      "name": "OwnershipTransferred",
      "type": "event"
    },
    {
      "inputs": [
        {
          "internalType": "uint256",
          "name": "",
          "type": "uint256"
        }
      ],
      "name": "TokenOnSale",
      "outputs": [
        {
          "internalType": "uint256",
          "name": "id",
          "type": "uint256"
        },
        {
          "internalType": "address payable",
          "name": "seller",
          "type": "address"
        },
        {
          "internalType": "address",
          "name": "NFTaddress",
          "type": "address"
        },
        {
          "internalType": "uint256",
          "name": "tokenId",
          "type": "uint256"
        },
        {
          "internalType": "uint256",
          "name": "price",
          "type": "uint256"
        },
        {
          "internalType": "string",
          "name": "metadata",
          "type": "string"
        },
        {
          "internalType": "bool",
          "name": "sold",
          "type": "bool"
        },
        {
          "internalType": "uint256",
          "name": "creatorFee",
          "type": "uint256"
        },
        {
          "internalType": "uint256",
          "name": "openingPrice",
          "type": "uint256"
        },
        {
          "internalType": "uint256",
          "name": "auctionEndTime",
          "type": "uint256"
        },
        {
          "internalType": "address payable",
          "name": "highestBidder",
          "type": "address"
        },
        {
          "internalType": "uint256",
          "name": "highestBid",
          "type": "uint256"
        }
      ],
      "stateMutability": "view",
      "type": "function",
      "constant": true
    },
    {
      "inputs": [
        {
          "internalType": "address",
          "name": "",
          "type": "address"
        }
      ],
      "name": "lowestPriceByCollection",
      "outputs": [
        {
          "internalType": "uint256",
          "name": "",
          "type": "uint256"
        }
      ],
      "stateMutability": "view",
      "type": "function",
      "constant": true
    },
    {
      "inputs": [],
      "name": "marketAddress",
      "outputs": [
        {
          "internalType": "address payable",
          "name": "",
          "type": "address"
        }
      ],
      "stateMutability": "view",
      "type": "function",
      "constant": true
    },
    {
      "inputs": [],
      "name": "owner",
      "outputs": [
        {
          "internalType": "address",
          "name": "",
          "type": "address"
        }
      ],
      "stateMutability": "view",
      "type": "function",
      "constant": true
    },
    {
      "inputs": [],
      "name": "renounceOwnership",
      "outputs": [],
      "stateMutability": "nonpayable",
      "type": "function"
    },
    {
      "inputs": [
        {
          "internalType": "address",
          "name": "",
          "type": "address"
        }
      ],
      "name": "totalSalesByCollection",
      "outputs": [
        {
          "internalType": "uint256",
          "name": "",
          "type": "uint256"
        }
      ],
      "stateMutability": "view",
      "type": "function",
      "constant": true
    },
    {
      "inputs": [
        {
          "internalType": "address",
          "name": "newOwner",
          "type": "address"
        }
      ],
      "name": "transferOwnership",
      "outputs": [],
      "stateMutability": "nonpayable",
      "type": "function"
    },
    {
      "inputs": [
        {
          "internalType": "address",
          "name": "_NFTaddress",
          "type": "address"
        },
        {
          "internalType": "uint256",
          "name": "_tokenId",
          "type": "uint256"
        },
        {
          "internalType": "uint256",
          "name": "_price",
          "type": "uint256"
        },
        {
          "internalType": "string",
          "name": "_metadata",
          "type": "string"
        },
        {
          "internalType": "uint256",
          "name": "_creatorFee",
          "type": "uint256"
        }
      ],
      "name": "addNftToMarket",
      "outputs": [],
      "stateMutability": "nonpayable",
      "type": "function"
    },
    {
      "inputs": [
        {
          "internalType": "uint256[]",
          "name": "_ids",
          "type": "uint256[]"
        }
      ],
      "name": "buyNfts",
      "outputs": [],
      "stateMutability": "payable",
      "type": "function",
      "payable": true
    },
    {
      "inputs": [
        {
          "internalType": "uint256",
          "name": "_id",
          "type": "uint256"
        }
      ],
      "name": "buyNft",
      "outputs": [],
      "stateMutability": "payable",
      "type": "function",
      "payable": true
    },
    {
      "inputs": [
        {
          "internalType": "uint256",
          "name": "_id",
          "type": "uint256"
        },
        {
          "internalType": "uint256",
          "name": "_price",
          "type": "uint256"
        }
      ],
      "name": "reAddNftToMarket",
      "outputs": [],
      "stateMutability": "nonpayable",
      "type": "function"
    },
    {
      "inputs": [
        {
          "internalType": "uint256",
          "name": "_id",
          "type": "uint256"
        },
        {
          "internalType": "uint256",
          "name": "_openingPrice",
          "type": "uint256"
        },
        {
          "internalType": "uint256",
          "name": "_duration",
          "type": "uint256"
        }
      ],
      "name": "startAuction",
      "outputs": [],
      "stateMutability": "nonpayable",
      "type": "function"
    },
    {
      "inputs": [
        {
          "internalType": "uint256",
          "name": "_id",
          "type": "uint256"
        }
      ],
      "name": "bidInAuction",
      "outputs": [],
      "stateMutability": "payable",
      "type": "function",
      "payable": true
    },
    {
      "inputs": [],
      "name": "timer",
      "outputs": [],
      "stateMutability": "nonpayable",
      "type": "function"
    },
    {
      "inputs": [
        {
          "internalType": "uint256",
          "name": "_id",
          "type": "uint256"
        }
      ],
      "name": "cancelAuction",
      "outputs": [],
      "stateMutability": "nonpayable",
      "type": "function"
    },
    {
      "inputs": [
        {
          "internalType": "address",
          "name": "_NFTaddress",
          "type": "address"
        }
      ],
      "name": "getAllTokensInCollection",
      "outputs": [
        {
          "components": [
            {
              "internalType": "uint256",
              "name": "id",
              "type": "uint256"
            },
            {
              "internalType": "address payable",
              "name": "seller",
              "type": "address"
            },
            {
              "internalType": "address",
              "name": "NFTaddress",
              "type": "address"
            },
            {
              "internalType": "uint256",
              "name": "tokenId",
              "type": "uint256"
            },
            {
              "internalType": "uint256",
              "name": "price",
              "type": "uint256"
            },
            {
              "internalType": "string",
              "name": "metadata",
              "type": "string"
            },
            {
              "internalType": "bool",
              "name": "sold",
              "type": "bool"
            },
            {
              "internalType": "uint256",
              "name": "creatorFee",
              "type": "uint256"
            },
            {
              "internalType": "uint256",
              "name": "openingPrice",
              "type": "uint256"
            },
            {
              "internalType": "uint256",
              "name": "auctionEndTime",
              "type": "uint256"
            },
            {
              "internalType": "address payable",
              "name": "highestBidder",
              "type": "address"
            },
            {
              "internalType": "uint256",
              "name": "highestBid",
              "type": "uint256"
            }
          ],
          "internalType": "struct Marketplace.TokenInfo[]",
          "name": "",
          "type": "tuple[]"
        }
      ],
      "stateMutability": "view",
      "type": "function",
      "constant": true
    }
  ],
  "bytecode": "0x60806040523480156200001157600080fd5b5062000032620000266200007960201b60201c565b6200008160201b60201c565b33600260006101000a81548173ffffffffffffffffffffffffffffffffffffffff021916908373ffffffffffffffffffffffffffffffffffffffff16021790555062000145565b600033905090565b60008060009054906101000a900473ffffffffffffffffffffffffffffffffffffffff169050816000806101000a81548173ffffffffffffffffffffffffffffffffffffffff021916908373ffffffffffffffffffffffffffffffffffffffff1602179055508173ffffffffffffffffffffffffffffffffffffffff168173ffffffffffffffffffffffffffffffffffffffff167f8be0079c531659141344cd1fd0a4f28419497f9722a3daafe3b4186f6b6457e060405160405180910390a35050565b61405e80620001556000396000f3fe6080604052600436106100f35760003560e01c80638da5cb5b1161008a57806396b5a7551161005957806396b5a755146102d9578063b2b088f614610302578063eb5af7311461034a578063f2fde38b14610373576100f3565b80638da5cb5b1461021d578063918f2e521461024857806391e078bb1461028557806395623641146102ae576100f3565b80636012de1a116100c65780636012de1a14610189578063715018a6146101b257806377b02fe0146101c957806388c9cb3c14610206576100f3565b806321c4d76e146100f8578063243adbdd146101355780632975bfd4146101515780635d5964021461016d575b600080fd5b34801561010457600080fd5b5061011f600480360381019061011a91906127bd565b61039c565b60405161012c9190612803565b60405180910390f35b61014f600480360381019061014a919061284a565b6103b4565b005b61016b6004803603810190610166919061284a565b610977565b005b610187600480360381019061018291906128dc565b610c10565b005b34801561019557600080fd5b506101b060048036038101906101ab9190612a6a565b610c9b565b005b3480156101be57600080fd5b506101c76110f7565b005b3480156101d557600080fd5b506101f060048036038101906101eb91906127bd565b61110b565b6040516101fd9190612803565b60405180910390f35b34801561021257600080fd5b5061021b611123565b005b34801561022957600080fd5b50610232611299565b60405161023f9190612b10565b60405180910390f35b34801561025457600080fd5b5061026f600480360381019061026a91906127bd565b6112c2565b60405161027c9190612dca565b60405180910390f35b34801561029157600080fd5b506102ac60048036038101906102a79190612dec565b6116a1565b005b3480156102ba57600080fd5b506102c3611900565b6040516102d09190612e4e565b60405180910390f35b3480156102e557600080fd5b5061030060048036038101906102fb919061284a565b611926565b005b34801561030e57600080fd5b506103296004803603810190610324919061284a565b611cd5565b6040516103419c9b9a99989796959493929190612ec2565b60405180910390f35b34801561035657600080fd5b50610371600480360381019061036c9190612f83565b611e2a565b005b34801561037f57600080fd5b5061039a600480360381019061039591906127bd565b61200f565b005b60056020528060005260406000206000915090505481565b60006003600083815260200190815260200160002090508060040154341015610412576040517f08c379a00000000000000000000000000000000000000000000000000000000081526004016104099061300f565b60405180910390fd5b8060060160009054906101000a900460ff1615610464576040517f08c379a000000000000000000000000000000000000000000000000000000000815260040161045b9061307b565b60405180910390fd5b8060010160009054906101000a900473ffffffffffffffffffffffffffffffffffffffff1673ffffffffffffffffffffffffffffffffffffffff163373ffffffffffffffffffffffffffffffffffffffff16036104f6576040517f08c379a00000000000000000000000000000000000000000000000000000000081526004016104ed906130e7565b60405180910390fd5b600081600801541461053d576040517f08c379a000000000000000000000000000000000000000000000000000000000815260040161053490613179565b60405180910390fd5b6000670de0b6b3a76400006001836004015461055991906131c8565b61056391906131c8565b905060006064826105749190613239565b905060006103e88460070154856004015461058f91906131c8565b6105999190613239565b905060008183856105aa919061326a565b6105b4919061326a565b9050600260009054906101000a900473ffffffffffffffffffffffffffffffffffffffff1673ffffffffffffffffffffffffffffffffffffffff166108fc849081150290604051600060405180830381858888f1935050505015801561061e573d6000803e3d6000fd5b5060008560020160009054906101000a900473ffffffffffffffffffffffffffffffffffffffff1673ffffffffffffffffffffffffffffffffffffffff16630ee2cb106040518163ffffffff1660e01b8152600401602060405180830381865afa158015610690573d6000803e3d6000fd5b505050506040513d601f19601f820116820180604052508101906106b491906132ca565b90508073ffffffffffffffffffffffffffffffffffffffff168660010160009054906101000a900473ffffffffffffffffffffffffffffffffffffffff1673ffffffffffffffffffffffffffffffffffffffff1614610755578073ffffffffffffffffffffffffffffffffffffffff166108fc849081150290604051600060405180830381858888f19350505050158015610753573d6000803e3d6000fd5b505b8560010160009054906101000a900473ffffffffffffffffffffffffffffffffffffffff1673ffffffffffffffffffffffffffffffffffffffff166108fc839081150290604051600060405180830381858888f193505050501580156107bf573d6000803e3d6000fd5b508560040154600560008860020160009054906101000a900473ffffffffffffffffffffffffffffffffffffffff1673ffffffffffffffffffffffffffffffffffffffff1673ffffffffffffffffffffffffffffffffffffffff168152602001908152602001600020600082825461083791906132f7565b9250508190555060018660060160006101000a81548160ff021916908315150217905550338660010160006101000a81548173ffffffffffffffffffffffffffffffffffffffff021916908373ffffffffffffffffffffffffffffffffffffffff1602179055503373ffffffffffffffffffffffffffffffffffffffff168660010160009054906101000a900473ffffffffffffffffffffffffffffffffffffffff1673ffffffffffffffffffffffffffffffffffffffff168760020160009054906101000a900473ffffffffffffffffffffffffffffffffffffffff1673ffffffffffffffffffffffffffffffffffffffff167f75707d5d3d11632aafe99e9e60317891909f271b10026e79014651df900c32a08a8a600301548b600401546040516109669392919061332b565b60405180910390a450505050505050565b60006003600083815260200190815260200160002090508060060160009054906101000a900460ff16156109e0576040517f08c379a00000000000000000000000000000000000000000000000000000000081526004016109d79061307b565b60405180910390fd5b6000816008015411610a27576040517f08c379a0000000000000000000000000000000000000000000000000000000008152600401610a1e906133ae565b60405180910390fd5b80600901544210610a6d576040517f08c379a0000000000000000000000000000000000000000000000000000000008152600401610a649061341a565b60405180910390fd5b80600b01543411610ab3576040517f08c379a0000000000000000000000000000000000000000000000000000000008152600401610aaa90613486565b60405180910390fd5b600081600b015414610b2f5780600a0160009054906101000a900473ffffffffffffffffffffffffffffffffffffffff1673ffffffffffffffffffffffffffffffffffffffff166108fc82600b01549081150290604051600060405180830381858888f19350505050158015610b2d573d6000803e3d6000fd5b505b3381600a0160006101000a81548173ffffffffffffffffffffffffffffffffffffffff021916908373ffffffffffffffffffffffffffffffffffffffff1602179055503481600b01819055503373ffffffffffffffffffffffffffffffffffffffff168160020160009054906101000a900473ffffffffffffffffffffffffffffffffffffffff1673ffffffffffffffffffffffffffffffffffffffff167f0efc41f9ac6b1327ea0a4ce681dbef148dc7ef1663380fb4681a5d3a8ef2977784846003015434604051610c049392919061332b565b60405180910390a35050565b60003411610c53576040517f08c379a0000000000000000000000000000000000000000000000000000000008152600401610c4a906134f2565b60405180910390fd5b60005b82829050811015610c9657610c83838383818110610c7757610c76613512565b5b905060200201356103b4565b8080610c8e90613541565b915050610c56565b505050565b3373ffffffffffffffffffffffffffffffffffffffff168573ffffffffffffffffffffffffffffffffffffffff16636352211e866040518263ffffffff1660e01b8152600401610ceb9190612803565b602060405180830381865afa158015610d08573d6000803e3d6000fd5b505050506040513d601f19601f82011682018060405250810190610d2c919061359e565b73ffffffffffffffffffffffffffffffffffffffff1614610d82576040517f08c379a0000000000000000000000000000000000000000000000000000000008152600401610d799061363d565b60405180910390fd5b610d8c6001612092565b604051806101800160405280610da260016120a8565b81526020013373ffffffffffffffffffffffffffffffffffffffff1681526020018673ffffffffffffffffffffffffffffffffffffffff1681526020018581526020018481526020018381526020016000151581526020018281526020016000815260200160008152602001600073ffffffffffffffffffffffffffffffffffffffff168152602001600081525060036000610e3e60016120a8565b81526020019081526020016000206000820151816000015560208201518160010160006101000a81548173ffffffffffffffffffffffffffffffffffffffff021916908373ffffffffffffffffffffffffffffffffffffffff16021790555060408201518160020160006101000a81548173ffffffffffffffffffffffffffffffffffffffff021916908373ffffffffffffffffffffffffffffffffffffffff160217905550606082015181600301556080820151816004015560a0820151816005019081610f0d9190613869565b5060c08201518160060160006101000a81548160ff02191690831515021790555060e082015181600701556101008201518160080155610120820151816009015561014082015181600a0160006101000a81548173ffffffffffffffffffffffffffffffffffffffff021916908373ffffffffffffffffffffffffffffffffffffffff16021790555061016082015181600b0155905050600460008673ffffffffffffffffffffffffffffffffffffffff1673ffffffffffffffffffffffffffffffffffffffff1681526020019081526020016000205483108061103057506000600460008773ffffffffffffffffffffffffffffffffffffffff1673ffffffffffffffffffffffffffffffffffffffff16815260200190815260200160002054145b1561107a5782600460008773ffffffffffffffffffffffffffffffffffffffff1673ffffffffffffffffffffffffffffffffffffffff168152602001908152602001600020819055505b3373ffffffffffffffffffffffffffffffffffffffff168573ffffffffffffffffffffffffffffffffffffffff167fcf4e2b398f8f130dfa20ec831a8ad0f918b3c680e9dbad3b2230ad0192f52b166110d360016120a8565b878787876040516110e895949392919061393b565b60405180910390a35050505050565b6110ff6120b6565b6111096000612134565b565b60046020528060005260406000206000915090505481565b6000600190505b61113460016120a8565b81116112965760006003600083815260200190815260200160002090508060060160009054906101000a900460ff16158015611174575060008160080154115b8015611184575080600901544210155b80156111e15750600073ffffffffffffffffffffffffffffffffffffffff1681600a0160009054906101000a900473ffffffffffffffffffffffffffffffffffffffff1673ffffffffffffffffffffffffffffffffffffffff1614155b156112825780600a0160009054906101000a900473ffffffffffffffffffffffffffffffffffffffff1673ffffffffffffffffffffffffffffffffffffffff163373ffffffffffffffffffffffffffffffffffffffff1614611278576040517f08c379a000000000000000000000000000000000000000000000000000000000815260040161126f90613a07565b60405180910390fd5b611281826121f8565b5b50808061128e90613541565b91505061112a565b50565b60008060009054906101000a900473ffffffffffffffffffffffffffffffffffffffff16905090565b6060600080600190505b6112d660016120a8565b8111611367578373ffffffffffffffffffffffffffffffffffffffff166003600083815260200190815260200160002060020160009054906101000a900473ffffffffffffffffffffffffffffffffffffffff1673ffffffffffffffffffffffffffffffffffffffff160361135457818061135090613541565b9250505b808061135f90613541565b9150506112cc565b5060008167ffffffffffffffff8111156113845761138361293f565b5b6040519080825280602002602001820160405280156113bd57816020015b6113aa6126a6565b8152602001906001900390816113a25790505b509050600080600190505b6113d260016120a8565b8111611695578573ffffffffffffffffffffffffffffffffffffffff166003600083815260200190815260200160002060020160009054906101000a900473ffffffffffffffffffffffffffffffffffffffff1673ffffffffffffffffffffffffffffffffffffffff1603611682576003600082815260200190815260200160002060405180610180016040529081600082015481526020016001820160009054906101000a900473ffffffffffffffffffffffffffffffffffffffff1673ffffffffffffffffffffffffffffffffffffffff1673ffffffffffffffffffffffffffffffffffffffff1681526020016002820160009054906101000a900473ffffffffffffffffffffffffffffffffffffffff1673ffffffffffffffffffffffffffffffffffffffff1673ffffffffffffffffffffffffffffffffffffffff168152602001600382015481526020016004820154815260200160058201805461153a9061368c565b80601f01602080910402602001604051908101604052809291908181526020018280546115669061368c565b80156115b35780601f10611588576101008083540402835291602001916115b3565b820191906000526020600020905b81548152906001019060200180831161159657829003601f168201915b505050505081526020016006820160009054906101000a900460ff16151515158152602001600782015481526020016008820154815260200160098201548152602001600a820160009054906101000a900473ffffffffffffffffffffffffffffffffffffffff1673ffffffffffffffffffffffffffffffffffffffff1673ffffffffffffffffffffffffffffffffffffffff168152602001600b8201548152505083838151811061166857611667613512565b5b6020026020010181905250818061167e90613541565b9250505b808061168d90613541565b9150506113c8565b50819350505050919050565b60006003600085815260200190815260200160002090508060060160009054906101000a900460ff161561170a576040517f08c379a00000000000000000000000000000000000000000000000000000000081526004016117019061307b565b60405180910390fd5b8060010160009054906101000a900473ffffffffffffffffffffffffffffffffffffffff1673ffffffffffffffffffffffffffffffffffffffff163373ffffffffffffffffffffffffffffffffffffffff161461179c576040517f08c379a00000000000000000000000000000000000000000000000000000000081526004016117939061363d565b60405180910390fd5b600083116117df576040517f08c379a00000000000000000000000000000000000000000000000000000000081526004016117d690613a73565b60405180910390fd5b60008211611822576040517f08c379a000000000000000000000000000000000000000000000000000000000815260040161181990613adf565b60405180910390fd5b828160080181905550814261183791906132f7565b81600901819055508060010160009054906101000a900473ffffffffffffffffffffffffffffffffffffffff1673ffffffffffffffffffffffffffffffffffffffff168160020160009054906101000a900473ffffffffffffffffffffffffffffffffffffffff1673ffffffffffffffffffffffffffffffffffffffff167f06b9e486c68303eb64052e0493f906f3d93a1b7149b6b8dcff221aebd16c35138684600301548786600901546040516118f29493929190613aff565b60405180910390a350505050565b600260009054906101000a900473ffffffffffffffffffffffffffffffffffffffff1681565b60006003600083815260200190815260200160002090506000816000015403611984576040517f08c379a000000000000000000000000000000000000000000000000000000000815260040161197b90613b90565b60405180910390fd5b60008160080154116119cb576040517f08c379a00000000000000000000000000000000000000000000000000000000081526004016119c2906133ae565b60405180910390fd5b8060060160009054906101000a900460ff1615611a1d576040517f08c379a0000000000000000000000000000000000000000000000000000000008152600401611a1490613bfc565b60405180910390fd5b8060010160009054906101000a900473ffffffffffffffffffffffffffffffffffffffff1673ffffffffffffffffffffffffffffffffffffffff163373ffffffffffffffffffffffffffffffffffffffff1614611aaf576040517f08c379a0000000000000000000000000000000000000000000000000000000008152600401611aa690613c68565b60405180910390fd5b60018160060160006101000a81548160ff02191690831515021790555080600a0160009054906101000a900473ffffffffffffffffffffffffffffffffffffffff1673ffffffffffffffffffffffffffffffffffffffff166108fc82600b01549081150290604051600060405180830381858888f19350505050158015611b3a573d6000803e3d6000fd5b508060020160009054906101000a900473ffffffffffffffffffffffffffffffffffffffff1673ffffffffffffffffffffffffffffffffffffffff166342842e0e8260010160009054906101000a900473ffffffffffffffffffffffffffffffffffffffff168360010160009054906101000a900473ffffffffffffffffffffffffffffffffffffffff1684600301546040518463ffffffff1660e01b8152600401611be893929190613cdd565b600060405180830381600087803b158015611c0257600080fd5b505af1158015611c16573d6000803e3d6000fd5b505050508060010160009054906101000a900473ffffffffffffffffffffffffffffffffffffffff1673ffffffffffffffffffffffffffffffffffffffff168160020160009054906101000a900473ffffffffffffffffffffffffffffffffffffffff1673ffffffffffffffffffffffffffffffffffffffff167f2fd0fd288a849022c51c1ab9e887d7a4f89ac1126432be270b0ba773382ad66183600001548460030154604051611cc9929190613d14565b60405180910390a35050565b60036020528060005260406000206000915090508060000154908060010160009054906101000a900473ffffffffffffffffffffffffffffffffffffffff16908060020160009054906101000a900473ffffffffffffffffffffffffffffffffffffffff1690806003015490806004015490806005018054611d569061368c565b80601f0160208091040260200160405190810160405280929190818152602001828054611d829061368c565b8015611dcf5780601f10611da457610100808354040283529160200191611dcf565b820191906000526020600020905b815481529060010190602001808311611db257829003601f168201915b5050505050908060060160009054906101000a900460ff169080600701549080600801549080600901549080600a0160009054906101000a900473ffffffffffffffffffffffffffffffffffffffff169080600b015490508c565b60006003600084815260200190815260200160002090508060060160009054906101000a900460ff16611e92576040517f08c379a0000000000000000000000000000000000000000000000000000000008152600401611e8990613d89565b60405180910390fd5b8060010160009054906101000a900473ffffffffffffffffffffffffffffffffffffffff1673ffffffffffffffffffffffffffffffffffffffff163373ffffffffffffffffffffffffffffffffffffffff1614611f24576040517f08c379a0000000000000000000000000000000000000000000000000000000008152600401611f1b9061363d565b60405180910390fd5b81816004018190555060008160060160006101000a81548160ff0219169083151502179055508060010160009054906101000a900473ffffffffffffffffffffffffffffffffffffffff1673ffffffffffffffffffffffffffffffffffffffff168160020160009054906101000a900473ffffffffffffffffffffffffffffffffffffffff1673ffffffffffffffffffffffffffffffffffffffff167fcf4e2b398f8f130dfa20ec831a8ad0f918b3c680e9dbad3b2230ad0192f52b1685846003015486866005018760070154604051612002959493929190613e2d565b60405180910390a3505050565b6120176120b6565b600073ffffffffffffffffffffffffffffffffffffffff168173ffffffffffffffffffffffffffffffffffffffff1603612086576040517f08c379a000000000000000000000000000000000000000000000000000000000815260040161207d90613ef9565b60405180910390fd5b61208f81612134565b50565b6001816000016000828254019250508190555050565b600081600001549050919050565b6120be61269e565b73ffffffffffffffffffffffffffffffffffffffff166120dc611299565b73ffffffffffffffffffffffffffffffffffffffff1614612132576040517f08c379a000000000000000000000000000000000000000000000000000000000815260040161212990613f65565b60405180910390fd5b565b60008060009054906101000a900473ffffffffffffffffffffffffffffffffffffffff169050816000806101000a81548173ffffffffffffffffffffffffffffffffffffffff021916908373ffffffffffffffffffffffffffffffffffffffff1602179055508173ffffffffffffffffffffffffffffffffffffffff168173ffffffffffffffffffffffffffffffffffffffff167f8be0079c531659141344cd1fd0a4f28419497f9722a3daafe3b4186f6b6457e060405160405180910390a35050565b600060036000838152602001908152602001600020905060008160020160009054906101000a900473ffffffffffffffffffffffffffffffffffffffff1673ffffffffffffffffffffffffffffffffffffffff16636352211e83600301546040518263ffffffff1660e01b81526004016122729190612803565b602060405180830381865afa15801561228f573d6000803e3d6000fd5b505050506040513d601f19601f820116820180604052508101906122b3919061359e565b90508160060160009054906101000a900460ff1615612307576040517f08c379a00000000000000000000000000000000000000000000000000000000081526004016122fe9061307b565b60405180910390fd5b600082600801541161234e576040517f08c379a0000000000000000000000000000000000000000000000000000000008152600401612345906133ae565b60405180910390fd5b8160090154421015612395576040517f08c379a000000000000000000000000000000000000000000000000000000000815260040161238c90613fd1565b60405180910390fd5b8160020160009054906101000a900473ffffffffffffffffffffffffffffffffffffffff1673ffffffffffffffffffffffffffffffffffffffff166342842e0e8284600a0160009054906101000a900473ffffffffffffffffffffffffffffffffffffffff1685600301546040518463ffffffff1660e01b815260040161241e93929190613ff1565b600060405180830381600087803b15801561243857600080fd5b505af115801561244c573d6000803e3d6000fd5b505050508160010160009054906101000a900473ffffffffffffffffffffffffffffffffffffffff1673ffffffffffffffffffffffffffffffffffffffff166108fc83600b01549081150290604051600060405180830381858888f193505050501580156124be573d6000803e3d6000fd5b5060018260060160006101000a81548160ff02191690831515021790555081600a0160009054906101000a900473ffffffffffffffffffffffffffffffffffffffff168260010160006101000a81548173ffffffffffffffffffffffffffffffffffffffff021916908373ffffffffffffffffffffffffffffffffffffffff1602179055506000826008018190555060008260090181905550600082600a0160006101000a81548173ffffffffffffffffffffffffffffffffffffffff021916908373ffffffffffffffffffffffffffffffffffffffff160217905550600082600b018190555081600a0160009054906101000a900473ffffffffffffffffffffffffffffffffffffffff1673ffffffffffffffffffffffffffffffffffffffff168260010160009054906101000a900473ffffffffffffffffffffffffffffffffffffffff1673ffffffffffffffffffffffffffffffffffffffff168360020160009054906101000a900473ffffffffffffffffffffffffffffffffffffffff1673ffffffffffffffffffffffffffffffffffffffff167f6c47fd8bd138d7325768cd34fb84465cf68b7d556baca7bdadea071c5c9a1b0986866003015487600b01546040516126919392919061332b565b60405180910390a4505050565b600033905090565b60405180610180016040528060008152602001600073ffffffffffffffffffffffffffffffffffffffff168152602001600073ffffffffffffffffffffffffffffffffffffffff168152602001600081526020016000815260200160608152602001600015158152602001600081526020016000815260200160008152602001600073ffffffffffffffffffffffffffffffffffffffff168152602001600081525090565b6000604051905090565b600080fd5b600080fd5b600073ffffffffffffffffffffffffffffffffffffffff82169050919050565b600061278a8261275f565b9050919050565b61279a8161277f565b81146127a557600080fd5b50565b6000813590506127b781612791565b92915050565b6000602082840312156127d3576127d2612755565b5b60006127e1848285016127a8565b91505092915050565b6000819050919050565b6127fd816127ea565b82525050565b600060208201905061281860008301846127f4565b92915050565b612827816127ea565b811461283257600080fd5b50565b6000813590506128448161281e565b92915050565b6000602082840312156128605761285f612755565b5b600061286e84828501612835565b91505092915050565b600080fd5b600080fd5b600080fd5b60008083601f84011261289c5761289b612877565b5b8235905067ffffffffffffffff8111156128b9576128b861287c565b5b6020830191508360208202830111156128d5576128d4612881565b5b9250929050565b600080602083850312156128f3576128f2612755565b5b600083013567ffffffffffffffff8111156129115761291061275a565b5b61291d85828601612886565b92509250509250929050565b600080fd5b6000601f19601f8301169050919050565b7f4e487b7100000000000000000000000000000000000000000000000000000000600052604160045260246000fd5b6129778261292e565b810181811067ffffffffffffffff821117156129965761299561293f565b5b80604052505050565b60006129a961274b565b90506129b5828261296e565b919050565b600067ffffffffffffffff8211156129d5576129d461293f565b5b6129de8261292e565b9050602081019050919050565b82818337600083830152505050565b6000612a0d612a08846129ba565b61299f565b905082815260208101848484011115612a2957612a28612929565b5b612a348482856129eb565b509392505050565b600082601f830112612a5157612a50612877565b5b8135612a618482602086016129fa565b91505092915050565b600080600080600060a08688031215612a8657612a85612755565b5b6000612a94888289016127a8565b9550506020612aa588828901612835565b9450506040612ab688828901612835565b935050606086013567ffffffffffffffff811115612ad757612ad661275a565b5b612ae388828901612a3c565b9250506080612af488828901612835565b9150509295509295909350565b612b0a8161277f565b82525050565b6000602082019050612b256000830184612b01565b92915050565b600081519050919050565b600082825260208201905092915050565b6000819050602082019050919050565b612b60816127ea565b82525050565b6000612b718261275f565b9050919050565b612b8181612b66565b82525050565b612b908161277f565b82525050565b600081519050919050565b600082825260208201905092915050565b60005b83811015612bd0578082015181840152602081019050612bb5565b60008484015250505050565b6000612be782612b96565b612bf18185612ba1565b9350612c01818560208601612bb2565b612c0a8161292e565b840191505092915050565b60008115159050919050565b612c2a81612c15565b82525050565b600061018083016000830151612c496000860182612b57565b506020830151612c5c6020860182612b78565b506040830151612c6f6040860182612b87565b506060830151612c826060860182612b57565b506080830151612c956080860182612b57565b5060a083015184820360a0860152612cad8282612bdc565b91505060c0830151612cc260c0860182612c21565b5060e0830151612cd560e0860182612b57565b50610100830151612cea610100860182612b57565b50610120830151612cff610120860182612b57565b50610140830151612d14610140860182612b78565b50610160830151612d29610160860182612b57565b508091505092915050565b6000612d408383612c30565b905092915050565b6000602082019050919050565b6000612d6082612b2b565b612d6a8185612b36565b935083602082028501612d7c85612b47565b8060005b85811015612db85784840389528151612d998582612d34565b9450612da483612d48565b925060208a01995050600181019050612d80565b50829750879550505050505092915050565b60006020820190508181036000830152612de48184612d55565b905092915050565b600080600060608486031215612e0557612e04612755565b5b6000612e1386828701612835565b9350506020612e2486828701612835565b9250506040612e3586828701612835565b9150509250925092565b612e4881612b66565b82525050565b6000602082019050612e636000830184612e3f565b92915050565b600082825260208201905092915050565b6000612e8582612b96565b612e8f8185612e69565b9350612e9f818560208601612bb2565b612ea88161292e565b840191505092915050565b612ebc81612c15565b82525050565b600061018082019050612ed8600083018f6127f4565b612ee5602083018e612e3f565b612ef2604083018d612b01565b612eff606083018c6127f4565b612f0c608083018b6127f4565b81810360a0830152612f1e818a612e7a565b9050612f2d60c0830189612eb3565b612f3a60e08301886127f4565b612f486101008301876127f4565b612f566101208301866127f4565b612f64610140830185612e3f565b612f726101608301846127f4565b9d9c50505050505050505050505050565b60008060408385031215612f9a57612f99612755565b5b6000612fa885828601612835565b9250506020612fb985828601612835565b9150509250929050565b7f4e6f7420656e6f75676820455448000000000000000000000000000000000000600082015250565b6000612ff9600e83612e69565b915061300482612fc3565b602082019050919050565b6000602082019050818103600083015261302881612fec565b9050919050565b7f416c726561647920736f6c64206f757400000000000000000000000000000000600082015250565b6000613065601083612e69565b91506130708261302f565b602082019050919050565b6000602082019050818103600083015261309481613058565b9050919050565b7f596f752063616e27742062757920796f7572206f776e204e4654000000000000600082015250565b60006130d1601a83612e69565b91506130dc8261309b565b602082019050919050565b60006020820190508181036000830152613100816130c4565b9050919050565b7f447572696e67207468652061756374696f6e2c20796f752063616e277420627560008201527f792074686973204e465400000000000000000000000000000000000000000000602082015250565b6000613163602a83612e69565b915061316e82613107565b604082019050919050565b6000602082019050818103600083015261319281613156565b9050919050565b7f4e487b7100000000000000000000000000000000000000000000000000000000600052601160045260246000fd5b60006131d3826127ea565b91506131de836127ea565b92508282026131ec816127ea565b9150828204841483151761320357613202613199565b5b5092915050565b7f4e487b7100000000000000000000000000000000000000000000000000000000600052601260045260246000fd5b6000613244826127ea565b915061324f836127ea565b92508261325f5761325e61320a565b5b828204905092915050565b6000613275826127ea565b9150613280836127ea565b925082820390508181111561329857613297613199565b5b92915050565b6132a781612b66565b81146132b257600080fd5b50565b6000815190506132c48161329e565b92915050565b6000602082840312156132e0576132df612755565b5b60006132ee848285016132b5565b91505092915050565b6000613302826127ea565b915061330d836127ea565b925082820190508082111561332557613324613199565b5b92915050565b600060608201905061334060008301866127f4565b61334d60208301856127f4565b61335a60408301846127f4565b949350505050565b7f41756374696f6e206e6f74207374617274656400000000000000000000000000600082015250565b6000613398601383612e69565b91506133a382613362565b602082019050919050565b600060208201905081810360008301526133c78161338b565b9050919050565b7f41756374696f6e206e6f7420656e646564207965740000000000000000000000600082015250565b6000613404601583612e69565b915061340f826133ce565b602082019050919050565b60006020820190508181036000830152613433816133f7565b9050919050565b7f42696420616d6f756e7420697320746f6f206c6f770000000000000000000000600082015250565b6000613470601583612e69565b915061347b8261343a565b602082019050919050565b6000602082019050818103600083015261349f81613463565b9050919050565b7f4e6f204554482073656e74000000000000000000000000000000000000000000600082015250565b60006134dc600b83612e69565b91506134e7826134a6565b602082019050919050565b6000602082019050818103600083015261350b816134cf565b9050919050565b7f4e487b7100000000000000000000000000000000000000000000000000000000600052603260045260246000fd5b600061354c826127ea565b91507fffffffffffffffffffffffffffffffffffffffffffffffffffffffffffffffff820361357e5761357d613199565b5b600182019050919050565b60008151905061359881612791565b92915050565b6000602082840312156135b4576135b3612755565b5b60006135c284828501613589565b91505092915050565b7f596f7520617265206e6f7420746865206f776e6572206f662074686973204e4660008201527f5400000000000000000000000000000000000000000000000000000000000000602082015250565b6000613627602183612e69565b9150613632826135cb565b604082019050919050565b600060208201905081810360008301526136568161361a565b9050919050565b7f4e487b7100000000000000000000000000000000000000000000000000000000600052602260045260246000fd5b600060028204905060018216806136a457607f821691505b6020821081036136b7576136b661365d565b5b50919050565b60008190508160005260206000209050919050565b60006020601f8301049050919050565b600082821b905092915050565b60006008830261371f7fffffffffffffffffffffffffffffffffffffffffffffffffffffffffffffffff826136e2565b61372986836136e2565b95508019841693508086168417925050509392505050565b6000819050919050565b600061376661376161375c846127ea565b613741565b6127ea565b9050919050565b6000819050919050565b6137808361374b565b61379461378c8261376d565b8484546136ef565b825550505050565b600090565b6137a961379c565b6137b4818484613777565b505050565b5b818110156137d8576137cd6000826137a1565b6001810190506137ba565b5050565b601f82111561381d576137ee816136bd565b6137f7846136d2565b81016020851015613806578190505b61381a613812856136d2565b8301826137b9565b50505b505050565b600082821c905092915050565b600061384060001984600802613822565b1980831691505092915050565b6000613859838361382f565b9150826002028217905092915050565b61387282612b96565b67ffffffffffffffff81111561388b5761388a61293f565b5b613895825461368c565b6138a08282856137dc565b600060209050601f8311600181146138d357600084156138c1578287015190505b6138cb858261384d565b865550613933565b601f1984166138e1866136bd565b60005b82811015613909578489015182556001820191506020850194506020810190506138e4565b868310156139265784890151613922601f89168261382f565b8355505b6001600288020188555050505b505050505050565b600060a08201905061395060008301886127f4565b61395d60208301876127f4565b61396a60408301866127f4565b818103606083015261397c8185612e7a565b905061398b60808301846127f4565b9695505050505050565b7f4f6e6c79206c6173742068696768657374206269646465722063616e20656e6460008201527f207468652061756374696f6e0000000000000000000000000000000000000000602082015250565b60006139f1602c83612e69565b91506139fc82613995565b604082019050919050565b60006020820190508181036000830152613a20816139e4565b9050919050565b7f496e76616c6964206f70656e696e672070726963650000000000000000000000600082015250565b6000613a5d601583612e69565b9150613a6882613a27565b602082019050919050565b60006020820190508181036000830152613a8c81613a50565b9050919050565b7f496e76616c69642061756374696f6e206475726174696f6e0000000000000000600082015250565b6000613ac9601883612e69565b9150613ad482613a93565b602082019050919050565b60006020820190508181036000830152613af881613abc565b9050919050565b6000608082019050613b1460008301876127f4565b613b2160208301866127f4565b613b2e60408301856127f4565b613b3b60608301846127f4565b95945050505050565b7f546f6b656e206e6f7420666f756e640000000000000000000000000000000000600082015250565b6000613b7a600f83612e69565b9150613b8582613b44565b602082019050919050565b60006020820190508181036000830152613ba981613b6d565b9050919050565b7f546f6b656e20697320616c726561647920736f6c640000000000000000000000600082015250565b6000613be6601583612e69565b9150613bf182613bb0565b602082019050919050565b60006020820190508181036000830152613c1581613bd9565b9050919050565b7f596f7520617265206e6f74207468652073656c6c657200000000000000000000600082015250565b6000613c52601683612e69565b9150613c5d82613c1c565b602082019050919050565b60006020820190508181036000830152613c8181613c45565b9050919050565b6000613ca3613c9e613c998461275f565b613741565b61275f565b9050919050565b6000613cb582613c88565b9050919050565b6000613cc782613caa565b9050919050565b613cd781613cbc565b82525050565b6000606082019050613cf26000830186613cce565b613cff6020830185613cce565b613d0c60408301846127f4565b949350505050565b6000604082019050613d2960008301856127f4565b613d3660208301846127f4565b9392505050565b7f54686973204e4654206973206e6f7420736f6c64000000000000000000000000600082015250565b6000613d73601483612e69565b9150613d7e82613d3d565b602082019050919050565b60006020820190508181036000830152613da281613d66565b9050919050565b60008154613db68161368c565b613dc08186612e69565b94506001821660008114613ddb5760018114613df157613e24565b60ff198316865281151560200286019350613e24565b613dfa856136bd565b60005b83811015613e1c57815481890152600182019150602081019050613dfd565b808801955050505b50505092915050565b600060a082019050613e4260008301886127f4565b613e4f60208301876127f4565b613e5c60408301866127f4565b8181036060830152613e6e8185613da9565b9050613e7d60808301846127f4565b9695505050505050565b7f4f776e61626c653a206e6577206f776e657220697320746865207a65726f206160008201527f6464726573730000000000000000000000000000000000000000000000000000602082015250565b6000613ee3602683612e69565b9150613eee82613e87565b604082019050919050565b60006020820190508181036000830152613f1281613ed6565b9050919050565b7f4f776e61626c653a2063616c6c6572206973206e6f7420746865206f776e6572600082015250565b6000613f4f602083612e69565b9150613f5a82613f19565b602082019050919050565b60006020820190508181036000830152613f7e81613f42565b9050919050565b7f41756374696f6e20686173206e6f7420656e6465642079657400000000000000600082015250565b6000613fbb601983612e69565b9150613fc682613f85565b602082019050919050565b60006020820190508181036000830152613fea81613fae565b9050919050565b60006060820190506140066000830186612b01565b6140136020830185613cce565b61402060408301846127f4565b94935050505056fea26469706673582212203dc4b89d0ca15e2616aa88e58fd8a634f86c848b9f2de8cb7054b699dc43935064736f6c63430008120033",
  "immutableReferences": {},
  "source": "// SPDX-License-Identifier: MIT\npragma solidity ^0.8.1;\n\nimport \"../node_modules/@openzeppelin/contracts/token/ERC721/ERC721.sol\";\nimport \"../node_modules/@openzeppelin/contracts/token/ERC721/IERC721.sol\";\nimport \"../node_modules/@openzeppelin/contracts/access/Ownable.sol\";\nimport \"../node_modules/@openzeppelin/contracts/utils/Counters.sol\";\nimport \"./RTToken.sol\";\n\n\ncontract Marketplace is Ownable {\n    using Counters for Counters.Counter;\n    Counters.Counter private _Ids;\n    address payable public marketAddress;\n\n    struct TokenInfo {\n        uint256 id;\n        address payable seller;\n        address NFTaddress;\n        uint256 tokenId;\n        uint256 price;\n        string metadata;\n        bool sold;\n        uint256 creatorFee;\n        uint256 openingPrice; // \n        uint256 auctionEndTime; //   \n        address payable highestBidder; //   \n        uint256 highestBid; //  \n    }\n\n    mapping(uint256 => TokenInfo) public TokenOnSale;\n    mapping(address => uint256) public lowestPriceByCollection;\n    mapping(address => uint256) public totalSalesByCollection;\n\n    event Add(uint256 id, address indexed NftAddress, address indexed seller, uint256 tokenId, uint256 price, string metadata, uint256 creatorFee);\n    event Buy(uint256 id, address indexed NftAddress, address indexed seller, address indexed buyer, uint256 tokenId, uint256 price);\n    event AuctionCreated(uint256 id, address indexed NftAddress, address indexed seller, uint256 tokenId, uint256 openingPrice, uint256 auctionEndTime);\n    event BidderChanged(uint256 id, address indexed NftAddress, address indexed bidder, uint256 tokenId, uint256 bidAmount);\n    event AuctionEnded(uint256 id, address indexed NftAddress, address indexed seller, address indexed winner, uint256 tokenId, uint256 winningBid);\n    event AuctionCancelled(uint256 id, address indexed NftAddress, address indexed seller, uint256 tokenId);\n\n    constructor() {\n        marketAddress = payable(msg.sender);\n    }\n\n    function addNftToMarket(address _NFTaddress, uint256 _tokenId, uint256 _price, string memory _metadata, uint256 _creatorFee) external {\n        require(ERC721(_NFTaddress).ownerOf(_tokenId) == msg.sender, \"You are not the owner of this NFT\");\n\n        _Ids.increment();\n        TokenOnSale[_Ids.current()] = TokenInfo(_Ids.current(), payable(msg.sender), _NFTaddress, _tokenId, _price, _metadata, false, _creatorFee, 0, 0, payable(address(0)), 0);\n        if (_price < lowestPriceByCollection[_NFTaddress] || lowestPriceByCollection[_NFTaddress] == 0) {\n            lowestPriceByCollection[_NFTaddress] = _price;\n        }\n\n        emit Add(_Ids.current(), _NFTaddress, msg.sender, _tokenId, _price, _metadata, _creatorFee);\n    }\n\n\n    function buyNfts(uint256[] calldata _ids) external payable {\n        require(msg.value > 0, \"No ETH sent\");\n\n        for (uint256 i = 0; i < _ids.length; i++) {\n            buyNft(_ids[i]);\n        }\n    }\n\n    function buyNft(uint256 _id) public payable {\n        TokenInfo storage token = TokenOnSale[_id];\n        require(msg.value >= token.price, \"Not enough ETH\");\n        require(!token.sold, \"Already sold out\");\n        require(msg.sender != token.seller, \"You can't buy your own NFT\");\n        require(token.openingPrice == 0, \"During the auction, you can't buy this NFT\");\n\n        uint256 tokenPrice = token.price * 1 * (10 ** 18); // 1 matic\n        uint256 marketFee = tokenPrice / 100;\n        uint256 creatorRoyalty = token.price * token.creatorFee / 1000;\n        uint256 sellerAmount = tokenPrice - marketFee - creatorRoyalty;\n\n        marketAddress.transfer(marketFee);\n\n        address payable creator = RTToken(token.NFTaddress).getCreator();\n        if (token.seller != creator) {\n            creator.transfer(creatorRoyalty);\n        }\n\n        token.seller.transfer(sellerAmount);\n\n        totalSalesByCollection[token.NFTaddress] += token.price;\n        token.sold = true;\n        token.seller = payable(msg.sender);\n\n        emit Buy(_id, token.NFTaddress, token.seller, msg.sender, token.tokenId, token.price);\n    }\n\n    function reAddNftToMarket(uint256 _id, uint256 _price) external {\n        TokenInfo storage token = TokenOnSale[_id];\n        require(token.sold, \"This NFT is not sold\");\n        require(msg.sender == token.seller, \"You are not the owner of this NFT\");\n\n        token.price = _price;\n        token.sold = false;\n\n        emit Add(_id, token.NFTaddress, token.seller, token.tokenId, _price, token.metadata, token.creatorFee);\n    }\n\n    function startAuction(uint256 _id, uint256 _openingPrice, uint256 _duration) external {\n        TokenInfo storage token = TokenOnSale[_id];\n        require(!token.sold, \"Already sold out\");\n        require(msg.sender == token.seller, \"You are not the owner of this NFT\");\n        require(_openingPrice > 0, \"Invalid opening price\");\n        require(_duration > 0, \"Invalid auction duration\");\n\n        token.openingPrice = _openingPrice;\n        token.auctionEndTime = block.timestamp + _duration;\n\n        emit AuctionCreated(_id, token.NFTaddress, token.seller, token.tokenId, _openingPrice, token.auctionEndTime);\n    }\n\n    function bidInAuction(uint256 _id) external payable {\n        TokenInfo storage token = TokenOnSale[_id];\n        require(!token.sold, \"Already sold out\");\n        require(token.openingPrice > 0, \"Auction not started\");\n        require(block.timestamp < token.auctionEndTime, \"Auction not ended yet\");\n        require(msg.value > token.highestBid, \"Bid amount is too low\");\n\n        if (token.highestBid != 0) {\n            token.highestBidder.transfer(token.highestBid); //      \n        }\n\n        token.highestBidder = payable(msg.sender);\n        token.highestBid = msg.value;\n\n        emit BidderChanged(_id, token.NFTaddress, msg.sender, token.tokenId, msg.value);\n    }\n\n    function endAuction(uint256 _id) internal {\n        TokenInfo storage token = TokenOnSale[_id];\n        address owner = IERC721(token.NFTaddress).ownerOf(token.tokenId);\n\n        require(!token.sold, \"Already sold out\");\n        require(token.openingPrice > 0, \"Auction not started\");\n        require(block.timestamp >= token.auctionEndTime, \"Auction has not ended yet\");\n        // require(owner == msg.sender, \"You are not the owner of this NFT\");\n\n        //      NFT    \n        IERC721(token.NFTaddress).safeTransferFrom(owner, token.highestBidder, token.tokenId);\n        token.seller.transfer(token.highestBid);\n        token.sold = true;\n        token.seller = payable(token.highestBidder);\n\n        //    \n        token.openingPrice = 0;\n        token.auctionEndTime = 0;\n        token.highestBidder = payable(address(0));\n        token.highestBid = 0;\n\n        emit AuctionEnded(_id, token.NFTaddress, token.seller, token.highestBidder, token.tokenId, token.highestBid);\n    }\n\n    function timer() external {\n        for (uint256 i = 1; i <= _Ids.current(); i++) {\n            TokenInfo storage token = TokenOnSale[i];\n            if (!token.sold && token.openingPrice > 0 && block.timestamp >= token.auctionEndTime && token.highestBidder != address(0)) {\n                require(msg.sender == token.highestBidder, \"Only last highest bidder can end the auction\");\n                endAuction(i);\n            }\n        }\n    }\n\n    function cancelAuction(uint256 _id) external {\n        TokenInfo storage token = TokenOnSale[_id];\n        require(token.id != 0, \"Token not found\");\n        require(token.openingPrice > 0, \"Auction not started\");\n        require(!token.sold, \"Token is already sold\");\n        require(msg.sender == token.seller, \"You are not the seller\");\n\n        token.sold = true;\n        token.highestBidder.transfer(token.highestBid);\n        IERC721(token.NFTaddress).safeTransferFrom(token.seller, token.seller, token.tokenId);\n\n        emit AuctionCancelled(token.id, token.NFTaddress, token.seller, token.tokenId);\n    }\n\n    function getAllTokensInCollection(address _NFTaddress) external view returns (TokenInfo[] memory) {\n        uint256 count = 0;\n        for (uint256 i = 1; i <= _Ids.current(); i++) {\n            if (TokenOnSale[i].NFTaddress == _NFTaddress) {\n                count++;\n            }\n        }\n        TokenInfo[] memory tokens = new TokenInfo[](count);\n\n        uint256 index = 0;\n        for (uint256 i = 1; i <= _Ids.current(); i++) {\n            if (TokenOnSale[i].NFTaddress == _NFTaddress) {\n                tokens[index] = TokenOnSale[i];\n                index++;\n            }\n        }\n\n        return tokens;\n    }\n}\n",
  "sourcePath": "/Users/kimjh/Documents/workspace/ZDB/rooftop/nft/contracts/Marketplace.sol",
  "compiler": {
    "name": "solc",
    "version": "0.8.18+commit.87f61d96.Emscripten.clang"
  },
  "schemaVersion": "3.4.14",
  "updatedAt": "2023-06-20T02:21:16.461Z",
  "networkType": "ethereum",
  "devdoc": {
    "kind": "dev",
    "methods": {
      "owner()": {
        "details": "Returns the address of the current owner."
      },
      "renounceOwnership()": {
        "details": "Leaves the contract without owner. It will not be possible to call `onlyOwner` functions. Can only be called by the current owner. NOTE: Renouncing ownership will leave the contract without an owner, thereby disabling any functionality that is only available to the owner."
      },
      "transferOwnership(address)": {
        "details": "Transfers ownership of the contract to a new account (`newOwner`). Can only be called by the current owner."
      }
    },
    "version": 1
  },
  "userdoc": {
    "kind": "user",
    "methods": {},
    "version": 1
  }
}