{
  "contractName": "RTToken",
  "abi": [
    {
      "inputs": [
        {
          "internalType": "string",
          "name": "_name",
          "type": "string"
        },
        {
          "internalType": "string",
          "name": "_symbol",
          "type": "string"
        }
      ],
      "stateMutability": "nonpayable",
      "type": "constructor"
    },
    {
      "anonymous": false,
      "inputs": [
        {
          "indexed": true,
          "internalType": "address",
          "name": "owner",
          "type": "address"
        },
        {
          "indexed": true,
          "internalType": "address",
          "name": "approved",
          "type": "address"
        },
        {
          "indexed": true,
          "internalType": "uint256",
          "name": "tokenId",
          "type": "uint256"
        }
      ],
      "name": "Approval",
      "type": "event"
    },
    {
      "anonymous": false,
      "inputs": [
        {
          "indexed": true,
          "internalType": "address",
          "name": "owner",
          "type": "address"
        },
        {
          "indexed": true,
          "internalType": "address",
          "name": "operator",
          "type": "address"
        },
        {
          "indexed": false,
          "internalType": "bool",
          "name": "approved",
          "type": "bool"
        }
      ],
      "name": "ApprovalForAll",
      "type": "event"
    },
    {
      "anonymous": false,
      "inputs": [
        {
          "indexed": true,
          "internalType": "address",
          "name": "previousOwner",
          "type": "address"
        },
        {
          "indexed": true,
          "internalType": "address",
          "name": "newOwner",
          "type": "address"
        }
      ],
      "name": "OwnershipTransferred",
      "type": "event"
    },
    {
      "anonymous": false,
      "inputs": [
        {
          "indexed": true,
          "internalType": "address",
          "name": "from",
          "type": "address"
        },
        {
          "indexed": true,
          "internalType": "address",
          "name": "to",
          "type": "address"
        },
        {
          "indexed": true,
          "internalType": "uint256",
          "name": "tokenId",
          "type": "uint256"
        }
      ],
      "name": "Transfer",
      "type": "event"
    },
    {
      "inputs": [],
      "name": "MAX_TOKEN_COUNT",
      "outputs": [
        {
          "internalType": "uint256",
          "name": "",
          "type": "uint256"
        }
      ],
      "stateMutability": "view",
      "type": "function",
      "constant": true
    },
    {
      "inputs": [
        {
          "internalType": "address",
          "name": "to",
          "type": "address"
        },
        {
          "internalType": "uint256",
          "name": "tokenId",
          "type": "uint256"
        }
      ],
      "name": "approve",
      "outputs": [],
      "stateMutability": "nonpayable",
      "type": "function"
    },
    {
      "inputs": [
        {
          "internalType": "address",
          "name": "owner",
          "type": "address"
        }
      ],
      "name": "balanceOf",
      "outputs": [
        {
          "internalType": "uint256",
          "name": "",
          "type": "uint256"
        }
      ],
      "stateMutability": "view",
      "type": "function",
      "constant": true
    },
    {
      "inputs": [
        {
          "internalType": "uint256",
          "name": "tokenId",
          "type": "uint256"
        }
      ],
      "name": "getApproved",
      "outputs": [
        {
          "internalType": "address",
          "name": "",
          "type": "address"
        }
      ],
      "stateMutability": "view",
      "type": "function",
      "constant": true
    },
    {
      "inputs": [
        {
          "internalType": "address",
          "name": "owner",
          "type": "address"
        },
        {
          "internalType": "address",
          "name": "operator",
          "type": "address"
        }
      ],
      "name": "isApprovedForAll",
      "outputs": [
        {
          "internalType": "bool",
          "name": "",
          "type": "bool"
        }
      ],
      "stateMutability": "view",
      "type": "function",
      "constant": true
    },
    {
      "inputs": [],
      "name": "mint_price",
      "outputs": [
        {
          "internalType": "uint256",
          "name": "",
          "type": "uint256"
        }
      ],
      "stateMutability": "view",
      "type": "function",
      "constant": true
    },
    {
      "inputs": [],
      "name": "name",
      "outputs": [
        {
          "internalType": "string",
          "name": "",
          "type": "string"
        }
      ],
      "stateMutability": "view",
      "type": "function",
      "constant": true
    },
    {
      "inputs": [],
      "name": "owner",
      "outputs": [
        {
          "internalType": "address",
          "name": "",
          "type": "address"
        }
      ],
      "stateMutability": "view",
      "type": "function",
      "constant": true
    },
    {
      "inputs": [
        {
          "internalType": "uint256",
          "name": "tokenId",
          "type": "uint256"
        }
      ],
      "name": "ownerOf",
      "outputs": [
        {
          "internalType": "address",
          "name": "",
          "type": "address"
        }
      ],
      "stateMutability": "view",
      "type": "function",
      "constant": true
    },
    {
      "inputs": [],
      "name": "renounceOwnership",
      "outputs": [],
      "stateMutability": "nonpayable",
      "type": "function"
    },
    {
      "inputs": [],
      "name": "result",
      "outputs": [
        {
          "internalType": "uint256",
          "name": "",
          "type": "uint256"
        }
      ],
      "stateMutability": "view",
      "type": "function",
      "constant": true
    },
    {
      "inputs": [
        {
          "internalType": "address",
          "name": "from",
          "type": "address"
        },
        {
          "internalType": "address",
          "name": "to",
          "type": "address"
        },
        {
          "internalType": "uint256",
          "name": "tokenId",
          "type": "uint256"
        }
      ],
      "name": "safeTransferFrom",
      "outputs": [],
      "stateMutability": "nonpayable",
      "type": "function"
    },
    {
      "inputs": [
        {
          "internalType": "address",
          "name": "from",
          "type": "address"
        },
        {
          "internalType": "address",
          "name": "to",
          "type": "address"
        },
        {
          "internalType": "uint256",
          "name": "tokenId",
          "type": "uint256"
        },
        {
          "internalType": "bytes",
          "name": "data",
          "type": "bytes"
        }
      ],
      "name": "safeTransferFrom",
      "outputs": [],
      "stateMutability": "nonpayable",
      "type": "function"
    },
    {
      "inputs": [
        {
          "internalType": "address",
          "name": "operator",
          "type": "address"
        },
        {
          "internalType": "bool",
          "name": "approved",
          "type": "bool"
        }
      ],
      "name": "setApprovalForAll",
      "outputs": [],
      "stateMutability": "nonpayable",
      "type": "function"
    },
    {
      "inputs": [
        {
          "internalType": "bytes4",
          "name": "interfaceId",
          "type": "bytes4"
        }
      ],
      "name": "supportsInterface",
      "outputs": [
        {
          "internalType": "bool",
          "name": "",
          "type": "bool"
        }
      ],
      "stateMutability": "view",
      "type": "function",
      "constant": true
    },
    {
      "inputs": [],
      "name": "symbol",
      "outputs": [
        {
          "internalType": "string",
          "name": "",
          "type": "string"
        }
      ],
      "stateMutability": "view",
      "type": "function",
      "constant": true
    },
    {
      "inputs": [
        {
          "internalType": "uint256",
          "name": "index",
          "type": "uint256"
        }
      ],
      "name": "tokenByIndex",
      "outputs": [
        {
          "internalType": "uint256",
          "name": "",
          "type": "uint256"
        }
      ],
      "stateMutability": "view",
      "type": "function",
      "constant": true
    },
    {
      "inputs": [
        {
          "internalType": "address",
          "name": "owner",
          "type": "address"
        },
        {
          "internalType": "uint256",
          "name": "index",
          "type": "uint256"
        }
      ],
      "name": "tokenOfOwnerByIndex",
      "outputs": [
        {
          "internalType": "uint256",
          "name": "",
          "type": "uint256"
        }
      ],
      "stateMutability": "view",
      "type": "function",
      "constant": true
    },
    {
      "inputs": [],
      "name": "totalSupply",
      "outputs": [
        {
          "internalType": "uint256",
          "name": "",
          "type": "uint256"
        }
      ],
      "stateMutability": "view",
      "type": "function",
      "constant": true
    },
    {
      "inputs": [
        {
          "internalType": "address",
          "name": "from",
          "type": "address"
        },
        {
          "internalType": "address",
          "name": "to",
          "type": "address"
        },
        {
          "internalType": "uint256",
          "name": "tokenId",
          "type": "uint256"
        }
      ],
      "name": "transferFrom",
      "outputs": [],
      "stateMutability": "nonpayable",
      "type": "function"
    },
    {
      "inputs": [
        {
          "internalType": "address",
          "name": "newOwner",
          "type": "address"
        }
      ],
      "name": "transferOwnership",
      "outputs": [],
      "stateMutability": "nonpayable",
      "type": "function"
    },
    {
      "inputs": [],
      "name": "getCreator",
      "outputs": [
        {
          "internalType": "address payable",
          "name": "",
          "type": "address"
        }
      ],
      "stateMutability": "view",
      "type": "function",
      "constant": true
    },
    {
      "inputs": [
        {
          "internalType": "string",
          "name": "ipfsHash",
          "type": "string"
        }
      ],
      "name": "_minting",
      "outputs": [],
      "stateMutability": "payable",
      "type": "function",
      "payable": true
    },
    {
      "inputs": [
        {
          "internalType": "uint256",
          "name": "tokenId",
          "type": "uint256"
        }
      ],
      "name": "tokenURI",
      "outputs": [
        {
          "internalType": "string",
          "name": "",
          "type": "string"
        }
      ],
      "stateMutability": "view",
      "type": "function",
      "constant": true
    },
    {
      "inputs": [],
      "name": "getLatestTokenId",
      "outputs": [
        {
          "internalType": "uint256",
          "name": "",
          "type": "uint256"
        }
      ],
      "stateMutability": "view",
      "type": "function",
      "constant": true
    }
  ],
  "bytecode": "0x60806040526001600b5566b1a2bc2ec50000600c556000600f553480156200002657600080fd5b5060405162003daf38038062003daf83398181016040528101906200004c91906200033e565b818181600090816200005f91906200060e565b5080600190816200007191906200060e565b5050506200009462000088620000dd60201b60201c565b620000e560201b60201c565b33600e60006101000a81548173ffffffffffffffffffffffffffffffffffffffff021916908373ffffffffffffffffffffffffffffffffffffffff1602179055505050620006f5565b600033905090565b6000600a60009054906101000a900473ffffffffffffffffffffffffffffffffffffffff16905081600a60006101000a81548173ffffffffffffffffffffffffffffffffffffffff021916908373ffffffffffffffffffffffffffffffffffffffff1602179055508173ffffffffffffffffffffffffffffffffffffffff168173ffffffffffffffffffffffffffffffffffffffff167f8be0079c531659141344cd1fd0a4f28419497f9722a3daafe3b4186f6b6457e060405160405180910390a35050565b6000604051905090565b600080fd5b600080fd5b600080fd5b600080fd5b6000601f19601f8301169050919050565b7f4e487b7100000000000000000000000000000000000000000000000000000000600052604160045260246000fd5b6200021482620001c9565b810181811067ffffffffffffffff82111715620002365762000235620001da565b5b80604052505050565b60006200024b620001ab565b905062000259828262000209565b919050565b600067ffffffffffffffff8211156200027c576200027b620001da565b5b6200028782620001c9565b9050602081019050919050565b60005b83811015620002b457808201518184015260208101905062000297565b60008484015250505050565b6000620002d7620002d1846200025e565b6200023f565b905082815260208101848484011115620002f657620002f5620001c4565b5b6200030384828562000294565b509392505050565b600082601f830112620003235762000322620001bf565b5b815162000335848260208601620002c0565b91505092915050565b60008060408385031215620003585762000357620001b5565b5b600083015167ffffffffffffffff811115620003795762000378620001ba565b5b62000387858286016200030b565b925050602083015167ffffffffffffffff811115620003ab57620003aa620001ba565b5b620003b9858286016200030b565b9150509250929050565b600081519050919050565b7f4e487b7100000000000000000000000000000000000000000000000000000000600052602260045260246000fd5b600060028204905060018216806200041657607f821691505b6020821081036200042c576200042b620003ce565b5b50919050565b60008190508160005260206000209050919050565b60006020601f8301049050919050565b600082821b905092915050565b600060088302620004967fffffffffffffffffffffffffffffffffffffffffffffffffffffffffffffffff8262000457565b620004a2868362000457565b95508019841693508086168417925050509392505050565b6000819050919050565b6000819050919050565b6000620004ef620004e9620004e384620004ba565b620004c4565b620004ba565b9050919050565b6000819050919050565b6200050b83620004ce565b620005236200051a82620004f6565b84845462000464565b825550505050565b600090565b6200053a6200052b565b6200054781848462000500565b505050565b5b818110156200056f576200056360008262000530565b6001810190506200054d565b5050565b601f821115620005be57620005888162000432565b620005938462000447565b81016020851015620005a3578190505b620005bb620005b28562000447565b8301826200054c565b50505b505050565b600082821c905092915050565b6000620005e360001984600802620005c3565b1980831691505092915050565b6000620005fe8383620005d0565b9150826002028217905092915050565b6200061982620003c3565b67ffffffffffffffff811115620006355762000634620001da565b5b620006418254620003fd565b6200064e82828562000573565b600060209050601f83116001811462000686576000841562000671578287015190505b6200067d8582620005f0565b865550620006ed565b601f198416620006968662000432565b60005b82811015620006c05784890151825560018201915060208501945060208101905062000699565b86831015620006e05784890151620006dc601f891682620005d0565b8355505b6001600288020188555050505b505050505050565b6136aa80620007056000396000f3fe6080604052600436106101665760003560e01c80636352211e116100d1578063a22cb4651161008a578063c8f47c9a11610064578063c8f47c9a14610552578063d0bbb0d71461056e578063e985e9c514610599578063f2fde38b146105d657610166565b8063a22cb465146104c3578063b88d4fde146104ec578063c87b56dd1461051557610166565b80636352211e146103b157806365372147146103ee57806370a0823114610419578063715018a6146104565780638da5cb5b1461046d57806395d89b411461049857610166565b80631a4231a4116101235780631a4231a41461028f57806323b872dd146102ba57806325d112a9146102e35780632f745c591461030e57806342842e0e1461034b5780634f6ccce71461037457610166565b806301ffc9a71461016b57806306fdde03146101a8578063081812fc146101d3578063095ea7b3146102105780630ee2cb101461023957806318160ddd14610264575b600080fd5b34801561017757600080fd5b50610192600480360381019061018d91906121e1565b6105ff565b60405161019f9190612229565b60405180910390f35b3480156101b457600080fd5b506101bd610679565b6040516101ca91906122d4565b60405180910390f35b3480156101df57600080fd5b506101fa60048036038101906101f5919061232c565b61070b565b604051610207919061239a565b60405180910390f35b34801561021c57600080fd5b50610237600480360381019061023291906123e1565b610751565b005b34801561024557600080fd5b5061024e610868565b60405161025b9190612442565b60405180910390f35b34801561027057600080fd5b50610279610892565b604051610286919061246c565b60405180910390f35b34801561029b57600080fd5b506102a461089f565b6040516102b1919061246c565b60405180910390f35b3480156102c657600080fd5b506102e160048036038101906102dc9190612487565b6108a5565b005b3480156102ef57600080fd5b506102f8610905565b604051610305919061246c565b60405180910390f35b34801561031a57600080fd5b50610335600480360381019061033091906123e1565b61090f565b604051610342919061246c565b60405180910390f35b34801561035757600080fd5b50610372600480360381019061036d9190612487565b6109b4565b005b34801561038057600080fd5b5061039b6004803603810190610396919061232c565b6109d4565b6040516103a8919061246c565b60405180910390f35b3480156103bd57600080fd5b506103d860048036038101906103d3919061232c565b610a45565b6040516103e5919061239a565b60405180910390f35b3480156103fa57600080fd5b50610403610acb565b604051610410919061246c565b60405180910390f35b34801561042557600080fd5b50610440600480360381019061043b91906124da565b610ad1565b60405161044d919061246c565b60405180910390f35b34801561046257600080fd5b5061046b610b88565b005b34801561047957600080fd5b50610482610b9c565b60405161048f919061239a565b60405180910390f35b3480156104a457600080fd5b506104ad610bc6565b6040516104ba91906122d4565b60405180910390f35b3480156104cf57600080fd5b506104ea60048036038101906104e59190612533565b610c58565b005b3480156104f857600080fd5b50610513600480360381019061050e91906126a8565b610c6e565b005b34801561052157600080fd5b5061053c6004803603810190610537919061232c565b610cd0565b60405161054991906122d4565b60405180910390f35b61056c600480360381019061056791906127cc565b610de2565b005b34801561057a57600080fd5b50610583610eb2565b604051610590919061246c565b60405180910390f35b3480156105a557600080fd5b506105c060048036038101906105bb9190612815565b610eb7565b6040516105cd9190612229565b60405180910390f35b3480156105e257600080fd5b506105fd60048036038101906105f891906124da565b610f4b565b005b60007f780e9d63000000000000000000000000000000000000000000000000000000007bffffffffffffffffffffffffffffffffffffffffffffffffffffffff1916827bffffffffffffffffffffffffffffffffffffffffffffffffffffffff19161480610672575061067182610fce565b5b9050919050565b60606000805461068890612884565b80601f01602080910402602001604051908101604052809291908181526020018280546106b490612884565b80156107015780601f106106d657610100808354040283529160200191610701565b820191906000526020600020905b8154815290600101906020018083116106e457829003601f168201915b5050505050905090565b6000610716826110b0565b6004600083815260200190815260200160002060009054906101000a900473ffffffffffffffffffffffffffffffffffffffff169050919050565b600061075c82610a45565b90508073ffffffffffffffffffffffffffffffffffffffff168373ffffffffffffffffffffffffffffffffffffffff16036107cc576040517f08c379a00000000000000000000000000000000000000000000000000000000081526004016107c390612927565b60405180910390fd5b8073ffffffffffffffffffffffffffffffffffffffff166107eb6110fb565b73ffffffffffffffffffffffffffffffffffffffff16148061081a5750610819816108146110fb565b610eb7565b5b610859576040517f08c379a0000000000000000000000000000000000000000000000000000000008152600401610850906129b9565b60405180910390fd5b6108638383611103565b505050565b6000600e60009054906101000a900473ffffffffffffffffffffffffffffffffffffffff16905090565b6000600880549050905090565b600c5481565b6108b66108b06110fb565b826111bc565b6108f5576040517f08c379a00000000000000000000000000000000000000000000000000000000081526004016108ec90612a4b565b60405180910390fd5b610900838383611251565b505050565b6000600f54905090565b600061091a83610ad1565b821061095b576040517f08c379a000000000000000000000000000000000000000000000000000000000815260040161095290612add565b60405180910390fd5b600660008473ffffffffffffffffffffffffffffffffffffffff1673ffffffffffffffffffffffffffffffffffffffff168152602001908152602001600020600083815260200190815260200160002054905092915050565b6109cf83838360405180602001604052806000815250610c6e565b505050565b60006109de610892565b8210610a1f576040517f08c379a0000000000000000000000000000000000000000000000000000000008152600401610a1690612b6f565b60405180910390fd5b60088281548110610a3357610a32612b8f565b5b90600052602060002001549050919050565b600080610a518361154a565b9050600073ffffffffffffffffffffffffffffffffffffffff168173ffffffffffffffffffffffffffffffffffffffff1603610ac2576040517f08c379a0000000000000000000000000000000000000000000000000000000008152600401610ab990612c0a565b60405180910390fd5b80915050919050565b600b5481565b60008073ffffffffffffffffffffffffffffffffffffffff168273ffffffffffffffffffffffffffffffffffffffff1603610b41576040517f08c379a0000000000000000000000000000000000000000000000000000000008152600401610b3890612c9c565b60405180910390fd5b600360008373ffffffffffffffffffffffffffffffffffffffff1673ffffffffffffffffffffffffffffffffffffffff168152602001908152602001600020549050919050565b610b90611587565b610b9a6000611605565b565b6000600a60009054906101000a900473ffffffffffffffffffffffffffffffffffffffff16905090565b606060018054610bd590612884565b80601f0160208091040260200160405190810160405280929190818152602001828054610c0190612884565b8015610c4e5780601f10610c2357610100808354040283529160200191610c4e565b820191906000526020600020905b815481529060010190602001808311610c3157829003601f168201915b5050505050905090565b610c6a610c636110fb565b83836116cb565b5050565b610c7f610c796110fb565b836111bc565b610cbe576040517f08c379a0000000000000000000000000000000000000000000000000000000008152600401610cb590612a4b565b60405180910390fd5b610cca84848484611837565b50505050565b6060610cdb82611893565b610d1a576040517f08c379a0000000000000000000000000000000000000000000000000000000008152600401610d1190612d08565b60405180910390fd5b6000600d60008481526020019081526020016000208054610d3a90612884565b80601f0160208091040260200160405190810160405280929190818152602001828054610d6690612884565b8015610db35780601f10610d8857610100808354040283529160200191610db3565b820191906000526020600020905b815481529060010190602001808311610d9657829003601f168201915b5050505050905080604051602001610dcb9190612d64565b604051602081830303815290604052915050919050565b600c54341015610df157600080fd5b610df9610892565b606411610e0557600080fd5b600f6000815480929190610e1890612daa565b919050555060006001610e29610892565b610e339190612df2565b905081600d60008381526020019081526020016000209081610e559190612fd2565b50610e5e610b9c565b73ffffffffffffffffffffffffffffffffffffffff166108fc349081150290604051600060405180830381858888f19350505050158015610ea3573d6000803e3d6000fd5b50610eae33826118d4565b5050565b606481565b6000600560008473ffffffffffffffffffffffffffffffffffffffff1673ffffffffffffffffffffffffffffffffffffffff16815260200190815260200160002060008373ffffffffffffffffffffffffffffffffffffffff1673ffffffffffffffffffffffffffffffffffffffff16815260200190815260200160002060009054906101000a900460ff16905092915050565b610f53611587565b600073ffffffffffffffffffffffffffffffffffffffff168173ffffffffffffffffffffffffffffffffffffffff1603610fc2576040517f08c379a0000000000000000000000000000000000000000000000000000000008152600401610fb990613116565b60405180910390fd5b610fcb81611605565b50565b60007f80ac58cd000000000000000000000000000000000000000000000000000000007bffffffffffffffffffffffffffffffffffffffffffffffffffffffff1916827bffffffffffffffffffffffffffffffffffffffffffffffffffffffff1916148061109957507f5b5e139f000000000000000000000000000000000000000000000000000000007bffffffffffffffffffffffffffffffffffffffffffffffffffffffff1916827bffffffffffffffffffffffffffffffffffffffffffffffffffffffff1916145b806110a957506110a882611af1565b5b9050919050565b6110b981611893565b6110f8576040517f08c379a00000000000000000000000000000000000000000000000000000000081526004016110ef90612c0a565b60405180910390fd5b50565b600033905090565b816004600083815260200190815260200160002060006101000a81548173ffffffffffffffffffffffffffffffffffffffff021916908373ffffffffffffffffffffffffffffffffffffffff160217905550808273ffffffffffffffffffffffffffffffffffffffff1661117683610a45565b73ffffffffffffffffffffffffffffffffffffffff167f8c5be1e5ebec7d5bd14f71427d1e84f3dd0314c0f7b2291e5b200ac8c7c3b92560405160405180910390a45050565b6000806111c883610a45565b90508073ffffffffffffffffffffffffffffffffffffffff168473ffffffffffffffffffffffffffffffffffffffff16148061120a57506112098185610eb7565b5b8061124857508373ffffffffffffffffffffffffffffffffffffffff166112308461070b565b73ffffffffffffffffffffffffffffffffffffffff16145b91505092915050565b8273ffffffffffffffffffffffffffffffffffffffff1661127182610a45565b73ffffffffffffffffffffffffffffffffffffffff16146112c7576040517f08c379a00000000000000000000000000000000000000000000000000000000081526004016112be906131a8565b60405180910390fd5b600073ffffffffffffffffffffffffffffffffffffffff168273ffffffffffffffffffffffffffffffffffffffff1603611336576040517f08c379a000000000000000000000000000000000000000000000000000000000815260040161132d9061323a565b60405180910390fd5b6113438383836001611b5b565b8273ffffffffffffffffffffffffffffffffffffffff1661136382610a45565b73ffffffffffffffffffffffffffffffffffffffff16146113b9576040517f08c379a00000000000000000000000000000000000000000000000000000000081526004016113b0906131a8565b60405180910390fd5b6004600082815260200190815260200160002060006101000a81549073ffffffffffffffffffffffffffffffffffffffff02191690556001600360008573ffffffffffffffffffffffffffffffffffffffff1673ffffffffffffffffffffffffffffffffffffffff168152602001908152602001600020600082825403925050819055506001600360008473ffffffffffffffffffffffffffffffffffffffff1673ffffffffffffffffffffffffffffffffffffffff16815260200190815260200160002060008282540192505081905550816002600083815260200190815260200160002060006101000a81548173ffffffffffffffffffffffffffffffffffffffff021916908373ffffffffffffffffffffffffffffffffffffffff160217905550808273ffffffffffffffffffffffffffffffffffffffff168473ffffffffffffffffffffffffffffffffffffffff167fddf252ad1be2c89b69c2b068fc378daa952ba7f163c4a11628f55a4df523b3ef60405160405180910390a46115458383836001611cb9565b505050565b60006002600083815260200190815260200160002060009054906101000a900473ffffffffffffffffffffffffffffffffffffffff169050919050565b61158f6110fb565b73ffffffffffffffffffffffffffffffffffffffff166115ad610b9c565b73ffffffffffffffffffffffffffffffffffffffff1614611603576040517f08c379a00000000000000000000000000000000000000000000000000000000081526004016115fa906132a6565b60405180910390fd5b565b6000600a60009054906101000a900473ffffffffffffffffffffffffffffffffffffffff16905081600a60006101000a81548173ffffffffffffffffffffffffffffffffffffffff021916908373ffffffffffffffffffffffffffffffffffffffff1602179055508173ffffffffffffffffffffffffffffffffffffffff168173ffffffffffffffffffffffffffffffffffffffff167f8be0079c531659141344cd1fd0a4f28419497f9722a3daafe3b4186f6b6457e060405160405180910390a35050565b8173ffffffffffffffffffffffffffffffffffffffff168373ffffffffffffffffffffffffffffffffffffffff1603611739576040517f08c379a000000000000000000000000000000000000000000000000000000000815260040161173090613312565b60405180910390fd5b80600560008573ffffffffffffffffffffffffffffffffffffffff1673ffffffffffffffffffffffffffffffffffffffff16815260200190815260200160002060008473ffffffffffffffffffffffffffffffffffffffff1673ffffffffffffffffffffffffffffffffffffffff16815260200190815260200160002060006101000a81548160ff0219169083151502179055508173ffffffffffffffffffffffffffffffffffffffff168373ffffffffffffffffffffffffffffffffffffffff167f17307eab39ab6107e8899845ad3d59bd9653f200f220920489ca2b5937696c318360405161182a9190612229565b60405180910390a3505050565b611842848484611251565b61184e84848484611cbf565b61188d576040517f08c379a0000000000000000000000000000000000000000000000000000000008152600401611884906133a4565b60405180910390fd5b50505050565b60008073ffffffffffffffffffffffffffffffffffffffff166118b58361154a565b73ffffffffffffffffffffffffffffffffffffffff1614159050919050565b600073ffffffffffffffffffffffffffffffffffffffff168273ffffffffffffffffffffffffffffffffffffffff1603611943576040517f08c379a000000000000000000000000000000000000000000000000000000000815260040161193a90613410565b60405180910390fd5b61194c81611893565b1561198c576040517f08c379a00000000000000000000000000000000000000000000000000000000081526004016119839061347c565b60405180910390fd5b61199a600083836001611b5b565b6119a381611893565b156119e3576040517f08c379a00000000000000000000000000000000000000000000000000000000081526004016119da9061347c565b60405180910390fd5b6001600360008473ffffffffffffffffffffffffffffffffffffffff1673ffffffffffffffffffffffffffffffffffffffff16815260200190815260200160002060008282540192505081905550816002600083815260200190815260200160002060006101000a81548173ffffffffffffffffffffffffffffffffffffffff021916908373ffffffffffffffffffffffffffffffffffffffff160217905550808273ffffffffffffffffffffffffffffffffffffffff16600073ffffffffffffffffffffffffffffffffffffffff167fddf252ad1be2c89b69c2b068fc378daa952ba7f163c4a11628f55a4df523b3ef60405160405180910390a4611aed600083836001611cb9565b5050565b60007f01ffc9a7000000000000000000000000000000000000000000000000000000007bffffffffffffffffffffffffffffffffffffffffffffffffffffffff1916827bffffffffffffffffffffffffffffffffffffffffffffffffffffffff1916149050919050565b611b6784848484611e46565b6001811115611bab576040517f08c379a0000000000000000000000000000000000000000000000000000000008152600401611ba29061350e565b60405180910390fd5b6000829050600073ffffffffffffffffffffffffffffffffffffffff168573ffffffffffffffffffffffffffffffffffffffff1603611bf257611bed81611e4c565b611c31565b8373ffffffffffffffffffffffffffffffffffffffff168573ffffffffffffffffffffffffffffffffffffffff1614611c3057611c2f8582611e95565b5b5b600073ffffffffffffffffffffffffffffffffffffffff168473ffffffffffffffffffffffffffffffffffffffff1603611c7357611c6e81612002565b611cb2565b8473ffffffffffffffffffffffffffffffffffffffff168473ffffffffffffffffffffffffffffffffffffffff1614611cb157611cb084826120d3565b5b5b5050505050565b50505050565b6000611ce08473ffffffffffffffffffffffffffffffffffffffff16612152565b15611e39578373ffffffffffffffffffffffffffffffffffffffff1663150b7a02611d096110fb565b8786866040518563ffffffff1660e01b8152600401611d2b9493929190613583565b6020604051808303816000875af1925050508015611d6757506040513d601f19601f82011682018060405250810190611d6491906135e4565b60015b611de9573d8060008114611d97576040519150601f19603f3d011682016040523d82523d6000602084013e611d9c565b606091505b506000815103611de1576040517f08c379a0000000000000000000000000000000000000000000000000000000008152600401611dd8906133a4565b60405180910390fd5b805181602001fd5b63150b7a0260e01b7bffffffffffffffffffffffffffffffffffffffffffffffffffffffff1916817bffffffffffffffffffffffffffffffffffffffffffffffffffffffff191614915050611e3e565b600190505b949350505050565b50505050565b6008805490506009600083815260200190815260200160002081905550600881908060018154018082558091505060019003906000526020600020016000909190919091505550565b60006001611ea284610ad1565b611eac9190613611565b9050600060076000848152602001908152602001600020549050818114611f91576000600660008673ffffffffffffffffffffffffffffffffffffffff1673ffffffffffffffffffffffffffffffffffffffff168152602001908152602001600020600084815260200190815260200160002054905080600660008773ffffffffffffffffffffffffffffffffffffffff1673ffffffffffffffffffffffffffffffffffffffff168152602001908152602001600020600084815260200190815260200160002081905550816007600083815260200190815260200160002081905550505b6007600084815260200190815260200160002060009055600660008573ffffffffffffffffffffffffffffffffffffffff1673ffffffffffffffffffffffffffffffffffffffff16815260200190815260200160002060008381526020019081526020016000206000905550505050565b600060016008805490506120169190613611565b905060006009600084815260200190815260200160002054905060006008838154811061204657612045612b8f565b5b90600052602060002001549050806008838154811061206857612067612b8f565b5b9060005260206000200181905550816009600083815260200190815260200160002081905550600960008581526020019081526020016000206000905560088054806120b7576120b6613645565b5b6001900381819060005260206000200160009055905550505050565b60006120de83610ad1565b905081600660008573ffffffffffffffffffffffffffffffffffffffff1673ffffffffffffffffffffffffffffffffffffffff168152602001908152602001600020600083815260200190815260200160002081905550806007600084815260200190815260200160002081905550505050565b6000808273ffffffffffffffffffffffffffffffffffffffff163b119050919050565b6000604051905090565b600080fd5b600080fd5b60007fffffffff0000000000000000000000000000000000000000000000000000000082169050919050565b6121be81612189565b81146121c957600080fd5b50565b6000813590506121db816121b5565b92915050565b6000602082840312156121f7576121f661217f565b5b6000612205848285016121cc565b91505092915050565b60008115159050919050565b6122238161220e565b82525050565b600060208201905061223e600083018461221a565b92915050565b600081519050919050565b600082825260208201905092915050565b60005b8381101561227e578082015181840152602081019050612263565b60008484015250505050565b6000601f19601f8301169050919050565b60006122a682612244565b6122b0818561224f565b93506122c0818560208601612260565b6122c98161228a565b840191505092915050565b600060208201905081810360008301526122ee818461229b565b905092915050565b6000819050919050565b612309816122f6565b811461231457600080fd5b50565b60008135905061232681612300565b92915050565b6000602082840312156123425761234161217f565b5b600061235084828501612317565b91505092915050565b600073ffffffffffffffffffffffffffffffffffffffff82169050919050565b600061238482612359565b9050919050565b61239481612379565b82525050565b60006020820190506123af600083018461238b565b92915050565b6123be81612379565b81146123c957600080fd5b50565b6000813590506123db816123b5565b92915050565b600080604083850312156123f8576123f761217f565b5b6000612406858286016123cc565b925050602061241785828601612317565b9150509250929050565b600061242c82612359565b9050919050565b61243c81612421565b82525050565b60006020820190506124576000830184612433565b92915050565b612466816122f6565b82525050565b6000602082019050612481600083018461245d565b92915050565b6000806000606084860312156124a05761249f61217f565b5b60006124ae868287016123cc565b93505060206124bf868287016123cc565b92505060406124d086828701612317565b9150509250925092565b6000602082840312156124f0576124ef61217f565b5b60006124fe848285016123cc565b91505092915050565b6125108161220e565b811461251b57600080fd5b50565b60008135905061252d81612507565b92915050565b6000806040838503121561254a5761254961217f565b5b6000612558858286016123cc565b92505060206125698582860161251e565b9150509250929050565b600080fd5b600080fd5b7f4e487b7100000000000000000000000000000000000000000000000000000000600052604160045260246000fd5b6125b58261228a565b810181811067ffffffffffffffff821117156125d4576125d361257d565b5b80604052505050565b60006125e7612175565b90506125f382826125ac565b919050565b600067ffffffffffffffff8211156126135761261261257d565b5b61261c8261228a565b9050602081019050919050565b82818337600083830152505050565b600061264b612646846125f8565b6125dd565b90508281526020810184848401111561266757612666612578565b5b612672848285612629565b509392505050565b600082601f83011261268f5761268e612573565b5b813561269f848260208601612638565b91505092915050565b600080600080608085870312156126c2576126c161217f565b5b60006126d0878288016123cc565b94505060206126e1878288016123cc565b93505060406126f287828801612317565b925050606085013567ffffffffffffffff81111561271357612712612184565b5b61271f8782880161267a565b91505092959194509250565b600067ffffffffffffffff8211156127465761274561257d565b5b61274f8261228a565b9050602081019050919050565b600061276f61276a8461272b565b6125dd565b90508281526020810184848401111561278b5761278a612578565b5b612796848285612629565b509392505050565b600082601f8301126127b3576127b2612573565b5b81356127c384826020860161275c565b91505092915050565b6000602082840312156127e2576127e161217f565b5b600082013567ffffffffffffffff811115612800576127ff612184565b5b61280c8482850161279e565b91505092915050565b6000806040838503121561282c5761282b61217f565b5b600061283a858286016123cc565b925050602061284b858286016123cc565b9150509250929050565b7f4e487b7100000000000000000000000000000000000000000000000000000000600052602260045260246000fd5b6000600282049050600182168061289c57607f821691505b6020821081036128af576128ae612855565b5b50919050565b7f4552433732313a20617070726f76616c20746f2063757272656e74206f776e6560008201527f7200000000000000000000000000000000000000000000000000000000000000602082015250565b600061291160218361224f565b915061291c826128b5565b604082019050919050565b6000602082019050818103600083015261294081612904565b9050919050565b7f4552433732313a20617070726f76652063616c6c6572206973206e6f7420746f60008201527f6b656e206f776e6572206f7220617070726f76656420666f7220616c6c000000602082015250565b60006129a3603d8361224f565b91506129ae82612947565b604082019050919050565b600060208201905081810360008301526129d281612996565b9050919050565b7f4552433732313a2063616c6c6572206973206e6f7420746f6b656e206f776e6560008201527f72206f7220617070726f76656400000000000000000000000000000000000000602082015250565b6000612a35602d8361224f565b9150612a40826129d9565b604082019050919050565b60006020820190508181036000830152612a6481612a28565b9050919050565b7f455243373231456e756d657261626c653a206f776e657220696e646578206f7560008201527f74206f6620626f756e6473000000000000000000000000000000000000000000602082015250565b6000612ac7602b8361224f565b9150612ad282612a6b565b604082019050919050565b60006020820190508181036000830152612af681612aba565b9050919050565b7f455243373231456e756d657261626c653a20676c6f62616c20696e646578206f60008201527f7574206f6620626f756e64730000000000000000000000000000000000000000602082015250565b6000612b59602c8361224f565b9150612b6482612afd565b604082019050919050565b60006020820190508181036000830152612b8881612b4c565b9050919050565b7f4e487b7100000000000000000000000000000000000000000000000000000000600052603260045260246000fd5b7f4552433732313a20696e76616c696420746f6b656e2049440000000000000000600082015250565b6000612bf460188361224f565b9150612bff82612bbe565b602082019050919050565b60006020820190508181036000830152612c2381612be7565b9050919050565b7f4552433732313a2061646472657373207a65726f206973206e6f74206120766160008201527f6c6964206f776e65720000000000000000000000000000000000000000000000602082015250565b6000612c8660298361224f565b9150612c9182612c2a565b604082019050919050565b60006020820190508181036000830152612cb581612c79565b9050919050565b7f746f6b656e206e6f7420666f756e640000000000000000000000000000000000600082015250565b6000612cf2600f8361224f565b9150612cfd82612cbc565b602082019050919050565b60006020820190508181036000830152612d2181612ce5565b9050919050565b600081905092915050565b6000612d3e82612244565b612d488185612d28565b9350612d58818560208601612260565b80840191505092915050565b6000612d708284612d33565b915081905092915050565b7f4e487b7100000000000000000000000000000000000000000000000000000000600052601160045260246000fd5b6000612db5826122f6565b91507fffffffffffffffffffffffffffffffffffffffffffffffffffffffffffffffff8203612de757612de6612d7b565b5b600182019050919050565b6000612dfd826122f6565b9150612e08836122f6565b9250828201905080821115612e2057612e1f612d7b565b5b92915050565b60008190508160005260206000209050919050565b60006020601f8301049050919050565b600082821b905092915050565b600060088302612e887fffffffffffffffffffffffffffffffffffffffffffffffffffffffffffffffff82612e4b565b612e928683612e4b565b95508019841693508086168417925050509392505050565b6000819050919050565b6000612ecf612eca612ec5846122f6565b612eaa565b6122f6565b9050919050565b6000819050919050565b612ee983612eb4565b612efd612ef582612ed6565b848454612e58565b825550505050565b600090565b612f12612f05565b612f1d818484612ee0565b505050565b5b81811015612f4157612f36600082612f0a565b600181019050612f23565b5050565b601f821115612f8657612f5781612e26565b612f6084612e3b565b81016020851015612f6f578190505b612f83612f7b85612e3b565b830182612f22565b50505b505050565b600082821c905092915050565b6000612fa960001984600802612f8b565b1980831691505092915050565b6000612fc28383612f98565b9150826002028217905092915050565b612fdb82612244565b67ffffffffffffffff811115612ff457612ff361257d565b5b612ffe8254612884565b613009828285612f45565b600060209050601f83116001811461303c576000841561302a578287015190505b6130348582612fb6565b86555061309c565b601f19841661304a86612e26565b60005b828110156130725784890151825560018201915060208501945060208101905061304d565b8683101561308f578489015161308b601f891682612f98565b8355505b6001600288020188555050505b505050505050565b7f4f776e61626c653a206e6577206f776e657220697320746865207a65726f206160008201527f6464726573730000000000000000000000000000000000000000000000000000602082015250565b600061310060268361224f565b915061310b826130a4565b604082019050919050565b6000602082019050818103600083015261312f816130f3565b9050919050565b7f4552433732313a207472616e736665722066726f6d20696e636f72726563742060008201527f6f776e6572000000000000000000000000000000000000000000000000000000602082015250565b600061319260258361224f565b915061319d82613136565b604082019050919050565b600060208201905081810360008301526131c181613185565b9050919050565b7f4552433732313a207472616e7366657220746f20746865207a65726f2061646460008201527f7265737300000000000000000000000000000000000000000000000000000000602082015250565b600061322460248361224f565b915061322f826131c8565b604082019050919050565b6000602082019050818103600083015261325381613217565b9050919050565b7f4f776e61626c653a2063616c6c6572206973206e6f7420746865206f776e6572600082015250565b600061329060208361224f565b915061329b8261325a565b602082019050919050565b600060208201905081810360008301526132bf81613283565b9050919050565b7f4552433732313a20617070726f766520746f2063616c6c657200000000000000600082015250565b60006132fc60198361224f565b9150613307826132c6565b602082019050919050565b6000602082019050818103600083015261332b816132ef565b9050919050565b7f4552433732313a207472616e7366657220746f206e6f6e20455243373231526560008201527f63656976657220696d706c656d656e7465720000000000000000000000000000602082015250565b600061338e60328361224f565b915061339982613332565b604082019050919050565b600060208201905081810360008301526133bd81613381565b9050919050565b7f4552433732313a206d696e7420746f20746865207a65726f2061646472657373600082015250565b60006133fa60208361224f565b9150613405826133c4565b602082019050919050565b60006020820190508181036000830152613429816133ed565b9050919050565b7f4552433732313a20746f6b656e20616c7265616479206d696e74656400000000600082015250565b6000613466601c8361224f565b915061347182613430565b602082019050919050565b6000602082019050818103600083015261349581613459565b9050919050565b7f455243373231456e756d657261626c653a20636f6e736563757469766520747260008201527f616e7366657273206e6f7420737570706f727465640000000000000000000000602082015250565b60006134f860358361224f565b91506135038261349c565b604082019050919050565b60006020820190508181036000830152613527816134eb565b9050919050565b600081519050919050565b600082825260208201905092915050565b60006135558261352e565b61355f8185613539565b935061356f818560208601612260565b6135788161228a565b840191505092915050565b6000608082019050613598600083018761238b565b6135a5602083018661238b565b6135b2604083018561245d565b81810360608301526135c4818461354a565b905095945050505050565b6000815190506135de816121b5565b92915050565b6000602082840312156135fa576135f961217f565b5b6000613608848285016135cf565b91505092915050565b600061361c826122f6565b9150613627836122f6565b925082820390508181111561363f5761363e612d7b565b5b92915050565b7f4e487b7100000000000000000000000000000000000000000000000000000000600052603160045260246000fdfea26469706673582212204733b6473c8d02492aaed01f23d41e03936a4ac5cead7a8873d2b6f40fba563864736f6c63430008120033",
  "immutableReferences": {},
  "source": "// SPDX-License-Identifier: MIT\npragma solidity ^0.8.1;\n\nimport \"../node_modules/@openzeppelin/contracts/token/ERC721/extensions/ERC721Enumerable.sol\";\nimport \"../node_modules/@openzeppelin/contracts/access/Ownable.sol\";\nimport \"../node_modules/@openzeppelin/contracts/utils/Strings.sol\";\n\ncontract RTToken is ERC721Enumerable, Ownable {\n    uint256 public result = 1;\n    uint256 public mint_price = 0.05 * (10 ** 18); // 0.05 matic\n    uint256 constant public MAX_TOKEN_COUNT = 100;\n\n    constructor (string memory _name, string memory _symbol) ERC721(_name, _symbol) {\n        contractCreator = msg.sender;\n    }\n\n    mapping(uint256 => string) private _tokenURIs;\n    address private contractCreator;\n    uint256 private latestTokenId = 0;\n\n    function getCreator() public view returns (address payable) {\n        return payable(contractCreator);\n    }\n\n    function _minting(string memory ipfsHash) public payable {\n        require(msg.value >= mint_price);\n        require(MAX_TOKEN_COUNT > ERC721Enumerable.totalSupply());\n\n        latestTokenId++;\n        uint256 tokenId = ERC721Enumerable.totalSupply() + 1;\n\n        _tokenURIs[tokenId] = ipfsHash;\n\n        payable(Ownable.owner()).transfer(msg.value);\n        _mint(msg.sender, tokenId);\n    }\n\n    function tokenURI(uint256 tokenId) public view override returns (string memory) {\n        require(_exists(tokenId), \"token not found\");\n\n        string memory ipfsHash = _tokenURIs[tokenId];\n        return string(abi.encodePacked(ipfsHash));\n    }\n\n    function getLatestTokenId() public view returns (uint256) {\n        return latestTokenId;\n    }\n}\n",
  "sourcePath": "/Users/kimjh/Documents/workspace/ZDB/rooftop/nft/contracts/RTToken.sol",
  "compiler": {
    "name": "solc",
    "version": "0.8.18+commit.87f61d96.Emscripten.clang"
  },
  "schemaVersion": "3.4.14",
  "updatedAt": "2023-06-27T07:58:52.955Z",
  "networkType": "ethereum",
  "devdoc": {
    "events": {
      "Approval(address,address,uint256)": {
        "details": "Emitted when `owner` enables `approved` to manage the `tokenId` token."
      },
      "ApprovalForAll(address,address,bool)": {
        "details": "Emitted when `owner` enables or disables (`approved`) `operator` to manage all of its assets."
      },
      "Transfer(address,address,uint256)": {
        "details": "Emitted when `tokenId` token is transferred from `from` to `to`."
      }
    },
    "kind": "dev",
    "methods": {
      "approve(address,uint256)": {
        "details": "See {IERC721-approve}."
      },
      "balanceOf(address)": {
        "details": "See {IERC721-balanceOf}."
      },
      "getApproved(uint256)": {
        "details": "See {IERC721-getApproved}."
      },
      "isApprovedForAll(address,address)": {
        "details": "See {IERC721-isApprovedForAll}."
      },
      "name()": {
        "details": "See {IERC721Metadata-name}."
      },
      "owner()": {
        "details": "Returns the address of the current owner."
      },
      "ownerOf(uint256)": {
        "details": "See {IERC721-ownerOf}."
      },
      "renounceOwnership()": {
        "details": "Leaves the contract without owner. It will not be possible to call `onlyOwner` functions. Can only be called by the current owner. NOTE: Renouncing ownership will leave the contract without an owner, thereby disabling any functionality that is only available to the owner."
      },
      "safeTransferFrom(address,address,uint256)": {
        "details": "See {IERC721-safeTransferFrom}."
      },
      "safeTransferFrom(address,address,uint256,bytes)": {
        "details": "See {IERC721-safeTransferFrom}."
      },
      "setApprovalForAll(address,bool)": {
        "details": "See {IERC721-setApprovalForAll}."
      },
      "supportsInterface(bytes4)": {
        "details": "See {IERC165-supportsInterface}."
      },
      "symbol()": {
        "details": "See {IERC721Metadata-symbol}."
      },
      "tokenByIndex(uint256)": {
        "details": "See {IERC721Enumerable-tokenByIndex}."
      },
      "tokenOfOwnerByIndex(address,uint256)": {
        "details": "See {IERC721Enumerable-tokenOfOwnerByIndex}."
      },
      "tokenURI(uint256)": {
        "details": "See {IERC721Metadata-tokenURI}."
      },
      "totalSupply()": {
        "details": "See {IERC721Enumerable-totalSupply}."
      },
      "transferFrom(address,address,uint256)": {
        "details": "See {IERC721-transferFrom}."
      },
      "transferOwnership(address)": {
        "details": "Transfers ownership of the contract to a new account (`newOwner`). Can only be called by the current owner."
      }
    },
    "version": 1
  },
  "userdoc": {
    "kind": "user",
    "methods": {},
    "version": 1
  }
}